:100000000C94B5130C94E6130C94E6130C94E613BD
:100010000C94E6130C94E6130C94E6130C94E6137C
:100020000C94E6130C94E6130C94E6130C94E6136C
:100030000C94E6130C94E6130C94E6130C94E6135C
:100040000C94E6130C94628B0C94E6130C94E61358
:100050000C94E6130C94E6130C942C7E0C94D66C42
:100060000C94E6130C94CD890C94E6130C94E613CF
:100070000C94E6130C94E6130C94E6130C94E6131C
:100080000C94E6130C94E6130C94E6130C94E6130C
:100090000C94E6130C94E6130C94E6130C94E613FC
:1000A0000C94E6130C94E6130C94E6130C94E613EC
:1000B0000C94E6130C94E6130C94E6130C94E613DC
:1000C0000C94E6130C94E6130C94E6130C94E613CC
:1000D0000C94E6130C94E6130C94E6130C94E613BC
:1000E0000C94E613AD55B055B755BA55BE55B45539
:1000F000C155C455C855CB55CE55D255D555D855F3
:10010000B455DC55DF55E2551558345853587658D8
:100110009958385ABC58DD58FE58215944596759E6
:100120008A59AD59385AD059F359165A356B386B2C
:10013000276B2B6B316B6F6B3C6B406B466B4A6B69
:100140004E6B546B586B5C6B6F6B626B666B6A6B60
:10015000D36BD86BDD6BE76BF16B6A6CFB6B036C7D
:100160000B6C156C1F6C296C386C426C6A6C4C6C97
:10017000566C606C084AD73B3BCE016E84BCBFFD19
:10018000C12F3D6C74319ABD56833DDA3D00C77F67
:1001900011BED9E4BB4C3E916BAAAABE0000008000
:1001A0003F05A84CCDB2D44EB93836A9020C50B98F
:1001B000918688083CA6AAAA2ABE000000803F00BB
:1001C0004E414E494E495459494E46CDCCCC3D0A3C
:1001D000D7233C17B7D13877CC2B329595E6241F1F
:1001E000B14F0A000020410000C84200401C4620D8
:1001F000BCBE4CCA1B0E5AAEC59D74434F4D4D55E7
:100200004E49434154494F4E0044525952554E00B5
:100210004552524F525300494E464F004543484FB6
:100220000020746F6F206C6F6E6720657874727534
:1002300073696F6E2070726576656E7465640A000E
:1002400020636F6C6420657874727573696F6E20BB
:1002500070726576656E7465640A00205A3A2000F3
:1002600020593A200042656420583A2000446F6EBD
:10027000652E0A0061626C65640A0064697300653A
:100280006E00656E6473746F70206D6F6E69746F4D
:100290007220005761746368696E672070696E73BD
:1002A0000A003D003F2061646472657373203A2048
:1002B00000206279746573206F66206D656D6F72C2
:1002C0007920696E697469616C697A65642E0A0ABD
:1002D00000556E61626C6520746F20696E69746987
:1002E000616C697A652E0A0A00496E697469616CED
:1002F000697A696E672066726565206D656D6F72DB
:100300007920626C6F636B2E0A0A0A00747275653D
:100310000A002072657475726E3D000A4D656D6F3E
:10032000727920436F7272757074696F6E206465A4
:1003300074656374656420696E2066726565206DFE
:10034000656D6F727920617265612E0A00202062EE
:100350006C6F636B5F666F756E643D0020202000DC
:100360002920666F756E643D002028002073702080
:100370003C204865617020002073703D000A5F5F7B
:100380006273735F656E643A20003D000A265F5F0A
:1003900062726B76616C3A20000A666D63282920D0
:1003A0006E3D00636865636B5F666F725F66726562
:1003B000655F6D656D6F72795F636F727275707472
:1003C000696F6E2829203D200020627974657320B2
:1003D000617420000A4C61726765737420667265EF
:1003E0006520626C6F636B20697320000A4D656D38
:1003F0006F727920436F7272757074696F6E2064CA
:100400006574656374656420696E20667265652035
:100410006D656D6F727920617265612E0A002062D0
:100420007974657320667265652061742000466F7B
:10043000756E6420000A436F7272757074696E671E
:1004400020616464726573733A2000436F72727541
:100450007074696E672066726565206D656D6F7278
:100460007920626C6F636B2E0A0A000A5374616311
:100470006B20506F696E746572203A20000A7374A5
:10048000617274206F6620667265652073706163A7
:1004900065203A20000A5F5F6273735F656E6420B7
:1004A0003A20000A5F5F62726B76616C203A20002E
:1004B0001C02170210020902FB016F666600444528
:1004C0004255473A004B494C4C45442E20004D3193
:1004D00031332053006F6B0020573A0020573A0009
:1004E00050533A310A0050533A300A002C20002C65
:1004F0002000544845524D414C5F50524F544543A3
:1005000054494F4E004155544F5245504F52545F3D
:1005100053445F53544154555300454D455247454C
:100520004E43595F50415253455200434153455F3A
:100530004C494748545F4252494748544E455353EB
:1005400000544F47474C455F4C494748545300536C
:100550004F4654574152455F504F57455200425500
:10056000494C445F50455243454E54004C45564516
:100570004C494E475F44415441005A5F50524F42EC
:1005800045004155544F4C4556454C005052494E3C
:10059000545F4A4F420050524F4752455353004117
:1005A00055544F5245504F52545F54454D5000568C
:1005B0004F4C554D455452494300454550524F4DBF
:1005C0000053455249414C5F584F4E5F584F464685
:1005D000004649524D574152455F4E414D453A4DB7
:1005E00061726C696E20312E312E39202847697472
:1005F0006875622920534F555243455F434F444528
:100600005F55524C3A68747470733A2F2F6769744F
:100610006875622E636F6D2F4D61726C696E4669ED
:10062000726D776172652F4D61726C696E205052E8
:100630004F544F434F4C5F56455253494F4E3A31FA
:100640002E30204D414348494E455F545950453A5C
:100650004D6164203344205072696E746572204588
:10066000585452554445525F434F554E543A3120E9
:10067000555549443A63656465326132662D3431BB
:1006800061322D343734382D396231322D633535AE
:100690006336326633363766660A002F2F20002015
:1006A0005400205200416363656C65726174696F28
:1006B0006E3A205000205A00205900580020204D4A
:1006C00061783A2000205A00205900580020204D1F
:1006D000696E3A20004F6E20004F666600536F66C9
:1006E0007420656E6473746F70733A200020466CDA
:1006F0006F773A200020643A0020693A0020703A6F
:1007000000496E76616C6964206578747275646501
:10071000720A0043290A0061626C656420286D69D1
:100720006E2074656D702000436F6C642065787472
:1007300072756465732061726520004B642000232C
:10074000646566696E652044454641554C545F00BA
:100750004B69200023646566696E65204445464107
:10076000554C545F004B70200023646566696E65CC
:100770002044454641554C545F0050494420417542
:10078000746F74756E652066696E6973686564213F
:100790002050757420746865206C617374204B70F0
:1007A0002C204B6920616E64204B6420636F6E7354
:1007B00074616E74732066726F6D2062656C6F7702
:1007C00020696E746F20436F6E666967757261741D
:1007D000696F6E2E680A00504944204175746F7429
:1007E000756E65206661696C6564212074696D654C
:1007F0006F75740A00453120544845524D414C20D4
:1008000052554E41574159004245442054484552A3
:100810004D414C2052554E41574159005468657224
:100820006D616C2052756E617761790045312048A9
:10083000656174696E67206661696C656400426514
:10084000642068656174696E67206661696C6564BF
:100850000048656174696E67206661696C65640053
:10086000504944204175746F74756E6520666169E6
:100870006C6564212054656D706572617475726574
:1008800020746F6F20686967680A00204B643A2003
:1008900000204B693A2000204B703A20000A204388
:1008A0006C617373696320504944200A00205475B9
:1008B0003A2000204B753A2000206D61783A2000E4
:1008C000206D696E3A200020643A20002062696140
:1008D000733A2000504944204175746F74756E65F9
:1008E000206661696C6564212042616420657874CA
:1008F0007275646572206E756D6265720A0050498A
:1009000044204175746F74756E65207374617274E0
:100910000A0020643A0020693A0020703A004E6FC5
:100920002063617365206C696768740A00416374B1
:100930006976652045787472756465723A2000495D
:100940006E76616C69642065787472756465720A8C
:1009500000486F6D696E67206661696C6564004769
:10096000322F47332062616420706172616D65745B
:100970006572730A000A0A426564204C6576656CEC
:1009800020436F7272656374696F6E204D6174727B
:1009900069783A00202B000A436F727265637465B0
:1009A0006420426564204865696768742076732E08
:1009B0002042656420546F706F6C6F67793A0A004B
:1009C000202B000A426564204865696768742054DA
:1009D0006F706F6772617068793A0A2020202B2D42
:1009E0002D2D204241434B202D2D2B0A2020207CF1
:1009F00020202020202020202020207C0A204C2085
:100A00007C20202020282B29202020207C20520AF6
:100A10002045207C20202020202020202020207CF9
:100A200020490A2046207C20282D29204E20282BD2
:100A300029207C20470A2054207C202020202020B0
:100A400020202020207C20480A2020207C202020DC
:100A500020282D29202020207C20540A2020207CA2
:100A600020202020202020202020207C0A20202040
:100A70004F2D2D2046524F4E54202D2D2B0A20282D
:100A8000302C30290A004D65616E206F662073613D
:100A90006D706C656420706F696E74733A2000200D
:100AA000643A200020623A200045716E20636F6531
:100AB0006666696369656E74733A20613A20002046
:100AC0002844525952554E290047323920417574F5
:100AD0006F20426564204C6576656C696E67003FE7
:100AE00020284C2C522C462C4229206F7574206FE4
:100AF0006620626F756E64732E0A003F50726F62DB
:100B00006520706F696E74732028592920697320DD
:100B1000696D706C61757369626C652028322D3364
:100B2000292E0A003F50726F626520706F696E74E3
:100B3000732028582920697320696D706C61757362
:100B400069626C652028322D33292E0A003F285611
:100B5000296572626F7365206C6576656C206973B8
:100B600020696D706C61757369626C652028302D29
:100B700034292E0A0020746F6F206C6F6E67206519
:100B80007874727573696F6E2070726576656E74B5
:100B900065640A0020636F6C6420657874727573F5
:100BA000696F6E2070726576656E7465640A005AAE
:100BB0005F535445505F50494E005A5F4D494E5F58
:100BC00050494E005A5F454E41424C455F50494E98
:100BD000005A5F4449525F50494E005A5F43535F89
:100BE00050494E00595F535445505F50494E00598B
:100BF0005F4D494E5F50494E00595F454E41424C52
:100C0000455F50494E00595F4449525F50494E007C
:100C1000595F43535F50494E00585F535445505FEE
:100C200050494E00585F4D494E5F50494E00585F45
:100C3000454E41424C455F50494E00585F44495231
:100C40005F50494E00585F43535F50494E00535325
:100C50005F50494E00534552564F335F50494E0046
:100C6000534552564F325F50494E00534552564FEE
:100C7000315F50494E00534552564F305F50494EF8
:100C800000534453530053434B5F50494E0052416D
:100C90004D50535F44395F50494E0052414D5053BF
:100CA0005F44385F50494E0052414D50535F4431CC
:100CB000305F50494E0050535F4F4E5F50494E00D9
:100CC0004D4F53495F50494E004D49534F5F504976
:100CD0004E004D4158363637355F5353004C45442E
:100CE0005F50494E004845415445525F4245445F7C
:100CF00050494E004845415445525F305F50494E7F
:100D00000046494C5F52554E4F55545F50494E0076
:100D100046414E5F50494E0045315F535445505F48
:100D200050494E0045315F454E41424C455F504968
:100D30004E0045315F4449525F50494E0045315F96
:100D400043535F50494E0045305F535445505F5008
:100D5000494E0045305F454E41424C455F50494E3B
:100D60000045305F4449525F50494E0045305F4373
:100D7000535F50494E00455F4D5558325F50494EC4
:100D800000455F4D5558315F50494E00455F4D5508
:100D900058305F50494E004156525F53535F50499F
:100DA0004E004156525F53434B5F50494E004156EF
:100DB000525F4D4F53495F50494E004156525F4D6F
:100DC00049534F5F50494E0054454D505F42454492
:100DD0005F50494E0054454D505F315F50494E00C1
:100DE00054454D505F305F50494E0046494C57497D
:100DF0004454485F50494E005458440052584400EF
:100E00002569730025696D202569730025696820AF
:100E100025696D202569730025696420256968208E
:100E200025696D202569730025697920256964206D
:100E30002569682025696D20256973005072696EE7
:100E4000742074696D653A2000000136372603FF6F
:100E5000FFFF353C3D380EFFFFFF312E303E12FFC5
:100E6000FFFFFF28FF0C0809FFFFFF1A1C18FFFFF8
:100E70002A08440AFF4350726F74656374656420E6
:100E800050696E0A002020206E6F6E2D7374616EA3
:100E9000646172642050574D206D6F646500433A61
:100EA0002000423A2000413A200020202020434FD9
:100EB0004D00202020636F6D7061726520696E7433
:100EC00065727275707420656E61626C6564002075
:100ED00020206F766572666C6F7720696E7465721C
:100EE0007275707420656E61626C6564003A2000F2
:100EF0002020202054494D534B00423A200020200E
:100F000020205443435200413A2000202020205406
:100F1000434352002020202043533A200020202029
:100F20002057474D3A200050574D3A202025346431
:100F30000050574D3A2020253464004700480000F7
:100F40000088008A008C00B300B400000098009A6A
:100F5000009C00A800AA00AC0028012A012C012056
:100F600020202054494D455200440045006E008029
:100F70000081006F00B000B100700090009100711E
:100F800000A000A1007200200121017300206973FC
:100F900020616C736F207469656420746F207468BD
:100FA00069732070696E0054494D45523143000AFF
:100FB000202E002020002020506F72743A20004F15
:100FC0007574707574203D2000496E707574202012
:100FD0003D200050574D3A20202534640050574D95
:100FE0003A20202534640050574D3A20202534649F
:100FF0000050574D3A20202534640050574D3A2078
:10100000202534640050574D3A2020253464005088
:10101000574D3A20202534640050574D3A20202562
:1010200034640050574D3A20202534640050574D09
:101030003A20202534640050574D3A20202534644E
:101040000050574D3A20202534640050574D3A2027
:10105000202534640050574D3A2020253464005038
:10106000574D3A20202534640050574D3A20202512
:1010700034640020202000202020416E616C6F67C6
:1010800020696E203D20253564003C756E757365C2
:10109000642F756E6B6E6F776E3E0020284125328F
:1010A0006429202000257350494E3A2025336420BE
:1010B00000416E616C6F6720696E203D20253564AC
:1010C0000070726F74656374656420002028412588
:1010D000326429202000257350494E3A202533647C
:1010E0002000FC0D0001F80D0101EB0D3B00E00DAF
:1010F0004300D50D4500C80D4400BB0D3201AE0DB7
:101100003301A20D3401970D35018C0D2801810D9D
:101110002A01760D2C016C0D2A01610D1C01530D65
:101120001801470D1A013D0D2C01320D2201240D2D
:101130001E01180D2401100D0901010D0401F40C0C
:101140000A01E50C0801DD0C0D01D20C4201C90CAD
:101150003201C00C3301B60C0C01A80C0A019B0C27
:1011600008018E0C0901860C3401810C3501760CC6
:101170000B016B0C0601600C0501550C04014E0CB3
:101180003501450C35013B0C37012E0C2601240C92
:101190000301190C3601100C3101060C3D01F90B4D
:1011A0003801EF0B0E01E40B3C01DB0B2801D10BE6
:1011B0003001C40B3E01BA0B1201AF0B2E012020EF
:1011C0004D393036003A0A0020286D6D2900205430
:1011D00030204500205A00205900205800537465E3
:1011E00070706572206472697665722063757272C0
:1011F000656E743A0A0020204D383531205A005A65
:101200002D50726F6265204F6666736574002044CE
:101210000020490020204D3330342050002044006D
:1012200020490020204D33303120500050494420C7
:1012300073657474696E67733A0A0020204D343206
:10124000302053004175746F20426564204C6576F0
:10125000656C696E673A0A00204500205A002059E3
:101260000020580020540020530020204D323035FB
:1012700020510020453C6D61785F655F6A65726B47
:101280003E0020583C6D61785F785F6A65726B3E06
:1012900020593C6D61785F795F6A65726B3E205AB8
:1012A0003C6D61785F7A5F6A65726B3E004164767F
:1012B000616E6365643A20513C6D696E5F7365676A
:1012C0006D656E745F74696D655F75733E20533C28
:1012D0006D696E5F66656564726174653E20543C3D
:1012E0006D696E5F74726176656C5F666565647268
:1012F0006174653E0020540020520020204D3230A1
:1013000034205000416363656C65726174696F6E6F
:101310002028756E6974732F7332293A20503C70FF
:1013200072696E745F616363656C3E20523C7265E6
:1013300074726163745F616363656C3E20543C74D6
:10134000726176656C5F616363656C3E0A0020457F
:1013500000205A0020590020204D32303120580002
:101360004D6178696D756D20416363656C6572616F
:1013700074696F6E2028756E6974732F7332293A01
:101380000A00204500205A0020590020204D32300C
:10139000332058004D6178696D756D206665656410
:1013A00072617465732028756E6974732F73293A9E
:1013B0000A00204500205A0020590020204D3932D3
:1013C00020580053746570732070657220756E69C3
:1013D000743A0A0020204D3230302044300A002078
:1013E000204D3230302044002044697361626C65C6
:1013F000640A0046696C616D656E7420736574746F
:10140000696E67733A002020473231202020203B4C
:1014100000545249474745524544006F70656E007D
:101420003A20007A5F6D696E00795F6D696E0078B1
:101430005F6D696E005265706F7274696E672065CA
:101440006E6473746F70207374617475730A0050E6
:10145000726F62696E67206661696C65640A00205C
:101460005A3A200020593A200042656420583A2018
:10147000002066697273740A005A005900580048C7
:101480006F6D6520006563686F3A000000200023DF
:1014900000260029002C002F00320000010000036C
:1014A000010601090100002200250028002B002E62
:1014B000003100340002010000050108010B0105A4
:1014C000050505070508080808020202020A0A08BD
:1014D00008040404040101010101010101030303E3
:1014E0000303030303040707070C0C0C0C0C0C0C80
:1014F0000C0202020206060606060606060B0B0B87
:101500000B0B0B0B0B0102102020080810204010C1
:1015100020408002010201080402010102040810B7
:1015200020408080402010080402018004020180D5
:1015300040201008040201080402010102040810FE
:1015400020408001020408102040804572726F72B2
:101550003A00453120544845524D414C2052554E99
:10156000415741590042454420544845524D414C51
:101570002052554E4157415900546865726D616C57
:101580002052756E61776179001000AA03F0013A6C
:10159000019002220130031001D00302017004F710
:1015A000001005ED00B005E5005006DD00F006D79F
:1015B000009007D1003008CC00D008C7007009C3E4
:1015C00000100ABE00B00ABB00500BB700F00BB30E
:1015D00000900CB000D00DAA00100FA5005010A074
:1015E0000090119B00D0129600B014900090168BC2
:1015F0000070188500501A8000301C7B00B01E75EA
:101600000030216F00B02369003026640010285F8D
:1016100000902A5A00702C5500F02E4F007031486F
:1016200000B0324500F033410070363900103737D2
:10163000005038330090392D00D03A2700B03C1CC0
:1016400000503D1700F03D1100903E0900D03FE5ED
:10165000FF45340045330045320045310045300038
:101660005A32005932005832005A005900580020AE
:1016700042403A0020403A006D166B166916661615
:10168000631660165D165A16571654165116747264
:1016900075650066616C7365002074656D706572B8
:1016A0006174757265207072657761726E207472F4
:1016B000696767657265643A2000207072657761BA
:1016C000726E20666C616720636C65617265640A86
:1016D0000000002100240027002A002D00300033E4
:1016E0000001010000040107010A0100000A0B02C9
:1016F000090C0D0E080703040100000000000000A3
:1017000000000000000000000000000000000000D9
:101710000000000000000012111000000000000096
:1017200000000000000000000000000000000000B9
:10173000004B494C4C45442E2000202D20496E760C
:10174000616C6964206578747275646572206E7569
:101750006D62657220210A002020506C616E6E65FA
:101760007242756666657242797465733A2000202C
:1017700046726565204D656D6F72793A2000436F42
:101780006D70696C65643A204F6374203134203287
:101790003031380A00207C20417574686F723A201D
:1017A000286E6F6E652C2064656661756C742063AD
:1017B0006F6E666967290A00323031382D30382D56
:1017C000303100204C61737420557064617465641D
:1017D0003A2000312E312E390A004D61726C696E4B
:1017E0000020536F6674776172652052657365746B
:1017F0000A00205761746368646F672052657365DF
:10180000740A002042726F776E206F7574205265E3
:101810007365740A002045787465726E616C20529D
:10182000657365740A00506F77657255700A0073AE
:10183000746172740A00736C6F743A00205A3A0033
:1018400020593A0020583A00656E6473746F7073C3
:10185000206869743A20005072696E74657220685D
:10186000616C7465642E206B696C6C28292063613F
:101870006C6C6564210A002064726976657220636D
:10188000757272656E743A2000000000000000005E
:1018900000000000000000484200004842000080B4
:1018A00040000000005761726E696E673A20486F11
:1018B0006D696E672042756D702044697669736F3B
:1018C00072203C20310A000202040000A040000007
:1018D000A0400000004000004843000048430000D2
:1018E0004843FFFFFF2C20003F3F3F204D617837EA
:1018F0003231393A3A006C65645F736574006C6527
:10190000645F6F6666006C65645F6F6E004572723F
:101910006F722077726974696E6720746F20454515
:1019200050524F4D210A00454550524F4D206461A1
:10193000746173697A65206572726F722E0A00296C
:101940000A002062797465733B2063726320005340
:10195000657474696E67732053746F7265642028B0
:10196000006265640A002C2073797374656D2073BE
:10197000746F7070656421204865617465725F4999
:10198000443A20004265642068656174696E67208E
:101990006661696C65640048656174696E6720669C
:1019A00061696C65640045312048656174696E67E2
:1019B000206661696C65640048656174696E6720C2
:1019C0006661696C6564004531204572723A204D4C
:1019D000415854454D50004572723A204D4158547B
:1019E000454D5020424544004D415854454D5020EE
:1019F000747269676765726564004531204572726B
:101A00003A204D494E54454D50004572723A204D92
:101A1000494E54454D5020424544004D494E544591
:101A20004D502074726967676572656400202F00ED
:101A3000656E7175657565696E672022004C696E0B
:101A400065204E756D626572206973206E6F74201B
:101A50004C617374204C696E65204E756D626572C1
:101A60002B312C204C617374204C696E653A200038
:101A70004B494C4C45442E20005072696E7465727F
:101A80002073746F707065642064756520746F20B6
:101A90006572726F72732E204669782074686520B3
:101AA0006572726F7220616E6420757365204D39A6
:101AB000393920746F20726573746172742E202816
:101AC00054656D70657261747572652069732072FA
:101AD000657365742E205365742069742061667483
:101AE00065722072657374617274696E67290A0089
:101AF0004E6F20436865636B73756D2077697468FA
:101B0000206C696E65206E756D6265722C204C616B
:101B10007374204C696E653A2000636865636B736B
:101B2000756D206D69736D617463682C204C6173F1
:101B300074204C696E653A20004D313130002049E7
:101B40006E76616C69642065787472756465722064
:101B50000024F4D43050C38E20C2A24017828B7070
:101B600011127A910D816CD90AA861E108C75866F3
:101B700007615143061E4B5D05C145A7041A41117B
:101B800004093D9803713931034036DB0265339116
:101B900002D4305402802E1D02632CEE01752AC53A
:101BA00001B028A001102781018F2564012B244B4F
:101BB00001E0223401AC211F018D200D01801FFCAA
:101BC00000841EED00971DDF00B81CD200E61BC686
:101BD00000201BBC00641AB200B219A8000A19A0A8
:101BE000006A189900D117910040178B00B5168430
:101BF0000031167E00B31579003A157300C7146FD3
:101C00000058146A00EE1366008813630025135E03
:101C100000C7125B006C12570015125400C111511D
:101C20000070114F0021114B00D61049008D104754
:101C3000004610440002104200C00F4000800F3EDA
:101C400000420F3C00060F3B00CB0E3800930E37CE
:101C5000005C0E3500270E3400F30D3200C10D314B
:101C600000900D3000600D2E00320D2D00050D2C62
:101C700000D90C2B00AE0C2900850C29005C0C2728
:101C800000350C27000E0C2600E80B2400C40B24A2
:101C900000A00B23007D0B23005A0B2100390B21E0
:101CA00000180B2000F80A1F00D90A1E00BB0A1EEC
:101CB000009D0A1D00800A1D00630A1C00470A1BC4
:101CC000002C0A1B00110A1A00F7091A00DD091975
:101CD00000C4091900AB091900920917007B091803
:101CE00000630917004C0916003609160020091672
:101CF000000A091500F5081500E0081400CC0814C6
:101D000000B8081400A4081400900813007D0812FD
:101D1000006B08130058081200460812003408111E
:101D200000230811001208110001081100F007102B
:101D300000E0071000D0071000C0071000B0070F28
:101D400000A107100091070E0083070F0074070F12
:101D50000065070E0057070E0049070E003B070DF0
:101D6000002E070E0020070D0013070D0006070DBB
:101D700000F9060C00ED060D00E0060C00D4060C80
:101D800000C8060C00BC060C00B0060C00A4060B34
:101D90000099060C008D060B0082060B0077060BDF
:101DA000006C060B0061060A0057060B004C060A81
:101DB0000042060A0038060A002E060A0024060A17
:101DC000001A060A001006090007060A00FD0509A8
:101DD00000F4050900EB050900E2050900D9050931
:101DE00000D0050900C7050900BE050900B50508B2
:101DF00000AD050800A50509009C0508009405082C
:101E0000008C050800840508007C0508007405089E
:101E1000006C050700650508005D0507005605080C
:101E2000004E050700470507004005080038050774
:101E300000310507002A050700230507001C0506D9
:101E400000160507000F0507000805060002050734
:101E500000FB040600F5040700EE040600E8040693
:101E600000E2040700DB040600D5040600CF0406E8
:101E700000C9040600C3040600BD040600B704063A
:101E800000B1040500AC040600A6040600A0040589
:101E9000009B04060095040500900406008A0405D2
:101EA0000085040500800406007A04050075040519
:101EB00000700405006B040500660405006104055C
:101EC000005C04050057040500520405004D04059C
:101ED0000048040500430405003E0404003A0405DC
:101EE0000035040500300404002C04050027040418
:101EF00000230405001E0404001A0404001604054F
:101F000000110404000D0404000904050004040485
:101F10000000040400FC030400F8030400F40304BC
:101F200000F0030400EC030400E8030400E40304ED
:101F300000E0030400DC030400D8030400D403041D
:101F400000D0030400CC030400C8030300C503034E
:101F50000024F404D9201BC40C5C0E9804C4095F4F
:101F60000265077101F405F900FB04B3004804871A
:101F700000C10369005803550003034500BE023A3F
:101F8000008402310053022A0029022500040220A5
:101F900000E4011C00C8011900AF011700980114EA
:101FA0000084011300710110006101100051010E45
:101FB0000043010D0036010B002B010B0020010B2B
:101FC00000150109000C01090003010800FB0008CD
:101FD00000F3000800EB000700E4000600DE000646
:101FE00000D8000600D2000600CC000500C700059E
:101FF00000C2000500BD000400B9000400B50004E3
:1020000000B1000400AD000400A9000400A5000315
:1020100000A20003009F0004009B0003009800033F
:10202000009500020093000300900003008D000261
:10203000008B000300880002008600020084000379
:1020400000810002007F0002007D0002007B000290
:10205000007900020077000100760002007400029F
:102060000072000100710002006F0002006D0001AB
:10207000006C0002006A00010069000200670001B4
:1020800000660001006500010064000200620001BA
:102090000061000100600001005F0002005D0001BE
:1020A000005C0001005B0001005A000100590001C2
:1020B00000580001005700010056000100550001C2
:1020C00000540001005300000053000100520001C1
:1020D0000051000100500001004F0001004E0000BF
:1020E000004E0001004D0001004C0001004B0000BB
:1020F000004B0001004A00010049000100480000B7
:1021000000480001004700010046000000460001B1
:1021100000450000004500010044000100430000AC
:1021200000430001004200000042000100410000A5
:102130000041000100400001003F0000003F00019D
:10214000003E0000003E0001003D0000003D000197
:10215000003C0000003C0000003C0001003B00008F
:10216000003B0001003A0000003A00010039000085
:10217000003900010038000000380000003800017C
:102180000037000000370001003600000036000074
:102190000036000100350000003500000035000168
:1021A000003400000034000000340001003300005F
:1021B0000033000000330001003200000032000054
:1021C0000032000100310000003100000031000148
:1021D000003000000030000000300001002F00003F
:1021E000002F0000002F0000002F0001002E000033
:1021F000002E0000002E0001002D0000002D000028
:10220000002D0000002D0001002C0000002C00001B
:10221000002C0000002C0001002B0000002B00000F
:10222000002B0000002B0001002A0000002A000003
:10223000002A0000002A00010029000000290000F7
:1022400000290000002900000029000100280000EA
:1022500000280000002800000028000000280001DD
:1022600000270000002700000027000000270000D2
:1022700000270001002600000026000000260000C4
:1022800000260000002600010025000000250000B7
:1022900000250000002500000025000000250001A9
:1022A000002400000024000000240000002400009E
:1022B0000024000100230000002300000023000090
:1022C0000023000000230000002300000023000181
:1022D0000022000000220000002200000022000076
:1022E0000022000000220001002100000021000067
:1022F000002100000021000000210000002100005A
:10230000002100010020000000200000002000004B
:10231000002000000020000000200000002000003D
:1023200000200001001F0000001F0000001F00002F
:10233000001F0000001F0000001F0000001F000120
:10234000001E0000001E0000001E0000001E000015
:1023500000043700001E290000511B000058100027
:102360000010090000CC04000078020000410100C8
:1023700000534552564F206E6F742073657475700C
:102380000A005374616E6461726420446576696109
:1023900074696F6E3A20002052616E67653A2000C2
:1023A000204D61783A2000204D696E3A20004D653D
:1023B000616E3A200046696E6973686564210A009F
:1023C0002072616E67653A2000206D61783A2000C6
:1023D000206D696E3A2000207369676D613A2000B4
:1023E000206D65616E3A20003A207A3A2000206F15
:1023F000662000205A00205900205800476F696E5F
:102400006720746F3A00436C6F636B776973650A7A
:1024100000436F756E7465722D00204469726563A8
:1024200074696F6E3A2000202020616E676C653AF7
:1024300020005374617274696E67207261646975FB
:10244000733A2000506F736974696F6E696E67200C
:102450007468652070726F62652E2E2E0A003F4EE2
:10246000756D626572206F66206C65677320696E9A
:10247000206D6F76656D656E74206E6F7420706C64
:1024800061757369626C652028302D3135292E0AFB
:10249000003F2028582C5929206F7574206F662022
:1024A000626F756E64732E0A003F53616D706C65C8
:1024B0002073697A65206E6F7420706C6175736922
:1024C000626C652028342D3530292E0A004D3438B1
:1024D000205A2D50726F626520526570656174617B
:1024E00062696C69747920546573740A003F2856D8
:1024F000296572626F7365206C6576656C206973FF
:1025000020696D706C61757369626C652028302D6F
:1025100034292E0A00205A3A0020593A0020436FED
:10252000756E7420583A0020453A00205A3A00202F
:10253000593A00583A003A004361703A00426564E3
:10254000204C6576656C696E6720004661696C6534
:102550006420746F20656E61626C65204265642042
:102560004C6576656C696E670A00426564204C654F
:1025700076656C20436F7272656374696F6E204D6F
:1025800061747269783A00454550524F4D204F4B67
:102590000A003A200050726F6265205A204F66662A
:1025A000736574003F5A206F7574206F66207261E6
:1025B0006E676520282D323020746F203230290A52
:1025C00000290A002062797465733B2063726320DE
:1025D000002073746F7265642073657474696E672C
:1025E00073207265747269657665642028002028FE
:1025F00063616C63756C6174656429210A00202134
:102600003D2000454550524F4D20435243206D69B7
:10261000736D61746368202D202873746F72656414
:102620002920002053697A653A2000496E64657854
:102630003A2000204D61726C696E3D563535290A8D
:102640000028454550524F4D3D00454550524F4D95
:102650002076657273696F6E206D69736D61746346
:10266000682000526573656E643A20006F6B0062EB
:102670007573793A2070617573656420666F722096
:10268000696E7075740A00627573793A20706175AD
:1026900073656420666F7220757365720A006275D7
:1026A00073793A2070726F63657373696E670A009D
:1026B0004B494C4C45442E20004B494C4C20636107
:1026C0007573656420627920746F6F206D7563681F
:1026D00020696E6163746976652074696D65202D6B
:1026E0002063757272656E7420636F6D6D616E64C8
:1026F0003A2000556E6B6E6F776E20636F6D6D6163
:102700006E643A202200486F6D6520585920666932
:102710007273740A0048617264636F646564204474
:10272000656661756C742053657474696E67732097
:102730004C6F616465640A00E8030000E703000071
:1027400005000000E803000000007A4300007A431F
:10275000000000400000B0410000A0420000A04284
:102760000000C0430000BE4234A911241FBECFEFB9
:10277000D1E2DEBFCDBF00E00CBF13E0A0E0B2E0CD
:10278000EAE7F7E701E00BBF02C007900D92A4351E
:10279000B107D9F72FE0A4E5B3E001C01D92A5323F
:1027A000B207E1F713E1C5EBD3E100E006C02197E2
:1027B0000109802FFE010E946BBBC43BD10780E062
:1027C0000807A9F70E9448AA0C94BBBB0C94000010
:1027D0002F923F924F925F926F927F928F929F9231
:1027E000AF92BF92CF92DF92EF92FF920F931F931F
:1027F000CF93DF93CDB7DEB7CD56D1090FB6F8949E
:10280000DEBF0FBECDBF2DB73EB7AA963FAF2EAFEE
:10281000AA9791E09093DB0E809191068D3409F494
:1028200002C2843511F40C94E626873411F00C941E
:10283000322720918F06309190062B31310509F413
:1028400043C08CF42430310534F4223031059CF53A
:1028500037FF2AC0E4C12430310509F0E0C10E94ED
:10286000A02D0C9434272E31310509F461C064F495
:102870002C31310509F458C02D31310509F0CFC193
:102880000E94FE340C9434272B35310509F425C100
:102890002C35310509F425C12A35310509F0BFC1B0
:1028A000109259030C94342780912E0281110C94BC
:1028B00039270C94342781E02230310509F080E07B
:1028C0000E944C2E0C9434270E94A26881110C9413
:1028D000342780E090E0A0E2B1E489839A83AB835F
:1028E000BC8380E090E0AEE3B3E48D839E83AF834E
:1028F000B88780E090E0A0EAB1E489879A87AB8747
:10290000BC8780E50E94E58A882319F00E946E8AC0
:1029100001C060E06D87BE016F5F7F4FCE010D96F5
:102920000E94455F0C9434270E94CCA50C94342758
:10293000C090DE03D090DF03E090E003F090E1036D
:1029400088E50E94E58A811109C020E030E044E377
:1029500052E4C701B6010E947CB802C00E940787FA
:102960006D877E878F87988BC090E203D090E303BA
:10297000E090E403F090E50389E50E94E58A811187
:1029800009C020E030E040E651E4C701B6010E94F2
:102990007BB802C00E9407879B01AC0169837A83E0
:1029A0008B839C836D857E858F8598890E94997A1B
:1029B000882311F40C94342780E00E9497860E94AB
:1029C000968485E40E94E58A882321F00E948F8AFC
:1029D000182F04C085E40E949E8A11E086E50E94BB
:1029E000E58A882321F00E946E8A262F01C021E00B
:1029F000412FBE016F5F7F4FCE010D960E9413697C
:102A00006B017C019B01AC010E9428BB81115FC05E
:102A10008D849E84AF84B88820E030E0A901C50190
:102A2000B4010E9443B487FD05C027E137EB41E5BF
:102A300058E304C027E137EB41E558EBC501B40189
:102A40000E947CB8AB01BC0185E692E00E94554330
:102A500089809A80AB80BC8020E030E0A901C5016C
:102A6000B4010E9443B487FD05C027E137EB41E57F
:102A700058E304C027E137EB41E558EBC501B40149
:102A80000E947CB8AB01BC0180E692E00E945543F5
:102A900020E030E0A901C701B6010E9443B487FDE0
:102AA00005C027E137EB41E558E304C027E137EBE8
:102AB00041E558EBC701B6010E947CB8AB01BC01EF
:102AC0008BE592E00E9455438AE00E943A870E947B
:102AD0007D840E94719A0C943427909359030C942E
:102AE000342779E4272E72E0372EEEEDEE2EE3E068
:102AF000FE2E00E0D12C10E0D1018D911D010E942D
:102B0000E58A882359F10E9407872B013C01F701D0
:102B100020813181428153810E947BB84B015C014D
:102B20002DEB37E346E855EB0E94A2BA87FD0AC0B9
:102B30002DEB37E346E855E3C501B4010E9443B4E9
:102B4000181664F4133019F0DD24D39401C001E0A9
:102B5000D7014D925D926D927C9213971F5FB4E006
:102B6000EB0EF11C143041F6DD2019F00E94508666
:102B700052C0002309F44FC020E030E0A901609169
:102B8000EA037091EB038091EC039091ED030E94B6
:102B90007CB820914E0830914F08409150085091D8
:102BA00051080E94A8B40E94ADBA60933106709398
:102BB000320680933306909334069091EB05809112
:102BC000EC05981719F00E94875125C00E94E55125
:102BD00080916F0081FB992790F981FF05C080915A
:102BE0006F008D7F80936F004091310650913206C7
:102BF000609133067091340640933E0850933F082D
:102C00006093400870934108992329F080916F00E8
:102C1000826080936F000E94719A0C9434270E9406
:102C2000BCA70C94342780918F0690919006893729
:102C3000910511F40C94EE1E0CF0A3C0843691059E
:102C400009F42FC30CF054C08C34910509F414C35B
:102C500014F58A32910509F479C184F48231910521
:102C600009F4FEC68F31910509F46CC1419711F04A
:102C70000C94E3260E94FBA40C9434278033910526
:102C800009F4F2C28B34910509F4F2C28B9711F06A
:102C90000C94E3269FC18235910509F4D8C67CF4D3
:102CA0008035910509F488C60CF0BDC68D349105B8
:102CB00011F00C94E3260E9422800C943427843572
:102CC000910509F4CDC60CF4C6C68535910509F405
:102CD000FCC68C35910511F00C94E326E9E4CE2E68
:102CE000E2E0DE2EF2E4EF2EF8E0FF2E10E008C75F
:102CF0008F36910509F43BC5C4F48B36910509F470
:102D000049C664F48936910509F4AFC50CF03EC696
:102D10008836910509F4EBC40C94E3268D369105B1
:102D200009F4E5C50CF471C50FC58337910509F4A5
:102D3000A6C754F48137910509F46BC50CF060C740
:102D400085EC94E00E942E7B8637910509F4F5C747
:102D50003CF48537910511F40C9434270C94E32648
:102D60008737910511F40C94EA1E8837910511F00C
:102D70000C94E32681E080930B0F80930C0F0C944E
:102D800034278033E1E09E0711F40C949A250CF06F
:102D900066C08D3C910511F40C94E71F64F5883CE6
:102DA000910511F40C94F41E74F48B39910509F417
:102DB00077C58E3B910509F4D4C58C38910511F087
:102DC0000C94E326B0C58B3C910511F40C94541F70
:102DD00014F00C94721F893C910511F00C94E326B9
:102DE00066EAE62E63E0F62E09E412E074E0D72EE0
:102DF000D00E0C943B1F823E910511F40C94E02000
:102E00009CF48C3D910511F40C9465208D3D910549
:102E100011F40C947220833D910511F00C94E3267B
:102E2000E5E8F4E10C94EA1F8D3221E0920711F4F9
:102E30000C94F0203CF48232914011F40C94E32085
:102E40000C94E3268E3251E0950711F40C949121F5
:102E50008F32914011F40C94E5210C94E326863FC7
:102E6000B1E09B0711F40C944326C4F58239F1E0DC
:102E70009F0711F40C94372694F4803931E09307BE
:102E800011F40C942E2614F00C94312683369140C4
:102E900011F00C94E326EBE4F5E10C941726843A48
:102EA000A1E09A0711F40C943D264CF48A39914024
:102EB00011F00C94E3260E9433990C943427843F3C
:102EC000F1E09F0711F40C944026853F914011F0EA
:102ED0000C94E3260E94F7A80C9434278A3833E038
:102EE000930711F40C94552694F4883F51E095070C
:102EF00011F40C94522614F40C9446268335934016
:102F000011F00C94E3260E949E980C9434278F387D
:102F1000E3E09E0711F40C9458263CF48B38934060
:102F200011F40C9434270C94E326803933E0930792
:102F300011F40C945B26873E934011F40C94D02638
:102F40000C94E3260E945C5A0C94342783E50E947B
:102F5000E58A882311F40C9434270E947E8AE82E97
:102F600080E50E94E58A882339F00E947E8A182F26
:102F700087FF03C00C9434271DE089E40E94E58A92
:102F8000882369F00E948F8A81110DC0812F0E94D1
:102F90004C56882341F00E9431560C94342789E422
:102FA0000E949E8AF1CF61E0812F0E94706B6E2D8E
:102FB000812F0E94EE71F12CB701812F0E94AC6B22
:102FC000193011F00C943427F0929403E09293039B
:102FD0000C94342784E50E949E8A882309F468C0F3
:102FE00089E40E94E58A882319F00E948F8A03C031
:102FF00089E40E949E8A082F82E50E94E58A882340
:1030000021F00E946E8A7B0103C0EE24E394F12C30
:1030100083E50E94E58A882321F00E946E8A162F9C
:1030200001C010E08CE40E94E58A882321F00E9410
:103030006E8A6B0103C055E4C52ED12C87E50E9432
:10304000E58A882319F00E946E8A02C064EF71E05D
:103050002B01770F66087708812F90E0C816D906F4
:10306000CCF001110C945528812F0E944C568823D6
:1030700011F40C94552824E133E041E060E0812F05
:103080000E945A568AE00E943A878AE00E943A8754
:103090001F5FE2CFEDE6F2E084918F010F5F1F4FDB
:1030A000882311F40C9434270E943A87F801F4CF56
:1030B00085E40E949E8A882381F10E948F8AF82EDF
:1030C00080935A03E2E8F2E084918F010F5F1F4F73
:1030D000882321F00E943A87F801F6CFF11003C04F
:1030E000EBE7F2E002C0EFE7F2E084918F010F5FBF
:1030F0001F4F882321F00E943A87F801F6CFE4E7BA
:10310000F2E084918F010F5F1F4F882311F40C941C
:1031100034270E943A87F801F4CF83E50E949E8A03
:10312000882321F00E9496AF0C94342780E50E94FA
:10313000E58A882321F00E947E8A182F01C010E0C2
:10314000012F80E50E94E58A811107C0163414F032
:103150000C94342745E4E42E01C0E12E89E40E945A
:10316000E58A882319F00E948F8A03C089E40E94AF
:103170009E8AF82E87E50E94E58A882319F00E942E
:103180008F8A03C087E50E949E8A882309F460C065
:1031900033E9C32E32E0D32EF6018491882331F037
:1031A000FFEFCF1ADF0A0E943A87F6CFC12E012E19
:1031B000000CDD088E2D0E2C000C990B8C199D092E
:1031C00001962DB73EB7281B390B0FB6F8943EBFBA
:1031D0000FBE2DBF4DB75EB74F5F5F4F5A01012F36
:1031E000F1100C948328802F0E944C56882311F4F0
:1031F0000C9483280F5FE0169CF7012FF11005C097
:10320000802F0E944C56811119C0802F0E94C671D8
:10321000782E802E002E000C99088C189D088A0CA0
:103220009B1CD4018C91781649F023E133E040E0F7
:103230006F2D802F0E945A56D4017C920F5FE016AA
:10324000ECF668EC70E080E090E00E943670D5CF3C
:1032500023E133E041E06F2D802F0E945A560F5F2B
:10326000E016B4F70C9434270E94BD920C943427D6
:103270000E94E97F0C94342780916906813011F017
:103280000C94342782E0809369060E94CA6C609394
:1032900061067093620680936306909364060C94B3
:1032A000342780911F0F9091200F0E94EC5F66E100
:1032B00072E083EA94E00E94B24385E29FE00E94BC
:1032C000EC5F66E172E085E994E00E94B243009110
:1032D0001F0F1091200F0115110511F405E21FE0D9
:1032E000C8010E94EC5F66E172E08DE794E00E9405
:1032F000B2436E01BFE1CB0ED11CC6010E94EC5F50
:1033000066E172E08BE694E00E94B2438AE00E949C
:103310003A878091000281110C949C2889E40E94D4
:103320009E8A81110C949C2884E40E949E8A8823A2
:1033300031F0B601C8010E94F7890C94342786E465
:103340000E949E8A882309F46EC1C01AD10AA12C5A
:10335000B12C212C312C412C512C66246A94762CD2
:10336000AC14BD04E4F548018A0C9B1CD4018C917B
:10337000853E89F5F401E12CF12C8191853E41F0E7
:10338000B1E0EB1AF108E9E0EE16F10424F108C00F
:103390002FEFE21AF20AE1143DE7F30671F71BC0C2
:1033A000B7018EE294E00E949943C4010E94EC5F51
:1033B00066E172E08EE194E00E94B2438AE00E94EE
:1033C0003A876E147F0414F414013701AE0CBF1C4D
:1033D0004FEF441A540A5FEFA51AB50AC1CF82E035
:1033E00048165104ECF0ECEEF3E084918F010F5F8E
:1033F0001F4F882321F00E943A87F801F6CFB301CE
:1034000084ED93E00E949943C1010E94EC5F66E164
:1034100072E089EC93E00E94B2438AE00E943A870E
:1034200000EE12E0D8018D918D01882319F00E94E1
:103430003A87F8CFE0901F0FF090200FE114F104CD
:1034400021F495E2E92E9FE0F92E8E01025E1F4FD6
:103450006801CE18DF08B60189E993E00E9499431C
:103460008FE19FE00E94EC5F66E172E08CE893E000
:103470000E94B24380911F0F9091200F0E94EC5F39
:1034800066E172E08AE893E00E94B24385E29FE041
:103490000E94EC5F66E172E08DE793E00E94B24328
:1034A000C8010E94EC5F66E172E088E793E00E9449
:1034B000B2430E151F0528F5ECE6F3E084918F0169
:1034C0000F5F1F4F882321F00E943A87F801F6CF43
:1034D00064E170E080E090E00E94367008EE12E057
:1034E000F80181918F01882319F00E943A87F8CF63
:1034F0008AE00E943A876FEF71E280E89BE10E94C8
:10350000F789812C912C00E010E08C149D04CCF5FF
:10351000F701E80DF91D8081853E79F580E090E0A6
:103520002191253EC9F05C01F1E0AF1AB10829E014
:10353000A216B10414F18A0C9B1C0F5F1F4FB80137
:1035400089E693E00E949943B50180E693E00E94EA
:103550009943ECE5F3E006C0019681153DE793073A
:10356000F9F60BC084915F014FEFA41AB40A8823C7
:1035700021F00E943A87F501F5CF5FEF851A950A91
:10358000C4CFB8018DE493E00E9499430130110546
:1035900019F0EBE1F3E007C080911F0F9091200F2D
:1035A000892BB9F710C084917F019FEFE91AF90ABE
:1035B000882321F00E943A87F701F5CF0115110504
:1035C00011F40FEF1FEFE2E1F3E084917F01AFEF21
:1035D000EA1AFA0A882321F00E943A87F701F5CF08
:1035E0000130110549F480E30E943A878AE00E9485
:1035F0003A8760E070E00EC0ECE0F3E084917F0178
:10360000BFEFEB1AFB0A882321F00E943A87F701EB
:10361000F5CFB80183EA93E00E9499438AE00E94C3
:103620003A870C94342783E40E949E8A882311F4FD
:103630000C9434270E946E8A6B019E01201B310B73
:10364000285E31096F5F7F4FC9010E9444BB7B0137
:10365000EBE4F4E084915F012FEFA21AB20A81112A
:1036600008C0C7010896080F191FAA24A394B12CFB
:1036700004C00E943A87F501EDCFCA14DB0490F133
:10368000D801AC92C8010E94EC5F66E172E085E36C
:1036900094E00E94B243BFEFAB1ABB0A0E0D1F1D90
:1036A000ECCF80919206882309F4A2C010EBC12EC2
:1036B00014E0D12EE12CF12C20E08091920690E0D4
:1036C0000E2C02C0959587950A94E2F780FD78C08C
:1036D000FFEFEF1AFF0A32E0C30ED11C45E0E416FB
:1036E000F10459F78AE00E943A870C94342788E65F
:1036F00090E00E94F18A81110C9434278091920607
:1037000083FF02C00C94342783E50E94E58A882356
:10371000B9F00E9407870E94C0B970934B0660936E
:103720004A0680E00E94AE7E0E94078720E030E0DB
:103730004AEA52E40E9443B4181614F00E94228010
:103740000E9404A90C9434278EE40E94E58A882301
:1037500011F40C9434270E946E8A609300047093D5
:10376000010480930204909303040C94342783E5AE
:103770000E949E8A882359F083E50E94E58A882367
:1037800019F00E947E8A01C080E080939206E5E8ED
:10379000F4E184918F010F5F1F4F882321F00E9475
:1037A0003A87F801F6CFEEEBF4E084918F010F5FDA
:1037B0001F4F882309F475CF0E943A87F801F5CF8F
:1037C000BB24B394B20E222319F08CE20E943A87F4
:1037D000F60125913491F901849189010F5F1F4F02
:1037E000882321F00E943A879801F5CF2B2D70CFC6
:1037F000EAEBF4E084918F010F5F1F4F882309F4F7
:1038000071CF0E943A87F801F5CF109203020C9411
:10381000342783E50E94E58A882369F00E947E8A26
:10382000809340028D3310F40C9434278CE3809302
:1038300040020C943427E5E8F4E184918F010F5F96
:103840001F4F882321F00E943A87F801F6CF40915C
:10385000400250E060E070E08EEC94E00E94A092A4
:103860008AE00E943A870C94342789E690E00E940F
:10387000F18A811111C0E5EDF4E084918F010F5FB1
:103880001F4F882321F00E943A87F801F6CF0E944B
:1038900041718AE00E943A871092DB0E0C947D2DD4
:1038A00083E50E94E58A882311F40C9434270E9452
:1038B0007E8A182F8D3308F01CE31093E80E0E94C7
:1038C000CA6C6B017C01212F30E0A8EEB3E00E94AE
:1038D0006CB8C60ED71EE81EF91EC092E40ED09238
:1038E000E50EE092E60EF092E70E0C9434278DE69A
:1038F00090E00E94F18A81110C9434278091920605
:1039000083FF02C00C94342783E50E94E58A8EA7CA
:1039100081110C940A2982E50E94E58A81110C9498
:103920000A290C9434278091920683FF02C00C94DC
:10393000342783E50E94E58A882311F40C94342708
:103940000E9407870E94C0B96337710514F063E7CE
:1039500070E070934506609344060E94637E0C9469
:1039600034278091920683FF02C00C94342783E5AC
:103970000E94E58A8EA781110C94522A82E50E944A
:10398000E58A81110C94522A0C9434270E94BF9B23
:103990000C94342780E50E94E58A811106C01092BC
:1039A0009403109293030C9434270E946E8A672B21
:1039B00011F00C943427F3CF83E50E949E8A88236C
:1039C000A9F080912702811103C0E6EEF4E002C065
:1039D000E0EEF4E084918F010F5F1F4F882311F414
:1039E0000C9434270E943A87F801F4CF269A2E9837
:1039F00081E08093270264E670E080E090E00E941E
:103A0000926C8FE695E00E941F6E86EF94E00E9414
:103A10001F6E8DE794E00E941F6E84E094E00E9488
:103A20001F6E0C9434270E9437800E9440531092DE
:103A300094031092930368EE73E080E090E00E949C
:103A40003670269A2E9A109227020C9434271092E0
:103A500058030C94342781E0809358030C94342746
:103A600083E50E94E58A8823A1F00E94078720E071
:103A700030E04AE754E40E94A8B40E94C5B96093BC
:103A800041027093420280934302909344020C944B
:103A9000342788E50E949E8A81110C94AA2B89E51F
:103AA0000E949E8A81110C94AA2B8AE50E949E8A0C
:103AB00081110C94AA2B85E40E949E8A81110C949A
:103AC000AA2B0E9440530C94342783E50E949E8ABF
:103AD000882311F40C9434270E94078720E030E0FB
:103AE0004AE754E40E94A8B40E94C5B96093E00E6E
:103AF0007093E10E8093E20E9093E30E0C943427C2
:103B0000D6018D916D010E949E8A882309F46DC0B3
:103B1000133009F063C00E9407874B015C0120E06D
:103B200030E040EA51E40E9443B487FF4EC0A50153
:103B3000940160914E0870914F08809150089091C7
:103B400051080E9458B92B013C019B01AC016091C6
:103B50006703709168038091690390916A030E94E2
:103B6000A8B460936703709368038093690390938C
:103B70006A03A30192016091830370918403809191
:103B80008503909186030E94A8B460938303709389
:103B9000840380938503909386036091A2037091C0
:103BA000A3038091A4039091A5030E9447B4A301AD
:103BB00092010E94A8B40E94C5B96093A2037093B9
:103BC000A3038093A4039093A50380924E08909240
:103BD0004F08A0925008B092510807C00E94078772
:103BE000F70160837183828393831F5FF4E0EF0E9C
:103BF000F11C143009F084CF0E94CE520C9434276B
:103C00000E94E55183E50E94E58A882309F403C8F0
:103C10000E946E8A6230710511F00C940B160E949E
:103C200004A58BE50E943A876091170870911808E7
:103C30008091190890911A0842E00E945C89409195
:103C40001B0850911C0860911D0870911E088FEE92
:103C500094E00E94554340911F08509120086091C4
:103C60002108709122088CEE94E00E9455438DE566
:103C70000E943A878AE00E943A870C943427E1ED4B
:103C8000F5E084918F010F5F1F4F882321F00E9480
:103C90003A87F801F6CF60E081EC95E00E942D9A1A
:103CA00061E08AEB95E00E942D9A61E08FEA95E051
:103CB0000E942D9A61E08FE995E00E942D9A60E0C4
:103CC00086E995E00E942D9A61E08CE895E00E94DB
:103CD0002D9A61E082E895E00E942D9A61E08AE7E2
:103CE00095E00E942D9A61E08CE695E00E942D9A65
:103CF00060E08EE595E00E942D9A61E08FE495E00A
:103D00000E942D9A60E081E495E00E942D9A60E087
:103D10008BE295E00E942D9A60E08AE195E00E9496
:103D20002D9A60E085E095E00E942D9A61E082EF97
:103D300094E00E942D9A0C94342700918D061091E6
:103D40008E0683E0D12C40E08150E9F0D8019C91AF
:103D5000292F2B7F2134C1F711962C912133A1F704
:103D6000913421F0953421F441E002C0DD24D39454
:103D700098012E5F3F4F89012F5F3F4FF8019081DF
:103D80009032C9F3E1CF442369F0E5E8F4E184918E
:103D90007F012FEFE21AF20A882321F00E943A876E
:103DA000F701F5CFDD2069F0EBE9F6E084917F01C2
:103DB0003FEFE31AF30A882321F00E943A87F701C4
:103DC000F5CFD8018D918D01882309F48BCC0E9409
:103DD0003A87F7CF0E949F600C94342710920B0F04
:103DE00010920C0F0C94342788EC90E00E94F18A1A
:103DF00081110C94342784E40E949E8A8823C1F1A7
:103E00000E94078711E020E030E0A9010E9443B43E
:103E1000811101C010E01093CF03112349F10E94DA
:103E20000787E0913F06B4E0EB9FF0011124EC52CC
:103E3000FC4F608371838283938320E030E0A9018B
:103E40006091D4037091D5038091D6039091D703EC
:103E50000E9443B481110CC080E090E0A0EEBFE36B
:103E60008093D4039093D503A093D603B093D70344
:103E70000E940F5DF9C7F80181918F010E949E8A0F
:103E8000882351F00E9407870E94C5B9D7016D931E
:103E90007D938D939C931397B4E0EB0EF11CD0129D
:103EA000EACF0E94DA43E0C747E7E42E43E0F42E6E
:103EB00009E412E054E0D52ED00EF80181918F0173
:103EC0000E949E8A882341F00E940787D7016D9344
:103ED0007D938D939C931397B4E0EB0EF11CD0125D
:103EE000ECCFC2C783E50E94E58A8823A1F00E9437
:103EF000078760936F0370937003809371039093AF
:103F0000720360936B0370936C0380936D039093C3
:103F10006E0310E001C011E080E50E94E58A88236D
:103F200059F00E94078760936F037093700380932A
:103F300071039093720310E082E50E94E58A882362
:103F400059F00E9407876093730370937403809302
:103F500075039093760310E084E50E94E58A882338
:103F600059F00E94078760936B0370936C038093F2
:103F70006D0390936E0378C7112309F475C74091C0
:103F80006F0350917003609171037091720385EA21
:103F900096E00E94554340917303509174036091E1
:103FA00075037091760382EA96E00E945543409132
:103FB0006B0350916C0360916D0370916E038FE9F8
:103FC00096E00E9455438AE00E943A874DC70E94BE
:103FD000C3994AC784918F010F5F1F4F882321F037
:103FE0000E943A87F801F6CF83E50E949E8A8823D3
:103FF00021F00E948F8A80933B02EDEDF6E08491E0
:104000008F010F5F1F4F882321F00E943A87F8012C
:10401000F6CF80913B02811103C0E9EDF6E002C0CA
:10402000E5EDF6E084918F010F5F1F4F882321F0AB
:104030000E943A87F801F6CFEDECF6E084918F010B
:104040000F5F1F4F882321F00E943A87F801F6CFB7
:1040500040E050E0BA018BEC96E00E94554340E00E
:1040600050E0BA0188EC96E00E94554340E050E0F1
:10407000BA0185EC96E00E945543EDEBF6E08491A1
:104080008F010F5F1F4F882321F00E943A87F801AC
:10409000F6CF40E050E068E473E48BEB96E00E94DA
:1040A000554340E050E068E473E488EB96E00E94FA
:1040B000554340E050E068E473E485EB96E00E94ED
:1040C00055438AE00E943A87CFC683E50E94E58A7D
:1040D000882309F4C9C60E946E8A70930202609315
:1040E0000102C2C68DED90E00E94F18A8111BCC62A
:1040F00083E50E94E58A8823D9F100913F0610E00C
:104100000E946E8A000F111FF801E35EFD4F71835C
:10411000608380913F0690E08C01000F111F000F1B
:10412000111FF801EC5FFD4F7F01880F991FFC0103
:10413000E35EFD4F60817181072E000C880B990BA7
:104140000E9449B42AE037ED43E25CE30E94A8B440
:10415000F801E053FC4F20813181428153810E945C
:10416000A8B4D7016D937D938D939C9313977CC6D0
:10417000E5E8F4E184918F010F5F1F4F882321F060
:104180000E943A87F801F6CF85E40E943A87809131
:104190003F06805D0E943A87E0913F06F0E0EE0F17
:1041A000FF1FE35EFD4F608171818DEE96E00E94FE
:1041B000994385E20E943A878AE00E943A8754C672
:1041C0000E94669951C68AE50E94E58A81110C9485
:1041D000DA2B83E50E94E58A81110C94DA2B44C620
:1041E00085E40E94E58A811110C080E50E949E8AC4
:1041F000882391F00E9407876093560870935708B0
:10420000809358089093590807C00E947E8A88239B
:1042100061F3EBE4F5E16EC089E40E949E8A882395
:1042200081F00E9407872CEA35EC47E25EE30E94AA
:10423000A8B46093520870935308809354089093E5
:10424000550884E40E949E8A882381F00E94078793
:104250002CEA35EC47E25EE30E9458B960935A08B5
:1042600070935B0880935C0890935D08E5E8F4E147
:1042700084918F010F5F1F4F882321F00E943A879E
:10428000F801F6CF409156085091570860915808B0
:10429000709159088DEF96E00E9455432CEA35EC59
:1042A00047E25EE360915208709153088091540890
:1042B000909155080E9458B9AB01BC0189EF96E076
:1042C0000E9455432CEA35EC47E25EE360915A08C0
:1042D00070915B0880915C0890915D080E94A8B481
:1042E000AB01BC0185EF96E00E9455438AE00E9435
:1042F0003A87BAC584918F010F5F1F4F882321F041
:104300000E943A87F801F6CFE1E0F7E084918F014F
:104310000F5F1F4F882309F4A7C50E943A87F80151
:10432000F5CF83E50E949E8A182F882371F00E94A2
:1043300007870E94C0B9709309026093080221E0C8
:10434000672B09F020E02093950380E50E949E8A68
:10435000882359F02091080230910902232B11F093
:104360000E948F8A809395037FC511117DC5E5E872
:10437000F4E184918F010F5F1F4F882321F00E9489
:104380003A87F801F6CF80919503811103C068ED5B
:1043900072E002C065ED72E088E297E00E94B243ED
:1043A000609108027091090287E197E00E949943A9
:1043B000E3E1F7E084918F010F5F1F4F882309F439
:1043C00053C50E943A87F801F5CF85E40E94E58A3B
:1043D000882321F00E946E8A7B0102C0E12CF12C1F
:1043E00083E40E94E58A882331F00E946E8A269633
:1043F0006FAF269704C045E026964FAF269785E518
:104400000E94E58A882319F00E948F8A03C085E5FF
:104410000E949E8A62968FAF6297F7FC07C0812C3C
:10442000912CA6E1AA2EA3E4BA2E06C0812C912CD1
:10443000FCE8AF2EF2E4BF2E83E50E94E58A8823D4
:1044400021F00E9407874B015C01E114F10411F493
:1044500010923F06EF8E0E94CA6C2B013C015F8DCB
:1044600057FF0DC00CE310E080E090E0A0EEB0E458
:1044700066968CAF9DAFAEAFBFAF66970CC008E23B
:1044800010E020E030E040EC50E466962CAF3DAF09
:104490004EAF5FAF669761E06E0D623068F0E4ED9D
:1044A000F8E084918F010F5F1F4F882309F4DCC46B
:1044B0000E943A87F801F5CFEEEFF8E084917F0192
:1044C0003FEFE31AF30A882321F00E943A87F701AD
:1044D000F5CF0E9437804F8D47FF04C08FE7809350
:1044E0003E0608C05F8DE52F550FFF0BE35CF94FCB
:1044F0008FE78083C501B4010E94C0B9072E000C6C
:10450000880B990B0E9449B468A77CA78DA79EA72A
:104510009801A8EEB3E00E946CB86A966CAF7DAFCC
:104520008EAF9FAF6A97DC01CB01840D951DA61D50
:10453000B71DA6968CAF9DAFAEAFBFAFA69781E07B
:10454000809303022D964CAE5DAE6EAE7FAE2D977E
:104550006E964CAE5DAE6EAE7FAE6E9729961FAE78
:104560002997A2961CAE1DAE1EAE1FAEA2971BAE23
:1045700090E49CAFACE1ADAFB6E4BEAF1FAE219608
:104580001FAE219722961FAE229723961FAE239728
:104590001FAA18AE19AE1AAE1BAA1CAA1DAA1EAAE3
:1045A000C12CD12C76012FE730E040E050E02CA365
:1045B0003DA34EA35FA37FE7872E912CA12CB12CA6
:1045C00061961CAE1DAE1EAE1FAE619731E02896FF
:1045D0003FAF289718AA1FA610E0212C312C00E02D
:1045E0004F8D842F440F990BDC01A35CB94FA89623
:1045F000BFAFAEAFA897880F991F880F991FFC0116
:10460000EA5BF94F2596FFAFEEAF259726962FADC3
:104610002697022E000C330B27963FAF2EAF27971D
:1046200080910302882309F4F2C00E94CA6C68A337
:1046300079A38AA39BA380916B08882309F4CDC03A
:104640000E94957F3F8D37FF09C010914006209052
:10465000410630904206009143060DC02596AEAD4E
:10466000BFAD25971C9111962C90119712963C90F6
:10467000129713960C91212F322D432D502F6FAD91
:1046800021967FAD219722968FAD229723969FADDD
:1046900023970E9443B487FF0AC01FAF21962FAE15
:1046A000219722963FAE229723960FAF2397212F73
:1046B000322D432D502F6BAD7CAD8DAD9EAD0E9444
:1046C000A2BA181624F41BAF2CAE3DAE0EAF28963E
:1046D000BFAD289728A53CA54DA55EA5612F722DDD
:1046E000832D902FBB2309F45CC00E94A2BA181638
:1046F0000CF073C028A139A14AA15BA12419350986
:1047000046095709AE962CAF3DAF4EAF5FAFAE979F
:10471000DA01C90188589341A109B109B7FD5DC00B
:10472000D501C4012CA13DA14EA15FA1821B930B19
:10473000A40BB50B3F8DB595A7959795879537FF3A
:1047400003C080933E0605C0A896EEADFFADA897C6
:104750008083AE962CAD3DAD4EAD5FADAE9761960C
:104760002CAF3DAF4EAF5FAF619738A53FAF4CA5C3
:1047700021964FAF21975DA522965FAF22978EA518
:1047800023968FAF239728A139A14AA15BA12D962B
:104790002CAF3DAF4EAF5FAF2D9728961FAE289739
:1047A0001CC00E9443B487FF18C088A199A1AAA188
:1047B000BBA12D962CAD3DAD4EAD5FAD2D97821BAF
:1047C000930BA40BB50BAC01BD01485853416109D3
:1047D000710977FD02C00C94152C20E030E040EA0E
:1047E00051E468A57CA58DA59EA50E947CB89B017F
:1047F000AC01612F722D832D902F0E94A2BA181642
:1048000074F400E618E0F8018491811103C00E945D
:1048100037802AC30F5F1F4F0E943A87F4CF88A1C9
:1048200099A1AAA1BBA16E962CAD3DAD4EAD5FADD9
:104830006E97821B930BA40BB50BB7FDA6C00E940D
:1048400041718AE00E943A8788A199A1AAA1BBA1DF
:104850008053984FAF4FBF4F6E968CAF9DAFAEAFAA
:10486000BFAF6E9729969FAD299791116DC0A29603
:104870002CAD3DAD4EAD5FADA297612F722D832D56
:10488000902F0E94A2BA18160CF043C020E030E02E
:1048900040E050E4612F722D832D902F0E947CB850
:1048A000A2966CAF7DAF8EAF9FAFA29728A139A122
:1048B0004AA15BA16A968CAD9DADAEADBFAD6A97C6
:1048C000280F391F4A1F5B1FA6962CAF3DAF4EAF76
:1048D0005FAFA69766962CAD3DAD4EAD5FAD6697CA
:1048E00068A57CA58DA59EA50E947BB89B01AC0107
:1048F00091E029969FAF2997612F722D832D902FDC
:104900000E94A2BA18160CF440C029961FAE29972F
:104910003CC088A199A1AAA1BBA1A6962CAD3DAD92
:104920004EAD5FADA697821B930BA40BB50BB7FDE5
:104930002CC03F8D3F3F19F04CE258E002C04EE3DF
:1049400058E061E578E01EC020E030E040EA51E444
:1049500068A57CA58DA59EA50E947BB89B01AC0196
:10496000612F722D832D902F0E9443B487FF0DC0BD
:104970004F8D4F3F19F045EF57E002C048E058E037
:104980006CE178E08F8D0E945A8088A199A1AAA13C
:10499000BBA1880F991FAA1FBB1F2D962CAD3DAD43
:1049A0004EAD5FAD2D97821B930BA40BB50B8419F5
:1049B0009509A609B70981389F44A241B10560F065
:1049C00007ED17E0F8018491882309F420CF0F5FE9
:1049D0001F4F0E943A87F6CF2FA538A927964EADD4
:1049E0005FAD2797421753070CF01ACE0AE717E07E
:1049F000F8018491882329F00F5F1F4F0E943A87A6
:104A0000F7CFFF8DF7FD03C003E113E002C00CED0B
:104A100012E0B80189E697E00E94B243B701A6010F
:104A200085E697E00E9455438AE00E943A87B801E4
:104A300084E597E00E94B2434BA95CA96DA97EA9C9
:104A400080E597E00E9455438AE00E943A87B801CA
:104A50008FE397E00E94B2434FA958AD69AD7AAD9C
:104A60008BE397E00E9455438AE00E943A87629662
:104A70002FAD6297222309F4F7C13F8D37FF2DC078
:104A8000C0926608D0926708E0926808F0926908C0
:104A90002CEA35EC47E25EE36BA97CA98DA99EA9BF
:104AA0000E94A8B4609362087093630880936408BE
:104AB000909365082CEA35EC47E25EE36FA978AD88
:104AC00089AD9AAD0E9458B960935E0870935F08F3
:104AD0008093600890936108C7C1C0925608D09235
:104AE0005708E0925808F09259082CEA35EC47E252
:104AF0005EE36BA97CA98DA99EA90E94A8B46093CE
:104B000052087093530880935408909355082CEAE8
:104B100035EC47E25EE36FA978AD89AD9AAD0E94AE
:104B200058B960935A0870935B0880935C0890931F
:104B30005D089AC180E50E949E8A882351F00E94F8
:104B4000078760936608709367088093680890935E
:104B5000690889E40E949E8A882381F00E94078761
:104B60002CEA35EC47E25EE30E94A8B46093620849
:104B700070936308809364089093650884E40E94AE
:104B80009E8A882381F00E9407872CEA35EC47E251
:104B90005EE30E9458B960935E0870935F0880934B
:104BA000600890936108E5E8F4E184918F010F5F5C
:104BB0001F4F882321F00E943A87F801F6CF4091D9
:104BC00066085091670860916808709169088AE1E9
:104BD00099E00E9455432CEA35EC47E25EE3609190
:104BE00062087091630880916408909165080E9442
:104BF00058B9AB01BC0186E199E00E9455432CEA0B
:104C000035EC47E25EE360915E0870915F08809149
:104C10006008909161080E94A8B4AB01BC0182E1D8
:104C200099E00E9455438AE00E943A871DC1849111
:104C30008F010F5F1F4F882321F00E943A87F801F0
:104C4000F6CFEEE1F9E084918F010F5F1F4F8823CB
:104C500009F40AC10E943A87F801F5CF0E94E55194
:104C600003C181E00E94B0850E94719AFDC080E07E
:104C70000E94B0850E94719AF7C00E94189BF4C0F0
:104C80000E944173F1C00E94D9A7EEC083E50E9443
:104C90009E8A882321F00E948F8A91E089270E94B2
:104CA000CA60E2C00E941099DFC00E942698DCC052
:104CB0000E941298D9C088E50E949E8AD82E89E564
:104CC0000E949E8AE82E8AE50E949E8AF82E85E43C
:104CD0000E949E8A082FD11007C0E11005C0F11074
:104CE00003C011E0182701C010E088E50E94E58AA2
:104CF000882309F4EAC60E947E8A112331F01092BB
:104D0000740580E00E946E7006C08130C1F3DD2022
:104D100011F08A30A1F389E50E94E58A882309F41D
:104D2000D7C60E947E8A112331F01092FB0481E0E5
:104D30000E946E7006C08130C1F3EE2011F08A30FF
:104D4000A1F38AE50E94E58A882309F4C4C60E947B
:104D50007E8A112331F01092820482E00E946E70EC
:104D600006C08130C1F3FF2011F08A30A1F385E441
:104D70000E94E58A882309F4B1C60E947E8A112325
:104D800031F01092090486E00E946E706DC0882395
:104D9000C1F3002309F468C08A3009F065C0F1CF7F
:104DA00081E080932E0283E50E94E58A882339F012
:104DB0000E948F8A811158C00E94A5A555C083E525
:104DC0000E949E8AF7CF0E94BCA74EC0F0908F062B
:104DD0000E94E55110911D0F80E00E949786FF20F0
:104DE00029F1E5E8F4E184918F010F5F1F4F8823DB
:104DF00021F00E943A87F801F6CF84E50E943A87B5
:104E00006F2D70E080E090E04AE00E94DC8880E254
:104E10000E943A87EFE3F9E084918F010F5F1F4F03
:104E2000882311F10E943A87F801F6CF10925403BB
:104E3000812F0E949786E5E8F4E184918F010F5F4E
:104E40001F4F882321F00E943A87F801F6CF609126
:104E5000540370E08DE299E00E9499438AE00E9439
:104E60003A8702C00E94BCA71092DB0E0E9488A560
:104E700044C6A2D68DE09FE00E9441A58091920693
:104E800083FDA5C0C090190FD0901A0FE0901B0FA2
:104E9000F0901C0F2091EA033091EB034091EC035A
:104EA0005091ED03C701B6010E9443B4882309F471
:104EB0008EC0609146067091470680914806909199
:104EC00049060E94C0B980919503811127C0809145
:104ED0000802909109026817790704F5C092EA0365
:104EE000D092EB03E092EC03F092ED03E5E8F4E1FD
:104EF00084918F010F5F1F4F882321F00E943A8712
:104F0000F801F6CFE0E4F2E084918F010F5F1F4FCC
:104F1000882321F00E943A87F801F6CF8090190F7C
:104F200090901A0FA0901B0FB0901C0F2091EA03D5
:104F30003091EB034091EC035091ED03C501B401B6
:104F40000E947BB86B017C0120E030E0A9010E9447
:104F5000A2BA87FF04C0F7FAF094F7F8F094E09152
:104F6000540334E0E39FF0011124EC5FFD4F2081F6
:104F7000318142815381C701B6010E94A8B420E06B
:104F800030E048E453E40E94A2BA181604F5809277
:104F9000EA039092EB03A092EC03B092ED03E5E8F4
:104FA000F4E184918F010F5F1F4F882321F00E944D
:104FB0003A87F801F6CFE1E2F2E084918F010F5FCA
:104FC0001F4F882321F00E943A87F801F6CF6091A5
:104FD000010270910202072E000C880B990B0E94AF
:104FE00049B420912302309124024091250250912E
:104FF00026020E94A8B42AE037ED43E25CE30E9457
:10500000A8B4698F7A8F8B8F9C8FE0905403809126
:10501000150F9091160FA091170FB091180F409196
:10502000110F5091120F6091130F7091140F009196
:105030000D0F10910E0F20910F0F3091100F09835B
:105040001A832B833C834D875E876F87788B898B90
:105050009A8BAB8BBC8B1D8A1E8A1F8A188EAE0161
:105060004F5E5F4FBE01635F7F4FCE0101960E948E
:10507000895CAE014B5E5F4F6A018E01075E1F4F78
:1050800029E13FE044505109BE01635F7F4FCE01EB
:1050900001960E94444480E1EDE0FFE0AEEDB3E014
:1050A00001900D928A95E1F7DFCE2FE133E041E0E8
:1050B000602F812F0E945A5661E0812F0E94706BF1
:1050C000A12CB12CAE14BF0414F00C94451860E070
:1050D000812F0E94EE71C301B2010E94367061E01F
:1050E000812F0E94EE71C301B2010E94367060E010
:1050F000812F0E94EE71C301B2010E9436705FEFF2
:10510000A51AB50ADFCF62E0802F0E94706B61E0C4
:1051100070E080E090E00E94926C802E002E000CE7
:1051200099088C189D08802F0E94C671F501E80D22
:10513000F91D80830C94FA18109200025601A01AEF
:10514000B10AE9EEF2E084917F012FEFE21AF20A50
:10515000882321F00E943A87F701F5CF3AEFA31A8E
:10516000B108B7FE0FC0E1EDF2E084917F014FEF8F
:10517000E41AF40A882311F40C9494190E943A87D3
:10518000F701F3CF780158E0E50EF11CA50165EEBB
:105190007FEFC7010E9480BBB5010B2C000C880B70
:1051A000990B0E944289E1EBF2E084914F019FEF5D
:1051B000891A990A811103C0812C912C26C00E9462
:1051C0003A87F401F2CFD7018C91853EC1F0C70137
:1051D0000E94EC5F66E172E084EA92E00E94B243D2
:1051E000F70180810E941C60BC0182EA92E00E946B
:1051F000B2438AE00E943A878AE00E943A87FFEF32
:105200008F1A9F0A2FEFE21AF20A8A149B04DCF22B
:105210000C9494190E9407870E94C0B970934B06A2
:1052200060934A0680E00E94AE7E0E94078720E0DD
:1052300030E04AEA52E40E9443B418161CF00E947F
:10524000228002C00E94E97F0E9404A981E080932D
:10525000030218A619A61AA61BA61FA618AA19AA01
:105260001AAA1CA21BAA5CE35FAB8CE18BAF96E48D
:105270009CAFE12CF12C00E81FEB812C912C540108
:1052800060914A0670914B06072E000C880B990B13
:105290000E9449B41B018F8F98A39B01AC01B701F9
:1052A000C8010E9443B48823C9F02091460630917A
:1052B00047064091480650914906B1018F8D98A14B
:1052C0000E9443B4881F8827881F8CA3AEA5AA23F9
:1052D00041F0882331F080910302C6CD17010F8F72
:1052E00018A30E94CA6C6B017C01DC01CB012FA5C5
:1052F00038A949A95AA9821B930BA40BB50BB7FD7A
:105300003AC0D701C60188519C4FAF4FBF4F8FA7FE
:1053100098ABA9ABBAAB0E944171E8EDF4E084917F
:105320008F010F5F1F4F882321F00E943A87F801F9
:10533000F6CF81149104A104B104B9F0D501C401E0
:10534000805F984DAF4FBF4FBC01CD016C197D09F7
:105350008E099F0928EE33E040E050E00E941EB81D
:10536000CA01B9010E94428903C08FE30E943A87B3
:105370008AE00E943A870E94A6A10E94CA6C6093AC
:10538000DC0E7093DD0E8093DE0E9093DF0E0091A5
:10539000460610914706909148069CA7A0914906A1
:1053A000ADA79801492F5A2FB1018F8D98A10E9466
:1053B0007BB82B013C0120E030E0A9010E94A2BA99
:1053C00087FF04C077FA709477F870948114910481
:1053D000A104B10459F420E030E040E85FE3C301E8
:1053E000B2010E9443B487FF0DC00AC020E030E044
:1053F00040E450E4C301B2010E94A2BA181614F4AA
:1054000046015701BCA1BB2391F128A539A54AA5A6
:105410005BA5211531054105510541F0D701C601B4
:10542000821B930BA40BB50BB7FD21C098014CA5B3
:105430005DA56BA97FA98BAD9CAD0E947BB820E0D8
:1054400030E040EC5FE30E9443B487FD44CFD701D6
:10545000C601805A9541AF4FBF4F88A799A7AAA709
:10546000BBA70BAB1FAB9CA59BAFADA5ACAF809111
:105470000302882309F42FCF81149104A104B104FD
:1054800021F471010F8D18A1FBCEB0E1CB1AB7E268
:10549000DB0AE108F108C818D908EA08FB08F7FE9A
:1054A0001ACFEFCF0E9407870E94C0B963377105FA
:1054B0000CF04DC170934506609344060E94637ED4
:1054C0000E94078720E030E040EA50E40E94A2BA40
:1054D000181614F40E94E97F81E080930302809102
:1054E000540380933F0618A219A21AA21BA21FA65A
:1054F00018AA19AA1AAA1F8E1BAAECE3EFABFCE1AB
:10550000FBAF26E42CAFC12CD12CA0E8EA2EBFEBD8
:10551000FB2E412C512C32016091440670914506BE
:10552000072E000C880B990B0E9449B41B01182F01
:10553000092F9B01482F592FB601C7010E9443B480
:105540008823C9F0209140063091410640914206DF
:1055500050914306B101812F902F0E9443B4881FC0
:105560008827881F8F8F3EA5332341F0882331F091
:105570008091030279CC16011E2D0F2D0E94CA6C5A
:105580006B017C01DC01CB012FA538A949A95AA9DF
:10559000821B930BA40BB50BB7FD3BC0D701C60113
:1055A00088519C4FAF4FBF4F8FA798ABA9ABBAABF9
:1055B0000E944171ECEDF4E084915F019FEFA91A24
:1055C000B90A882321F00E943A87F501F5CF4114EA
:1055D000510461047104B9F0D301C201805F984D98
:1055E000AF4FBF4FBC01CD016C197D098E099F09DA
:1055F00028EE33E040E050E00E941EB8CA01B90135
:105600000E94428903C08FE30E943A878AE00E9489
:105610003A870E94A6A10E94CA6C6093DC0E709328
:10562000DD0E8093DE0E9093DF0EA0914006ACA3BA
:10563000B0914106B8A7E0914206ECA7F09143066D
:10564000FDA79D01AF01B101812F902F0E947BB872
:105650004B015C0120E030E0A9010E94A2BA87FF63
:1056600004C0B7FAB094B7F8B0944114510461047F
:10567000710459F420E030E040E85FE3C501B40173
:105680000E9443B487FF0DC00AC020E030E040E82C
:1056900050E4C501B4010E94A2BA181614F4260100
:1056A00037012F8D2223C1F188A199A1AAA1BBA105
:1056B000892B8A2B8B2B61F0D701C60128A139A138
:1056C0004AA15BA1821B930BA40BB50BB7FD24C0B1
:1056D0002CA138A54CA55DA56BA97FA98BAD9CAD70
:1056E0000E947BB820E030E040EC5FE30E9443B4CE
:1056F00087FD3ECFD701C601805A9541AF4FBF4FBE
:1057000088A399A3AAA3BBA39CA19BABA8A5AFAB5D
:10571000BCA5BBAFEDA5ECAF80910302882309F4D3
:1057200027CF411451046104710421F46101E12E79
:10573000F02EF2CEF0E1CF1AF7E2DF0AE108F1082D
:10574000C418D508E608F708F7FE12CFEFCF63E7D5
:1057500070E0B0CE0E94E55188E50E949E8A8823C1
:1057600031F05F9A8091D9038E7F8093D90389E5C8
:105770000E949E8A882331F08A9A8091D9038D7F76
:105780008093D9038AE50E949E8A882359F08091EC
:10579000080180958170809306018091D9038B7FE9
:1057A0008093D90385E40E949E8A882309F45CCB08
:1057B000129A5ACB0E94078720E030E040E050EC7C
:1057C0000E9443B487FD12C00E94078720E030E0AA
:1057D00040E050E40E94A2BA18161CF00E9407870D
:1057E00009C060E070E080E090E404C060E070E038
:1057F00080E090EC20914A0830914B0840914C0891
:1058000050914D080E94A8B40E94C0B92091D903BC
:1058100022FF2ACB2091720830917308620F731F08
:1058200070937308609372081FCB4FA558A9452B3E
:1058300009F41CC161964CAC5DAC6EAC7FAC619759
:10584000480E591E6A1E7B1E61962CAD3DAD4EADB5
:105850005FAD6197281B390B4A0B5B0BCA01B9017D
:105860002CA13DA14EA15FA10E940FB8A3019201FE
:105870000E9440B8D501C401820F931FA41FB51F19
:1058800084319105A105B105FCF04C015D018C3E10
:105890009105A105B1052CF05BEE852E912CA12C74
:1058A000B12C40E884169104A104B104DCF08EEF21
:1058B00090E0A0E0B0E088199909AA09BB098CA37F
:1058C0009DA3AEA3BFA312C044E1842E912CA12CB2
:1058D000B12C24E130E040E050E02CA33DA34EA3E6
:1058E0005FA304C08CA29DA2AEA2BFA2B501A40179
:1058F0008CEC98E00E9472434CA15DA16EA17FA147
:1059000087EC98E00E9472434BAD5CAD6DAD7EAD0F
:1059100080EC98E00E9455434FAD21965FAD2197F2
:1059200022966FAD229723967FAD239789EB98E05F
:105930000E9455434FA558A9433051050CF496C019
:105940006CA17DA18EA19FA10E9449B420E030E00E
:1059500040E850E40E94A8B46B017C012BAD3CAD43
:105960004DAD5EAD6FAD21967FAD219722968FAD87
:10597000229723969FAD23970E947BB82BED3FE0A3
:1059800049E450E40E94A8B420E030E040E05FE346
:105990000E94A8B49B01AC01C701B6010E9458B98E
:1059A0006B017C01C301B2010E9449B42FE632E1D0
:1059B00043E85AE30E94A8B42B013C01B701A601B9
:1059C00083EB98E00E945543B301A2018DEA98E071
:1059D0000E9455432AE939E949E15FE3C701B6016D
:1059E0000E94A8B46B017C019B01AC010E947CB8B1
:1059F000A30192010E9458B96BAB7CAB8DAB9EABFF
:105A0000A3019201C701B6010E94A8B420E030E0D2
:105A100040E05EE30E94A8B46FAB78AF89AF9AAF65
:105A2000EDE9F8E084913F015FEF651A750A88237C
:105A300021F00E943A87F301F5CFB701A60187E96B
:105A400098E00E9455434BA95CA96DA97EA981E904
:105A500098E00E9455434FA958AD69AD7AAD8BE8E7
:105A600098E00E9455438AE00E943A878CA19DA14C
:105A7000AEA1BFA1880D991DAA1DBB1DEF8DB595C7
:105A8000A79597958795E7FF03C080933E0605C0CD
:105A9000A896EEADFFADA89780832FA538A92F5FFC
:105AA0003F4F38AB2FA738A53BAF4CA54CAF5DA5FA
:105AB0005DAF8EA58EAF48A059A06AA07BA091E0F3
:105AC00028969FAF28970C94ED23112351F017C906
:105AD000112351F02AC9112351F03DC9112351F06E
