:100000000C9413150C9444150C9444150C9444153D
:100010000C9444150C9444150C9444150C944415FC
:100020000C9444150C9444150C9444150C944415EC
:100030000C9444150C9444150C9444150C944415DC
:100040000C9444150C94ECAB0C9444150C9444158E
:100050000C9444150C9444150C947C6A0C94669D85
:100060000C9444150C94D9390C9444150C944415F3
:100070000C9444150C9444150C9444150C9444159C
:100080000C9444150C9444150C9444150C9444158C
:100090000C9444150C9444150C9444150C9444157C
:1000A0000C9444150C9444150C9444150C9444156C
:1000B0000C9444150C9444150C9444150C9444155C
:1000C0000C9444150C9444150C9444150C9444154C
:1000D0000C9444150C9444150C9444150C9444153C
:1000E0000C9444158C7A8F7A967A997A9D7A937AC1
:1000F000A07AA37AA77AAA7AAD7AB17AB47AB77AD3
:10010000937ABB7ABE7AC17ACC7CEB7C0A7D2D7D5A
:10011000507DEF7E737D947DB57DD87DFB7D1E7E09
:10012000417E647EEF7E877EAA7ECD7EC49BC79B88
:10013000B69BBA9BC09BFE9BCB9BCF9BD59BD99B71
:10014000DD9BE39BE79BEB9BFE9BF19BF59BF99B68
:10015000639C689C6D9C779C819CFA9C8B9C939C77
:100160009B9CA59CAF9CB99CC89CD29CFA9CDC9C97
:10017000E69CF09C084AD73B3BCE016E84BCBFFD99
:10018000C12F3D6C74319ABD56833DDA3D00C77F67
:1001900011BED9E4BB4C3E916BAAAABE0000008000
:1001A0003F05A84CCDB2D44EB93836A9020C50B98F
:1001B000918688083CA6AAAA2ABE000000803F00BB
:1001C0004E414E494E495459494E46CDCCCC3D0A3C
:1001D000D7233C17B7D13877CC2B329595E6241F1F
:1001E000B14F0A000020410000C84200401C4620D8
:1001F000BCBE4CCA1B0E5AAEC59D7420746F6F20D6
:100200006C6F6E6720657874727573696F6E20709D
:10021000726576656E7465640A0020636F6C642095
:10022000657874727573696F6E2070726576656E2D
:100230007465640A0047322F47332062616420707E
:100240006172616D65746572730A00486F6D652037
:1002500058592066697273740A00205A3A200020A7
:10026000593A200042656420583A200025697300FD
:1002700025696D20256973002569682025696D2031
:1002800025697300256964202569682025696D202A
:10029000256973002569792025696420256968200E
:1002A00025696D20256973005072696E7420746928
:1002B0006D653A2000446F6E652E0A0061626C65C0
:1002C000640A0064697300656E00656E6473746F20
:1002D00070206D6F6E69746F722000534552564FD7
:1002E000206E6F742073657475700A0057617463B3
:1002F00068696E672070696E730A003D003F206177
:10030000646472657373203A2000206279746573A7
:10031000206F66206D656D6F727920696E697469F2
:10032000616C697A65642E0A0A00556E61626C65BB
:1003300020746F20696E697469616C697A652E0A30
:100340000A00496E697469616C697A696E67206632
:10035000726565206D656D6F727920626C6F636B7D
:100360002E0A0A0A00747275650A00207265747597
:10037000726E3D000A4D656D6F727920436F727227
:10038000757074696F6E206465746563746564204C
:10039000696E2066726565206D656D6F727920618A
:1003A0007265612E0A002020626C6F636B5F666F5E
:1003B000756E643D00202020002920666F756E64F4
:1003C0003D00202800207370203C2048656170208B
:1003D000002073703D000A5F5F6273735F656E6437
:1003E0003A20003D000A265F5F62726B76616C3ACC
:1003F00020000A666D632829206E3D0063686563EE
:100400006B5F666F725F667265655F6D656D6F725B
:10041000795F636F7272757074696F6E2829203D01
:10042000200020627974657320617420000A4C6199
:100430007267657374206672656520626C6F636BAA
:1004400020697320000A4D656D6F727920436F72C9
:1004500072757074696F6E20646574656374656429
:1004600020696E2066726565206D656D6F727920FA
:10047000617265612E0A002062797465732066726C
:1004800065652061742000466F756E6420000A4324
:100490006F7272757074696E6720616464726573DF
:1004A000733A2000436F7272757074696E672066CC
:1004B000726565206D656D6F727920626C6F636B1C
:1004C0002E0A0A000A537461636B20506F696E74C0
:1004D0006572203A20000A7374617274206F66207E
:1004E00066726565207370616365203A20000A5F5B
:1004F0005F6273735F656E64203A20000A5F5F621B
:10050000726B76616C203A20004B494C4C45442E6E
:10051000200020573A0050533A310A0050533A30E5
:100520000A002C20002C20004B6420002364656608
:10053000696E652044454641554C545F004B692027
:100540000023646566696E652044454641554C54F8
:100550005F004B70200023646566696E652044452A
:100560004641554C545F00504944204175746F74A6
:10057000756E652066696E697368656421205075C3
:100580007420746865206C617374204B702C204B50
:100590006920616E64204B6420636F6E7374616EBA
:1005A00074732066726F6D2062656C6F7720696E60
:1005B000746F20436F6E66696775726174696F6EE0
:1005C0002E680A00504944204175746F74756E6539
:1005D000206661696C6564212074696D656F75744E
:1005E0000A00453120544845524D414C2052554E49
:1005F000415741590042454420544845524D414CD1
:100600002052554E4157415900546865726D616CD6
:100610002052756E617761790045312048656174BB
:10062000696E67206661696C656400426564206874
:10063000656174696E67206661696C656400486510
:100640006174696E67206661696C65640050494435
:10065000204175746F74756E65206661696C6564A0
:10066000212054656D706572617475726520746FB8
:100670006F20686967680A00204B643A2000204BAD
:10068000693A2000204B703A20000A20436C6173C5
:1006900073696320504944200A002054753A2000B1
:1006A000204B753A2000206D61783A2000206D695A
:1006B0006E3A200020643A200020626961733A207B
:1006C00000504944204175746F74756E65206661F1
:1006D000696C656421204261642065787472756478
:1006E0006572206E756D6265720A00504944204142
:1006F00075746F74756E652073746172740A004549
:100700004550524F4D204F4B0A003A200050726F17
:100710006265205A204F6666736574003F5A206FE9
:100720007574206F662072616E676520282D3230E7
:1007300020746F203230290A004163746976652085
:1007400045787472756465723A2000496E76616C02
:1007500069642065787472756465720A00656E71EB
:1007600075657565696E672022004C696E65204E5F
:10077000756D626572206973206E6F74204C6173B1
:1007800074204C696E65204E756D6265722B312C3C
:10079000204C617374204C696E653A20004B494CC3
:1007A0004C45442E20005072696E7465722073743B
:1007B0006F707065642064756520746F2065727257
:1007C0006F72732E20466978207468652065727296
:1007D0006F7220616E6420757365204D3939392040
:1007E000746F20726573746172742E202854656D65
:1007F00070657261747572652069732072657365C6
:10080000742E2053657420697420616674657220AB
:1008100072657374617274696E67290A004E6F2085
:10082000436865636B73756D2077697468206C69C4
:100830006E65206E756D6265722C204C617374203C
:100840004C696E653A2000636865636B73756D2053
:100850006D69736D617463682C204C617374204CF6
:10086000696E653A20004D3131300020496E766165
:100870006C69642065787472756465722000486FD5
:100880006D696E67206661696C6564000A0A42657D
:1008900064204C6576656C20436F72726563746981
:1008A0006F6E204D61747269783A00202B000A4304
:1008B0006F7272656374656420426564204865697F
:1008C0006768742076732E2042656420546F706FC1
:1008D0006C6F67793A0A00202B000A426564204851
:1008E000656967687420546F706F677261706879AA
:1008F0003A0A2020202B2D2D2D204241434B202D24
:100900002D2B0A2020207C20202020202020202089
:1009100020207C0A204C207C20202020282B2920ED
:100920002020207C20520A2045207C2020202020CE
:100930002020202020207C20490A2046207C2028BE
:100940002D29204E20282B29207C20470A205420A6
:100950007C20202020202020202020207C20480ACD
:100960002020207C20202020282D29202020207CB1
:1009700020540A2020207C202020202020202020FD
:1009800020207C0A2020204F2D2D2046524F4E54EF
:10099000202D2D2B0A2028302C30290A004D65618E
:1009A0006E206F662073616D706C656420706F6976
:1009B0006E74733A200020643A200020623A2000CE
:1009C00045716E20636F656666696369656E7473F1
:1009D0003A20613A2000202844525952554E2900AD
:1009E000473239204175746F20426564204C65762A
:1009F000656C696E67003F20284C2C522C462C42B7
:100A000029206F7574206F6620626F756E64732E77
:100A10000A003F50726F626520706F696E747320B8
:100A200028592920697320696D706C61757369623A
:100A30006C652028322D33292E0A003F50726F62D8
:100A40006520706F696E747320285829206973209F
:100A5000696D706C61757369626C652028322D3325
:100A6000292E0A003F2856296572626F7365206C33
:100A70006576656C20697320696D706C617573694A
:100A8000626C652028302D34292E0A00000136378B
:100A90002603FFFFFF353C3D380EFFFFFF312E30B0
:100AA0003E12FFFFFFFF28FF0C0809FFFFFF1A1C83
:100AB00018FFFF2A08440AFF4350726F62696E678D
:100AC000206661696C65640A00205A3A200020594A
:100AD0003A200042656420583A200020666972730B
:100AE000740A005A0059005800486F6D652000656F
:100AF00063686F3A00000020002300260029002CC4
:100B0000002F00320000010000030106010901006E
:100B1000002200250028002B002E003100340002A6
:100B2000010000050108010B010505050507050881
:100B3000080808020202020A0A0808040404040160
:100B40000101010101010103030303030303030482
:100B50000707070C0C0C0C0C0C0C0C020202020612
:100B6000060606060606060B0B0B0B0B0B0B0B0102
:100B700002102020080810204010204080020102AE
:100B80000108040201010204081020408080402076
:100B900010080402018004020180402010080402B1
:100BA000010804020101020408102040800102042F
:100BB00008102040804572726F723A00453120540F
:100BC0004845524D414C2052554E415741590042E3
:100BD000454420544845524D414C2052554E4157B2
:100BE000415900546865726D616C2052756E617771
:100BF000617900454550524F4D20646174617369BD
:100C00007A65206572726F722E0A00290A002062CE
:100C1000797465733B206372632000536574746953
:100C20006E67732053746F726564202800290A0070
:100C30002062797465733B206372632000207374B3
:100C40006F7265642073657474696E677320726572
:100C500074726965766564202800202863616C637E
:100C6000756C6174656429210A0020213D200045CE
:100C70004550524F4D20435243206D69736D61744E
:100C80006368202D202873746F726564292000200A
:100C900053697A653A2000496E6465783A200020ED
:100CA0004D61726C696E3D563535290A00284545FF
:100CB00050524F4D3D00454550524F4D2076657284
:100CC00073696F6E206D69736D61746368200024B1
:100CD000F4D43050C38E20C2A24017828B70111200
:100CE0007A910D816CD90AA861E108C7586607613D
:100CF0005143061E4B5D05C145A7041A4111040965
:100D00003D9803713931034036DB0265339102D4DB
:100D1000305402802E1D02632CEE01752AC501B0ED
:100D200028A001102781018F2564012B244B01E0AD
:100D3000223401AC211F018D200D01801FFC008495
:100D40001EED00971DDF00B81CD200E61BC6002078
:100D50001BBC00641AB200B219A8000A19A0006AEC
:100D6000189900D117910040178B00B516840031F7
:100D7000167E00B31579003A157300C7146F00583A
:100D8000146A00EE1366008813630025135E00C723
:100D9000125B006C12570015125400C11151007003
:100DA000114F0021114B00D61049008D104700460D
:100DB00010440002104200C00F4000800F3E00426D
:100DC0000F3C00060F3B00CB0E3800930E37005C43
:100DD0000E3500270E3400F30D3200C10D310090A6
:100DE0000D3000600D2E00320D2D00050D2C00D9A8
:100DF0000C2B00AE0C2900850C29005C0C2700355B
:100E00000C27000E0C2600E80B2400C40B2400A0C5
:100E10000B23007D0B23005A0B2100390B210018F6
:100E20000B2000F80A1F00D90A1E00BB0A1E009DF5
:100E30000A1D00800A1D00630A1C00470A1B002CC3
:100E40000A1B00110A1A00F7091A00DD091900C46B
:100E5000091900AB091900920917007B09180063F2
:100E60000917004C09160036091600200916000A59
:100E7000091500F5081500E0081400CC081400B8A6
:100E8000081400A4081400900813007D0812006BD9
:100E900008130058081200460812003408110023F5
:100EA0000811001208110001081100F0071000E0FD
:100EB000071000D0071000C0071000B0070F00A1F6
:100EC00007100091070E0083070F0074070F0065DD
:100ED000070E0057070E0049070E003B070D002EB6
:100EE000070E0020070D0013070D0006070D00F97F
:100EF000060C00ED060D00E0060C00D4060C00C840
:100F0000060C00BC060C00B0060C00A4060B0099F1
:100F1000060C008D060B0082060B0077060B006C9A
:100F2000060B0061060A0057060B004C060A004239
:100F3000060A0038060A002E060A0024060A001ACD
:100F4000060A001006090007060A00FD050900F45C
:100F5000050900EB050900E2050900D9050900D0E3
:100F6000050900C7050900BE050900B5050800AD63
:100F7000050800A50509009C050800940508008CDB
:100F8000050800840508007C050800740508006C4D
:100F9000050700650508005D050700560508004EB9
:100FA0000507004705070040050800380507003120
:100FB0000507002A050700230507001C0506001683
:100FC0000507000F0507000805060002050700FBDE
:100FD000040600F5040700EE040600E8040600E23B
:100FE000040700DB040600D5040600CF040600C990
:100FF000040600C3040600BD040600B7040600B1E1
:10100000040500AC040600A6040600A00405009B2D
:1010100004060095040500900406008A0405008576
:10102000040500800406007A0405007504050070BC
:101030000405006B04050066040500610405005CFE
:1010400004050057040500520405004D040500483E
:10105000040500430405003E0404003A040500357D
:10106000040500300404002C0405002704040023B8
:101070000405001E0404001A0404001604050011EF
:101080000404000D04040009040500040404000025
:10109000040400FC030400F8030400F4030400F05B
:1010A000030400EC030400E8030400E4030400E08C
:1010B000030400DC030400D8030400D4030400D0BC
:1010C000030400CC030400C8030300C50303002489
:1010D000F404D9201BC40C5C0E9804C4095F02659B
:1010E000077101F405F900FB04B30048048700C14F
:1010F0000369005803550003034500BE023A00840B
:1011000002310053022A002902250004022000E4D3
:10111000011C00C8011900AF0117009801140084D8
:10112000011300710110006101100051010E004314
:10113000010D0036010B002B010B0020010B0015E7
:101140000109000C01090003010800FB000800F37D
:10115000000800EB000700E4000600DE000600D8EF
:10116000000600D2000600CC000500C7000500C242
:10117000000500BD000400B9000400B5000400B182
:10118000000400AD000400A9000400A5000300A2B3
:101190000003009F0004009B0003009800030095DB
:1011A00000020093000300900003008D0002008BFA
:1011B0000003008800020086000200840003008112
:1011C0000002007F0002007D0002007B0002007927
:1011D0000002007700010076000200740002007235
:1011E000000100710002006F0002006D0001006C40
:1011F0000002006A00010069000200670001006649
:10120000000100650001006400020062000100614D
:10121000000100600001005F0002005D0001005C51
:101220000001005B0001005A000100590001005854
:101230000001005700010056000100550001005454
:101240000001005300000053000100520001005152
:10125000000100500001004F0001004E0000004E50
:101260000001004D0001004C0001004B0000004B4C
:101270000001004A00010049000100480000004848
:101280000001004700010046000000460001004543
:10129000000000450001004400010043000000433D
:1012A0000001004200000042000100410000004136
:1012B000000100400001003F0000003F0001003E2F
:1012C0000000003E0001003D0000003D0001003C28
:1012D0000000003C0000003C0001003B0000003B1F
:1012E0000001003A0000003A000100390000003916
:1012F000000100380000003800000038000100370D
:101300000000003700010036000000360000003603
:1013100000010035000000350000003500010034F8
:1013200000000034000000340001003300000033EE
:1013300000000033000100320000003200000032E3
:1013400000010031000000310000003100010030D8
:1013500000000030000000300001002F0000002FCE
:101360000000002F0000002F0001002E0000002EC2
:101370000000002E0001002D0000002D0000002DB7
:101380000000002D0001002C0000002C0000002CAB
:101390000000002C0001002B0000002B0000002B9F
:1013A0000000002B0001002A0000002A0000002A93
:1013B0000000002A00010029000000290000002987
:1013C000000000290000002900010028000000287A
:1013D000000000280000002800000028000100276D
:1013E0000000002700000027000000270000002761
:1013F0000001002600000026000000260000002654
:101400000000002600010025000000250000002546
:101410000000002500000025000000250001002438
:10142000000000240000002400000024000000242C
:10143000000100230000002300000023000000231F
:101440000000002300000023000000230001002210
:101450000000002200000022000000220000002204
:1014600000000022000100210000002100000021F6
:1014700000000021000000210000002100000021E8
:1014800000010020000000200000002000000020DB
:1014900000000020000000200000002000000020CC
:1014A0000001001F0000001F0000001F0000001FBF
:1014B0000000001F0000001F0000001F0001001EB0
:1014C0000000001E0000001E0000001E0000003989
:1014D0003000003325000087190000B00F0000DB4A
:1014E000080000BD040000740200003F0100004538
:1014F00034004533004532004531004530005A3252
:10150000005932005832005A005900580062656490
:101510000A002C2073797374656D2073746F70707A
:10152000656421204865617465725F49443A200012
:101530004265642068656174696E67206661696CE4
:1015400065640048656174696E67206661696C65F1
:10155000640045312048656174696E672066616981
:101560006C65640048656174696E67206661696CCA
:101570006564001000AA03F0013A019002220130D4
:10158000031001D00302017004F7001005ED00B054
:1015900005E5005006DD00F006D7009007D10030C9
:1015A00008CC00D008C7007009C300100ABE00B004
:1015B0000ABB00500BB700F00BB300900CB000D08A
:1015C0000DAA00100FA5005010A00090119B00D094
:1015D000129600B014900090168B00701885005081
:1015E0001A8000301C7B00B01E750030216F00B0E7
:1015F0002369003026640010285F00902A5A00708A
:101600002C5500F02E4F0070314800B0324500F0EC
:1016100033410070363900103737005038330090AE
:10162000392D00D03A2700B03C1C00503D1700F087
:101630003D1100903E0900D03FE5FF453120457245
:10164000723A204D415854454D50004572723A202F
:101650004D415854454D5020424544004D41585449
:10166000454D502074726967676572656400453145
:10167000204572723A204D494E54454D50004572F6
:10168000723A204D494E54454D5020424544004D3C
:10169000494E54454D5020747269676765726564A0
:1016A00000202F002042403A0020403A000B15094C
:1016B00015071504150115FE14FB14F814F514F2A2
:1016C00014EF14747275650066616C7365002074A4
:1016D000656D706572617475726520707265776191
:1016E000726E207472696767657265643A200020C3
:1016F0007072657761726E20666C616720636C65DD
:10170000617265640A00526573656E643A20006F09
:101710006B00627573793A20706175736564206639
:101720006F7220696E7075740A00627573793A2061
:1017300070617573656420666F7220757365720AD7
:1017400000627573793A2070726F63657373696EA6
:10175000670A004B494C4C45442E20004B494C4CE9
:101760002063617573656420627920746F6F206DEA
:1017700075636820696E6163746976652074696D4C
:1017800065202D2063757272656E7420636F6D6DB8
:10179000616E643A20005072696E746572206861EF
:1017A0006C7465642E206B696C6C28292063616CF5
:1017B0006C6564210A002064726976657220637525
:1017C0007272656E743A2000000000000000000094
:1017D0000000000000004842000048420000804035
:1017E000000000005761726E696E673A20486F6DA5
:1017F000696E672042756D702044697669736F72F7
:10180000203C20310A000202040000A0400000A099
:1018100040000000400000484300004843000048EA
:1018200043FFFFFF2C20003F3F3F204D61783732C0
:1018300031393A3A006C65645F736574006C6564B5
:101840005F6F6666006C65645F6F6E004572726FF5
:10185000722077726974696E6720746F20454550F5
:10186000524F4D210A0000000A0B02090C0D0E0810
:101870000703040100000000000000000000000059
:101880000000000000000000000000000000000058
:101890000000121110000000000000000000000015
:1018A0000000000000000000000000004B494C4C0C
:1018B00045442E2000202D20496E76616C696420FD
:1018C0006578747275646572206E756D62657220DC
:1018D000210A002020506C616E6E6572427566664A
:1018E000657242797465733A2000204672656520FE
:1018F0004D656D6F72793A2000436F6D70696C654C
:10190000643A204F637420323320323031380A0079
:10191000207C20417574686F723A20286E6F6E6566
:101920002C2064656661756C7420636F6E666967F0
:10193000290A00323031382D30382D303100204C1A
:1019400061737420557064617465643A2000312EAF
:10195000312E390A004D61726C696E0020536F663A
:1019600074776172652052657365740A002057614F
:10197000746368646F672052657365740A0020425F
:10198000726F776E206F75742052657365740A00EC
:101990002045787465726E616C2052657365740AB7
:1019A00000506F77657255700A0073746172740A23
:1019B00000736C6F743A00205A3A0020593A0020A4
:1019C000583A00656E6473746F7073206869743A76
:1019D0002000556E6B6E6F776E20636F6D6D616E5C
:1019E000643A2022005A5F535445505F50494E00DC
:1019F0005A5F4D494E5F50494E005A5F454E414235
:101A00004C455F50494E005A5F4449525F50494E21
:101A1000005A5F43535F50494E00595F535445503D
:101A20005F50494E00595F4D494E5F50494E005935
:101A30005F454E41424C455F50494E00595F444915
:101A4000525F50494E00595F43535F50494E005812
:101A50005F535445505F50494E00585F4D494E5FAB
:101A600050494E00585F454E41424C455F50494EEB
:101A700000585F4449525F50494E00585F43535FDE
:101A800050494E0053535F50494E00534552564FF4
:101A9000335F50494E00534552564F325F50494EC6
:101AA00000534552564F315F50494E0053455256F0
:101AB0004F305F50494E00534453530053434B5FE4
:101AC00050494E0052414D50535F44395F50494E8A
:101AD0000052414D50535F44385F50494E005241CF
:101AE0004D50535F4431305F50494E0050535F4F6B
:101AF0004E5F50494E004D4F53495F50494E004D87
:101B000049534F5F50494E004D4158363637355F87
:101B10005353004C45445F50494E0048454154459D
:101B2000525F4245445F50494E004845415445523A
:101B30005F305F50494E0046494C5F52554E4F55FD
:101B4000545F50494E0046414E5F50494E0045316A
:101B50005F535445505F50494E0045315F454E41FB
:101B6000424C455F50494E0045315F4449525F50F9
:101B7000494E0045315F43535F50494E0045305F49
:101B8000535445505F50494E0045305F454E4142E9
:101B90004C455F50494E0045305F4449525F5049C3
:101BA0004E0045305F43535F50494E00455F4D55F1
:101BB00058325F50494E00455F4D5558315F50498E
:101BC0004E00455F4D5558305F50494E00415652CA
:101BD0005F53535F50494E004156525F53434B5F32
:101BE00050494E004156525F4D4F53495F50494E48
:101BF000004156525F4D49534F5F50494E00544586
:101C00004D505F4245445F50494E0054454D505F32
:101C1000315F50494E0054454D505F305F50494E42
:101C20000046494C57494454485F50494E00545867
:101C300044005258440050726F74656374656420A8
:101C400050696E0A002020206E6F6E2D7374616ED5
:101C5000646172642050574D206D6F646500433A93
:101C60002000423A2000413A200020202020434F0B
:101C70004D00202020636F6D7061726520696E7465
:101C800065727275707420656E61626C65640020A7
:101C900020206F766572666C6F7720696E7465724E
:101CA0007275707420656E61626C6564003A200024
:101CB0002020202054494D534B00423A2000202040
:101CC00020205443435200413A2000202020205439
:101CD000434352002020202043533A20002020205C
:101CE0002057474D3A200050574D3A202025346464
:101CF0000050574D3A20202534640047004800002A
:101D00000088008A008C00B300B400000098009A9C
:101D1000009C00A800AA00AC0028012A012C012088
:101D200020202054494D455200440045006E00805B
:101D30000081006F00B000B1007000900091007150
:101D400000A000A10072002001210173002069732E
:101D500020616C736F207469656420746F207468EF
:101D600069732070696E0054494D45523143000A31
:101D7000202E002020002020506F72743A20004F47
:101D80007574707574203D2000496E707574202044
:101D90003D200050574D3A20202534640050574DC7
:101DA0003A20202534640050574D3A2020253464D1
:101DB0000050574D3A20202534640050574D3A20AA
:101DC000202534640050574D3A20202534640050BB
:101DD000574D3A20202534640050574D3A20202595
:101DE00034640050574D3A20202534640050574D3C
:101DF0003A20202534640050574D3A202025346481
:101E00000050574D3A20202534640050574D3A2059
:101E1000202534640050574D3A202025346400506A
:101E2000574D3A20202534640050574D3A20202544
:101E300034640020202000202020416E616C6F67F8
:101E400020696E203D20253564003C756E757365F4
:101E5000642F756E6B6E6F776E3E002028412532C1
:101E60006429202000257350494E3A2025336420F0
:101E700000416E616C6F6720696E203D20253564DE
:101E80000070726F746563746564200020284125BA
:101E9000326429202000257350494E3A20253364AE
:101EA0002000321C00012E1C0101211C3B00161CCD
:101EB00043000B1C4500FE1B4400F11B3201E41BD8
:101EC0003301D81B3401CD1B3501C21B2801B71BC0
:101ED0002A01AC1B2C01A21B2A01971B1C01891B88
:101EE00018017D1B1A01731B2C01681B22015A1B50
:101EF0001E014E1B2401461B0901371B04012A1B2E
:101F00000A011B1B0801131B0D01081B4201FF1ACC
:101F10003201F61A3301EC1A0C01DE1A0A01D11A49
:101F20000801C41A0901BC1A3401B71A3501AC1AE8
:101F30000B01A11A0601961A05018B1A0401841AD5
:101F400035017B1A3501711A3701641A26015A1AB4
:101F500003014F1A3601461A31013C1A3D012F1A6E
:101F60003801251A0E011A1A3C01111A2801071A04
:101F70003001FA193E01F0191201E5192E014D3117
:101F80003133205300205A3A0020593A0020436F41
:101F9000756E7420583A0020453A00205A3A0020C5
:101FA000593A00583A003A004361703A00544845A3
:101FB000524D414C5F50524F54454354494F4E008F
:101FC0004155544F5245504F52545F53445F535400
:101FD0004154555300454D455247454E43595F5076
:101FE000415253455200434153455F4C4947485481
:101FF0005F4252494748544E45535300544F474758
:102000004C455F4C494748545300534F4654574141
:1020100052455F504F574552004255494C445F501E
:10202000455243454E54004C4556454C494E475F3A
:1020300044415441005A5F50524F4245004155546B
:102040004F4C4556454C005052494E545F4A4F4202
:102050000050524F4752455353004155544F52453B
:10206000504F52545F54454D5000564F4C554D45BE
:102070005452494300454550524F4D005345524933
:10208000414C5F584F4E5F584F4646004649524DAF
:10209000574152455F4E414D453A4D61726C696EF4
:1020A00020312E312E392028476974687562292025
:1020B000534F555243455F434F44455F55524C3A49
:1020C00068747470733A2F2F6769746875622E6331
:1020D0006F6D2F4D61726C696E4669726D776172BA
:1020E000652F4D61726C696E2050524F544F434FB3
:1020F0004C5F56455253494F4E3A312E30204D4198
:102100004348494E455F545950453A4D6164203328
:1021100044205072696E746572204558545255447B
:1021200045525F434F554E543A3120555549443A34
:1021300063656465326132662D343161322D343726
:1021400034382D396231322D63353563363266339A
:10215000363766660A002F2F2000205400205200D8
:10216000416363656C65726174696F6E3A205000FB
:10217000205A00205900580020204D61783A200054
:10218000205A00205900580020204D696E3A200046
:102190004F6E20004F666600536F667420656E6454
:1021A00073746F70733A200020466C6F773A20008A
:1021B00020643A0020693A0020703A00496E766146
:1021C0006C69642065787472756465720A002064B5
:1021D0003A0020693A0020703A0043290A006162FF
:1021E0006C656420286D696E2074656D70200043F5
:1021F0006F6C6420657874727564657320617265B4
:102200002000426564204C6576656C696E6720002D
:102210004661696C656420746F20656E61626C65EF
:1022200020426564204C6576656C696E670A0042E1
:102230006564204C6576656C20436F7272656374CB
:10224000696F6E204D61747269783A004E6F206339
:10225000617365206C696768740A00434F4D4D5582
:102260004E49434154494F4E0044525952554E0035
:102270004552524F525300494E464F004543484F36
:10228000005374616E6461726420446576696174A0
:10229000696F6E3A20002052616E67653A20002017
:1022A0004D61783A2000204D696E3A20004D6561FD
:1022B0006E3A200046696E6973686564210A0020E1
:1022C00072616E67653A2000206D61783A200020C7
:1022D0006D696E3A2000207369676D613A200020B5
:1022E0006D65616E3A20003A207A3A2000206F66D0
:1022F0002000205A00205900205800476F696E675F
:1023000020746F3A00436C6F636B776973650A00E2
:10231000436F756E7465722D002044697265637435
:10232000696F6E3A2000202020616E676C653A204C
:10233000005374617274696E6720726164697573A9
:102340003A2000506F736974696F6E696E6720740C
:1023500068652070726F62652E2E2E0A003F4E75E2
:102360006D626572206F66206C65677320696E20F0
:102370006D6F76656D656E74206E6F7420706C6124
:10238000757369626C652028302D3135292E0A005D
:102390003F2028582C5929206F7574206F662062C1
:1023A0006F756E64732E0A003F53616D706C65200B
:1023B00073697A65206E6F7420706C6175736962E1
:1023C0006C652028342D3530292E0A004D343820F4
:1023D0005A2D50726F62652052657065617461623A
:1023E000696C69747920546573740A003F28562912
:1023F0006572626F7365206C6576656C2069732009
:10240000696D706C61757369626C652028302D345C
:10241000292E0A006F6B0020573A007C2277227029
:102420002269225B226F66660044454255473A00A6
:1024300020746F6F206C6F6E67206578747275738F
:10244000696F6E2070726576656E7465640A00202F
:10245000636F6C6420657874727573696F6E207039
:10246000726576656E7465640A00000021002400C0
:1024700027002A002D003000330001010000040174
:1024800007010A01545249474745524544006F70BD
:10249000656E003A20007A5F6D696E00795F6D6944
:1024A0006E00785F6D696E005265706F7274696E50
:1024B0006720656E6473746F7020737461747573D4
:1024C0000A00FFFDFCFAF8F6F4F2F0EEECEAE9E7B8
:1024D000E5E3E1E0DEDCDAD9D7D5D4D2D0CFCDCB7D
:1024E000CAC8C7C5C3C2C0BFBDBCBAB9B7B6B4B30A
:1024F000B2B0AFADACAAA9A8A6A5A4A2A1A09E9D6A
:102500009C9A99989795949392908F8E8D8B8A89A7
:1025100088878684838281807F7E7D7B7A797877C5
:10252000767574737271706F6E6D6C6B6A696867C3
:10253000666564636261605F5E5D5C5B5A595858B2
:102540005756555453525150504F4E4D4C4B4A4A8A
:102550004948474646454443424241403F3E3E3D4E
:102560003C3B3B3A39383837363535343332323103
:1025700030302F2E2E2D2C2B2B2A292928272726A9
:10258000252524232322212120201F1E1E1D1C1C43
:102590001B1B1A19191818171616151514131312D0
:1025A000121111100F0F0E0E0D0D0C0C0B0A0A0953
:1025B00009080807070606050504040303020201CB
:1025C00000000000000100000001000080005555DF
:1025D00055000000400033333300AAAA2A00499274
:1025E000240000002000C7711C0099991900D145F2
:1025F0001700555515003BB1130024491200111165
:102600001100000010000F0F0F00E3380E00437997
:102610000D00CCCC0C00C3300C00E8A20B006421F0
:102620000B00AAAA0A00703D0A009DD80900427B4F
:10263000090092240900DCD30800888808001042B1
:10264000080000000800F0C10700878707007550E8
:102650000700711C07003EEB0600A1BC0600699054
:10266000060066660600703E06006118060017F454
:10267000050074D105005BB00500B29005006272E0
:1026800005005555050078390500B81E05000505FB
:1026900005004EEC040087D40400A1BD040090A7FF
:1026A000040049920400C17D0400EE690400C7568D
:1026B0000400444404005C3204000821040041107A
:1026C0000400000004003FF00300F8E0030026D2FD
:1026D0000300C3C30300CCB503003AA803000A9B60
:1026E0000300388E0300C08103009F750300D0698A
:1026F0000300505E03001D53030034480300913D66
:1027000003003333030016290300381F0300971515
:102710000300300C0300030303000BFA020049F12D
:102720000200BAE802005CE002002DD802002DD0C1
:10273000020059C80200B0C0020031B90200DAB18B
:102740000200AAAA0200A0A30200BC9C0200FA9503
:1027500002005C8F0200DF88020082820200457C5A
:1027600002002776020027700200436A02007C64A0
:102770000200D05E02003F590200C85302004861C7
:102780007264636F6465642044656661756C74206F
:1027900053657474696E6773204C6F616465640A75
:1027A00000E8030000E703000005000000E8030064
:1027B0000000007A4300007A43000000400000B0AF
:1027C000410000A0420000A0420000C0430000BE43
:1027D0004220204D393036003A0A0020286D6D29FC
:1027E00000205430204500205A0020590020580075
:1027F00053746570706572206472697665722063C7
:10280000757272656E743A0A0020204D3835312099
:102810005A005A2D50726F6265204F666673657458
:102820000020440020490020204D33303420500047
:1028300020440020490020204D33303120500050EA
:1028400049442073657474696E67733A0A002020E6
:102850004D3432302053004175746F20426564203E
:102860004C6576656C696E673A0A00204500205A0F
:102870000020590020580020540020530020204DF3
:1028800032303520510020453C6D61785F655F6ACC
:1028900065726B3E0020583C6D61785F785F6A65B9
:1028A000726B3E20593C6D61785F795F6A65726B2F
:1028B0003E205A3C6D61785F7A5F6A65726B3E00BC
:1028C000416476616E6365643A20513C6D696E5F68
:1028D0007365676D656E745F74696D655F75733E72
:1028E00020533C6D696E5F66656564726174653E18
:1028F00020543C6D696E5F74726176656C5F6665CD
:102900006564726174653E002054002052002020EE
:102910004D323034205000416363656C65726174E0
:10292000696F6E2028756E6974732F7332293A208F
:10293000503C7072696E745F616363656C3E2052D7
:102940003C726574726163745F616363656C3E20A1
:10295000543C74726176656C5F616363656C3E0ABA
:1029600000204500205A0020590020204D323031EF
:102970002058004D6178696D756D20416363656C09
:1029800065726174696F6E2028756E6974732F7338
:1029900032293A0A00204500205A00205900202000
:1029A0004D3230332058004D6178696D756D206669
:1029B00065656472617465732028756E6974732F20
:1029C00073293A0A00204500205A0020590020208F
:1029D0004D39322058005374657073207065722031
:1029E000756E69743A0A0020204D32303020443030
:1029F0000A0020204D3230302044002044697361A9
:102A0000626C65640A0046696C616D656E74207362
:102A1000657474696E67733A002020473231202054
:102A200020203B0052B011241FBECFEFD1E2DEBF09
:102A3000CDBF00E00CBF13E0A0E0B2E0EEE7F5E8A8
:102A400001E00BBF02C007900D92A435B107D9F782
:102A500020E1A4E5B3E001C01D92A733B207E1F77E
:102A600015E1C3E1D5E100E006C021970109802FFF
:102A7000FE010E946DC2C231D10780E00807A9F7AC
:102A80000E9466B10C94BDC20C9400002F923F923C
:102A90004F925F926F927F928F929F92AF92BF926E
:102AA000CF92DF92EF92FF920F931F93CF93DF931A
:102AB000CDB7DEB7CB59D1090FB6F894DEBF0FBE44
:102AC000CDBF2DB73EB7CA56DF4F39832883C659CD
:102AD000D04021E02093A50780911B088D3411F48C
:102AE0000C94CD1E843511F40C94362D873411F0DE
:102AF0000C94822D8091190890911A088B319105C0
:102B000009F438C67CF4843091053CF48230910598
:102B1000A4F597FF2BC00C94C91E049709F4F5C5C2
:102B20000C94C91E8E31910509F4BCC764F48C3134
:102B3000910509F4BDC64D9711F00C94C91E0E9471
:102B4000FD3A0C94842D8B35910511F40C94271EBD
:102B50008C35910511F40C942B1E8A35910511F0DA
:102B60000C94C91E109259030C94842D8091150267
:102B700081110C94892D0C94842D2091150222230F
:102B800011F40C94842D11E0029709F010E00E94DA
:102B90002C4982E50E94F13A882309F44AC10E9437
:102BA00012376B017C014090ED035090EE03609072
:102BB000EF037090F0038091F1039091F203A091E4
:102BC000F303B091F4038DAB9EABAFABB8AF2091E4
:102BD000B3073091B4074091B5075091B60729AFBC
:102BE0003AAF4BAF5CAF8091B7079091B807A09117
:102BF000B907B091BA0721968CAF9DAFAEAFBFAF0A
:102C0000219720E030E0A901C701B6010E9445BB31
:102C1000882309F460C5A301920169AD7AAD8BAD3B
:102C20009CAD0E9445BB81110FC02DA93EA94FA9A3
:102C300058AD21966CAD7DAD8EAD9FAD21970E94B4
:102C400045BB882309F447C520E030E0A901C7014E
:102C5000B6010E9445BB881F8827881F18130BC028
:102C600020E030E040E85FE361962CAF3DAF4EAF2F
:102C70005FAF61970AC080E090E0A0E8BFEB61968B
:102C80008CAF9DAFAEAFBFAF6197A301920169ADAD
:102C90007AAD8BAD9CAD0E947DBF29966CAF7DAFA8
:102CA0008EAF9FAF29972DA93EA94FA958AD219668
:102CB0006CAD7DAD8EAD9FAD21970E947DBF2D96F1
:102CC0006CAF7DAF8EAF9FAF2D9729962CAD3DADEC
:102CD0004EAD5FAD2997CA01B9010E94AABB4B0155
:102CE0005C012D962CAD3DAD4EAD5FAD2D97CA016B
:102CF000B9010E94AABB9B01AC01C501B4010E94AD
:102D00007EBF0E94E9C125966CAF7DAF8EAF9FAFAD
:102D1000259720E030E040E05FE30E94AABB4B0132
:102D20005C01A7019601C701B6010E94AABB6B0115
:102D30007C01A5019401C501B4010E94AABB9B01BD
:102D4000AC01C701B6010E947DBF0E94E9C19B0191
:102D5000AC0161966CAD7DAD8EAD9FAD61970E946B
:102D6000AABB4B015C0129AD3AAD4BAD5CADC301D3
:102D7000B2010E947EBF20E030E040E05FE30E94AD
:102D8000AABB6B017C012D966CAD7DAD8EAD9FAD68
:102D90002D97905825962CAD3DAD4EAD5FAD259746
:102DA0000E945AC09B01AC01C501B4010E94AABB9C
:102DB0009B01AC01C701B6010E947EBFA301920135
:102DC0000E947DBF6B017C0121962CAD3DAD4EADC7
:102DD0005FAD21976DA97EA98FA998AD0E947EBF96
:102DE00020E030E040E05FE30E94AABB2B013C0101
:102DF00025962CAD3DAD4EAD5FAD259729966CADBA
:102E00007DAD8EAD9FAD29970E945AC09B01AC014C
:102E1000C501B4010E94AABB9B01AC01C301B20170
:102E20000E947EBF2DA93EA94FA958AD0E947DBF2B
:102E300014C089E40E94F13A882329F00E941237D5
:102E40006B017C0103C0C12CD12C76018AE40E9465
:102E5000F13A8823F9F00E94123721966CAF7DAFCA
:102E60008EAF9FAF219720E030E0A901C701B601E6
:102E70000E9445BB81111EC020E030E0A9012196CF
:102E80006CAD7DAD8EAD9FAD21970E9445BB81118C
:102E900011C021C420E030E0A901C701B6010E94A1
:102EA00045BB882309F417C421961CAE1DAE1EAE87
:102EB0001FAE2197A701960150582DAB3EAB4FABEB
:102EC00058AF21968CAD9DADAEADBFAD2197B0583A
:102ED00089AF9AAFABAFBCAFCA01B9010E94AABB20
:102EE0004B015C0129AD3AAD4BAD5CADCA01B901F6
:102EF0000E94AABB9B01AC01C501B4010E947EBF28
:102F00000E94E9C16D966CAF7DAF8EAF9FAF6D979C
:102F10002091ED033091EE034091EF035091F003C7
:102F200025962CAF3DAF4EAF5FAF2597A701960119
:102F300025966CAD7DAD8EAD9FAD25970E947EBF71
:102F400061966CAF7DAF8EAF9FAF61978091F103BB
:102F50009091F203A091F303B091F40329968CAF02
:102F60009DAFAEAFBFAF299721962CAD3DAD4EAD15
:102F70005FAD2197BC01CD010E947EBFA1966CAFD1
:102F80007DAF8EAF9FAFA1972091B3073091B4076B
:102F90004091B5075091B6072D962CAF3DAF4EAF7F
:102FA0005FAF2D9761962CAD3DAD4EAD5FAD619796
:102FB0002D966CAD7DAD8EAD9FAD2D970E947DBFE2
:102FC0006B017C018091B7079091B807A091B90778
:102FD000B091BA0765968CAF9DAFAEAFBFAF6597A6
:102FE000A1962CAD3DAD4EAD5FADA197BC01CD011D
:102FF0000E947DBF4B015C012091F5033091F603E7
:103000004091F7035091F80369962CAF3DAF4EAF56
:103010005FAF69976091BB077091BC078091BD0756
:103020009091BE070E947DBF2B013C018091BF079C
:103030009091C007A091C107B091C207A9968CAF2B
:103040009DAFAEAFBFAFA9972091F9033091FA03BE
:103050004091FB035091FC03A5962CAF3DAF4EAFC2
:103060005FAFA597A70196016DA97EA98FA998AD1D
:103070000E94AABBAD966CAF7DAF8EAF9FAFAD97F0
:10308000A501940169AD7AAD8BAD9CAD0E94AABB40
:103090009B01AC01AD966CAD7DAD8EAD9FADAD9796
:1030A0000E947EBFAD966CAF7DAF8EAF9FAFAD97E8
:1030B000A50194016DA97EA98FA998AD0E94AABB14
:1030C0004B015C01A701960169AD7AAD8BAD9CAD5A
:1030D0000E94AABB9B01AC01C501B4010E947DBF47
:1030E000AD962CAD3DAD4EAD5FADAD970E94F1BF3D
:1030F0006B017C0120E030E0A9010E9445BB87FF05
:103100000AC02BED3FE049EC50E4C701B6010E9434
:103110007EBF6B017C01112351F02BED3FE049ECA8
:1031200050E4C701B6010E947DBF6B017C0120E025
:1031300030E0A901C701B6010E9445BB811128C03A
:103140002D962CAD3DAD4EAD5FAD2D9725966CAD5A
:103150007DAD8EAD9FAD25970E9445BB811118C0F6
:1031600065962CAD3DAD4EAD5FAD659729966CADC6
:103170007DAD8EAD9FAD29970E9445BB811108C0E2
:103180003BEDC32E3FE0D32E39ECE32E30E4F32E9B
:10319000A70196016D966CAD7DAD8EAD9FAD6D971F
:1031A0000E94AABB4B015C0120E030E0A901C301F1
:1031B000B2010E9445BB8823C9F0A5019401C50155
:1031C000B4010E94AABB4B015C01A3019201C3019F
:1031D000B2010E94AABB9B01AC01C501B4010E94CF
:1031E0007EBF0E94E9C14B015C010DC020E030E0D0
:1031F000A901C501B4010E94A4C187FF04C0B7FAA8
:10320000B094B7F8B0942FE632E143E85AE3C50131
:10321000B4010E9445BB87FF02C00C94842DC501F8
:10322000B4010E94F3C00E94C7C01B01672B19F4B0
:1032300022242394312CB10180E090E00E9449BB0C
:103240004B015C019B01AC01C701B6010E945AC051
:1032500025966CAF7DAF8EAF9FAF2597A5019401EA
:10326000C301B2010E945AC06D966CAF7DAF8EAFA4
:103270009FAF6D97A5962CAD3DAD4EAD5FADA597BB
:10328000A9966CAD7DAD8EAD9FADA9970E947DBF17
:10329000A50194010E945AC0A9966CAF7DAF8EAF74
:1032A0009FAFA99725962CAD3DAD4EAD5FAD25974F
:1032B000CA01B9010E94AABB20E030E040E05FE310
:1032C0000E94AABB9B01AC0160E070E080E89FE334
:1032D0000E947DBF65966CAF7DAF8EAF9FAF659747
:1032E00069968CAD9DADAEADBFAD699789879A8764
:1032F000AB87BC87A5962CAD3DAD4EAD5FADA59718
:103300002D873E874F87588B609100027091010294
:10331000072E000C880B990B0E944BBB20910802D2
:103320003091090240910A0250910B020E94AABBFF
:103330002AE037ED43E25CE30E94AABB6AA77BA7C1
:103340008CA79DA70E945A9D9B01AC0128533F4F1B
:103350004F4F5F4F69962CAF3DAF4EAF5FAF699750
:103360004DA85EA86FA878AC41E050E02B965FAF07
:103370004EAF2B9759E126965FAF26972B962EAD31
:103380003FAD2B972215330509F44AC10E94206EE8
:103390000E945A9DDC01CB0169962CAD3DAD4EAD2E
:1033A0005FAD6997821B930BA40BB50BB7FD10C0E3
:1033B0000E945A9D9B01AC0128533F4F4F4F5F4FD6
:1033C00069962CAF3DAF4EAF5FAF69970E94E9732E
:1033D00026963FAD2697315026963FAF269733234A
:1033E00009F445C065962CAD3DAD4EAD5FAD65971A
:1033F00069AD7AAD8BAD9CAD0E94AABB6B017C011F
:1034000025962CAD3DAD4EAD5FAD2597B201C30104
:103410000E94AABBA70196010E947EBF6B017C019E
:1034200065962CAD3DAD4EAD5FAD6597B201C30164
:103430000E94AABB4B015C0125962CAD3DAD4EAD63
:103440005FAD259769AD7AAD8BAD9CAD0E94AABBEF
:103450009B01AC01C501B4010E947DBF2B013C0161
:10346000C601D70189AF9AAFABAFBCAF5BC02B969B
:103470004EAD5FAD2B97BA0180E090E00E9449BB52
:1034800025962CAD3DAD4EAD5FAD25970E94AABBF4
:103490004B015C010E9457C06B017C01C501B40166
:1034A0000E94DFC14B015C01A70196016DA97EA9B5
:1034B0008FA998AD0E94AABB2B013C01A5019401E4
:1034C00021966CAD7DAD8EAD9FAD21970E94AABBBC
:1034D0009B01AC01C301B2010E947EBF2B013C01E4
:1034E000A50194016DA97EA98FA998AD0E94AABBE0
:1034F0004B015C01A701960121966CAD7DAD8EADAF
:103500009FAD21970E94AABB9B01AC01C501B401EC
:103510000E947DBF69AF7AAF8BAF9CAF59E1269611
:103520005FAF26979201A30161966CAD7DAD8EAD24
:103530009FAD61970E947EBF69837A838B839C8352
:1035400029AD3AAD4BAD5CADA1966CAD7DAD8EAD08
:103550009FADA1970E947EBF6D837E838F839887E6
:103560006D962CAD3DAD4EAD5FAD6D9769857A859D
:103570008B859C850E947EBF69877A878B879C8715
:10358000A9962CAD3DAD4EAD5FADA9976D857E85FD
:103590008F8598890E947EBF6D877E878F87988BE5
:1035A000CE0101960E945C77E09054031AA21BA200
:1035B0001CA21DA289819A81AB81BC818E8B9F8BBD
:1035C000A88FB98F8D819E81AF81B8858A8F9B8F9F
:1035D000AC8FBD8F89859A85AB85BC858E8F9F8F7B
:1035E000A8A3B9A3AE01425E5F4FBE01665E7F4FE6
:1035F000CE0146960E9497A2CE0182966C018E0162
:10360000065D1F4F9E01235F3F4FAE01425E5F4F3D
:10361000BE01665E7F4F0C970E94CA8D811151C01A
:10362000E09054031EA21FA218A619A68091B3070A
:103630009091B407A091B507B091B6078E8B9F8B80
:10364000A88FB98F8091B7079091B807A091B9075B
:10365000B091BA078A8F9B8FAC8FBD8F8091BB07CB
:103660009091BC07A091BD07B091BE078E8F9F8F30
:10367000A8A3B9A3AE01425E5F4FBE01665E7F4F55
:10368000CE0146960E9497A2DE0196966D018E01AC
:10369000065D1F4F2FEB37E0AE01425E5F4FBE016C
:1036A000665E7F4FCE0146960E94CA8D80E1E3EBB5
:1036B000F7E0ADEEB3E001900D928A95E1F70C943E
:1036C000842D2B96EEADFFAD2B9731962B96FFAF49
:1036D000EEAF2B9753CEE5EBFBE084918F010F5FAC
:1036E0001F4F882321F00E944537F801F6CFE5E30C
:1036F000F2E084918F010F5F1F4F882311F40C9427
:10370000842D0E944537F801F4CF80E50E94F13AFC
:10371000882329F00E9402376B017C0103C0C12C71
:10372000D12C760183E50E94F13A882361F00E9452
:10373000123720E030E04AE754E40E94AABB0E941E
:10374000C7C06B017C010E94639B0E945A9DC60EFC
:10375000D71EE81EF91E0E945A9DDC01CB018C1970
:103760009D09AE09BF09B7FD02C00C94842D0E94CB
:10377000E973F1CF0E94D74D81110C94842D80E024
:1037800090E0A0E2B1E489839A83AB83BC8380E0BC
:1037900090E0AEE3B3E48D839E83AF83B88780E08F
:1037A00090E0A0EAB1E489879A87AB87BC8780E57F
:1037B0000E94F13A882319F00E947A3A01C060E031
:1037C00080E090E0A8ECB2E48EA39FA3A8A7B9A7DD
:1037D00080E090E0A0EAB0E48AA39BA3ACA3BDA3E1
:1037E000613019F0623039F029C0BE016E5D7F4F43
:1037F000CE01099644C029853A854B855C85609148
:10380000F5037091F6038091F7039091F8030E94FD
:103810007EBF6B017C0120E030E048E453E40E946D
:1038200045BB87FD06C0C12CD12C98E4E92E93E45A
:10383000F92ECE8ADF8AE88EF98E1CC0A090F5039F
:10384000B090F603C090F703D090F803E984FA84AF
:103850000B851C859501A601B701C8010E94A4C172
:10386000181614F075018601C701D8018E8B9F8B45
:10387000A88FB98FBE016E5D7F4FCE0146960E9424
:10388000A334E090F503F090F6030091F703109154
:10389000F8032D813E814F81588569817A818B8122
:1038A0009C81DE0196966D010E94C6330C94842D96
:1038B0008091E8038770873071F48FE40E94F13AB9
:1038C000882319F00E949B3A03C08FE40E94AA3A11
:1038D00081110C94842D0E94639BB090F70980E0C5
:1038E0000E9475360E94A73311E01093F30788E514
:1038F0000E94AA3A982E89E50E94AA3A082F8AE5E2
:103900000E94AA3AA82E911004C0011104C01827E1
:1039100005C0011102C010E001C0182F80E1EDEEDA
:10392000F3E0A3EBB7E001900D928A95E1F782E511
:103930000E94F13A882361F00E9412376B017C01EA
:1039400020E030E0A9010E9445BB882371F106C048
:10395000C12CD12C80EAE82E80E4F82E111104C08D
:10396000911002C0002391F1C092BB07D092BC0716
:10397000E092BD07F092BE072091F5033091F60367
:103980004091F7035091F803C701B6010E94A4C10A
:1039900018165CF419821A821B821C82BE016F5FAA
:1039A0007F4F8BEB97E00E94A334111105C091105B
:1039B00003C0011106C00AC080E00E94D671112325
:1039C000C1F381E00E94D671111103C0AA2009F44D
:1039D0005AC08091E80383708330C9F0EFEEFAE0BB
:1039E00084918F010F5F1F4F882321F00E9445377C
:1039F000F801F6CFEBE4F2E084918F010F5F1F4FE7
:103A0000882309F440C00E944537F801F5CF0E9491
:103A10006135E090F503F090F6030091F703109103
:103A2000F803E092BB07F092BC070093BD07109328
:103A3000BE0780E090E0ACE5B2E48093B3079093DA
:103A4000B407A093B507B093B60780E090E0A4EE6A
:103A5000B2E48093B7079093B807A093B907B093E7
:103A6000BA0719821A821B821C82FE0131966F01ED
:103A70009C01AD0160E070E08CE592E40E94C633E9
:103A800082E00E94D6710E9461358091F207809396
:103A9000F3078B2D0E9475360E948E330E94898415
:103AA0000C94842DC090ED03D090EE03E090EF03D2
:103AB000F090F00388E50E94F13A811109C020E0FE
:103AC00030E044E352E4C701B6010E947EBF02C069
:103AD0000E9412376E8B7F8B888F998FC090F10375
:103AE000D090F203E090F303F090F40389E50E9494
:103AF000F13A811109C020E030E040E651E4C7010D
:103B0000B6010E947DBF02C00E9412379B01AC012A
:103B100069837A838B839C836E897F89888D998D55
:103B20000E940673882311F40C94842D80E00E9477
:103B300075360E94A73385E40E94F13A882321F06C
:103B40000E949B3A182F04C085E40E94AA3A11E013
:103B500086E50E94F13A882321F00E947A3A262FC6
:103B600001C021E0412FBE016F5F7F4FCE0146961D
:103B70000E94484E6B017C019B01AC010E942AC24D
:103B800081115FC08E889F88A88CB98C20E030E0BE
:103B9000A901C501B4010E9445BB87FD05C027E10D
:103BA00037EB41E558E304C027E137EB41E558EB3B
:103BB000C501B4010E947EBFAB01BC0184E692E066
:103BC0000E9426AD89809A80AB80BC8020E030E0E6
:103BD000A901C501B4010E9445BB87FD05C027E1CD
:103BE00037EB41E558E304C027E137EB41E558EBFB
:103BF000C501B4010E947EBFAB01BC018FE592E01C
:103C00000E9426AD20E030E0A901C701B6010E9464
:103C100045BB87FD05C027E137EB41E558E304C00C
:103C200027E137EB41E558EBC701B6010E947EBFA3
:103C3000AB01BC018AE592E00E9426AD8AE00E94B9
:103C400045370E948E330E9489840C94842D2093E2
:103C500059030C94842D19E4212E12E0312E0DEE1F
:103C6000E02E03E0F02E00E0D12C10E0D1018D9188
:103C70001D010E94F13A882359F10E9412372B014D
:103C80003C01F70120813181428153810E947DBF37
:103C90004B015C012DEB37E346E855EB0E94A4C1D4
:103CA00087FD0AC02DEB37E346E855E3C501B401B3
:103CB0000E9445BB181664F4133019F0DD24D39428
:103CC00001C001E0D7014D925D926D927C921397F5
:103CD0001F5FB4E0EB0EF11C143041F6DD2019F04B
:103CE0000E94613552C0002309F44FC020E030E04B
:103CF000A9016091F9037091FA038091FB039091FF
:103D0000FC030E947EBF20912D1030912E10409117
:103D10002F10509130100E94AABB0E94AFC1609337
:103D2000400670934106809342069093430690911B
:103D3000FA058091FB05981719F00E94059B25C094
:103D40000E94639B80916F0081FB992790F981FF0E
:103D500005C080916F008D7F80936F004091400679
:103D600050914106609142067091430640931D10A8
:103D700050931E1060931F1070932010992329F008
:103D800080916F00826080936F000E9489840C9400
:103D9000842D0E94E7770C94842D809119089091CE
:103DA0001A088937910509F4FBC70CF0A8C08436BE
:103DB000910509F4EFC30CF05AC08C34910509F455
:103DC000D4C344F58A32910509F431C2B4F4823186
:103DD000910509F4D3C68F31910509F469C1419762
:103DE00011F00C94332D5F988A98809108018170AE
:103DF0008093060112980C94842D8033910509F468
:103E0000ACC38B34910509F4ACC38B9711F00C94BF
:103E1000332D51C28235910509F4A9C67CF4803551
:103E2000910509F45BC60CF08FC68D34910511F035
:103E30000C94332D0E94CBAF0C94842D84359105C6
:103E400009F49CC60CF496C68535910509F4C9C6DB
:103E50008C35910511F00C94332D99E4C92E92E024
:103E6000D92E21E2E22E20E1F22E10E0D3C68F36C9
:103E7000910509F4D2C5C4F48B36910509F41CC62A
:103E800064F48936910509F4D4C50CF0F7C5883679
:103E9000910509F482C50C94332D8D36910509F4F2
:103EA000D2C50CF4BEC5A6C58337910509F46FC70A
:103EB00054F48137910509F4B8C50CF02BC789E09B
:103EC00095E00E94B5738637910509F463C73CF409
:103ED0008537910511F40C94842D0C94332D87377C
:103EE000910509F45AC78837910511F00C94332DC8
:103EF00081E08093F3078093F2070C94842D803344
:103F0000E1E09E0711F40C948E2B0CF060C08D3C08
:103F1000910509F4AEC75CF5883C910509F445C7E5
:103F20008CF48B39910509F48AC58E3B910509F40F
:103F30008EC58C38910511F00C94332D0E94788633
:103F40000C94842D8B3C910509F48DC70CF08EC721
:103F5000893C910511F00C94332DBEE0EB2EBAE0B4
:103F6000FB2E09E412E084E0D82ED00E64C7823E16
:103F7000910509F487C78CF48C3D910509F47CC741
:103F80008D3D910509F47BC7833D910511F00C949B
:103F9000332D0E946A820C94842D8D3221E0920789
:103FA00009F473C74CF48232914011F00C94332D14
:103FB0000E9443810C94842D8E3251E0950709F4C0
:103FC00067C78F32914009F466C70C94332D863F42
:103FD000B1E09B0711F40C94A62BC4F58239F1E0F3
:103FE0009F0711F40C949A2B94F4803931E09307D5
:103FF00011F40C94912B14F00C94942B8336914073
:1040000011F00C94332D0E94727F0C94842D843A0D
:10401000A1E09A0711F40C94A02B4CF48A3991403A
:1040200011F00C94332D0E94987F0C94842D843FC2
:10403000F1E09F0711F40C94A32B853F914011F000
:104040000C94332D0E94DFAB0C94842D8A3833E01E
:10405000930711F40C94352C84F4883F51E09507B4
:1040600011F40C94AC2B14F40C94A92B83359340CD
:1040700011F40C94CF2B0C94332D8F38E3E09E0772
:1040800011F40C94962C3CF48B38934011F40C945E
:10409000842D0C94332D803933E0930711F40C9464
:1040A000AB2C873E934011F40C94202D0C94332DAF
:1040B0000E945E6FBCE3CB2ED12CE12CF12CA7012A
:1040C00096010E9420BFB62EA72ECA01B901A701F2
:1040D00096010E9420BF6B017C01CA01B90128E151
:1040E00030E040E050E00E9420BF2B013C01C901BC
:1040F0006DE671E00E9446C28E010F5F1F4F611591
:104100007105D9F0AF92BF92DF92CF925F924F923A
:104110009F938F937F936F9384E992E09F938F9304
:104120001F930F930E9416BB8DB79EB70E960FB6C6
:10413000F8949EBF0FBE8DBF36C00097C9F0AF92F6
:10414000BF92DF92CF925F924F929F938F9384E8BA
:1041500092E09F938F931F930F930E9416BBADB76E
:10416000BEB71C960FB6F894BEBF0FBEADBF1BC046
:104170004114510461047104C9F0AF92BF92DF92FF
:10418000CF925F924F9288E792E09F938F931F9315
:104190000F930E9416BBEDB7FEB73A960FB6F89490
:1041A000FEBF0FBEEDBFEFEEFAE02CC0C114D1048C
:1041B000E104F104B1F0AF92BF92DF92CF9280E7B9
:1041C00092E09F938F931F930F930E9416BB2DB77E
:1041D0003EB7285F3F4F0FB6F8943EBF0FBE2DBFCE
:1041E000E2CFAF92BF928CE692E09F938F931F93A2
:1041F0000F930E9416BB0F900F900F900F900F908F
:104200000F90D1CF84917F013FEFE31AF30A882307
:1042100021F00E944537F701F5CFB80188EA92E016
:104220000E9483AD8AE00E9445370C94842D83E57B
:104230000E94F13A882311F40C94842D0E948A3A4A
:10424000E82E80E50E94F13A882339F00E948A3AEC
:10425000182F87FF03C00C94842D1DE089E40E9471
:10426000F13A882369F00E949B3A81110DC0812F99
:104270000E948033882341F00E94137F0C94842D88
:1042800089E40E94AA3AF1CF61E0812F0E94FF9B4E
:104290006E2D812F0E942D78F12CB701812F0E9465
:1042A0003B9C193011F00C94842DF092DD09E092C2
:1042B000DC090C94842D84E50E94AA3A882309F431
:1042C0005AC089E40E94F13A882319F00E949B3A6F
:1042D00003C089E40E94AA3A082F82E50E94F13ABD
:1042E000882321F00E947A3A7B0103C0EE24E394F4
:1042F000F12C83E50E94F13A882321F00E947A3A5A
:10430000162F01C010E08CE40E94F13A882321F0BE
:104310000E947A3A6B0103C0F5E4CF2ED12C87E5D9
:104320000E94F13A882319F00E947A3A02C064EFA1
:1043300071E02B01770F66087708812F90E0C8168F
:10434000D9065CF001110C94A62E812F0E948033B7
:1043500081110C94D22E0C94A62EE5EBF2E0849100
:104360008F010F5F1F4F882311F40C94842D0E943E
:104370004537F801F4CF85E40E94AA3A882381F1F9
:104380000E949B3AF82E80935A03EAECF2E0849163
:104390008F010F5F1F4F882321F00E944537F801DE
:1043A000F6CFF11003C0E3ECF2E002C0E7ECF2E07C
:1043B00084918F010F5F1F4F882321F00E944537A2
:1043C000F801F6CFECEBF2E084918F010F5F1F4F05
:1043D000882311F40C94842D0E944537F801F4CF02
:1043E00083E50E94AA3A8823D1F0E5EBFBE08491B3
:1043F0008F010F5F1F4F882321F00E944537F8017E
:10440000F6CFEBEDF2E084918F010F5F1F4F882311
:1044100011F40C94842D0E944537F801F4CF80E507
:104420000E94F13A882321F00E948A3A182F01C095
:1044300010E0012F80E50E94F13A811107C0163487
:1044400014F00C94842DE5E4EE2E01C0E12E89E4F5
:104450000E94F13A882319F00E949B3A03C089E434
:104460000E94AA3AF82E87E50E94F13A882319F0B3
:104470000E949B3A03C087E50E94AA3A882309F468
:1044800060C07CEEC72E72E0D72EF601849188239F
:1044900031F0FFEFCF1ADF0A0E944537F6CFC12E69
:1044A000012E000CDD088E2D0E2C000C990B8C19A2
:1044B0009D0901962DB73EB7281B390B0FB6F8940E
:1044C0003EBF0FBE2DBF4DB75EB74F5F5F4F5A0166
:1044D000012FF1100C94E22E802F0E94803388234C
:1044E00011F40C94E22E0F5FE0169CF7012FF110EF
:1044F00005C0802F0E948033811119C0802F0E9437
:104500000478782E802E002E000C99088C189D08B7
:104510008A0C9B1CD4018C91781649F02CE033E076
:1045200040E06F2D802F0E94107BD4017C920F5FA2
:10453000E016ECF668EC70E080E090E00E943C6FE2
:10454000D5CF2CE033E041E06F2D802F0E94107B0F
:104550000F5FE016B4F70C94842D0E9473880C94BE
:10456000842D0E9491AF0C94842D8091F1078130AD
:1045700011F00C94842D82E08093F1070E945A9DE3
:104580006093E9077093EA078093EB079093EC0739
:104590000C94842D80913110909132100E94F7A5D7
:1045A00060E372E08CEF94E00E9483AD87E390E1DA
:1045B0000E94F7A560E372E08EEE94E00E9483AD66
:1045C00000913110109132100115110511F407E31B
:1045D00010E1C8010E94F7A560E372E086ED94E067
:1045E0000E9483AD6E01B5E3CB0ED11CC6010E94C3
:1045F000F7A560E372E084EC94E00E9483AD8AE06A
:104600000E9445378091020281110C94FB2E89E4AF
:104610000E94AA3A81110C94FB2E84E40E94AA3ACB
:10462000882331F0B601C8010E94033A0C94842D0E
:1046300086E40E94AA3A882309F46CC1C01AD10A00
:10464000A12CB12C212C312C412C512C66246A94A4
:10465000762CAC14BD04E4F548018A0C9B1CD401F3
:104660008C91853E89F5F401E12CF12C8191853EF8
:1046700041F0B1E0EB1AF108E9E0EE16F10424F1A3
:1046800008C02FEFE21AF20AE1143DE7F30671F7D2
:104690001BC0B70187E894E00E946AADC4010E9484
:1046A000F7A560E372E087E794E00E9483AD8AE0BB
:1046B0000E9445376E147F0414F414013701AE0CC8
:1046C000BF1C4FEF441A540A5FEFA51AB50AC1CFB9
:1046D00082E048165104ECF0E5E4F4E084918F01A7
:1046E0000F5F1F4F882321F00E944537F801F6CF56
:1046F000B3018DE294E00E946AADC1010E94F7A56A
:1047000060E372E082E294E00E9483AD8AE00E945E
:10471000453709ED12E0D8018D918D01882319F0FC
:104720000E944537F8CFE0903110F0903210E1143C
:10473000F10421F457E3E52E50E1F52E8E010C5CD7
:104740001F4F6801CE18DF08B60182EF93E00E9488
:104750006AAD81E390E10E94F7A560E372E085EE27
:1047600093E00E9483AD80913110909132100E94AD
:10477000F7A560E372E083EE93E00E9483AD87E3E8
:1047800090E10E94F7A560E372E086ED93E00E945D
:1047900083ADC8010E94F7A560E372E081ED93E06C
:1047A0000E9483AD0E151F0528F5E5ECF3E084911A
:1047B0008F010F5F1F4F882321F00E944537F801BA
:1047C000F6CF64E170E080E090E00E943C6F01EE83
:1047D00012E0F80181918F01882319F00E9445377A
:1047E000F8CF8AE00E9445376FEF71E280E89BE1E5
:1047F0000E94033A812C912CA12CB12C8C149D0485
:10480000BCF5F701E80DF91D8081853E69F580E072
:1048100090E02191253EC1F08C0101501109093031
:10482000110514F1800E911E3FEFA31AB30AB501D2
:1048300082EC93E00E946AADB80189EB93E00E949C
:104840006AADE5EBF3E006C0019681152DE792070E
:1048500001F70AC084918F010F5F1F4F882321F059
:104860000E944537F801F6CF4FEF841A940AC6CF5D
:104870007501B50186EA93E00E946AAD51E0A51684
:10488000B10419F0E4E7F3E007C080913110909192
:104890003210892BB9F70FC084918F010F5F1F4F22
:1048A000882321F00E944537F801F6CFAB2819F490
:1048B000EE24EA94FE2CEBE6F3E084918F010F5F87
:1048C0001F4F882321F00E944537F801F6CF81E081
:1048D000E816F10449F480E30E9445378AE00E941B
:1048E000453760E070E00DC0E5E6F3E084918F01AC
:1048F0000F5F1F4F882321F00E944537F801F6CF44
:10490000B7018CEF93E00E946AAD8AE00E944537C0
:104910000C94842D83E40E94AA3A882311F40C9409
:10492000842D0E947A3A6B019E01201B310B2F5C73
:1049300031096F5F7F4FC9010E9446C27B01E4EAE3
:10494000F4E084915F019FEFA91AB90A811108C0B0
:10495000C7010896080F191FAA24A394B12C04C0FC
:104960000E944537F501EDCFCA14DB0488F0D80169
:10497000AC92C8010E94F7A560E372E08EE894E073
:104980000E9483ADBFEFAB1ABB0A0E0D1F1DECCF0B
:104990008AE00E9445370C94842D88E690E00E94BE
:1049A0009C4981110C94842D80911C0883FF02C0C6
:1049B0000C94842D83E50E94F13A8823B9F00E947B
:1049C00012370E94C2C07093C6066093C50680E08D
:1049D0000E94FE6A0E94123720E030E04AEA52E468
:1049E0000E9445BB181614F00E94CBAF0E94ABADDD
:1049F0000C94842D8EE40E94F13A882311F40C94D7
:104A0000842D0E947A3A60930F047093100480936F
:104A10001104909312040C94842D0E9401860C942E
:104A2000842D109203020C94842D0E94D7850C943F
:104A3000842D0E9456881092A5070C94BD320E94C6
:104A400028880C94842D0E9491860C94842D80914A
:104A50001C0883FF02C00C94842D83E50E94F13A68
:104A60002E968FAF2E9781110C94672F82E50E94AE
:104A7000F13A81110C94672F0C94842D80E50E94EB
:104A8000F13A811106C083E50E94F13A882361F072
:104A900006C00E948A3A81110C94842DF4CF0E94A2
:104AA0007A3A6F3F710510F06FEF70E07093DD0997
:104AB0006093DC090C94842D80E50E94F13A811109
:104AC00006C01092DD091092DC090C94842D0E941E
:104AD0007A3A672B11F00C94842DF3CF83E50E9472
:104AE000AA3A8823A9F080912302811103C0ECE146
:104AF000F5E002C0E6E1F5E084918F010F5F1F4F02
:104B0000882311F40C94842D0E944537F801F4CFCA
:104B1000269A2E9881E08093230264E670E080E07C
:104B200090E00E94229D8EE795E00E94CD9E85E058
:104B300095E00E94CD9E8CE894E00E94CD9E83E19A
:104B400094E00E94CD9EE0C70E94496B0E94739B37
:104B50001092DD091092DC0968EE73E080E090E0CD
:104B60000E943C6F269A2E9A10922302CDC7109273
:104B70005803CAC781E080935803C6C783E50E94E3
:104B8000F13A882399F00E94123720E030E04AE79A
:104B900054E40E94AABB0E94C7C060931F02709396
:104BA00020028093210290932202AEC788E50E94E2
:104BB000AA3A81110C94E23089E50E94AA3A811147
:104BC0000C94E2308AE50E94AA3A81110C94E230FA
:104BD00085E40E94AA3A81110C94E2300E94739BF2
:104BE00093C783E50E94AA3A882309F48DC70E94DF
:104BF000123720E030E04AE754E40E94AABB0E944A
:104C0000C7C06093AA077093AB078093AC079093DB
:104C1000AD077AC7F60181916F010E94AA3A8823F5
:104C200009F46EC0133009F063C00E9412374B01C3
:104C30005C0120E030E040EA51E40E9445BB87FF80
:104C40004EC0A501940160912D1070912E1080919D
:104C50002F10909130100E945AC02B013C019B01F3
:104C6000AC016091B0097091B1098091B209909145
:104C7000B3090E94AABB6093B0097093B1098093F5
:104C8000B2099093B309A30192016091CC0970918C
:104C9000CD098091CE099091CF090E94AABB609363
:104CA000CC097093CD098093CE099093CF09609180
:104CB0000A0A70910B0A80910C0A90910D0A0E94C9
:104CC00049BBA30192010E94AABB0E94C7C0609386
:104CD0000A0A70930B0A80930C0A90930D0A809233
:104CE0002D1090922E10A0922F10B092301008C06C
:104CF0000E941237D7016D937D938D939C931397E8
:104D00001F5FB4E0EB0EF11C143009F083CF0E945A
:104D100020AFFAC60E94639B83E50E94F13A882384
:104D200009F433C80E947A3A6230710509F02DC83F
:104D30000E941F778BE50E9445376091C3077091F1
:104D4000C4078091C5079091C60742E00E94683968
:104D50004091C7075091C8076091C9077091CA0771
:104D600085E295E00E9426AD4091CB075091CC079B
:104D70006091CD077091CE0782E295E00E9426AD4A
:104D80008DE50E9445378AE00E944537BDC60E94E6
:104D90003A84BAC60E94E883B7C60E94AAA6B4C6DF
:104DA0001092F3071092F207AFC688EC90E00E94D1
:104DB0009C498111A9C684E40E94AA3A8823C1F1C2
:104DC0000E94123711E020E030E0A9010E9445BBAB
:104DD000811101C010E01093EE09112349F10E94E6
:104DE0001237E091BA0624E0E29FF0011124ED5061
:104DF000F64F608371838283938320E030E0A901C2
:104E00006091F3097091F4098091F5099091F60988
:104E10000E9445BB81110CC080E090E0A0EEBFE392
:104E20008093F3099093F409A093F509B093F609E0
:104E30000E941DA369C6D8018D918D010E94AA3AD6
:104E4000882349F00E9412370E94C7C0F70160838F
:104E5000718382839383F4E0EF0EF11CD012EBCFC9
:104E60000E94DBAD51C60E94C6834EC60E944F838E
:104E70004BC60E94E58248C60E945E8245C60E94DB
:104E8000E98142C60E948C813FC60E94A0803CC638
:104E90000E94CB7F39C685E40E94F13A882321F035
:104EA0000E947A3A7B0102C0E12CF12C83E40E943B
:104EB000F13A882331F00E947A3AE4966FAFE49792
:104EC00004C045E0E4964FAFE49785E50E94F13ACF
:104ED000882319F00E949B3A03C085E50E94AA3AF4
:104EE000C158DF4F8883CF57D040F7FC07C0812CD3
:104EF000912CA6E1AA2EA3E4BA2E06C0812C912CF7
:104F0000FCE8AF2EF2E4BF2E83E50E94F13A88233D
:104F100021F00E9412374B015C01E114F10411F4FD
:104F20001092BA06EDAA0E945A9D2B013C015DA980
:104F300057FF0FC00CE310E080E090E0A0EEB0E47B
:104F4000C058DF4F88839983AA83BB83C058D04061
:104F50000EC008E210E020E030E040EC50E4C05821
:104F6000DF4F288339834A835B83C058D04061E098
:104F70006E0D623068F0E1ECF6E084918F010F5F16
:104F80001F4F882309F4C0C50E944537F801F5CFAB
:104F9000EBEEF6E084917F013FEFE31AF30A8823FA
:104FA00021F00E944537F701F5CF0E94496B4DA9CA
:104FB00047FF04C08FE78093B90608C05DA9E52FBD
:104FC000550FFF0BE854F94F8FE78083C501B401FB
:104FD0000E94C2C0072E000C880B990B0E944BBB8D
:104FE00022966FAF229726967FAF26972A968FAF8D
:104FF0002A972E969FAF2E979801A8EEB3E00E94B5
:105000006EBFCC57DF4F688379838A839B83C458F4
:10501000D040DC01CB01840D951DA61DB71DC057E6
:10502000DF4F88839983AA83BB83C059D04081E036
:1050300080930302EB964CAE5DAE6EAE7FAEEB9707
:10504000C857DF4F488259826A827B82C858D04055
:10505000E7961FAEE797C457DF4F188219821A826E
:105060001B82CC58D040A2961FAEA29790E46A96BD
:105070009FAF6A97ACE1A696AFAFA697B6E4AA96A3
:10508000BFAFAA97AE961FAEAE97AF961FAEAF97C3
:10509000E0961FAEE097E1961FAEE19769961CAED1
:1050A0001DAE1EAE1FAE699765961CAE1DAE1EAE40
:1050B0001FAE6597C12CD12C76012FE730E040E080
:1050C00050E021962CAF3DAF4EAF5FAF21977FE709
:1050D000872E912CA12CB12CEF961CAE1DAE1EAECE
:1050E0001FAEEF9731E0E6963FAFE6976F961FAEA3
:1050F0001EAE6F9710E0212C312C00E04DA9842FBB
:10510000440F990BDC01A854B94FCC56DF4FB9833B
:10511000A883C459D040880F991F880F991FFC019C
:10512000EF53F94FE396FFAFEEAFE397E4962FAD61
:10513000E497022E000C330BE5963FAF2EAFE597B8
:1051400080910302882309F426C10E945A9D69AF09
:105150007AAF8BAF9CAF8091AF06882309F4F9C07A
:105160000E94056C3DA937FF09C01091BB06209035
:10517000BC063090BD060091BE060DC0E396AEADF4
:10518000BFADE3971C9111962C90119712963C900D
:10519000129713960C91212F322D432D502FAE963E
:1051A0006FADAE97AF967FADAF97E0968FADE097BE
:1051B000E1969FADE1970E9445BB87FF0CC0AE967C
:1051C0001FAFAE97AF962FAEAF97E0963FAEE0978A
:1051D000E1960FAFE197212F322D432D502FA2964C
:1051E0006FADA2976A967FAD6A97A6968FADA69788
:1051F000AA969FADAA970E94A4C1181664F4A2961D
:105200001FAFA2976A962FAE6A97A6963FAEA69753
:10521000AA960FAFAA97E696BFADE69722962FAD56
:10522000229726963FAD26972A964FAD2A972E961F
:105230005FAD2E97612F722D832D902FBB2309F424
:105240006EC00E94A4C118160CF083C029AD3AADFF
:105250004BAD5CAD2419350946095709C856DF4FD7
:10526000288339834A835B83C859D040DA01C90156
:1052700088589341A109B109B7FD6BC0D501C4019C
:1052800021962CAD3DAD4EAD5FAD2197821B930BAA
:10529000A40BB50B3DA9B595A7959795879537FFB5
:1052A00003C08093B90607C0CC56DF4FE881F9816F
:1052B000C459D0408083C856DF4F288139814A8144
:1052C0005B81C859D040EF962CAF3DAF4EAF5FAF7A
:1052D000EF9722963FAD2297AE963FAFAE972696B8
:1052E0004FAD2697AF964FAFAF972A965FAD2A97EF
:1052F000E0965FAFE0972E968FAD2E97E1968FAF39
:10530000E19729AD3AAD4BAD5CADEB962CAF3DAF1F
:105310004EAF5FAFEB97E6961FAEE6971AC00E94BE
:1053200045BB87FF16C089AD9AADABADBCADEB9662
:105330002CAD3DAD4EAD5FADEB97821B930BA40B37
:10534000B50BAC01BD01485853416109710977FFA4
:105350006AC720E030E040EA51E422966FAD229720
:1053600026967FAD26972A968FAD2A972E969FADCB
:105370002E970E947EBF9B01AC01612F722D832D61
:10538000902F0E94A4C1181674F40DE416E0F801E1
:105390008491811103C00E94496BB6C30F5F1F4FF8
:1053A0000E944537F4CF89AD9AADABADBCADC857BF
:1053B000DF4F288139814A815B81C858D040821BE8
:1053C000930BA40BB50BB7FDC4C00E94F9698AE02A
:1053D0000E94453789AD9AADABADBCAD8053984FB7
:1053E000AF4FBF4FC857DF4F88839983AA83BB83D2
:1053F000C858D040E7969FADE797911181C0C45738
:10540000DF4F288139814A815B81CC58D040612FA0
:10541000722D832D902F0E94A4C118160CF053C03A
:1054200020E030E040E050E4612F722D832D902F7A
:105430000E947EBFC457DF4F688379838A839B8332
:10544000CC58D04029AD3AAD4BAD5CADCC57DF4F19
:1054500088819981AA81BB81C458D040280F391F07
:105460004A1F5B1FC057DF4F288339834A835B8302
:10547000C059D040C058DF4F288139814A815B81B3
:10548000C058D04022966FAD229726967FAD2697C2
:105490002A968FAD2A972E969FAD2E970E947DBF9C
:1054A0009B01AC0191E0E7969FAFE797612F722DCA
:1054B000832D902F0E94A4C118160CF44AC0E796C1
:1054C0001FAEE79746C089AD9AADABADBCADC05736
:1054D000DF4F288139814A815B81C059D040821BCE
:1054E000930BA40BB50BB7FD34C03DA93F3F19F09A
:1054F00049E156E002C04BE256E06EE376E026C09A
:1055000020E030E040EA51E422966FAD22972696E3
:105510007FAD26972A968FAD2A972E969FAD2E9710
:105520000E947DBF9B01AC01612F722D832D902FB6
:105530000E9445BB87FF0DC04DA94F3F19F042EEB9
:1055400055E002C045EF55E069E076E08DA90E9484
:10555000246C89AD9AADABADBCAD880F991FAA1F65
:10556000BB1FEB962CAD3DAD4EAD5FADEB97821BF7
:10557000930BA40BB50B84199509A609B7098138BB
:105580009F44A241B10560F004EC15E0F80184915C
:10559000882309F400CF0F5F1F4F0E944537F6CFD5
:1055A0006F962EAD3FAD6F97E5964EAD5FADE5972B
:1055B000421753070CF0C4CD07E615E0F8018491BB
:1055C000882329F00F5F1F4F0E944537F7CFFDA9B1
:1055D000F7FD03C00CE013E002C005ED12E0B801D6
:1055E00086E595E00E9483ADB701A60182E595E0CE
:1055F0000E9426AD8AE00E944537B80181E495E01B
:105600000E9483AD65964CAD5DAD6EAD7FAD659787
:105610008DE395E00E9426AD8AE00E944537B801EF
:105620008CE295E00E9483AD69964CAD5DAD6EADA8
:105630007FAD699788E295E00E9426AD8AE00E94DE
:105640004537C158DF4F2881CF57D040222309F476
:105650005BC23DA937FF31C0C092AA06D092AB060B
:10566000E092AC06F092AD062CEA35EC47E25EE340
:1056700065966CAD7DAD8EAD9FAD65970E94AABB62
:105680006093A6067093A7068093A8069093A90638
:105690002CEA35EC47E25EE369966CAD7DAD8EADEC
:1056A0009FAD69970E945AC06093A2067093A306AB
:1056B0008093A4069093A50627C2C0929A06D09222
:1056C0009B06E0929C06F0929D062CEA35EC47E2A0
:1056D0005EE365966CAD7DAD8EAD9FAD65970E9426
:1056E000AABB609396067093970680939806909352
:1056F00099062CEA35EC47E25EE369966CAD7DAD28
:105700008EAD9FAD69970E945AC060939E067093BC
:105710009F068093A0069093A106F6C10E94218067
:10572000F3C10E94639BF0C181E00E94C1340E94DA
:105730008984EAC180E00E94C1340E948984E4C166
:105740000E943085E1C10E944B57DEC10E94BEAA73
:10575000DBC10E948D7FD8C181E08093F9090E944E
:10576000B7511092F909882309F4CEC1EFEEFAE09F
:1057700084918F010F5F1F4F882321F00E944537CE
:10578000F801F6CFEFEFF6E084918F010F5F1F4F26
:10579000882309F4B9C10E944537F801F5CF8AE59D
:1057A0000E94F13A882309F438C00E9412376B0135
:1057B0007C0120E030E040EA51EC0E94A4C187FD6A
:1057C00013C020E030E040EA51E4C701B6010E9476
:1057D00045BB18164CF0C092E903D092EA03E09260
:1057E000EB03F092EC0390C1E5EBFBE084918F01B9
:1057F0000F5F1F4F81110DC0ECE1F7E084918F0125
:105800000F5F1F4F882309F47FC10E944537F801BD
:10581000F5CF0E944537F801E9CFEFEEFAE0849129
:105820008F010F5F1F4F882321F00E944537F80139
:10583000F6CFEDE0F7E084918F010F5F1F4F8823D3
:1058400021F00E944537F801F6CF4091E9035091CD
:10585000EA036091EB037091EC038AE097E00E9409
:1058600026AD8AE00E9445374FC189E40E94F13A93
:10587000882321F00E948A3AD82E01C0D12C89E4D5
:10588000E82E82E0F82E11E000E0D7018D917D0135
:105890000E94F13A882379F10E947A3A4B015C0127
:1058A0006115710541F1023081F00330A1F0013042
:1058B00031F0B1E0BD15F0F08EE795E019C0E1E000
:1058C000ED15C0F085E095E013C0F1E0FD1590F016
:1058D0008CE894E00DC08AE893E00E949C49811115
:1058E00013C18091BA06811105C0B40183E194E02F
:1058F0000E946D4B10E00F5F043039F6112309F45C
:1059000003C160E08EE795E00E94877361E085E067
:1059100095E00E94877362E08CE894E00E948773B0
:1059200066E083E194E00E948773EEC06091830596
:1059300080E00E94376960910A0581E00E94376922
:105940006091910482E00E9437696091180486E0BA
:105950000E943769D9C088E50E94AA3AD82E89E505
:105960000E94AA3AE82E8AE50E94AA3AF82E85E417
:105970000E94AA3A082FD11007C0E11005C0F1100B
:1059800003C011E0182701C010E088E50E94F13A39
:10599000882309F4DAC50E948A3A112331F0109263
:1059A000830580E00E94266906C08130C1F3DD20B6
:1059B00011F08A30A1F389E50E94F13A882309F4B5
:1059C000C7C50E948A3A112331F010920A0581E07E
:1059D0000E94266906C08130C1F3EE2011F08A30A2
:1059E000A1F38AE50E94F13A882309F4B4C50E9424
:1059F0008A3A112331F01092910482E00E942669C4
:105A000006C08130C1F3FF2011F08A30A1F385E494
:105A10000E94F13A882309F4A1C50E948A3A112311
:105A200031F01092180486E00E9426696DC0882328
:105A3000C1F3002309F468C08A3009F065C0F1CFD2
:105A400081E08093150283E50E94F13A882339F0C2
:105A50000E949B3A811158C00E94C07755C083E5CF
:105A60000E94AA3AF7CF0E94E7774EC0F09019083B
:105A70000E94639B1091F70980E00E947536FF2019
:105A800029F1EFEEFAE084918F010F5F1F4F882319
:105A900021F00E944537F801F6CF84E50E94453792
:105AA0006F2D70E080E090E04AE00E94E83880E2EC
:105AB0000E944537EBE4F7E084918F010F5F1F4FA1
:105AC000882311F10E944537F801F6CF1092540354
:105AD000812F0E947536EFEEFAE084918F010F5FFF
