:100000000C9400150C9431150C9431150C94311589
:100010000C9431150C9431150C9431150C94311548
:100020000C9431150C9431150C9431150C94311538
:100030000C9431150C9431150C9431150C94311528
:100040000C9431150C94E58F0C9431150C943115EA
:100050000C9431150C9431150C945E3F0C94DB9E7E
:100060000C9431150C94F61A0C9431150C9431152E
:100070000C9431150C9431150C9431150C943115E8
:100080000C9431150C9431150C9431150C943115D8
:100090000C9431150C9431150C9431150C943115C8
:1000A0000C9431150C9431150C9431150C943115B8
:1000B0000C9431150C9431150C9431150C943115A8
:1000C0000C9431150C9431150C9431150C94311598
:1000D0000C9431150C9431150C9431150C94311588
:1000E0000C943115EC7FEF7FF67FF97FFD7FF37F76
:1000F0000080038007800A800D80118014801780A3
:10010000F37F1B801E802180558274829382B68289
:10011000D9827884FC821D833E8361838483A78394
:10012000CA83ED837884108433845684D79CDA9C08
:10013000C99CCD9CD39C119DDE9CE29CE89CEC9CD0
:10014000F09CF69CFA9CFE9C119D049D089D0C9DC4
:10015000769D7B9D809D8A9D949D0D9E9E9DA69DD6
:10016000AE9DB89DC29DCC9DDB9DE59D0D9EEF9DF6
:10017000F99D039E084AD73B3BCE016E84BCBFFD70
:10018000C12F3D6C74319ABD56833DDA3D00C77F67
:1001900011BED9E4BB4C3E916BAAAABE0000008000
:1001A0003F05A84CCDB2D44EB93836A9020C50B98F
:1001B000918688083CA6AAAA2ABE000000803F00BB
:1001C0004E414E494E495459494E46CDCCCC3D0A3C
:1001D000D7233C17B7D13877CC2B329595E6241F1F
:1001E000B14F0A000020410000C84200401C4620D8
:1001F000BCBE4CCA1B0E5AAEC59D74434F4D4D55E7
:100200004E49434154494F4E0044525952554E00B5
:100210004552524F525300494E464F004543484FB6
:10022000000000484300004843000048430000002D
:1002300000000000000000000047322F473320621A
:10024000616420706172616D65746572730A004843
:100250006F6D652058592066697273740A00205AC0
:100260003A200020593A200042656420583A200084
:100270002569730025696D2025697300256968204B
:1002800025696D202569730025696420256968202A
:1002900025696D2025697300256979202569642009
:1002A0002569682025696D20256973005072696E83
:1002B000742074696D653A20001C0217021002094F
:1002C00002FB016F66660044454255473A004B49C0
:1002D0004C4C45442E20004D3131332053006F6B80
:1002E0000050533A310A0050533A300A002C200093
:1002F0002C2000544845524D414C5F50524F5445BC
:100300004354494F4E004155544F5245504F52545B
:100310005F53445F53544154555300454D45524734
:10032000454E43595F504152534552004341534556
:100330005F4C494748545F4252494748544E4553E1
:100340005300544F47474C455F4C4947485453006E
:10035000534F4654574152455F504F574552004204
:1003600055494C445F50455243454E54004C455608
:10037000454C494E475F44415441005A5F50524FEB
:100380004245004155544F4C4556454C005052494A
:100390004E545F4A4F420050524F4752455353000C
:1003A0004155544F5245504F52545F54454D5000A3
:1003B000564F4C554D455452494300454550524FB8
:1003C0004D0053455249414C5F584F4E5F584F4680
:1003D00046004649524D574152455F4E414D453AC0
:1003E0004D61726C696E20312E312E39202847699B
:1003F000746875622920534F555243455F434F44FB
:10040000455F55524C3A68747470733A2F2F676980
:10041000746875622E636F6D2F4D61726C696E46E4
:1004200069726D776172652F4D61726C696E2050D3
:10043000524F544F434F4C5F56455253494F4E3ADB
:10044000312E30204D414348494E455F5459504567
:100450003A4D6164203344205072696E7465722095
:1004600045585452554445525F434F554E543A31C6
:1004700020555549443A63656465326132662D34CE
:100480003161322D343734382D396231322D6335B4
:10049000356336326633363766660A002F2F200002
:1004A000205400205200416363656C657261746979
:1004B0006F6E3A205000205A00205900580020202A
:1004C0004D61783A2000205A002059005800202021
:1004D0004D696E3A20004F6E20004F666600536FE4
:1004E000667420656E6473746F70733A20002046E2
:1004F0006C6F773A200043290A0061626C656420C2
:10050000286D696E2074656D702000436F6C6420E7
:10051000657874727564657320617265200020646B
:100520003A0020693A0020703A004E6F20636173F0
:1005300065206C696768740A00426564204C6576C2
:10054000656C696E6720004661696C656420746F34
:1005500020656E61626C6520426564204C6576653D
:100560006C696E670A00426564204C6576656C2094
:10057000436F7272656374696F6E204D6174726946
:10058000783A00454550524F4D204F4B0A003F5A94
:10059000206F7574206F662072616E676520282D4C
:1005A000323020746F203230290A003A2000507215
:1005B0006F6265205A204F666673657400416374EC
:1005C0006976652045787472756465723A200049D1
:1005D0006E76616C69642065787472756465720A00
:1005E000006F6B00736C6F743A00205A3A00205908
:1005F0003A0020583A00656E6473746F7073206817
:1006000069743A20003D003F206164647265737331
:10061000203A2000206279746573206F66206D6532
:100620006D6F727920696E697469616C697A65644D
:100630002E0A0A00556E61626C6520746F20696E27
:10064000697469616C697A652E0A0A00496E697479
:1006500069616C697A696E672066726565206D658F
:100660006D6F727920626C6F636B2E0A0A0A0074D8
:100670007275650A002072657475726E3D000A4DD0
:10068000656D6F727920436F7272757074696F6EE9
:1006900020646574656374656420696E20667265A4
:1006A00065206D656D6F727920617265612E0A003B
:1006B0002020626C6F636B5F666F756E643D002017
:1006C0002020002920666F756E643D0020280020E0
:1006D0007370203C204865617020002073703D00DD
:1006E0000A5F5F6273735F656E643A20003D000AC3
:1006F000265F5F62726B76616C3A20000A666D63FA
:100700002829206E3D00636865636B5F666F725FCA
:10071000667265655F6D656D6F72795F636F72722A
:10072000757074696F6E2829203D200020627974ED
:10073000657320617420000A4C61726765737420D0
:100740006672656520626C6F636B20697320000AB6
:100750004D656D6F727920436F7272757074696F39
:100760006E20646574656374656420696E206672CA
:100770006565206D656D6F727920617265612E0A05
:10078000002062797465732066726565206174204B
:1007900000466F756E6420000A436F727275707444
:1007A000696E6720616464726573733A2000436FF9
:1007B0007272757074696E672066726565206D650A
:1007C0006D6F727920626C6F636B2E0A0A000A5398
:1007D0007461636B20506F696E746572203A2000FB
:1007E0000A7374617274206F662066726565207387
:1007F00070616365203A20000A5F5F6273735F6512
:100800006E64203A20000A5F5F62726B76616C2032
:100810003A2000656E7175657565696E6720220006
:100820004B494C4C45442E20005072696E746572E1
:100830002073746F707065642064756520746F2018
:100840006572726F72732E20466978207468652015
:100850006572726F7220616E6420757365204D3908
:10086000393920746F20726573746172742E202878
:1008700054656D706572617475726520697320725C
:10088000657365742E2053657420697420616674E5
:1008900065722072657374617274696E67290A00EB
:1008A0004E6F20436865636B73756D20776974685C
:1008B000206C696E65206E756D6265722C204C61CE
:1008C0007374204C696E653A2000636865636B73CE
:1008D000756D206D69736D617463682C204C617354
:1008E00074204C696E653A20004C696E65204E7527
:1008F0006D626572206973206E6F74204C61737431
:10090000204C696E65204E756D6265722B312C200E
:100910004C617374204C696E653A20004D31313062
:100920000020496E76616C69642065787472756424
:100930006572200024F4D43050C38E20C2A2401728
:10094000828B7011127A910D816CD90AA861E1082D
:10095000C7586607615143061E4B5D05C145A70494
:100960001A411104093D9803713931034036DB0205
:1009700065339102D4305402802E1D02632CEE01A7
:10098000752AC501B028A001102781018F256401B7
:100990002B244B01E0223401AC211F018D200D01DD
:1009A000801FFC00841EED00971DDF00B81CD200E4
:1009B000E61BC600201BBC00641AB200B219A800D6
:1009C0000A19A0006A189900D117910040178B00EE
:1009D000B516840031167E00B31579003A15730000
:1009E000C7146F0058146A00EE1366008813630082
:1009F00025135E00C7125B006C12570015125400DD
:100A0000C111510070114F0021114B00D610490047
:100A10008D1047004610440002104200C00F4000F5
:100A2000800F3E00420F3C00060F3B00CB0E38000B
:100A3000930E37005C0E3500270E3400F30D3200A4
:100A4000C10D3100900D3000600D2E00320D2D00D3
:100A5000050D2C00D90C2B00AE0C2900850C2900AB
:100A60005C0C2700350C27000E0C2600E80B240038
:100A7000C40B2400A00B23007D0B23005A0B210084
:100A8000390B2100180B2000F80A1F00D90A1E009C
:100A9000BB0A1E009D0A1D00800A1D00630A1C007F
:100AA000470A1B002C0A1B00110A1A00F7091A003A
:100AB000DD091900C4091900AB09190092091700D2
:100AC0007B091800630917004C0916003609160047
:100AD000200916000A091500F5081500E0081400A1
:100AE000CC081400B8081400A408140090081300DF
:100AF0007D0812006B081300580812004608120007
:100B00003408110023081100120811000108110017
:100B1000F0071000E0071000D0071000C007100019
:100B2000B0070F00A107100091070E0083070F0008
:100B300074070F0065070E0057070E0049070E00E7
:100B40003B070D002E070E0020070D0013070D00B8
:100B500006070D00F9060C00ED060D00E0060C007E
:100B6000D4060C00C8060C00BC060C00B0060C0035
:100B7000A4060B0099060C008D060B0082060B00E4
:100B800077060B006C060B0061060A0057060B0087
:100B90004C060A0042060A0038060A002E060A0021
:100BA00024060A001A060A001006090007060A00B1
:100BB000FD050900F4050900EB050900E20509003F
:100BC000D9050900D0050900C7050900BE050900BF
:100BD000B5050800AD050800A50509009C0508003D
:100BE000940508008C050800840508007C050800B1
:100BF000740508006C050700650508005D05070021
:100C0000560508004E050700470507004005080087
:100C100038050700310507002A05070023050700EE
:100C20001C050600160507000F050700080506004D
:100C300002050700FB040600F5040700EE040600A9
:100C4000E8040600E2040700DB040600D504060001
:100C5000CF040600C9040600C3040600BD04060054
:100C6000B7040600B1040500AC040600A6040600A3
:100C7000A00405009B0406009504050090040600EE
:100C80008A04050085040500800406007A04050036
:100C900075040500700405006B040500660405007A
:100CA000610405005C0405005704050052040500BA
:100CB0004D04050048040500430405003E040400FB
:100CC0003A04050035040500300404002C04050036
:100CD00027040400230405001E0404001A04040071
:100CE00016040500110404000D04040009040500A5
:100CF0000404040000040400FC030400F8030400DE
:100D0000F4030400F0030400EC030400E80304000F
:100D1000E4030400E0030400DC030400D80304003F
:100D2000D4030400D0030400CC030400C803030070
:100D3000C503030024F404D9201BC40C5C0E9804E2
:100D4000C4095F0265077101F405F900FB04B300F3
:100D500048048700C1036900580355000303450098
:100D6000BE023A008402310053022A002902250003
:100D700004022000E4011C00C8011900AF011700A3
:100D8000980114008401130071011000610110002A
:100D900051010E0043010D0036010B002B010B0029
:100DA00020010B00150109000C01090003010800D6
:100DB000FB000800F3000800EB000700E400060059
:100DC000DE000600D8000600D2000600CC000500B8
:100DD000C7000500C2000500BD000400B900040002
:100DE000B5000400B1000400AD000400A900040037
:100DF000A5000300A20003009F0004009B00030065
:100E00009800030095000200930003009000030087
:100E10008D0002008B0003008800020086000200A3
:100E200084000300810002007F0002007D000200B8
:100E30007B000200790002007700010076000200CA
:100E40007400020072000100710002006F000200D5
:100E50006D0001006C0002006A00010069000200E0
:100E600067000100660001006500010064000200E7
:100E70006200010061000100600001005F000200EB
:100E80005D0001005C0001005B0001005A000100F0
:100E900059000100580001005700010056000100F0
:100EA00055000100540001005300000053000100F0
:100EB0005200010051000100500001004F000100EC
:100EC0004E0000004E0001004D0001004C000100EA
:100ED0004B0000004B0001004A00010049000100E6
:100EE00048000000480001004700010046000000E3
:100EF00046000100450000004500010044000100DB
:100F000043000000430001004200000042000100D5
:100F10004100000041000100400001003F000000CE
:100F20003F0001003E0000003E0001003D000000C7
:100F30003D0001003C0000003C0000003C000100BE
:100F40003B0000003B0001003A0000003A000100B5
:100F500039000000390001003800000038000000AE
:100F600038000100370000003700010036000000A3
:100F7000360000003600010035000000350000009A
:100F8000350001003400000034000000340001008E
:100F90003300000033000000330001003200000085
:100FA000320000003200010031000000310000007A
:100FB000310001003000000030000000300001006E
:100FC0002F0000002F0000002F0000002F00010064
:100FD0002E0000002E0000002E0001002D00000059
:100FE0002D0000002D0000002D0001002C0000004D
:100FF0002C0000002C0000002C0001002B00000041
:101000002B0000002B0000002B0001002A00000034
:101010002A0000002A0000002A0001002900000028
:10102000290000002900000029000000290001001B
:101030002800000028000000280000002800000010
:101040002800010027000000270000002700000002
:1010500027000000270001002600000026000000F5
:1010600026000000260000002600010025000000E8
:1010700025000000250000002500000025000000DC
:1010800025000100240000002400000024000000CE
:1010900024000000240001002300000023000000C1
:1010A00023000000230000002300000023000000B4
:1010B00023000100220000002200000022000000A6
:1010C0002200000022000000220001002100000098
:1010D000210000002100000021000000210000008C
:1010E000210000002100010020000000200000007D
:1010F0002000000020000000200000002000000070
:1011000020000000200001001F0000001F00000060
:101110001F0000001F0000001F0000001F00000053
:101120001F0001001E0000001E0000001E00000045
:101130001E00000039300000332500008719000030
:10114000B00F0000DB080000BD04000074020000C6
:101150003F01000020746F6F206C6F6E6720657810
:1011600074727573696F6E2070726576656E7465E2
:10117000640A0020636F6C6420657874727573690B
:101180006F6E2070726576656E7465640A005265D4
:1011900073656E643A200020746F6F206C6F6E6709
:1011A00020657874727573696F6E207072657665EC
:1011B0006E7465640A0020636F6C642065787472D5
:1011C0007573696F6E2070726576656E7465640AFA
:1011D00000627573793A2070617573656420666F7B
:1011E0007220696E7075740A00627573793A2070A6
:1011F000617573656420666F7220757365720A008D
:10120000627573793A2070726F63657373696E6784
:101210000A004B494C4C45442E20004B494C4C2075
:1012200063617573656420627920746F6F206D75DA
:10123000636820696E6163746976652074696D65A1
:10124000202D2063757272656E7420636F6D6D6101
:101250006E643A20005072696E7465722068616C29
:101260007465642E206B696C6C28292063616C6C3A
:101270006564210A002020506C616E6E65724275B3
:101280006666657242797465733A2000204672651D
:1012900065204D656D6F72793A2000436F6D7069FE
:1012A0006C65643A20446563203131203230313836
:1012B0000A00207C20417574686F723A20286E6F96
:1012C0006E652C2064656661756C7420636F6E6654
:1012D0006967290A00323031382D30382D3031001D
:1012E000204C61737420557064617465643A200009
:1012F000312E312E390A004D61726C696E00205317
:101300006F6674776172652052657365740A002098
:101310005761746368646F672052657365740A006F
:101320002042726F776E206F7574205265736574FA
:101330000A002045787465726E616C205265736591
:10134000740A00506F77657255700A007374617289
:10135000740A004B64200023646566696E6520444E
:10136000454641554C545F004B6920002364656637
:10137000696E652044454641554C545F004B7020D2
:101380000023646566696E652044454641554C54AA
:101390005F00504944204175746F74756E65206616
:1013A000696E69736865642120507574207468657E
:1013B000206C617374204B702C204B6920616E642B
:1013C000204B6420636F6E7374616E747320667259
:1013D0006F6D2062656C6F7720696E746F20436F4C
:1013E0006E66696775726174696F6E2E680A005067
:1013F0004944204175746F74756E65206661696C2F
:101400006564212074696D656F75740A004531202B
:10141000544845524D414C2052554E415741590078
:1014200042454420544845524D414C2052554E416E
:1014300057415900546865726D616C2052756E6138
:101440007761790045312048656174696E6720666F
:1014500061696C6564004265642068656174696EE9
:1014600067206661696C65640048656174696E67D0
:10147000206661696C656400504944204175746F51
:1014800074756E65206661696C6564212054656DB4
:10149000706572617475726520746F6F206869671A
:1014A000680A00204B643A2000204B693A20002053
:1014B0004B703A20000A20436C61737369632050BB
:1014C0004944200A002054753A2000204B753A20E8
:1014D00000206D61783A2000206D696E3A2000206E
:1014E000643A200020626961733A20005049442028
:1014F0004175746F74756E65206661696C656421F1
:1015000020426164206578747275646572206E751E
:101510006D6265720A00504944204175746F74759C
:101520006E652073746172740A006265640A002C2F
:101530002073797374656D2073746F7070656421A6
:10154000204865617465725F49443A2000426564D1
:101550002068656174696E67206661696C65640006
:1015600048656174696E67206661696C65640045F1
:10157000312048656174696E67206661696C6564D5
:101580000048656174696E67206661696C65640016
:101590004531204572723A204D415854454D500016
:1015A0004572723A204D415854454D5020424544B1
:1015B000004D415854454D502074726967676572FB
:1015C0006564004531204572723A204D494E5445BC
:1015D0004D50004572723A204D494E54454D5020B1
:1015E000424544004D494E54454D50207472696740
:1015F00067657265640020204D393036003A0A0074
:1016000020286D6D2900205430204500205A0020EC
:1016100059002058005374657070657220647269B7
:101620007665722063757272656E743A0A002020C6
:101630004D383531205A005A2D50726F6265204F57
:1016400066667365740020440020490020204D33F5
:10165000303420500020440020490020204D3330F9
:10166000312050005049442073657474696E67736B
:101670003A0A0020204D3432302053004175746FF7
:1016800020426564204C6576656C696E673A0A0095
:10169000204500205A0020590020580020540020E6
:1016A000530020204D32303520510020453C6D61E3
:1016B000785F655F6A65726B3E0020583C6D6178AB
:1016C0005F785F6A65726B3E20593C6D61785F7927
:1016D0005F6A65726B3E205A3C6D61785F7A5F6A23
:1016E00065726B3E00416476616E6365643A2051B9
:1016F0003C6D696E5F7365676D656E745F74696D6F
:10170000655F75733E20533C6D696E5F6665656409
:10171000726174653E20543C6D696E5F74726176CF
:10172000656C5F66656564726174653E0020540097
:1017300020520020204D3230342050004163636538
:101740006C65726174696F6E2028756E6974732F91
:101750007332293A20503C7072696E745F61636322
:10176000656C3E20523C726574726163745F6163A4
:1017700063656C3E20543C74726176656C5F616396
:1017800063656C3E0A00204500205A002059002065
:10179000204D3230312058004D6178696D756D20D3
:1017A000416363656C65726174696F6E2028756E44
:1017B0006974732F7332293A0A00204500205A00B9
:1017C00020590020204D3230332058004D61786977
:1017D0006D756D206665656472617465732028752A
:1017E0006E6974732F73293A0A00204500205A004D
:1017F00020590020204D39322058005374657073F1
:101800002070657220756E69743A0A0020204D328E
:1018100030302044300A0020204D32303020440047
:101820002044697361626C65640A0046696C616D8D
:10183000656E742073657474696E67733A00202056
:10184000473231202020203B00545249474745521F
:101850004544006F70656E003A20007A5F6D696ED6
:1018600000795F6D696E00785F6D696E005265701A
:101870006F7274696E6720656E6473746F70207325
:1018800074617475730A000000000100000001001B
:10189000008000555555000000400033333300AA46
:1018A000AA2A004992240000002000C7711C009958
:1018B000991900D1451700555515003BB113002467
:1018C00049120011111100000010000F0F0F00E36A
:1018D000380E0043790D00CCCC0C00C3300C00E86E
:1018E000A20B0064210B00AAAA0A00703D0A009D09
:1018F000D80900427B090092240900DCD308008843
:101900008808001042080000000800F0C1070087A6
:1019100087070075500700711C07003EEB0600A109
:10192000BC06006990060066660600703E0600610F
:1019300018060017F4050074D105005BB00500B26D
:10194000900500627205005555050078390500B80C
:101950001E0500050505004EEC040087D40400A117
:10196000BD040090A7040049920400C17D0400EE6C
:10197000690400C7560400444404005C32040008B3
:1019800021040041100400000004003FF00300F8AF
:10199000E0030026D20300C3C30300CCB503003A22
:1019A000A803000A9B0300388E0300C08103009F38
:1019B000750300D0690300505E03001D530300341B
:1019C000480300913D030033330300162903003818
:1019D0001F030097150300300C0300030303000BE3
:1019E000FA020049F10200BAE802005CE002002DB0
:1019F000D802002DD0020059C80200B0C002003148
:101A0000B90200DAB10200AAAA0200A0A30200BC37
:101A10009C0200FA9502005C8F0200DF88020082BF
:101A2000820200457C0200277602002770020043F4
:101A30006A02007C640200D05E02003F590200C8C6
:101A400053020000000A0B02090C0D0E08070304E4
:101A50000100000000000000000000000000000085
:101A60000000000000000000000000000000001264
:101A70001110000000000000000000000000000045
:101A8000000000000000000000556E6B6E6F776E66
:101A900020636F6D6D616E643A20220050726F6238
:101AA000696E67206661696C65640A00205A3A2095
:101AB0000020593A200042656420583A2000000076
:101AC00020002300260029002C002F0032000001F6
:101AD0000000030106010901000022002500280082
:101AE0002B002E0031003400020100000501080126
:101AF0000B01050505050705080808080202020292
:101B00000A0A080804040404010101010101010199
:101B10000303030303030303040707070C0C0C0C64
:101B20000C0C0C0C0202020206060606060606064D
:101B30000B0B0B0B0B0B0B0B0102102020080810DA
:101B4000204010204080020102010804020101022D
:101B50000408102040808040201008040201800406
:101B60000201804020100804020108040201010261
:101B700004081020408001020408102040802064E6
:101B800072697665722063757272656E743A2000B0
:101B90000000484200004842000080400000000071
:101BA0005761726E696E673A20486F6D696E672083
:101BB00042756D702044697669736F72203C2031E4
:101BC0000A000202040000A0400000A04000000043
:101BD00040FFFFFF2C20003F3F3F204D6178373210
:101BE00031393A3A006C65645F736574006C656402
:101BF0005F6F6666006C65645F6F6E004572726F42
:101C0000722077726974696E6720746F2045455041
:101C1000524F4D210A00454550524F4D206461748A
:101C20006173697A65206572726F722E0A00290AE3
:101C3000002062797465733B2063726320005365F2
:101C40007474696E67732053746F72656420280022
:101C5000486F6D696E67206661696C6564000A0A89
:101C6000426564204C6576656C20436F72726563D3
:101C700074696F6E204D61747269783A00202B0090
:101C80000A436F727265637465642042656420481C
:101C900065696768742076732E2042656420546FEE
:101CA000706F6C6F67793A0A00202B000A426564F6
:101CB0002048656967687420546F706F677261703F
:101CC00068793A0A2020202B2D2D2D204241434BAC
:101CD000202D2D2B0A2020207C2020202020202099
:101CE000202020207C0A204C207C20202020282B13
:101CF00029202020207C20520A2045207C202020E2
:101D000020202020202020207C20490A2046207CE2
:101D100020282D29204E20282B29207C20470A20EE
:101D200054207C20202020202020202020207C20C7
:101D3000480A2020207C20202020282D2920202017
:101D4000207C20540A2020207C20202020202020BD
:101D5000202020207C0A2020204F2D2D2046524F6D
:101D60004E54202D2D2B0A2028302C30290A004DCE
:101D700065616E206F662073616D706C65642070A4
:101D80006F696E74733A200020643A200020623A32
:101D9000200045716E20636F656666696369656ED4
:101DA00074733A20613A2000202844525952554E0B
:101DB0002900473239204175746F20426564204CF8
:101DC0006576656C696E67003F20284C2C522C4666
:101DD0002C4229206F7574206F6620626F756E64C7
:101DE000732E0A003F50726F626520706F696E74C7
:101DF000732028592920697320696D706C6175738F
:101E000069626C652028322D33292E0A003F5072FA
:101E10006F626520706F696E74732028582920697D
:101E20007320696D706C61757369626C652028320E
:101E30002D33292E0A003F2856296572626F73657B
:101E4000206C6576656C20697320696D706C6175B6
:101E50007369626C652028302D34292E0A00446F86
:101E60006E652E0A0061626C65640A006469730025
:101E7000656E00534552564F206E6F742073657423
:101E800075700A005761746368696E672070696EC7
:101E9000730A00656E6473746F70206D6F6E697481
:101EA0006F7220005374616E6461726420446576C1
:101EB000696174696F6E3A20002052616E67653AFD
:101EC0002000204D61783A2000204D696E3A2000B4
:101ED0004D65616E3A200046696E697368656421DC
:101EE0000A002072616E67653A2000206D61783AC1
:101EF0002000206D696E3A2000207369676D613A99
:101F00002000206D65616E3A20003A207A3A200068
:101F1000206F662000205A00205900205800476F8B
:101F2000696E6720746F3A00436C6F636B776973F7
:101F3000650A00436F756E7465722D0020446972E6
:101F4000656374696F6E3A2000202020616E676CB3
:101F5000653A20005374617274696E67207261641F
:101F60006975733A2000506F736974696F6E696E9A
:101F700067207468652070726F62652E2E2E0A00CD
:101F80003F4E756D626572206F66206C65677320C9
:101F9000696E206D6F76656D656E74206E6F74204E
:101FA000706C61757369626C652028302D3135293C
:101FB0002E0A003F2028582C5929206F7574206F55
:101FC0006620626F756E64732E0A003F53616D70F8
:101FD0006C652073697A65206E6F7420706C617512
:101FE0007369626C652028342D3530292E0A004D26
:101FF0003438205A2D50726F6265205265706561C9
:10200000746162696C69747920546573740A003F65
:102010002856296572626F7365206C6576656C2041
:10202000697320696D706C61757369626C652028D5
:10203000302D34292E0A005A5F535445505F5049C1
:102040004E005A5F4D494E5F50494E005A5F454E13
:1020500041424C455F50494E005A5F4449525F50DF
:10206000494E005A5F43535F50494E00595F5354E5
:1020700045505F50494E00595F4D494E5F50494EA3
:1020800000595F454E41424C455F50494E00595FF3
:102090004449525F50494E00595F43535F50494E87
:1020A00000585F535445505F50494E00585F4D49AA
:1020B0004E5F50494E00585F454E41424C455F507F
:1020C000494E00585F4449525F50494E00585F43A3
:1020D000535F50494E0053535F50494E0053455291
:1020E000564F335F50494E00534552564F325F5062
:1020F000494E00534552564F315F50494E005345AB
:1021000052564F305F50494E00534453530053438F
:102110004B5F50494E0052414D50535F44395F5020
:10212000494E0052414D50535F44385F50494E0074
:1021300052414D50535F4431305F50494E0050532F
:102140005F4F4E5F50494E004D4F53495F50494ECF
:10215000004D49534F5F50494E004D415836363778
:10216000355F5353004C45445F50494E004845414C
:102170005445525F4245445F50494E0048454154E2
:1021800045525F305F50494E0046494C5F52554EB4
:102190004F55545F50494E0046414E5F50494E00E6
:1021A00045315F535445505F50494E0045315F45BE
:1021B0004E41424C455F50494E0045315F444952C3
:1021C0005F50494E0045315F43535F50494E0045D3
:1021D000305F535445505F50494E0045305F454E87
:1021E00041424C455F50494E0045305F4449525F83
:1021F00050494E0045305F43535F50494E00455FA4
:102200004D5558325F50494E00455F4D5558315F2E
:1022100050494E00455F4D5558305F50494E004182
:1022200056525F53535F50494E004156525F5343DD
:102230004B5F50494E004156525F4D4F53495F50DE
:10224000494E004156525F4D49534F5F50494E0031
:1022500054454D505F4245445F50494E0054454DF2
:10226000505F315F50494E0054454D505F305F50D4
:10227000494E0046494C57494454485F50494E0026
:102280005458440052584400000136372603FFFFDB
:10229000FF353C3D380EFFFFFF312E303E12FFFF71
:1022A000FFFF28FF0C0809FFFFFF1A1C18FFFF2A79
:1022B00008440AFF4350726F74656374656420506C
:1022C000696E0A002020206E6F6E2D7374616E643B
:1022D0006172642050574D206D6F646500433A2051
:1022E00000423A2000413A200020202020434F4D58
:1022F00000202020636F6D7061726520696E7465C7
:10230000727275707420656E61626C656400202065
:10231000206F766572666C6F7720696E7465727275
:1023200075707420656E61626C6564003A200020EF
:1023300020202054494D534B00423A2000202020B9
:10234000205443435200413A20002020202054438F
:102350004352002020202043533A200020202020F8
:1023600057474D3A200050574D3A202025346400FD
:1023700050574D3A202025346400470048000000A3
:1023800088008A008C00B300B400000098009A0016
:102390009C00A800AA00AC0028012A012C012020E2
:1023A000202054494D455200440045006E008000F5
:1023B00081006F00B000B1007000900091007100CA
:1023C000A000A10072002001210173002069732088
:1023D000616C736F207469656420746F2074686920
:1023E000732070696E0054494D45523143000A20F4
:1023F0002E002020002020506F72743A20004F756C
:1024000074707574203D2000496E70757420203DF5
:10241000200050574D3A20202534640050574D3A43
:1024200020202534640050574D3A20202534640084
:1024300050574D3A20202534640050574D3A202003
:102440002534640050574D3A2020253464005057FD
:102450004D3A20202534640050574D3A2020253431
:10246000640050574D3A20202534640050574D3AAF
:1024700020202534640050574D3A20202534640034
:1024800050574D3A20202534640050574D3A2020B3
:102490002534640050574D3A2020253464005057AD
:1024A0004D3A20202534640050574D3A20202534E1
:1024B000640020202000202020416E616C6F672086
:1024C000696E203D20253564003C756E757365642A
:1024D0002F756E6B6E6F776E3E002028412532643B
:1024E00029202000257350494E3A202533642000CE
:1024F000416E616C6F6720696E203D202535640058
:1025000070726F7465637465642000202841253201
:102510006429202000257350494E3A202533642039
:1025200000842200018022010173223B00682243C3
:10253000005D2245005022440043223201362233FE
:10254000012A2234011F2235011422280109222ADE
:1025500001FE212C01F4212A01E9211C01DB2118B3
:1025600001CF211A01C5212C01BA212201AC211E63
:1025700001A021240198210901892104017C210A5B
:10258000016D21080165210D015A214201512132BD
:1025900001482133013E210C0130210A0123210889
:1025A00001162109010E21340109213501FE200BFC
:1025B00001F3200601E8200501DD200401D62035C5
:1025C00001CD203501C3203701B6202601AC200300
:1025D00001A1203601982031018E203D0181203853
:1025E0000177200E016C203C016320280159203026
:1025F000014C203E014220120137202E011000AA7A
:1026000003F0013A019002220130031001D00302CD
:10261000017004F7001005ED00B005E5005006DD7F
:1026200000F006D7009007D1003008CC00D008C7D2
:10263000007009C300100ABE00B00ABB00500BB7FF
:1026400000F00BB300900CB000D00DAA00100FA545
:10265000005010A00090119B00D0129600B0149072
:102660000090168B0070188500501A8000301C7B7B
:1026700000B01E750030216F00B023690030266461
:102680000010285F00902A5A00702C5500F02E4F41
:102690000070314800B0324500F0334100703639E7
:1026A00000103737005038330090392D00D03A27CA
:1026B00000B03C1C00503D1700F03D1100903E0959
:1026C00000D03FE5FF453400453300453200453139
:1026D000004530005A32005932005832005A005931
:1026E000005800202F002042403A0020403A00E1EC
:1026F00026DF26DD26DA26D726D426D126CE26CBFF
:1027000026C826C526747275650066616C736500FF
:102710002074656D70657261747572652070726584
:102720007761726E207472696767657265643A20BA
:1027300000207072657761726E20666C616720633D
:102740006C65617265640A00290A0020627974650B
:10275000733B2063726320002073746F7265642082
:1027600073657474696E67732072657472696576D7
:102770006564202800202863616C63756C61746552
:102780006429210A0020213D2000454550524F4D2B
:1027900020435243206D69736D61746368202D205E
:1027A0002873746F7265642920002053697A653A32
:1027B0002000496E6465783A2000204D61726C6992
:1027C0006E3D563535290A0028454550524F4D3D3E
:1027D00000454550524F4D2076657273696F6E20EB
:1027E0006D69736D61746368200048617264636F22
:1027F0006465642044656661756C74205365747407
:10280000696E6773204C6F616465640A00E80300B9
:1028100000E703000005000000E803000000007A64
:102820004300007A43000000400000B0410000A0D7
:10283000420000A0420000C0430000BE42FFFDFC79
:10284000FAF8F6F4F2F0EEECEAE9E7E5E3E1E0DECF
:10285000DCDAD9D7D5D4D2D0CFCDCBCAC8C7C5C37F
:10286000C2C0BFBDBCBAB9B7B6B4B3B2B0AFADACFD
:10287000AAA9A8A6A5A4A2A1A09E9D9C9A99989752
:1028800095949392908F8E8D8B8A89888786848386
:102890008281807F7E7D7B7A79787776757473729A
:1028A00071706F6E6D6C6B6A696867666564636290
:1028B00061605F5E5D5C5B5A59585857565554537A
:1028C000525150504F4E4D4C4B4A4A49484746464C
:1028D000454443424241403F3E3E3D3C3B3B3A390A
:1028E000383837363535343332323130302F2E2EBA
:1028F0002D2C2B2B2A29292827272625252423235D
:1029000022212120201F1E1E1D1C1C1B1B1A1919F1
:102910001818171616151514131312121111100F7B
:102920000F0E0E0D0D0C0C0B0A0A090908080707FB
:102930000606050504040303020201000020573ABD
:102940000020573A00205A3A0020593A0020436F9D
:10295000756E7420583A0020453A00205A3A0020FB
:10296000593A00583A003A004361703A0020643AFC
:102970000020693A0020703A00496E76616C696403
:102980002065787472756465720A002066697273D6
:10299000740A005A0059005800486F6D65200065A0
:1029A00063686F3A004572726F723A004531205485
:1029B0004845524D414C2052554E415741590042D5
:1029C000454420544845524D414C2052554E4157A4
:1029D000415900546865726D616C2052756E617763
:1029E00061790000002100240027002A002D00301A
:1029F00000330001010000040107010A010001B5D4
:102A000011241FBECFEFD1E2DEBFCDBF00E00CBF6F
:102A100013E0A0E0B2E0E4E5F3E801E00BBF02C0A0
:102A200007900D92A036B107D9F720E1A0E6B3E0F8
:102A300001C01D92AA32B207E1F714E1C0E0D5E16E
:102A400000E006C021970109802FFE010E9458C1B5
:102A5000CF3FD10780E00807A9F70E94A89F0C94F8
:102A6000A8C10C940000809108079091090798175D
:102A700059F0E92FF0E0E857F94F80819F5F9F7789
:102A80009093090790E008958FEF9FEF0895CF92FC
:102A9000DF92EF920F931F93CF93DF93CDB7DEB703
:102AA00060970FB6F894DEBF0FBECDBFE090A507CC
:102AB000E8EBF7E080859185A285B3854481558157
:102AC00066817781008111812281338109831A8394
:102AD0002B833C834D835E836F83788789879A87B6
:102AE000AB87BC871D861E861F86188AAE01475F8E
:102AF0005F4FBE016B5F7F4FCE0101960E94CF4BAF
:102B0000CE010D966C0105E312E024EC37E0AE0136
:102B1000475F5F4FBE016B5F7F4F0C970E94382865
:102B200060960FB6F894DEBF0FBECDBFDF91CF9198
:102B30001F910F91EF90DF90CF900895FF920F9328
:102B40001F93CF93DF93FC0120812B3319F1D09198
:102B5000B905D430F8F4F62EBC01C091CF050C2F86
:102B600010E0F0E6CF9FC0011124885C9B4F0E94CB
:102B700088C1F801E35DFB4FF082CF5FC43018F4E9
:102B8000C093CF0502C01092CF05DF5FD093B90587
:102B900081E001C080E0DF91CF911F910F91FF9004
:102BA00008958091370690913806A0913906B0912A
:102BB0003A068093350290933602A0933702B09381
:102BC00038028091350690913606909330028093BA
:102BD0002F0208958091350290913602A09137021C
:102BE000B09138028093370690933806A093390647
:102BF000B0933A0680912F0290913002909336065E
:102C00008093350684E690E09093300280932F0203
:102C100008952F923F924F925F926F927F928F9280
:102C20009F92AF92BF92CF92DF92EF92FF920F935B
:102C30001F93CF93DF93CDB7DEB72A970FB6F894E3
:102C4000DEBF0FBECDBF2B013C012D833E834F83E2
:102C5000588747015801DA86C986809135029091DC
:102C60003602A0913702B091380289839A83AB83F0
:102C7000BC83D6011C9111960C91119712963C9031
:102C8000129713962C9020E030E0A901612F702F4D
:102C9000832D922D0E941DBA81110AC0E8E9FBE143
:102CA00085919591A591B491182F092F3A2E2B2E2D
:102CB000A50194016091C0077091C1078091C2077E
:102CC0009091C3070E941DBA87FF15C0812F902FD6
:102CD000A32DB22D8093350290933602A093370234
:102CE000B09338028092C0079092C107A092C207A9
:102CF000B092C307CCDEE985FA85C080D180E2803E
:102D0000F38020E030E0A901C701B6010E941DBA9E
:102D1000811108C0C0903102D0903202E09033029D
:102D2000F0903402C0923502D0923602E09237021F
:102D3000F09238024092B8075092B9076092BA07F1
:102D40007092BB078D819E81AF81B8858093BC074F
:102D50009093BD07A093BE07B093BF0798DE209164
:102D6000C0073091C1074091C2075091C307C50108
:102D7000B4010E941DBA87FF15C0812F902FA32D8B
:102D8000B22D8093350290933602A0933702B09310
:102D900038028092C0079092C107A092C207B092F9
:102DA000C30775DE0E94ED3589819A81AB81BC81B4
:102DB0008093350290933602A0933702B093380285
:102DC0002A960FB6F894DEBF0FBECDBFDF91CF912C
:102DD0001F910F91FF90EF90DF90CF90BF90AF9039
:102DE0009F908F907F906F905F904F903F902F902B
:102DF0000895CF92DF92EF92FF920F931F936A0193
:102E0000E090C007F090C1070091C2071091C3077E
:102E1000FB012081318142815381FC0160817181FC
:102E200082819381F6DE1F910F91FF90EF90DF90EA
:102E3000CF900895CF92DF92EF92FF920F931F935E
:102E40006B01FC01E080F18002811381E8EBF7E087
:102E5000248135814681578160817181828193818E
:102E6000D8DE1F910F91FF90EF90DF90CF900895E3
:102E7000BF92CF92DF92EF92FF920F931F93CF9367
:102E8000DF93CDB7DEB728970FB6F894DEBF0FBE3D
:102E9000CDBF90918007981709F479C0B82E882388
:102EA00009F453C080E090E0A0E2B1E48D839E83FA
:102EB000AF83B887C090B407D090B507E090B6074D
:102EC000F090B70720E030E0A901C701B6010E94E9
:102ED0001DBA87FF0CC0A701960160E070E080E298
:102EE00091E40E9468BE6D837E838F83988720E083
:102EF00030E048E453E46D817E818F8198850E94A3
:102F00008FC0181644F480E090E0A8E4B3E48D8309
:102F10009E83AF83B8872D813E814F815885609114
:102F2000C0077091C1078091C2079091C3070E94AA
:102F30001DBA87FF0AC019821A821B821C82BE0139
:102F40006F5F7F4FCE01059675DF6091B807709176
:102F5000B9078091BA079091BB072091BC073091C7
:102F6000BD074091BE075091BF0719821A821B828C
:102F70001C82E090C007F090C1070091C207109139
:102F8000C307FE0131966F0144DEB092800780E0F6
:102F900028960FB6F894DEBF0FBECDBFDF91CF915C
:102FA0001F910F91FF90EF90DF90CF90BF90089509
:102FB0000F931F93CF93DF93CDB7DEB72C970FB648
:102FC000F894DEBF0FBECDBFE8EBF7E080859185BA
:102FD000A285B38544815581668177810081118105
:102FE0002281338109831A832B833C834D835E8343
:102FF0006F83788789879A87AB87BC87AE01475FE5
:103000005F4FBE016B5F7F4FCE0101960E94CF4B99
:1030100024EC37E0AE01475F5F4FBE016B5F7F4F2F
:10302000CE0101960E9412932C960FB6F894DEBF43
:103030000FBECDBFDF91CF911F910F9108950F93D8
:103040001F93CF938091E5039091E603009711F1D0
:10305000FC018F01C1912C2F2F7DA9F0C53411F0F7
:10306000C536B9F7F801108260E070E08091E503A1
:103070009091E6030E941EB6F801C083562F472F99
:10308000382F292F0BC060E070E0CF911F910F9176
:103090000C941EB650E040E030E020E0652F742F25
:1030A000832F922FCF911F910F9108959091C0007F
:1030B00095FFFCCF8093C6000895CF92DF92EF92E8
:1030C000FF920F931F93CF93DF938091B9058430C4
:1030D00008F01AC1C8DCAC0197FD16C1982F2091E9
:1030E000CD0D3091CE0D8A3019F09D3009F0DBC046
:1030F000109234062115310519F40E94F242E5CFF1
:10310000F901EC52FA4F10821092CE0D1092CD0DB3
:10311000C4EDD5E0FE018191803211F4EF01FACFC8
:103120008E3409F07EC0209709F47BC06CE179E011
:10313000CE010E94D5B98C01892B41F06EE470E07C
:10314000CE0104960E9474C1009709F4CE014AE0B2
:1031500050E060E070E001960E9471B76093D00586
:103160007093D1058093D2059093D305C090CF0D75
:10317000D090D00DE090D10DF090D20D2FEFC21A6B
:10318000D20AE20AF20A6C157D058E059F0529F028
:10319000012B19F489EE98E02AC06AE270E0CE01B2
:1031A0000E949DC19C01009701F1982F9C1B10E08B
:1031B000992339F09150FE01E90FF11D8081182704
:1031C000F7CF4AE050E060E070E0C90101960E944C
:1031D00071B7012F10E020E030E06017710782071F
:1031E000930779F08AEC98E002C080EA98E0DF91DA
:1031F000CF911F910F91FF90EF90DF90CF900C94A3
:103200009C9A8091D0059091D105A091D205B09162
:10321000D3058093CF0D9093D00DA093D10DB09393
:10322000D20D80910E0281111CC067E470E0CE01C6
:103230000E9474C10097A9F04AE050E060E070E09D
:1032400001960E9471B76430710558F4E9E2F8E024
:1032500084918F010F5F1F4F882319F027DFF8013A
:10326000F7CF6EEF72E0CE010E947FC1892B11F47F
:1032700010920F0263E073E0CE010E947FC1892BA0
:1032800021F480E298E00E94493A68E073E0CE01C0
:103290000E947FC1892B11F40E94F69461E084EDB5
:1032A00095E04CDC12CF2F3531050CF00ECF9C355C
:1032B000B9F4D9DB97FD09CF20913406211105CF50
:1032C0002091CD0D3091CE0DA9014F5F5F4F5093EE
:1032D000CE0D4093CD0DF901EC52FA4F8083F5CE1F
:1032E0009B3319F481E08093340680913406811178
:1032F000ECCEC90101969093CE0D8093CD0DF901CE
:10330000EC52FA4F4083E1CEDF91CF911F910F91A4
:10331000FF90EF90DF90CF900895BF92CF92DF9211
:10332000EF92FF920F931F93CF93DF93CDB7DEB74A
:103330006E970FB6F894DEBF0FBECDBF6091CD057E
:103340007091CE056115710551F14DE150E0CE014E
:1033500001967C010E94C6B91E8EF7018F010E19DD
:103360001F09B190BB2021F19AE0B912F7CF20C01C
:10337000B70183E198E00E946A9182E297DE8AE0D9
:1033800095DEBB2051F10F5F1F4F8091CD059091CD
:10339000CE05080F191F1093CE050093CD0581E0CF
:1033A0002091CD053091CE05232BD1F480E018C0BB
:1033B000F701E00FF11F108260E0C701BFDB882337
:1033C00071F3EFE9F9E284916F019FEFC91AD90A0D
:1033D000882371F26BDEF601F6CF00E010E0DBCF60
:1033E0006E960FB6F894DEBF0FBECDBFDF91CF91C2
:1033F0001F910F91FF90EF90DF90CF90BF900895B5
:103400008F929F92AF92BF92EF92FF920F931F9372
:10341000CF93DF93CDB7DEB7A0970FB6F894DEBF9A
:103420000FBECDBF611571058105910589F100E0E1
:10343000842E912CA12CB12C102FEE24E394F12C8E
:10344000EC0EFD1EE00EF11C07FDFA94A50194019F
:103450000E940BBEF7016083B901CA010F5F6115BD
:1034600071058105910541F71F3F21F1E1E0F0E091
:10347000EC0FFD1FE10FF11D17FDFA9580818A30D9
:1034800010F097E301C090E3890F10DE1150ECCFEC
:1034900080E3A0960FB6F894DEBF0FBECDBFDF91DC
:1034A000CF911F910F91FF90EF90BF90AF909F90A1
:1034B0008F90FCCDA0960FB6F894DEBF0FBECDBFA7
:1034C000DF91CF911F910F91FF90EF90BF90AF9040
:1034D0009F908F900895CF92DF92EF92FF926B01B1
:1034E0007C0197FF0AC08DE2E1DDF094E094D09476
:1034F000C094C11CD11CE11CF11C4AE0C701B601FB
:10350000FF90EF90DF90CF907BCF8F929F92AF9202
:10351000BF92CF92DF92EF92FF92CF936B017C012B
:10352000B42E20E030E0A9010E941DBA87FF06C03A
:103530008DE2BCDDF7FAF094F7F8F094C0E060E0BB
:1035400070E080E09FE3CB1541F02DEC3CEC4CECBF
:103550005DE30E9482BACF5FF6CF9B01AC01C70149
:10356000B6010E9469BE6B017C010E94B2BF4B0193
:103570005C014AE045DFCC2379F1C501B4010E942A
:1035800021BA9B01AC01C701B6010E9468BE6B0164
:103590007C018EE28BDD20E030E040E251E4C701A7
:1035A000B6010E9482BA4B015C010E94ADBF6B0163
:1035B000770FEE08FF08C701B6018DDFC701B6011E
:1035C0000E9423BA9B01AC01C501B4010E9468BEF0
:1035D0006B017C01C150F9F6CF91FF90EF90DF9025
:1035E000CF90BF90AF909F908F9008951F920F92B1
:1035F0000FB60F9211240BB60F922F938F939F93B8
:10360000EF93FF9320910907E091080781E08E0F67
:103610008F779091C600281729F0F0E0E857F94F0E
:103620009083E82FE0930807FF91EF919F918F918E
:103630002F910F900BBE0F900FBE0F901F901895FB
:103640008F929F92AF92BF92CF92DF92FF920F9391
:103650001F93CF93DF93EC01C07F6B018FE0C82AEB
:10366000CC15DD0508F057C08E01CE010E945A4FDF
:103670005C01F50181915F01882311F017DDF9CF1D
:103680008AE314DD5E01F12CF50181915F010E9456
:103690008B4F4C01F40181914F01882311F006DD1D
:1036A000F9CF80E203DDF394F0E1FF1631F0F8E0AA
:1036B000FF12EACF8DE2FADCE7CF69E170E080E04B
:1036C00090E00E9433878CE7F1DC6096F8018081FE
:1036D000F4E008331F0748F094E90833190728F489
:1036E00090EE980F9F3530F002C0853E11F480E2D5
:1036F00001C08FE3DBDC0F5F1F4FC017D10731F72D
:103700008AE0D4DC69E170E080E090E00E943387D9
:103710000E947B3AA5CFDF91CF911F910F91FF902F
:10372000DF90CF90BF90AF909F908F900895809141
:10373000E5039091E603009731F04AE050E060E045
:1037400070E00C9471B760E070E0CB010895EFDF9A
:1037500097FD0AC0ECDF6F3F71058105910509F007
:103760002CF4E5DF862F089580E008958FEF08950B
:103770008091E5039091E603892B31F0E8DF91E039
:10378000811103C090E001C091E0892F0895815418
:103790008A3108F042C0E82FF0E040917A0350915E
:1037A0007B0360917C0370917D0304C076956795DF
:1037B000579547958A95D2F7842F817040FF2FC087
:1037C000E05AFC4F9081992309F1E0918307F09131
:1037D0008407E90FF11D908120ED290F2A3098F020
:1037E0009E3211F491810CC09D3211F09B3271F424
:1037F000918120ED290F2A3030F09E3239F49281E8
:1038000090539A3018F42E2F9F2F02C020E090E0A2
:103810002093E5039093E603089580E008950895CA
:10382000B6DF882341F081E02091E5033091E60383
:10383000232B09F480E00895EF92FF920F931F93DA
:10384000CF93DF937C0184E5EBDFD82F882321F130
:103850007EDFC82F1816E4F4EFE9F9E284918F01B6
:103860000F5F1F4F882319F021DCF801F7CF8DE49B
:103870001DDCB70180E090E04AE0C2DD6C2FCC0F88
:10388000770B81E299E00E9451918AE00FDC08C039
:1038900080932B04D0E004C08091A50780932B0473
:1038A0008D2FDF91CF911F910F91FF90EF90089591
:1038B0002F923F924F925F926F927F928F929F9240
:1038C000AF92BF92CF92DF92EF92FF920F931F932E
:1038D000CF93DF9300D0CDB7DEB7809124109091C5
:1038E00025100E945A4F67E272E086E098E00E943D
:1038F0006A918AE290E10E945A4F67E272E088EF93
:1039000097E00E946A9100912410109125100115F2
:10391000110511F40AE210E1C8010E945A4F67E252
:1039200072E080EE97E00E946A912E0184E0480EDA
:10393000511CC2010E945A4F67E272E08EEC97E080
:103940000E946A918AE0B2DB809110028111CAC1A3
:1039500089E41DDF8111C6C11FC07801E8E0EE0EC9
:10396000F11CA60165EE7FEFC7010E946DC1B60193
:103970000D2C000C880B990BAEDDE4E1F6E0849190
:103980005F019FEFA91AB90A8111CFC1A12CB12CF7
:10399000AC14BD040CF4CCC184E4F9DE882321F01E
:1039A000B201C8014DDEE5C186E4F1DE882309F4E9
:1039B0005DC1401A510AA12CB12C212C312C612C53
:1039C000712C88248A94982CA414B504E4F5680119
:1039D000CA0CDB1CF6018081853E89F5E12CF12CB7
:1039E0008191853E41F0F1E0EF1AF10889E0E81697
:1039F000F1042CF108C09FEFE91AF90AE1148DE7F0
:103A0000F80671F71CC0B70181E997E00E94519157
:103A1000C6010E945A4F67E272E081E897E00E9477
:103A20006A918AE043DB8E149F0414F0610101C0A7
:103A30004701AE0CBF1C9FEF691A790A1601EFEF20
:103A4000AE1ABE0AC1CFF2E06F167104DCF0EFE4EB
:103A5000F7E084918F010F5F1F4F882319F026DB59
:103A6000F801F7CFB40187E397E00E945191C101BB
:103A70000E945A4F67E272E08CE297E00E946A91DE
:103A80008AE014DB0DE013E0F80181918F018823B7
:103A900011F00CDBF9CFC0902410D0902510C11488
:103AA000D10421F49AE2C92E90E1D92E8E010D5F46
:103AB0001F4F5801AC18BD08B5018CEF96E00E946D
:103AC000519184E290E10E945A4F67E272E08FEEDA
:103AD00096E00E946A9180912410909125100E9496
:103AE0005A4F67E272E08DEE96E00E946A918AE298
:103AF00090E10E945A4F67E272E080EE96E00E94E9
:103B00006A91C8010E945A4F67E272E08BED96E01D
:103B10000E946A910C151D0508F5EFECF6E0849102
:103B20008F010F5F1F4F882319F0C0DAF801F7CF1C
:103B300064E170E080E090E00E94338705E113E0EB
:103B4000F80181918F01882311F0B0DAF9CF8AE072
:103B5000ADDA6FEF71E280E89BE172DDE12CF12CD0
:103B600000E010E0EA14FB04CCF5F601EE0DFF1DB9
:103B70008081853E79F560E070E08191853EC9F0F5
:103B80004B01F1E08F1A910889E08816910414F135
:103B9000E80CF91C0F5F1F4FB8018CEC96E00E94F7
:103BA0005191B40183EC96E00E945191EFEBF6E065
:103BB00007C06F5F7F4F61159DE77907F1F60AC077
:103BC00084914F019FEF891A990A882319F06EDAC0
:103BD000F401F6CFEFEFEE1AFE0AC4CFB80180EB86
:103BE00096E00E9451910130110531F4809124102A
:103BF00090912510892B89F0EEE7F6E084917F0102
:103C00009FEFE91AF90A882319F050DAF701F6CF85
:103C10000115110511F40FEF1FEFE5E7F6E08491B0
:103C20007F019FEFE91AF90A882319F03FDAF701BB
:103C3000F6CF0130110519F0EFE6F6E007C080E39A
:103C400035DA8AE033DA60E070E00BC084917F01FE
:103C50009FEFE91AF90A882319F028DAF701F6CF5D
:103C6000B80186E097E00E94519139C083E48FDD6E
:103C7000882309F47EC05BDD6B019E01201B310BA4
:103C80003A956F5F7F4FC9010E9431C17B01EEEA17
:103C9000F7E084915F019FEFA91AB90A811108C06A
:103CA000C7010896080F191FAA24A394B12C03C0BA
:103CB000FDD9F501EECFCA14DB0488F0F801A0822B
:103CC000C8010E945A4F67E272E088E997E00E94BB
:103CD0006A91FFEFAF1ABF0A0E0D1F1DECCF8AE0ED
:103CE000E5D947C010921002ECE4F6E084917F0120
:103CF0009FEFE91AF90A882319F0D8D9F701F6CF0E
:103D00006201C01AD10AEAEFCE1AD108D7FE25CE39
:103D1000E4E3F6E084917F019FEFE91AF90A882332
:103D200009F43ACEC3D9F701F5CFC0D9F50127CEB2
:103D3000F7018081853EB1F0C7010E945A4F67E2CA
:103D400072E087E096E00E946A91F70180810E940C
:103D50008B4FBC0185E096E00E946A918AE0A6D96B
:103D60008AE0A4D9FFEFAF1ABF0A8FEFE81AF80A6A
:103D70000FCE0F900F900F90DF91CF911F910F9169
:103D8000FF90EF90DF90CF90BF90AF909F908F907B
:103D90007F906F905F904F903F902F9008952F925B
:103DA0003F924F925F926F927F928F929F92AF92CB
:103DB000BF92CF92DF92EF92FF920F931F93CF9318
:103DC000DF93CDB7DEB72F970FB6F894DEBF0FBEE7
:103DD000CDBFF8948FEF9FEF909389008093880078
:103DE000BAE0DB2E1F861E86789480917F06909124
:103DF0008006A0918106B0918206892B8A2B8B2B9D
:103E000009F0CEC1809117108823D1F010921710BD
:103E10008091151090911610892B91F01092400608
:103E200010921610109215109091BA0F8091BB0F3E
:103E3000981731F08091BB0F8F5F8F708093BB0F0D
:103E40008091151090911610892B09F4A9C1009149
:103E50007B0610917C0620917D0630917E06809134
:103E6000770690917806A0917906B0917A064091F4
:103E70006E0650E060E070E0801B910BA20BB30B6C
:103E8000481759076A077B0710F4DB01CA01482F5E
:103E9000800F911FA21FB31F80937B0690937C0617
:103EA000A0937D06B0937E0680918400909185005A
:103EB0004C968090550690905606A0905706B0906C
:103EC000580600914506109146062091470630910C
:103ED0004806080D191D2A1D3B1D00935506109319
:103EE0005606209357063093580637FD1CC0889A13
:103EF00000917E0310917F03209180033091810314
:103F000080901102082C000C9908AA08BB08080D23
:103F1000191D2A1D3B1D00937E0310937F032093E0
:103F20008003309381038090590690905A06A090A8
:103F30005B06B0905C060091490610914A062091FC
:103F40004B0630914C06080D191D2A1D3B1D009390
:103F5000590610935A0620935B0630935C0637FD92
:103F60001CC08E9A009182031091830320918403D8
:103F70003091850380901202082C000C9908AA0841
:103F8000BB08080D191D2A1D3B1D009382031093C9
:103F90008303209384033093850380905D06909083
:103FA0005E06A0905F06B090600600914D061091ED
:103FB0004E0620914F0630915006080D191D2A1DFE
:103FC0003B1D00935D0610935E0620935F063093C1
:103FD000600637FD21C020910B01209528702093A9
:103FE0000901009186031091870320918803309185
:103FF000890380901302082C000C9908AA08BB08BA
:10400000080D191D2A1D3B1D00938603109387037D
:104010002093880330938903809061069090620614
:10402000A0906306B090640600915106109152066C
:104030002091530630915406080D191D2A1D3B1D71
:104040000093610610936206209363063093640622
:1040500037FD1CC0149A00918A0310918B032091A4
:104060008C0330918D0380901402082C000C990869
:10407000AA08BB08080D191D2A1D3B1D00938A03C1
:1040800010938B0320938C0330938D03009155067E
:1040900010915606209157063091580637FD15C0ED
:1040A0008090410690904206A0904306B09044064E
:1040B000081919092A093B09009355061093560659
:1040C000209357063093580688980091590610910E
:1040D0005A0620915B0630915C0637FD15C0809032
:1040E000410690904206A0904306B09044060819FD
:1040F00019092A093B090093590610935A0620937F
:104100005B0630935C068E9800915D0610915E060A
:1041100020915F063091600637FD19C080904106FE
:1041200090904206A0904306B090440608191909E1
:104130002A093B0900935D0610935E0620935F06F3
:104140003093600620910B012870209309010091A3
:10415000610610916206209163063091640637FD76
:1041600015C08090410690904206A0904306B09002
:104170004406081919092A093B090093610610939E
:10418000620620936306309364061498415041F010
:10419000209184003091850028173907C8F389CE13
:1041A00080917F0690918006A0918106B091820651
:1041B000892B8A2B8B2B09F0CEC5E0911510F0913D
:1041C0001610309709F44DC780917B0690917C06BC
:1041D000A0917D06B0917E064091770650917806B9
:1041E0006091790670917A0684179507A607B7073C
:1041F000D0F0109240061092161010921510909167
:10420000BA0F8091BB0F981709F42BC78091BB0F91
:104210008F5F8F708093BB0FA0ED4A2EA7E05A2EC0
:10422000612C712CE5C34091730650917406609126
:10423000750670917606481759076A077B0708F4D8
:10424000A4C180906F0690907006A0907106B09007
:10425000720686A997A9A0ADB1AD88169906AA06DF
:10426000BB0608F076C181149104A104B10449F49D
:1042700080913C0690913D06A0913E06B0913F068C
:1042800064C1B0E0AC2D882D392D2A2DF981EA8149
:104290007B816C815D814E819F815091B90D589FCA
:1042A000712D66274091BA0D489F700D611D1090C9
:1042B000BB0D189E600D539F700D611D439F600DD7
:1042C000529F600DF72FE62FF79F512D4427992716
:1042D000F69F500D411D9B1FE79F500D411D9B1FD9
:1042E000E69F400D911DF42FE92FF79FA12D442744
:1042F0009927F69FA00D411D9B1FE79FA00D411D13
:104300009B1FE69F400D911DF42FE92F55278091AB
:104310003C0630913D0620913E060090CC050B2ACC
:1043200009F483C04091C8054F9F51198B0B3B0B7B
:104330002B0B9091C9059F9F501981093B0B2B0BAB
:10434000A091CA05AF9F801931092B0B4E9F5019C0
:1043500081093B0B2B0B9E9F801931092B0BAE9FC4
:1043600030192109F79FA12D44279927F69FA00D09
:10437000411D9B1FE79FA00D411D9B1FE69F400D08
:10438000911DF42FE92F4091C4054F9F510D8B1FB4
:104390003B1F2B1F9091C5059F9F500D811D3B1FFB
:1043A0002B1FA091C605AF9F800D311D2B1F4E9F67
:1043B000500D811D3B1F2B1F9E9F800D311D2B1FFC
:1043C000AE9F300D211DF79FA12D44279927F69F01
:1043D000A00D411D9B1FE79FA00D411D9B1FE69F48
:1043E000400D911DF42FE92F4091C0054F9F5119A9
:1043F0008B0B3B0B2B0B9091C1059F9F5019810993
:104400003B0B2B0BA091C205AF9F801931092B0BE1
:104410004E9F501981093B0B2B0B9E9F8019310930
:104420002B0BAE9F3019210982C04091C8054F9FC8
:10443000510D8B1F3B1F2B1F9091C9059F9F500D46
:10444000811D3B1F2B1FA091CA05AF9F800D311D01
:104450002B1F4E9F500D811D3B1F2B1F9E9F800DBC
:10446000311D2B1FAE9F300D211DF79FA12D44271D
:104470009927F69FA00D411D9B1FE79FA00D411D91
:104480009B1FE69F400D911DF42FE92F4091C4051D
:104490004F9F51198B0B3B0B2B0B9091C5059F9F89
:1044A000501981093B0B2B0BA091C605AF9F8019BA
:1044B00031092B0B4E9F501981093B0B2B0B9E9FF3
:1044C000801931092B0BAE9F30192109F79FA12DBF
:1044D00044279927F69FA00D411D9B1FE79FA00D24
:1044E000411D9B1FE69F400D911DF42FE92F409128
:1044F000C0054F9F510D8B1F3B1F2B1F9091C10576
:104500009F9F500D811D3B1F2B1FA091C205AF9F88
:10451000800D311D2B1F4E9F500D811D3B1F2B1FEA
:104520009E9F800D311D2B1FAE9F300D211D11242C
:10453000CA2EF983EA837B836C835D834E839F83DA
:1045400090E0932BA0E0B0E0A22B24E331E111E056
:1045500011C082A993A9A4A9B5A9F7CFB695A7952B
:1045600097958795110F2C5F3F4F41E12035340718
:1045700009F446C4F9014591559165917491481724
:1045800059076A077B0750F33BC440916A06509174
:104590006B0660916C0670916D06481759076A07A3
:1045A0007B0708F0B8C18091690681111FC0DF0147
:1045B000AE5BBF4FED90FD900D911C9113971D9632
:1045C0002D913D914D915C9162A973A984A995A902
:1045D0000E94259051E050936906E0911510F091EA
:1045E000161082A893A8A4A8B5A886C180916506D4
:1045F00090916606A0916706B091680642AD53ADF2
:1046000064AD75AD84179507A607B70708F06EC1AE
:104610000097A105B10549F480903C0690903D06B5
:10462000A0903E06B0903F0667C130E04885882ED6
:10463000292F8A2FE9857A856B855C859D859091E8
:10464000B90D989D612D55272090BA0D289C600DBD
:10465000511D1090BB0D189C500D929F600D511D67
:10466000229E500D989F500DE62F752FE69F912D9D
:1046700022243324E59F900D211C331E769F900D3C
:10468000211C331E759F200C311CE22D732DE69FDB
:10469000412D22243324E59F400D211C331E769F9B
:1046A000400D211C331E759F200C311CE22D732DF3
:1046B000992780903C0620913D0680913E0600900F
:1046C000CC05032A09F483C02090C8052E9E9119B9
:1046D000830A230B830B3090C9053E9E90198108F5
:1046E000230B830B4091CA054E9F80182109830B31
:1046F000279E90198108230B830B379E8018210970
:10470000830B479F20198109E69F412D22243324E2
:10471000E59F400D211C331E769F400D211C331E4A
:10472000759F200C311CE22D732D2090C4052E9E08
:10473000910D831E231F831F3090C5053E9E900D53
:10474000811C231F831F4091C6054E9F800C211D95
:10475000831F279E900D811C231F831F379E800C73
:10476000211D831F479F200D811DE69F412D22247F
:104770003324E59F400D211C331E769F400D211CE4
:10478000331E759F200C311CE22D732D2090C00527
:104790002E9E9119830A230B830B3090C1053E9EF8
:1047A00090198108230B830B4091C2054E9F8018FE
:1047B0002109830B279E90198108230B830B379EB9
:1047C00080182109830B479F2019810982C02090FE
:1047D000C8052E9E910D831E231F831F3090C9058F
:1047E0003E9E900D811C231F831F4091CA054E9F42
:1047F000800C211D831F279E900D811C231F831F6A
:10480000379E800C211D831F479F200D811DE69F31
:10481000412D22243324E59F400D211C331E769F19
:10482000400D211C331E759F200C311CE22D732D71
:104830002090C4052E9E9119830A230B830B309080
:10484000C5053E9E90198108230B830B4091C60538
:104850004E9F80182109830B279E90198108230BF6
:10486000830B379E80182109830B479F20198109EC
:10487000E69F412D22243324E59F400D211C331E49
:10488000769F400D211C331E759F200C311CE22D9C
:10489000732D2090C0052E9E910D831E231F831F14
:1048A0003090C1053E9E900D811C231F831F4091B7
:1048B000C2054E9F800C211D831F279E900D811CD9
:1048C000231F831F379E800C211D831F479F200DB0
:1048D000811D11244887E9877A876B875C879D87CC
:1048E000912C922AA12CB12CA82A06C0E15BFF4F83
:1048F00080809180A280B38084E391E121E0FC017B
:104900004591559165917491481559056A057B0546
:1049100008F4D9C2E3C28091160290911702A091C7
:104920001802B0911902B7FF5BC0E95BFF4F8080AE
:104930009180A280B38084E391E121E0FC01459164
:10494000559165917491481559056A057B0550F498
:10495000B694A79497948794220F0496A1E180358A
:104960009A0761F720936E06B0E28B169104A104BA
:10497000B10408F447C320E2821A9108A108B108E3
:10498000811438E09306A104B10408F417C344E08D
:10499000949EC00111248C5C924FFC0132962591AB
:1049A0003491782D6627739FA001729F410D561F89
:1049B0000694461F561F112460E070E0FC0125910B
:1049C0003491C901A0E0B0E0841B950BA60BB70B96
:1049D0008093160290931702A0931802B0931902C5
:1049E00040901602509017026090180270901902C1
:1049F0008091151090911610892B09F0A4C10E9486
:104A0000AD909093161080931510892B09F49BC1DB
:104A1000E0911510F0911610808183FF3EC08589CA
:104A20009689A789B08D80937E0390937F03A0938E
:104A30008003B0938103818D928DA38DB48D80937B
:104A4000820390938303A0938403B0938503858DA1
:104A5000968DA78DB0A18093860390938703A09332
:104A60008803B093890381A192A1A3A1B4A18093EB
:104A70008A0390938B03A0938C03B0938D03909142
:104A8000BA0F8091BB0F981709F4B9CF8091BB0F73
:104A90008F5F8F708093BB0FB2CF058916892789EE
:104AA000308D81E0011511052105310509F480E003
:104AB000818C928CA38CB48C81149104A104B104D8
:104AC00009F08260458D568D678D70A141155105A5
:104AD0006105710509F084608093400610926506B7
:104AE00010926606109267061092680610926F0682
:104AF00010927006109271061092720685A196A10E
:104B0000A7A1B0A58093770690937806A093790625
:104B1000B0937A06442455243201481A590A6A0A85
:104B20007B0A409261065092620660926306709220
:104B3000640640925D0650925E0660925F06709237
:104B400060064092590650925A0660925B06709237
:104B50005C06409255065092560660925706709237
:104B60005806000F111F221F331F00934506109394
:104B700046062093470630934806880C991CAA1CC9
:104B8000BB1C8092490690924A06A0924B06B092B6
:104B90004C06440F551F661F771F40934D065093D8
:104BA0004E0660934F067093500641A152A163A137
:104BB00074A1440F551F661F771F409351065093F1
:104BC00052066093530670935406880F991FAA1FCC
:104BD000BB1F8093410690934206A0934306B09377
:104BE000440610927B0610927C0610927D0610926D
:104BF0007E0682A593A5A4A5B5A580937306909380
:104C00007406A0937506B093760686A597A5A0A90D
:104C1000B1A980936A0690936B06A0936C06B0933B
:104C20006D0641A5EA5BFF4F508180913B0658130A
:104C30000AC08091150290E0242F042E000C330B43
:104C40002817390731F050933B06409315020E9414
:104C500077900E94A64F8FEF9FEFDC0180931602A2
:104C600090931702A0931802B0931902E0911510C7
:104C7000F0911610DF01DE96ED90FD900D911C91E4
:104C800022A933A944A955A9E55BFF4F6081718131
:104C9000828193810E94259010926906E0911510FF
:104CA000F0911610E55BFF4F80809180A280B38069
:104CB00084E391E121E0FC01459155916591749166
:104CC000481559056A057B0558F4B694A79497943E
:104CD0008794220F049640E551E14817590759F788
:104CE00020936E0650E285169104A104B10408F4E5
:104CF000B2C190E2891A9108A108B1088114A8E014
:104D00009A06A104B10408F483C1B4E09B9EC001DB
:104D100011248C5C924FFC01329625913491782DB0
:104D20006627739FA001729F410D561F0694461F70
:104D3000561F1124FC0145905490612C712C441A8B
:104D4000550A6108710840927F0650928006609271
:104D500081067092820680917F0690918006A091D4
:104D60008106B0918206AC01BD01009721E0A20747
:104D7000B10520F04FEF5FEF60E070E0841B950B12
:104D8000A60BB70B80937F0690938006A0938106B5
:104D9000B0938206F89480918400909185004096AB
:104DA000DA94DD2059F0AE85BF85A40FB51FBF870B
:104DB000AE87A817B90708F417C802C09F878E8767
:104DC0002E853F85309389002093880078942F9614
:104DD0000FB6F894DEBF0FBECDBFDF91CF911F910C
:104DE0000F91FF90EF90DF90CF90BF90AF909F908A
:104DF0008F907F906F905F904F903F902F9008958D
:104E000010936E0680329105A105B10508F456C0D5
:104E10008097A109B109811528E09207A105B10584
:104E2000F0F044E0949F900111242C5C324FF90182
:104E3000329645915491EE27859FB001849F610D74
:104E40007E1F06946E1F7E1F1124F9014590549019
:104E5000612C712C461A570A6108710822C0AC01F6
:104E6000BD017695679557954795FA01EC7FAF019F
:104E70004C5C564FFA0125913491FA0132966591B6
:104E800074918770869FA001879F500D1124F3E0D5
:104E900056954795FA95E1F72901441A550A612C70
:104EA000712C840C951CA61CB71C80926F069092E6
:104EB0007006A0927106B09272069ACD80E290E0E0
:104EC000A0E0B0E0A5CFB694A79497948794220F62
:104ED000049651E18035950709F011CD20936E06B7
:104EE00070E287169104A104B10408F461C070E275
:104EF000871A9108A108B108811488E09806A104D6
:104F0000B104F8F0A4E09A9EC00111248C5C924F89
:104F1000FC01329625913491B82D6627B39FA001EC
:104F2000B29F410D561F0694461F561F1124FC01C7
:104F300045905490612C712C441A550A61087108EF
:104F400022C0D501C401B695A79597958795FC0118
:104F5000EC7FCF018C5C964FFC0145905490FC0196
:104F6000329625913491482D4770429FC001439F4E
:104F7000900D112463E0969587956A95E1F7481A9C
:104F8000590A612C712C8091650690916606A0915A
:104F90006706B0916806840D951DA61DB71D809308
:104FA000650690936606A0936706B093680620CDC9
:104FB00060E2862E912CA12CB12C99CFD501C40191
:104FC000B695A79597958795FC01EC7FCF018C5CF2
:104FD000964FFC0125913491FC01329645915491F4
:104FE000682D6770649FC001659F900D112443E098
:104FF000969587954A95E1F7281B390BC901A0E0E2
:10500000B0E0E6CC40E2842E912CA12CB12CB3CCA4
:10501000D501C401B695A79597958795FC01EC7FBE
:10502000CF018C5C964FFC0145905490FC01329668
:1050300025913491482D4770429FC001439F900DA8
:105040001124A3E096958795AA95E1F7481A590A85
:10505000612C712C78CE90E2892E912CA12CB12C50
:1050600048CE80ED482E87E0582E612C712CC7CC9D
:105070002F923F924F925F926F927F928F929F9268
:10508000AF92BF92CF92DF92EF92FF920F931F9356
:10509000CF93DF93CDB7DEB7CB56D1090FB6F894D7
:1050A000DEBF0FBECDBFE0913907F0913A07EF2B7D
:1050B00009F0D5C7DEAECDAEE9AE79016A015B017C
:1050C000FC0120910D0430910E0440910F04509189
:1050D000100460817181828193810E9482BA0E9452
:1050E0009AC0A3966CAF7DAF8EAF9FAFA397209170
:1050F0001104309112044091130450911404D5010D
:105100006D917D918D919C910E9482BA0E949AC06E
:10511000A7966CAF7DAF8EAF9FAFA7972091150478
:10512000309116044091170450911804F6016081E3
:105130007181828193810E9482BA0E949AC0AB964B
:105140006CAF7DAF8EAF9FAFAB97209119043091BC
:105150001A0440911B0450911C04D7016D917D915C
:105160008D919C910E9482BA0E949AC02B966CAF3E
:105170007DAF8EAF9FAF2B978091370483FF0EC01A
:105180002B964CAC5DAC6EAC7FAC2B974092001074
:10519000509201106092021070920310D8013C905E
:1051A00011964C9011974DA612965C90129759AAA1
:1051B00013962C908091BA0F9091BB0F891B8F7022
:1051C0008F3019F40E947B3AF5CF6090BA0FAC96FD
:1051D0006FAEAC978091BA0F082F10E018A70FA3FD
:1051E0008091F40F9091F50FA091F60FB091F70F09
:1051F000A3968CAC9DACAEACBFACA397881A990AB1
:10520000AA0ABB0A8091F80F9091F90FA091FA0FAA
:10521000B091FB0FA7964CAC5DAC6EAC7FACA79782
:10522000481A590A6A0A7B0A4BA25CA26DA27EA2A6
:105230008091FC0F9091FD0FA091FE0FB091FF0F98
:10524000AB964CAC5DAC6EAC7FACAB97481A590AD0
:105250006A0A7B0A49A65AA66BA67CA68091001012
:1052600090910110A0910210B09103102B964CACBC
:105270005DAC6EAC7FAC2B97481A590A6A0A7B0A60
:1052800009F49DC080911D0481113BC06091CF073E
:105290007091D0078091D1079091D2070E94ADBF45
:1052A00020910C0230910D026217730754F52B9672
:1052B0004CAC5DAC6EAC7FAC2B9740920010509222
:1052C00001106092021070920310EFE9F9E28491EC
:1052D0008F010F5F1F4F811103C0E3E7F1E104C0AD
:1052E0000E945618F801F3CF84918F010F5F1F4F72
:1052F000882321F00E945618F801F6CF412C512C3A
:10530000320139AD24E0329F800111240A5F1D4F24
:10531000C301B2010E9423BAD8012D913D914D9154
:105320005C910E9482BA6B017C0120E030E0A9010F
:105330000E948FC087FF04C0F7FAF094F7F8F0944A
:105340006091190470911A0480911B0490911C04BF
:105350000E94ADBF9B01AC01A8ECB0E00E9449BE29
:105360000E9423BAA70196010E941DBA87FF2AC096
:105370002B964CAC5DAC6EAC7FAC2B974092001082
:10538000509201106092021070920310EFE9F9E25E
:1053900084918F010F5F1F4F811103C0E4E5F1E19C
:1053A00004C00E945618F801F3CF84918F010F5F5B
:1053B0001F4F882321F00E945618F801F6CF412C88
:1053C000512C3201D501C4018827B7FD8395992757
:1053D000AA27BB27182F2BA13CA14DA15EA157FDE9
:1053E000126089A59AA5ABA5BCA5B7FD146077FC92
:1053F000186009ADA4E00A9FC00111249C012A5F36
:105400003D4F7901C301B2010E9423BAD7012D910A
:105410003D914D915C910E9482BA6B017C0120E02C
:1054200030E0A9010E948FC087FF04C0C701B60108
:10543000905802C0C701B60120E030E040E05FE3D1
:105440000E9469BE0E94B2BF6DAB7EAB8FAB98AFBE
:105450008DE54FA058A4849DF001859DF00D112489
:10546000E751F84F1082EA5BFF4F1083B501A401AA
:10547000B7FE07C044275527BA01481959096A09D8
:105480007B098DE56FA078A4869DF001879DF00DC6
:105490001124E751F84F458B568B678B708F8BA18A
:1054A0009CA1ADA1BEA1B7FF07C0B095A0959095F6
:1054B00081959F4FAF4FBF4F2DE50FA118A5209F9E
:1054C000F001219FF00D1124E751F84F818F928F49
:1054D000A38FB48F09A51AA52BA53CA537FF07C03C
:1054E00030952095109501951F4F2F4F3F4FEDE5BB
:1054F0007E2E4FA058A4749CF001759CF00D1124D1
:10550000E751F84F058F168F278F30A34DA85EA85F
:105510006FA878AC41A252A263A274A23A01F62FFE
:10552000E72F481759076A077B0718F43C01FA2F41
:10553000EB2FC301AF2FBE2F80179107A207B30730
:1055400010F4D901C8014DA85EA86FA878AC8415E5
:105550009505A605B70510F4D301C2012DE56FA08E
:1055600078A4269DF001279DF00D1124E751F84FF6
:1055700085A396A3A7A3B0A70697A105B10508F434
:1055800067C5DF01A95ABF4F80919C0390919D038D
:105590008D939C9379AC71A6452B462B472B09F034
:1055A0005F988DE50FA118A5809FF001819FF00DF8
:1055B0001124E751F84F818D928DA38DB48D892BE5
:1055C0008A2B8B2B09F08A988DE54FA058A4849DD7
:1055D000F001859DF00D1124E751F84F858D968DD2
:1055E000A78DB0A1892B8A2B8B2B29F080910801E4
:1055F0008170809306014DA85EA86FA878AC4528FD
:105600004628472809F42DC580918706882319F07C
:1056100081508093870659AC511004C0129880E2E3
:10562000809387066090FB037090FC030091FD035C
:105630001091FE039301A801632D7DA589A9922DE8
:105640000E941DBA87FF04C0362C7DA609AB212E0F
:10565000C501B4010E9423BA2091D9073091DA071D
:105660004091DB075091DC070E9482BA69AF7AAFA4
:105670008BAF9CAF698B7A8B8B8B9C8B6BA17CA146
:105680008DA19EA10E9423BA2091DD073091DE07F3
:105690004091DF075091E0070E9482BA6BA37CA380
:1056A0008DA39EA36D8B7E8B8F8B988F69A57AA51A
:1056B0008BA59CA50E9423BA2091E1073091E207B7
:1056C0004091E3075091E4070E9482BA4B015C01CC
:1056D000698F7A8F8B8F9C8F2091E5073091E60739
:1056E0004091E7075091E807C701B6010E9482BACE
:1056F0006B017C016D8F7E8F8F8F98A38DE56FA0DE
:1057000078A4869DF001879DF00D1124E751F84F94
:10571000458856886788708C06E0401651046104FD
:10572000710408F4A7C4ADADBEADCD90DD90ED9091
:10573000FC9020E030E0A901C701B6010E941DBA2B
:105740008111B7C429AD3AAD4BAD5CADCA01B90109
:105750000E9482BA6B017C012BA13CA14DA15EA1EC
:10576000CA01B9010E9482BA9B01AC01C701B6010E
:105770000E9469BE6B017C01A5019401C501B401C1
:105780000E9482BA9B01AC01C701B6010E9469BEAA
:105790000E94D4C02DE50FA118A5209FF001219FE4
:1057A000F00D1124E751F84F658776878787908B36
:1057B0008DE50FA118A5809FF001819FF00D1124A8
:1057C000E751F84F25853685478550896B962CAF74
:1057D0003DAF4EAF5FAF6B9760E070E080E89FE356
:1057E0000E9445BF23966CAF7DAF8EAF9FAF2397CE
:1057F000232D3DA549A9522D0E9482BA4B015C017F
:105800008091BA0F9091B80F891B8F708DAFA50151
:10581000940160E074E284E799E40E9445BF0E942D
:105820009AC06B017C018DAD8250863008F450C463
:10583000A50194016B966CAD7DAD8EAD9FAD6B9760
:105840000E9482BA9B01AC010E9482BA2F966CAF73
:105850007DAF8EAF9FAF2F978DE5AFA1B8A58A9F83
:1058600080018B9F100D11240751184F2F962CADDE
:105870003DAD4EAD5FAD2F97D80111962D933D9361
:105880004D935C93149795962D913D914D915C911C
:1058900098972DA73EA74FA758ABCA01B9010E9400
:1058A00021BA69AB7AAB8BAB9CAB9B01AC01C50158
:1058B000B4010E9482BA0E942FBF0E94B2BF6396B9
:1058C0006CAF7DAF8EAF9FAF6397F801E95BFF4F81
:1058D00060837183828393838E010F5E1F4F2596B1
:1058E0001FAF0EAF2597005111091AAF09AF09EC90
:1058F00013E06F961FAF0EAF6F978E010F5D1F4FB6
:105900001AA309A309AD1AAD6D961FAF0EAF6D971F
:10591000312C212C10E81BA30FE309A72596AEAD6F
:10592000BFAD25972D913D914D915D912596BFAFCE
:10593000AEAF2597C501B4010E9482BA6B017C010C
:105940006D96EEADFFAD6D976193719381939193D9
:105950006D96FFAFEEAF6D9720E030E0A9010E9499
:105960008FC087FF04C0F7FAF094F7F8F0946F96B1
:10597000AEADBFAD6F970D911D912D913D916F967D
:10598000BFAFAEAF6F9767960CAF1DAF2EAF3FAFF7
:105990006797A701960167966CAD7DAD8EAD9FAD03
:1059A00067970E941DBA87FDCBC309A11AA125964E
:1059B0002EAD3FAD25970217130709F0AFCF20E0BA
:1059C00030E040E85FE3632D722D8BA199A50E9422
:1059D0001DBA87FF56C07E0131E1E30EF11C09AD0F
:1059E0001AAD232D322D4BA159A5D8016D917D9172
:1059F0008D919C910E9482BAF80161937193819379
:105A000091938F01EE16FF0661F72DE50FA118A502
:105A1000209FC001219F900D11249C012751384FD8
:105A200079018901095B1F4F63966CAD7DAD8EAD29
:105A30009FAD63970E9421BA232D322D4BA159A50A
:105A40000E9482BA0E94B2BFD8016D937D938D935C
:105A50009C931397232D322D4BA159A5632D722DA5
:105A60008BA199A50E9482BA2F962CAD3DAD4EAD6B
:105A70005FAD2F970E9482BAF7016183728383839F
:105A8000948329A93AA94BA95CA923966CAD7DAD55
:105A90008EAD9FAD23970E9482BA6BA37CA38DA38A
:105AA0009EA3411451046104710409F465C32DA936
:105AB0003EA94FA958AD232B242B252B09F489C3CC
:105AC0002091E1033091E2034091E3035091E4031C
:105AD0006BA17CA18DA19EA10E9482BA0E942FBFC2
