:100000000C9485180C94AF180C94AF180C94AF187E
:100010000C94AF180C94AF180C94AF180C94AF1844
:100020000C94AF180C94AF180C94AF180C94AF1834
:100030000C94AF180C94AF180C94AF180C94AF1824
:100040000C94AF180C9458480C94AF180C94AF183B
:100050000C94AF180C94AF180C94D6770C94935D55
:100060000C94AF180C946A430C94AF180C94AF180E
:100070000C94AF180C94AF180C94AF180C94AF18E4
:100080000C94AF180C94AF180C94AF180C94AF18D4
:100090000C94AF180C94AF180C94AF180C94AF18C4
:1000A0000C94AF180C94AF180C94AF180C94AF18B4
:1000B0000C94AF180C94AF180C94AF180C94AF18A4
:1000C0000C94AF180C94AF180C94AF180C94AF1894
:1000D0000C94AF180C94AF180C94AF180C94AF1884
:1000E0000C94AF18AD5CB25CB75CC15CCB5C445D9A
:1000F000D55CDD5CE55CEF5CF95C035D125D1C5D6D
:10010000445D265D305D3A5DB36BB66BA56BA96B44
:10011000AF6BED6BBA6BBE6BC46BC86BCC6BD26B49
:10012000D66BDA6BED6BE06BE46BE86B30784078A4
:100130005F786F788A788F78927897789A789F78B6
:10014000A278A778B178084AD73B3BCE016E84BC31
:10015000BFFDC12F3D6C74319ABD56833DDA3D0021
:10016000C77F11BED9E4BB4C3E916BAAAABE00006A
:1001700000803F05A84CCDB2D44EB93836A9020C48
:1001800050B9918688083CA6AAAA2ABE0000008021
:100190003F004E414E494E495459494E46CDCCCC74
:1001A0003D0AD7233C17B7D13877CC2B329595E64B
:1001B000241FB14F0A000020410000C84200401C2B
:1001C0004620BCBE4CCA1B0E5AAEC59D74434F4D53
:1001D0004D554E49434154494F4E00445259525592
:1001E0004E004552524F525300494E464F00454330
:1001F000484F00536C6565702E2E2E002066697284
:1002000073740059005800486F6D652000206669BE
:100210007273740A0059005800486F6D6520005AC7
:100220002070726F6265206F75742E206265640A9B
:10023000005A2070726F6265206F75742E2062659F
:100240006400205A3A200020593A20004265642078
:10025000583A2000526573756D696E672070726937
:100260006E74004D6164203344205072696E746571
:10027000722072656164792E005761697420666F1F
:100280007220757365722E2E2E004E6F206D6F7664
:10029000652E005344207072696E74696E67206227
:1002A00079746520004E6F74205344207072696E1B
:1002B00074696E670A005072696E742074696D65A6
:1002C0003A20006D0046696C616D656E742075732F
:1002D00065643A200053746174733A20002C204CFA
:1002E0006F6E67657374206A6F623A2000546F7492
:1002F000616C2074696D653A200053746174733ABF
:1003000020002C204661696C65643A20002C204650
:10031000696E69736865643A20005072696E74731F
:100320003A200053746174733A200048656174691F
:100330006E672E2E2E004D6164203344205072696A
:100340006E7465722072656164792E00EE01E901B8
:10035000E201DB01CD016F66660044454255473A34
:10036000004B494C4C45442E20004D313133205335
:10037000006F6B0048656174696E6720646F6E651D
:100380002E003F0A0020573A0048656174696E6785
:100390002E2E2E004D6164203344205072696E74FD
:1003A00065722072656164792E0042656420646F15
:1003B0006E652E003F0A0020573A004265642048CF
:1003C000656174696E672E004D616420334420506E
:1003D00072696E7465722072656164792E004D6178
:1003E00064203344205072696E746572204F6666D3
:1003F0002E004649524D574152455F4E414D453AB8
:100400004D61726C696E20312E312E302D52434277
:100410007567466978202847697468756229205392
:100420004F555243455F434F44455F55524C3A68E0
:10043000747470733A2F2F6769746875622E636FD6
:100440006D2F4D61726C696E4669726D7761726570
:100450002F4D61726C696E2050524F544F434F4C78
:100460005F56455253494F4E3A312E30204D41434D
:1004700048494E455F545950453A4D6164203344D4
:10048000205072696E746572204558545255444527
:10049000525F434F554E543A3120555549443A63C3
:1004A000656465326132662D343161322D34373402
:1004B000382D396231322D63353563363266333645
:1004C0003766660A007A5F6D696E3A2000795F6D63
:1004D000696E3A2000785F6D696E3A20005265704F
:1004E0006F7274696E6720656E6473746F702073C9
:1004F00074617475730A004D31343520533C696E54
:100500006465783E206F7574206F662072616E6737
:10051000652028302D31290A0053657474696E678F
:100520002054726176656C20416363656C6572610D
:1005300074696F6E3A200053657474696E67205257
:1005400065747261637420416363656C6572617484
:10055000696F6E3A200053657474696E672050723B
:10056000696E7420416363656C65726174696F6E56
:100570003A200053657474696E67205072696E7416
:1005800020616E642054726176656C2041636365FE
:100590006C65726174696F6E3A200043290A0061CC
:1005A000626C656420286D696E2074656D70200032
:1005B000436F6C6420657874727564657320617232
:1005C00065200023646566696E65202044454641C8
:1005D000554C545F4B64200023646566696E65204A
:1005E0002044454641554C545F4B692000236465C7
:1005F00066696E65202044454641554C545F4B70FA
:100600002000504944204175746F74756E652066F2
:10061000696E69736865642120507574207468651B
:10062000206C617374204B702C204B6920616E64C8
:10063000204B6420636F6E7374616E7473206672F6
:100640006F6D2062656C6F7720696E746F20436FE9
:100650006E66696775726174696F6E2E680A005004
:100660004944204175746F74756E65206661696CCC
:100670006564212074696D656F75740A0050494482
:10068000204175746F74756E65206661696C656470
:10069000212054656D706572617475726520746F88
:1006A0006F20686967680A00204B643A2000204B7D
:1006B000693A2000204B703A20000A20436C617395
:1006C00073696320504944200A002054753A200081
:1006D000204B753A2000206D61783A2000206D692A
:1006E0006E3A200020643A200020626961733A204B
:1006F000004F666673657473206170706C69656421
:10070000004572723A20546F6F2066617221005466
:100710006F6F206661722066726F6D20726566650C
:1007200072656E636520706F696E740A003A20000E
:100730007A5F6D61783A20007A5F6D696E3A2000C9
:100740005A204F666673657400416374697665204C
:1007500045787472756465723A2000220A00556EFD
:100760006B6E6F776E20636F6D6D616E643A2022E1
:10077000002569730025696D202569730025696866
:100780002025696D20256973002569642025696825
:100790002025696D20256973002569792025696404
:1007A000202569682025696D20256973004E6F201A
:1007B0004C696E65204E756D62657220776974684C
:1007C00020636865636B73756D2C204C61737420B6
:1007D0004C696E653A20004B494C4C45442E200034
:1007E00053544F505045442E20005072696E74652A
:1007F000722073746F707065642064756520746F07
:10080000206572726F72732E204669782074686555
:10081000206572726F7220616E6420757365204D61
:1008200039393920746F20726573746172742E20A7
:100830002854656D706572617475726520697320E6
:1008400072657365742E2053657420697420616627
:100850007465722072657374617274696E67290AB7
:10086000004E6F20436865636B73756D2077697404
:1008700068206C696E65206E756D6265722C204C07
:10088000617374204C696E653A2000636865636B20
:1008900073756D206D69736D617463682C204C6194
:1008A0007374204C696E653A20004C696E65204E69
:1008B000756D626572206973206E6F74204C617370
:1008C00074204C696E65204E756D6265722B312CFB
:1008D000204C617374204C696E653A20004D3131B3
:1008E00030004D3331004D383420582059205A20E3
:1008F000450053442072656164206572726F720A0C
:1009000000446F6E65207072696E74696E67206650
:10091000696C650A0020496E76616C6964206578AF
:1009200074727564657220000000484300004843FB
:100930000000344300000000000000000000000040
:1009400020746F6F206C6F6E67206578747275739A
:10095000696F6E2070726576656E7465640A00203A
:10096000636F6C6420657874727573696F6E207044
:10097000726576656E7465640A00456E642066690A
:100980006C65206C6973740A00426567696E206645
:10099000696C65206C6973740A0024F4D43050C308
:1009A0008E20C2A24017828B7011127A910D816C39
:1009B000D90AA861E108C7586607615143061E4B72
:1009C0005D05C145A7041A411104093D9803713919
:1009D00031034036DB0265339102D4305402802E5D
:1009E0001D02632CEE01752AC501B028A001102755
:1009F00081018F2564012B244B01E0223401AC21BD
:100A00001F018D200D01801FFC00841EED00971D2D
:100A1000DF00B81CD200E61BC600201BBC00641A15
:100A2000B200B219A8000A19A0006A189900D117DB
:100A3000910040178B00B516840031167E00B31567
:100A400079003A157300C7146F0058146A00EE134A
:100A500066008813630025135E00C7125B006C12EA
:100A6000570015125400C111510070114F0021118F
:100A70004B00D61049008D1047004610440002106C
:100A80004200C00F4000800F3E00420F3C00060FA6
:100A90003B00CB0E3800930E37005C0E3500270E5E
:100AA0003400F30D3200C10D3100900D3000600DA7
:100AB0002E00320D2D00050D2C00D90C2B00AE0C94
:100AC0002900850C29005C0C2700350C27000E0C32
:100AD0002600E80B2400C40B2400A00B23007D0B90
:100AE00023005A0B2100390B2100180B2000F80AB3
:100AF0001F00D90A1E00BB0A1E009D0A1D00800AA5
:100B00001D00630A1C00470A1B002C0A1B00110A67
:100B10001A00F7091A00DD091900C4091900AB0908
:100B20001900920917007B091800630917004C0986
:100B3000160036091600200916000A091500F508E6
:100B40001500E0081400CC081400B8081400A4082C
:100B50001400900813007D0812006B081300580859
:100B60001200460812003408110023081100120870
:100B7000110001081100F0071000E0071000D00775
:100B80001000C0071000B0070F00A1071000910768
:100B90000E0083070F0074070F0065070E0057074C
:100BA0000E0049070E003B070D002E070E00200720
:100BB0000D0013070D0006070D00F9060C00ED06E9
:100BC0000D00E0060C00D4060C00C8060C00BC06A4
:100BD0000C00B0060C00A4060B0099060C008D0654
:100BE0000B0082060B0077060B006C060B006106FB
:100BF0000A0057060B004C060A0042060A00380697
:100C00000A002E060A0024060A001A060A00100628
:100C1000090007060A00FD050900F4050900EB05B7
:100C20000900E2050900D9050900D0050900C7053A
:100C30000900BE050900B5050800AD050800A505B9
:100C400009009C050800940508008C05080084052F
:100C500008007C050800740508006C0507006505A0
:100C600008005D050700560508004E05070047050A
:100C700007004005080038050700310507002A0570
:100C80000700230507001C050600160507000F05D1
:100C900007000805060002050700FB040600F5042E
:100CA0000700EE040600E8040600E2040700DB0487
:100CB0000600D5040600CF040600C9040600C304DC
:100CC0000600BD040600B7040600B1040500AC042C
:100CD0000600A6040600A00405009B040600950477
:100CE0000500900406008A040500850405008004C0
:100CF00006007A04050075040500700405006B0405
:100D0000050066040500610405005C040500570445
:100D10000500520405004D04050048040500430485
:100D200005003E0404003A040500350405003004C3
:100D300004002C04050027040400230405001E04FD
:100D400004001A04040016040500110404000D0434
:100D50000400090405000404040000040400FC036A
:100D60000400F8030400F4030400F0030400EC039F
:100D70000400E8030400E4030400E0030400DC03CF
:100D80000400D8030400D4030400D0030400CC03FF
:100D90000400C8030300C503030024F404D9201B86
:100DA000C40C5C0E9804C4095F0265077101F40568
:100DB000F900FB04B30048048700C103690058032D
:100DC000550003034500BE023A008402310053027D
:100DD0002A002902250004022000E4011C00C801A9
:100DE0001900AF011700980114008401130071016C
:100DF00010006101100051010E0043010D00360189
:100E00000B002B010B0020010B00150109000C0148
:100E1000090003010800FB000800F3000800EB00D4
:100E20000700E4000600DE000600D8000600D2003D
:100E30000600CC000500C7000500C2000500BD008B
:100E40000400B9000400B5000400B1000400AD00C6
:100E50000400A9000400A5000300A20003009F00F5
:100E600004009B000300980003009500020093001B
:100E70000300900003008D0002008B000300880037
:100E800002008600020084000300810002007F004F
:100E900002007D0002007B00020079000200770062
:100EA000010076000200740002007200010071006F
:100EB00002006F0002006D0001006C0002006A0079
:100EC0000100690002006700010066000100650082
:100ED0000100640002006200010061000100600086
:100EE00001005F0002005D0001005C0001005B008A
:100EF00001005A000100590001005800010057008C
:100F0000010056000100550001005400010053008B
:100F10000000530001005200010051000100500088
:100F200001004F0001004E0000004E0001004D0086
:100F300001004C0001004B0000004B0001004A0082
:100F4000010049000100480000004800010047007E
:100F50000100460000004600010045000000450079
:100F60000100440001004300000043000100420072
:100F7000000042000100410000004100010040006B
:100F800001003F0000003F0001003E0000003E0065
:100F900001003D0000003D0001003C0000003C005D
:100FA00000003C0001003B0000003B0001003A0053
:100FB00000003A000100390000003900010038004B
:100FC0000000380000003800010037000000370042
:100FD0000100360000003600000036000100350038
:100FE000000035000000350001003400000034002E
:100FF0000000340001003300000033000000330023
:101000000100320000003200000032000100310017
:10101000000031000000310001003000000030000D
:101020000000300001002F0000002F0000002F0002
:1010300000002F0001002E0000002E0000002E00F6
:1010400001002D0000002D0000002D0000002D00EB
:1010500001002C0000002C0000002C0000002C00DF
:1010600001002B0000002B0000002B0000002B00D3
:1010700001002A0000002A0000002A0000002A00C7
:1010800001002900000029000000290000002900BB
:1010900000002900010028000000280000002800AE
:1010A00000002800000028000100270000002700A1
:1010B0000000270000002700000027000100260094
:1010C0000000260000002600000026000000260088
:1010D000010025000000250000002500000025007B
:1010E000000025000000250001002400000024006D
:1010F0000000240000002400000024000100230060
:101100000000230000002300000023000000230053
:101110000000230000002300010022000000220044
:101120000000220000002200000022000000220037
:10113000010021000000210000002100000021002A
:10114000000021000000210000002100010020001B
:10115000000020000000200000002000000020000F
:1011600000002000000020000000200001001F00FF
:1011700000001F0000001F0000001F0000001F00F3
:1011800000001F0000001F0001001E0000001E00E4
:1011900000001E0000001E0000004D3834205820C2
:1011A00059205A2045006265640A002C2073797327
:1011B00074656D2073746F7070656421204865617B
:1011C0007465725F49443A200048656174696E67CE
:1011D000206661696C65640048656174696E6720AA
:1011E0006661696C65640048656174696E67206654
:1011F00061696C65640048656174696E6720666149
:10120000696C65640070012C0190012701B0012216
:1012100001C0011D01F00118011002130130020E7E
:10122000016002090190020401C002FF000003FAFC
:10123000004003F5008003F000D003EB002004E63B
:10124000007004E100E004DC004005D700C005D2D6
:10125000004006CD00D006C8008007C3003008BE9D
:1012600000F008B900C009B400B00AAF00B00BAA82
:1012700000D00CA500000EA000500F9B00C01096DF
:10128000005012910000148C00C0158700B0178226
:1012900000B0197D00D01B7800001E730040206E46
:1012A0000090226900F024640040275F0090295AD2
:1012B00000E02B5500102E500020304B001032461D
:1012C00000E033410090353C001037370070383271
:1012D00000A0392D00B03A2800A03B2300603C1E3E
:1012E00000103D1900903D1400103E0F00703E0AA2
:1012F00000C03E0500003F000048617264636F64F7
:1013000065642044656661756C7420536574746906
:101310006E6773204C6F616465640A0020204D384D
:101320003531205A005A2D50726F6265204F666623
:1013300073657420286D6D293A0A0020204D3230E3
:10134000302044300A0020204D323030204400202C
:1013500044697361626C65640A0046696C616D651D
:101360006E742073657474696E67733A002044006C
:1013700020490020204D3330312050005049442076
:1013800073657474696E67733A0A002046002042E0
:101390000020204D313435205331204800204600B4
:1013A00020420020204D3134352053302048004D5C
:1013B0006174657269616C20686561747570207014
:1013C0006172616D65746572733A0A00205A00207B
:1013D000590020204D323036205800486F6D65206E
:1013E0006F666673657420286D6D290A00204500BC
:1013F000205A0020580020420020540020204D3266
:101400003035205300416476616E636564207661F7
:10141000726961626C65733A20533D4D696E206656
:101420006565647261746520286D6D2F73292C20A9
:10143000543D4D696E2074726176656C20666565F9
:10144000647261746520286D6D2F73292C20423DD4
:101450006D696E696D756D207365676D656E74205D
:1014600074696D6520286D73292C20583D6D617855
:10147000696D756D205859206A65726B20286D6DF5
:101480002F73292C20205A3D6D6178696D756D2070
:101490005A206A65726B20286D6D2F73292C2020CD
:1014A000453D6D6178696D756D2045206A65726B8B
:1014B00020286D6D2F73290A00205400205200202F
:1014C000204D323034205000416363656C65726199
:1014D00074696F6E733A20503D7072696E74696EF4
:1014E000672C20523D7265747261637420616E6472
:1014F00020543D74726176656C0A00204500205AC4
:101500000020590020204D3230312058004D6178A4
:10151000696D756D20416363656C65726174696F97
:101520006E20286D6D2F7332293A0A002045002065
:101530005A0020590020204D3230332058004D6190
:1015400078696D756D206665656472617465732078
:10155000286D6D2F73293A0A00204500205A00207B
:10156000590020204D393220580053746570732083
:1015700070657220756E69743A0A0000060900FEF3
:10158000070192032120FFFF08FF07FF000000066C
:101590000000010707060200808080808000800331
:1015A0000202060105A0A00507070600005050F83A
:1015B00050F850500507070600002078A07028F06A
:1015C00020050707060000C0C8102040981805072E
:1015D000070600006090A040A8906802030306017F
:1015E00004C040800307070601002040808080403F
:1015F00020030707060100804020202040800505C9
:101600000506000120A870A8200505050600012098
:1016100020F820200203030602FFC04080050101DC
:10162000060003F8020202060200C0C00505050616
:101630000001081020408005070706000070888818
:101640008888887003070706010040C0404040407A
:10165000E0050707060000708808708080F805071D
:1016600007060000F81020100808F005070706001C
:101670000010305090F81010050707060000F880A1
:10168000F008088870050707060000708080F08861
:101690008870050707060000F808102020202005A4
:1016A000070706000070888870888870050707069D
:1016B000000070888878080870020505060200C0DE
:1016C000C000C0C00206060602FFC0C000C04080C5
:1016D0000407070600001020408040201005030387
:1016E000060002F800F804070706010080402010F9
:1016F00020408005070706000070880810200020A1
:1017000005070706000070880868A8A87005070785
:10171000060000708888F88888880507070600009A
:10172000F08888F08888F005070706000070888038
:1017300080808870050707060000F0888888888800
:10174000F0050707060000F88080F08080F80507A4
:1017500007060000F88080F08080800507070600FB
:1017600000708880B88888700507070600008888A0
:1017700088F88888880107070602008080808080BA
:1017800080800507070600003810101010906005D3
:1017900007070600008890A0C0A0908805070706EC
:1017A0000000808080808080F805070706000088A0
:1017B000D8A8888888880507070600008888C8A8F0
:1017C00098888805070706000070888888888870D0
:1017D000050707060000F08888F08080800507076D
:1017E00006000070888888A8906805070706000032
:1017F000F08888F0A09088050707060000788080B0
:10180000700808F0050707060000F82020202020B7
:1018100020050707060000888888888888700507E3
:10182000070600008888888888502005070706007A
:10183000008888888888A8500507070600008888DF
:1018400050205088880507070600008888885020A7
:101850002020050707060000F80810204080F80344
:101860000707060100E08080808080E0050505060E
:1018700000018040201008030707060100E0202037
:10188000202020E005030306000420508805010104
:10189000060000F802020206020580400505050662
:1018A000000070087888780507070600008080B07F
:1018B000C88888F0050505060000708080887005DE
:1018C0000707060000080868988888780505050657
:1018D00000007088F880700507070600003048E0B7
:1018E000404040400506060600FF70888878087072
:1018F0000507070600008080B0C8888888010707B0
:10190000060200800080808080800308080601FFB6
:10191000200020202020A04004070706000080802F
:1019200090A0C0A090030707060100C040404040BF
:1019300040E0050505060000D0A8A8A8A8050505F3
:10194000060000B0C8888888050505060000708874
:101950008888700506060600FFF08888F0808005FC
:1019600006060600FF788888780808050505060041
:1019700000B0C880808005050506000070807008F2
:10198000F00407070600004040E0404040300505F5
:101990000506000088888898680505050600008807
:1019A000888850200505050600008888A8A85005ED
:1019B000050506000088502050880506060600FF31
:1019C000888888780870050505060000F810204012
:1019D000F80307070601002040408040402001072F
:1019E0000706020080808080808080030707060150
:1019F00000804040204040800502020600026890BE
:101A000000000006000000000006000000000006C4
:101A100000000000000600000000000600000000BA
:101A200000060000000000060000000000060000A4
:101A30000000000600000000000600000000000694
:101A4000000000000006000000000006000000008A
:101A50000006000000000006000000000006000074
:101A60000000000600000000000600000000000664
:101A7000000000000006000000000006000000005A
:101A80000006000000000006000000000006000044
:101A90000000000600000000000600000000000634
:101AA000000000000006000000000006000000002A
:101AB0000006000000000006000000000006000014
:101AC00000000006000000000006000001070706F5
:101AD00002008000808080808005070706000020CB
:101AE00070A8A0A87020050707060000304040E05D
:101AF0004050A8050505060000887050708805074D
:101B000007060000885020F820F820010707060289
:101B10000080808000808080050808060000304832
:101B2000205050209060030101060107A00507071F
:101B3000060000F888B8B8B888F80507070600015D
:101B4000700878887800F80505050600012850A07F
:101B50005028050303060001F808080202020602E5
:101B6000064080050707060000F888A88898A8F8AE
:101B7000050101060006F8040404060003609090C5
:101B8000600507070600002020F8202000F8040563
:101B90000506000360902040F0030505060003E001
:101BA00020E020E002020206020640800508080646
:101BB00000FF8888888898E880800507070600006D
:101BC00078989878181818020202060202C0C0021B
:101BD00002020602FF408003050506000340C040E4
:101BE00040E0050707060001708888887000F80546
:101BF0000505060001A0502850A0050707060000B3
:101C00008890A858B808080507070600008890B80B
:101C100048982038050808060000C040C048D83859
:101C2000080805070706000020002040808870058E
:101C300008080600004020007088F8888805080819
:101C40000600001020007088F88888050808060043
:101C5000002050007088F888880508080600006891
:101C600090007088F8888805080806000050007009
:101C70008888F888880508080600002050207088A9
:101C8000F888880507070600003860A0B8E0A0B80B
:101C90000508080600FF70888080887020600508AD
:101CA00008060000402000F880F080F805080806CB
:101CB0000000081000F880F080F805080806000011
:101CC000205000F880F080F805070706000050005B
:101CD000F880F080F8030808060100804000E0402A
:101CE0004040E0030808060100204000E04040407A
:101CF000E003080806010040A000E0404040E00387
:101D00000707060100A000E0404040E00507070685
:101D10000000704848E84848700508080600006858
:101D2000900088C8A8988805080806000040207020
:101D30008888888870050808060000102070888848
:101D40008888700508080600002050007088888880
:101D50007005080806000068900070888888700583
:101D600008080600005000708888888870050505FE
:101D700006000188502050880508080600FF1070F2
:101D8000A8A8A8A870400508080600004020888878
:101D900088888870050808060000102088888888D0
:101DA0008870050808060000205000888888887020
:101DB0000508080600005000888888888870050893
:101DC0000806000010208850202020200509090660
:101DD00000FFC040704848704040E0040808060119
:101DE000FF609090A09090E08005080806000040F9
:101DF0002000700878887805080806000010200088
:101E000070087888780508080600002050007008DF
:101E100078887805080806000068900070087888BF
:101E200078050707060000500070087888780508D4
:101E300008060000205020700878887805060606FD
:101E40000000D02878A0A8500506060600FF708084
:101E5000887020600508080600004020007088F89F
:101E600080700508080600001020007088F8807057
:101E70000508080600002050007088F880700507EB
:101E80000706000050007088F880700308080601FB
:101E90000080400040C04040E003080806010020E8
:101EA000400040C04040E003080806010040A00098
:101EB00040C04040E0030707060100A00040C040CA
:101EC00040E0050707060000A040A01078887005D4
:101ED0000808060000689000B0C8888888050808CF
:101EE00006000040200070888888700508080600F9
:101EF00000102000708888887005080806000020FF
:101F000050007088888870050808060000689000F6
:101F10007088888870050707060000500070888860
:101F200088700505050600012000F8002005070758
:101F30000600FF1070A8A8A8704005080806000059
:101F4000402000888888986805080806000010204E
:101F500000888888986805080806000020500088D6
:101F600088889868050707060000500088888898C8
:101F7000680509090600FF102000888888F80870A5
:101F80000407070601FFC04060506040E0050808F4
:101F90000600FF5000888888780870253032693A3A
:101FA000253032690025696420253032693A2530B0
:101FB0003269005A00590020003F005800092000F3
:101FC0000000000000000000000000007FFFE000B3
:101FD00000000000000000000000007000E00000B1
:101FE0000000000000000000000061F86000000038
:101FF00000000000000000000041F8200000000088
:10200000000000000000000040F020000000000080
:102010000000000000000040602000000000000000
:102020000000000000005801A07F800000000000B8
:1020300000004104005C63A0FFC00000000000003D
:10204000002082005EF7A0FFC0000000000000003A
:102050002082005EF7A0FFC00000000000000041E9
:1020600004005C63A07F8000000000000000820884
:10207000005801A07F800000000000000104100053
:10208000406020FFC000000000000001041000407C
:10209000F020FFC00000000000000082080041F8AE
:1020A00020FFC00000000000000041040061F86053
:1020B0003F00000000000000000000007000E01E73
:1020C0000000000000000001FFFF807FFFE00C0027
:1020D00000000000000001FFFF8000000000000081
:1020E0000000000000000000007FFFE00000000092
:1020F00000000000000000007000E0000000000090
:1021000000000000000000630C6000000000000000
:10211000000000000000470E20000000000000004A
:1021200000000000004F0F20000000000000000031
:10213000000000005F0FA000000000000000000091
:102140000000005E07A07F8000000000000000414A
:102150000400406020FFC00000000000000020825A
:102160000040F020FFC000000000000000208200BE
:1021700040F020FFC00000000000000041040040CB
:1021800060207F80000000000000008208005E07E1
:10219000A07F80000000000000010410005F0FA07D
:1021A000FFC0000000000000010410004F0F20FFDE
:1021B000C000000000000000820800470E20FFC0A1
:1021C00000000000000000410400630C603F0000BC
:1021D0000000000000000000007000E01E00000091
:1021E0000000000001FFFF807FFFE00C0000000006
:1021F00000000001FFFF800000005072696E742033
:1022000066726F6D205344004E6F2053442063610B
:1022100072640053746F70207072696E740052653E
:1022200073756D65207072696E74005061757365A9
:10223000207072696E7400436F6E74726F6C005020
:102240007265706172650054756E6500496E666FE7
:102250002073637265656E0000060900FE000000D1
:10226000000001090008FE00000508080600004003
:10227000F0C88888987810050808060000C0F8881B
:1022800088888888F80505050600012030F8302088
:102290000508080600002070F820202020E005092D
:1022A000090600FF2070A8A8B888887020050909D1
:1022B0000600FFE080C0B0A82830282805090906DC
:1022C00000FFF8A88888888888A8F8050A0A060008
:1022D000FE205050505088A8A888700303030600C1
:1022E0000340A04000002100240027002A002D0008
:1022F0003000330001010000040107010A01000061
:102300002200250028002B002E003100340002019D
:102310000000050108010B01000020002300260039
:1023200029002C002F0032000001000003010601EB
:10233000090105050505070508080808020202024B
:102340000A0A080804040404010101010101010151
:102350000303030303030303040707070C0C0C0C1C
:102360000C0C0C0C02020202060606060606060605
:102370000B0B0B0B0B0B0B0B010210202008081092
:1023800020401020408002010201080402010102E5
:1023900004081020408080402010080402018004BE
:1023A0000201804020100804020108040201010219
:1023B0000408102040800102040810204080000022
:1023C0000A0B02090C0D0E080703040100000000AF
:1023D00000000000000000000000000000000000FD
:1023E00000000000000000000000121110000000BA
:1023F00000000000000000000000000000000000DD
:10240000000000004B494C4C45442E2000202D205C
:10241000496E76616C696420657874727564657262
:10242000206E756D62657220210A002020506C615B
:102430006E6E657242756666657242797465733A4E
:1024400020002046726565204D656D6F72793A20D7
:102450000046656220313520323031380A00436F42
:102460006D70696C65643A2000284D616433445096
:1024700072696E7465722C204D61726C696E2032C7
:10248000303136290A00207C20417574686F723A19
:102490002000323031362D30372D32362031323A6D
:1024A000303000204C617374205570646174656431
:1024B0003A200020312E312E302D5243427567468E
:1024C00069780A004D61726C696E0020536F667402
:1024D000776172652052657365740A0020576174D4
:1024E0006368646F672052657365740A00204272E6
:1024F0006F776E206F75742052657365740A0020C3
:1025000045787465726E616C2052657365740A005B
:10251000506F77657255700A0073746172740A00A7
:102520006572726F722077726974696E6720746F5A
:102530002066696C650A00456E6473746F70732061
:10254000256320256320256320256300205A3A0057
:1025500020593A0020583A00656E6473746F7073A6
:10256000206869743A2000446F6E65207361766953
:102570006E672066696C652E0A004D32390053443F
:102580002063617264206F6B0A006F70656E526F1A
:102590006F74206661696C65640A00766F6C756D96
:1025A000652E696E6974206661696C65640A005302
:1025B0004420696E6974206661696C0A00617574F3
:1025C0006F25692E67004D3234004D32332025735C
:1025D0000057726974696E6720746F2066696C6554
:1025E0003A20006F70656E206661696C65642C200E
:1025F00046696C653A20006F70656E206661696C93
:1026000065642C2046696C653A200046696C65203B
:1026100073656C65637465640A002053697A653A72
:10262000200046696C65206F70656E65643A200015
:102630006F70656E206661696C65642C2046696CFC
:10264000653A20002066696C653A20004E6F77205D
:10265000002220706F73002220706172656E743AE0
:102660002200535542524F5554494E452043414C48
:102670004C207461726765743A22004B494C4C459A
:10268000442E2000747279696E6720746F20636134
:102690006C6C207375622D67636F64652066696C6E
:1026A0006573207769746820746F6F206D616E792F
:1026B000206C6576656C732E204D4158206C6576D4
:1026C000656C2069733A004572726F723A00457208
:1026D000723A204D415854454D50204245440045E2
:1026E00072723A204D415854454D50004D41585456
:1026F000454D502074726967676572656400457264
:10270000723A204D494E54454D50204245440045B3
:1027100072723A204D494E54454D50004D494E5429
:10272000454D5020747269676765726564001FFFCC
:10273000FFFFFFFFFF600000000001FF40000000FE
:102740000000FF8000000000007F83CF00000C30FD
:102750003F87FF80000C301F867980000C000F8CB3
:1027600030C7838C30E78C30CFC7CC31F38C30DC72
:10277000ECEC33B98C30D86C6C33198C30D06C0CD9
:1027800033198C30D86C0C33198C30DC6C0E3B193F
:102790008C30CF7C079F198C30C77C038F19400089
:1027A0000000000002600000000000061FFFFFFFA5
:1027B000FFFFF840012C0173012201AB011801F366
:1027C000010E0148020401AC02FA002A03F000C322
:1027D00003E6008004DC006D05D2006C06C800C76B
:1027E00007BE007009B4006D0BAA00CB0DA000CF8E
:1027F000138C00F21B7800E9246400142E50009C16
:10280000353C00B83A2800A03D14000B3F000043BF
:10281000616E6E6F74206F70656E2073756264698F
:102820007220006563686F3A00544845524D414C30
:102830002052554E4157415900546865726D616C84
:102840002052756E6177617900426564004265646B
:10285000004E6F7A7A6C65004E6F7A7A6C6500462E
:10286000616E2073706565640046616E20737065EB
:1028700065640054656D70657261747572650042BF
:10288000656400426564004E6F7A7A6C65004E6F35
:102890007A7A6C650046616E2073706565640046E7
:1028A000616E2073706565640054656D706572615A
:1028B00074757265004573746570732F6D6D004596
:1028C00073746570732F6D6D005A73746570732F18
:1028D0006D6D005A73746570732F6D6D005973744C
:1028E0006570732F6D6D005973746570732F6D6D06
:1028F000005873746570732F6D6D00587374657034
:10290000732F6D6D00412D74726176656C00412DE1
:1029100074726176656C00412D72657472616374C6
:1029200000412D7265747261637400416D6178209D
:102930004500416D6178204500416D6178205A0065
:10294000416D6178205A00416D6178205900416DD8
:102950006178205900416D6178205800416D61789F
:102960002058005654726176206D696E005654727C
:102970006176206D696E00566D696E00566D696EE8
:1029800000566D6178204500566D617820450056EF
:102990006D6178205A00566D6178205A00566D613D
:1029A00078205900566D6178205900566D61782065
:1029B0005800566D617820580056652D6A65726B17
:1029C0000056652D6A65726B00567A2D6A65726BCA
:1029D00000567A2D6A65726B005678792D6A657299
:1029E0006B005678792D6A65726B00416363656C84
:1029F00000416363656C005A204F6666736574001E
:102A00005A204F666673657400436F6E74726F6C04
:102A100000466C6F7700466C6F770046616E2073DE
:102A2000706565640046616E207370656564004280
:102A3000656400426564004E6F7A7A6C65004E6F83
:102A40007A7A6C65005370656564005370656564DF
:102A5000004D61696E005072656865617420504C6C
:102A60004120426564005072656865617420504C75
:102A700041005072657061726500507265686561F1
:102A8000742041425320426564005072656865615C
:102A900074204142530050726570617265004D347C
:102AA00032380053776974636820706F77657220DD
:102AB0006F6E004D38310053776974636820706F12
:102AC000776572206F6666004D383000436F6F6C1B
:102AD000646F776E0050726568656174204142537F
:102AE000005072656865617420504C41004D383467
:102AF0000044697361626C652073746570706572FF
:102B000073004D6F7665206178697300536574209A
:102B1000686F6D65206F6666736574730047323841
:102B2000205A00486F6D65205A00473238205900FE
:102B3000486F6D65205900473238205800486F6D46
:102B400065205800473238004175746F20686F6DFA
:102B500065004D61696E00000021104220633084E1
:102B600040A550C660E770088129914AA16BB18CDD
:102B7000C1ADD1CEE1EFF13112100273325222B564
:102B8000529442F772D662399318837BB35AA3BD2D
:102B9000D39CC3FFF3DEE36224433420040114E634
:102BA00064C774A44485546AA54BB528850995EE7D
:102BB000E5CFF5ACC58DD55336722611163006D744
:102BC00076F6669556B4465BB77AA719973887DFCD
:102BD000F7FEE79DD7BCC7C448E5588668A778408C
:102BE00008611802282338CCC9EDD98EE9AFF9481D
:102BF0008969990AA92BB9F55AD44AB77A966A71A4
:102C00001A500A333A122AFDDBDCCBBFFB9EEB796C
:102C10009B588B3BBB1AABA66C877CE44CC55C22F3
:102C20002C033C600C411CAEED8FFDECCDCDDD2ABC
:102C3000AD0BBD688D499D977EB66ED55EF44E1383
:102C40003E322E511E700E9FFFBEEFDDDFFCCF1B0C
:102C5000BF3AAF599F788F8891A981CAB1EBA10C77
:102C6000D12DC14EF16FE18010A100C230E32004EC
:102C700050254046706760B9839893FBA3DAB33D53
:102C8000C31CD37FE35EF3B1029012F322D232353C
:102C900042145277625672EAB5CBA5A89589856E23
:102CA000F54FE52CD50DC5E234C324A0148104668C
:102CB00074476424540544DBA7FAB79987B8975F33
:102CC000E77EF71DC73CD7D326F2369106B01657DC
:102CD000667676154634564CD96DC90EF92FE9C87B
:102CE00099E9898AB9ABA94458654806782768C02C
:102CF00018E1088238A3287DCB5CDB3FEB1EFBF993
:102D00008BD89BBBAB9ABB754A545A376A167AF17B
:102D10000AD01AB32A923A2EFD0FED6CDD4DCDAAE2
:102D2000BD8BADE89DC98D267C076C645C454CA2CB
:102D30003C832CE01CC10C1FEF3EFF5DCF7CDF9B72
:102D4000AFBABFD98FF89F176E367E554E745E931B
:102D50002EB23ED10EF01E7C3C3E5E2B3D3F2F5BE3
:102D60005D3B2C2A225C00436172642072656D6FAA
:102D7000766564004361726420696E736572746580
:102D8000640046696C652064656C657465643A002E
:102D900044656C6574696F6E206661696C65642C4E
:102DA0002046696C653A20006F70656E2066616927
:102DB0006C65642C2046696C653A20002042403ADC
:102DC0000020403A00202F0020423A00202F00200F
:102DD000543A00205A3A0020593A0020436F756E49
:102DE0007420583A200020453A00205A3A002059D1
:102DF0003A00583A00205A00205900580020204D2F
:102E000061783A2000205A00205900580020204DB7
:102E1000696E3A20004F6E20004F666600536F6661
:102E20007420656E6473746F70733A200020643A86
:102E30000020693A0020703A004D6F7665205800F6
:102E40004D6F76652059004D6F7665205A004578A4
:102E50007472756465720045787472756465720089
:102E60004D6F7665205A004D6F76652059004D6F85
:102E700076652058004D6F76652061786973004D46
:102E80006F766520302E316D6D004D6F7665203187
:102E90006D6D004D6F76652031306D6D005072653F
:102EA0007061726500526573746F72652066616946
:102EB0006C736166650046696C616D656E74004D8A
:102EC0006F74696F6E0054656D70657261747572B0
:102ED00065004D61696E00507265686561742041DE
:102EE000425320636F6E660050726568656174209E
:102EF000504C4120636F6E66005049442D44005091
:102F000049442D44005049442D49005049442D491D
:102F1000005049442D50005049442D5000200820B5
:102F20004661637400200820466163740020082015
:102F30004D6178002008204D6178002008204D69FF
:102F40006E002008204D696E004F6666004F6E20AF
:102F5000004175746F74656D700046616E2073700A
:102F60006565640046616E20737065656400426546
:102F70006400426564004E6F7A7A6C65004E6F7A29
:102F80007A6C6500436F6E74726F6C006F6B0062D9
:102F90007573793A2070617573656420666F72206D
:102FA000696E7075740A00627573793A2070617584
:102FB00073656420666F7220757365720A006275AE
:102FC00073793A2070726F63657373696E670A0074
:102FD0004B494C4C45442E20004B494C4C45442E0B
:102FE0002000506C656173652072657365740050D4
:102FF00052494E5445522048414C54454400507269
:10300000696E7465722068616C7465642E206B69EA
:103010006C6C28292063616C6C6564210A00220AAB
:1030200000656E7175657565696E67202200000028
:10303000000000000000000000005761726E696E21
:10304000673A20486F6D696E672042756D70204445
:10305000697669736F72203C20310A000000A0403D
:103060000000A0400000004000004843000048432A
:1030700000003443FFFFFF20746F6F206C6F6E679A
:1030800020657874727573696F6E207072657665ED
:103090006E7465640A0020636F6C642065787472D6
:1030A0007573696F6E2070726576656E7465640AFB
:1030B0000046696C2E204469612E0046696C2E2002
:1030C0004469612E004F6666004F6E2000452069FE
:1030D0006E206D6D3300436F6E74726F6C004361D0
:1030E0006E6E6F7420656E746572207375626469AC
:1030F000723A2000022E2E004D61696E00526573F7
:10310000656E643A200004C785C911241FBECFEF45
:10311000D1E2DEBFCDBF14E0A0E0B2E0E6E9FCEA18
:1031200001E00BBF02C007900D92A035B107D9F79F
:1031300025E1A0E5B4E001C01D92A436B207E1F795
:1031400018E1C4E8D8E104C02197FE010E94B4D57B
:10315000C338D107C9F70E94FEC00C943ED60C9428
:1031600000002F923F924F925F926F927F928F92C8
:103170009F92AF92BF92CF92DF92EF92FF920F9306
:103180001F93CF93DF93CDB7DEB7C05AD1090FB6E7
:10319000F894DEBF0FBECDBF0091A20C20E6029FC7
:1031A000800111240E5D144F1093700400936F047E
:1031B0008091541580FF18C0E3E2F8E284917F010A
:1031C0003FEFE31AF30A882321F00E943D3DF70107
:1031D000F5CFD8018D918D01882319F00E943D3DD6
:1031E000F8CF8AE00E943D3D20916F043091700439
:1031F000F90180812F5F3F4F8032D1F3F09370044B
:10320000E0936F048E3469F010916F0400917004A4
:103210006AE270E0812F902F0E9406D60097D1F4C9
:1032200020C0818190ED980F9A3010F08D3261F7B7
:103230003296DF0131962C9120532A30D0F3CD0104
:10324000FC01019620812032D9F3F0937004E093C1
:103250006F04DACFFC0131968291803231F08A32EC
:1032600021F0A12FB02F9D9102C01082F5CFFD015A
:10327000808111968032D9F380538A3020F0E3E2C6
:10328000F8E20C94933300E010E04AE0409F900194
:10329000419F300D11248901005311098191080FBC
:1032A000111D87FD1A95808180538A3078F37F0144
:1032B0003196D7018C918032D1F3F0926E04E09276
:1032C0006D0421E030E03093F2142093F1149D342A
:1032D00011F40C944022943511F40C94603397341B
:1032E00011F00C9485330430110509F4F8C338F457
:1032F0000230110500F50E949E3D0C948A330A3578
:10330000110511F40C947D2150F40C31110509F4D0
:1033100024C40E31110509F4A7C60C948A330B3569
:10332000110511F40C9481210C35110511F40C9444
:1033300086210C948A3380910A02882311F40C941C
:103340008A330E94853A89E40E94EA39882329F069
:103350000E945C3A6B017C0103C0C12CD12C760128
:103360008AE40E94EA39882349F00E945C3A649614
:103370006CAF7DAF8EAF9FAF649706C064961CAEF6
:103380001DAE1EAE1FAE6497A7019601C701B60120
:103390000E9463CE4B015C0164962CAD3DAD4EADF9
:1033A0005FAD6497CA01B9010E9463CE9B01AC0175
:1033B000C501B4010E9460D20E940ED5C458DF4FEF
:1033C000688379838A839B83CC57D0408090CE0CCE
:1033D0009090CF0CA090D00CB090D10C68968CAE91
:1033E0009DAEAEAEBFAE6897A7019601C501B40110
:1033F0000E9460D2A8966CAF7DAF8EAF9FAFA897AA
:103400008090D20C9090D30CA090D40CB090D50C9E
:10341000A0968CAE9DAEAEAEBFAEA09764962CAD1E
:103420003DAD4EAD5FAD6497C501B4010E9460D261
:10343000AC966CAF7DAF8EAF9FAFAC978090D60C43
:103440009090D70CA090D80CB090D90CE0968CAE90
:103450009DAEAEAEBFAEE097A501940160910F1591
:103460007091101580911115909112150E945FD2E4
:10347000A4966CAF7DAF8EAF9FAFA49780901315CD
:1034800090901415A0901515B0901615C058DF4FE8
:1034900088829982AA82BB82C058D0408090DA0C80
:1034A0009090DB0CA090DC0CB090DD0CE4968CAE20
:1034B0009DAEAEAEBFAEE497A701960150586096A0
:1034C0002CAF3DAF4EAF5FAF609764968CAD9DADB6
:1034D000AEADBFAD6497B0586C968CAF9DAFAEAF3C
:1034E000BFAF6C978090071590900815A0900915B4
:1034F000B0900A15E8968CAE9DAEAEAEBFAEE89722
:10350000A8962CAD3DAD4EAD5FADA897C501B401F9
:103510000E945FD26B017C0180900B1590900C157E
:10352000A0900D15B0900E15EC968CAE9DAEAEAE83
:10353000BFAEEC97AC962CAD3DAD4EAD5FADAC974C
:10354000C501B4010E945FD24B015C01A701960145
:1035500060966CAD7DAD8EAD9FAD60970E9463CEE1
:103560002B013C01A50194016C966CAD7DAD8EAD37
:103570009FAD6C970E9463CE9B01AC01C301B20169
:103580000E9460D22B013C01A501940160966CADB4
:103590007DAD8EAD9FAD60970E9463CE4B015C0107
:1035A000A70196016C966CAD7DAD8EAD9FAD6C970D
:1035B0000E9463CE9B01AC01C501B4010E945FD2A1
:1035C000A30192010E94DFD26B017C0120E030E078
:1035D000A9010E94FDCD87FF0AC02BED3FE049EC19
:1035E00050E4C701B6010E9460D26B017C01023039
:1035F000110551F42BED3FE049EC50E4C701B60151
:103600000E945FD26B017C0120E030E0A901C7017C
:10361000B6010E94FDCD81112AC0E8962CAD3DADCA
:103620004EAD5FADE89768966CAD7DAD8EAD9FAD4C
:1036300068970E94FDCD81111AC0EC962CAD3DAD6E
:103640004EAD5FADEC97A0966CAD7DAD8EAD9FADF0
:10365000A0970E94FDCD81110AC02BED3FE049ECFF
:1036600050E4C701B6010E9460D26B017C01C458CE
:10367000DF4F288139814A815B81CC57D040C70117
:10368000B6010E9463CE9B01AC010E9463CE4B0148
:103690005C01A4962CAD3DAD4EAD5FADA497CA01C3
:1036A000B9010E9463CE9B01AC01C501B4010E9427
:1036B00060D20E940ED54B015C012FE632E143E857
:1036C0005AE30E94FDCD87FD06C2C501B4010E94E8
:1036D00002D40E94D3D36E967FAF6EAF6E97672BE6
:1036E00031F421E030E06E963FAF2EAF6E976E96CC
:1036F0008EAC9FAC6E97B40180E090E00E9402CE49
:103700004B015C019B01AC01C701B6010E945AD379
:1037100068966CAF7DAF8EAF9FAF6897A50194019F
:10372000A4966CAD7DAD8EAD9FADA4970E945AD38B
:10373000E8966CAF7DAF8EAF9FAFE897E4962CAD67
:103740003DAD4EAD5FADE497C058DF4F68817981E4
:103750008A819B81C058D0400E945FD2A50194010C
:103760000E945AD3EC966CAF7DAF8EAF9FAFEC97B3
:1037700068962CAD3DAD4EAD5FAD6897CA01B901FD
:103780000E9463CE20E030E040E05FE30E9463CE21
:103790009B01AC0160E070E080E89FE30E945FD293
:1037A000A4966CAF7DAF8EAF9FAFA497E0968CAC24
:1037B0009DACAEACBFACE09789869A86AB86BC86E2
:1037C000E4968CAC9DACAEACBFACE4978D869E8687
:1037D000AF86B88A6091750270917602072E000C50
:1037E000880B990B0E9404CE2091010230910202B5
:1037F00040910302509104020E9463CE2AE037ED0B
:1038000043E25CE30E9463CEE0966CAF7DAF8EAF87
:103810009FAFE0970E94875D9B01AC0128533F4F0B
:103820004F4F5F4FE4962CAF3DAF4EAF5FAFE49785
:103830002D964FAC2D972E965FAC2E972F966FAC92
:103840002F9760967FAC6097D12C22242394312C43
:103850006E968EAC9FAC6E972814390409F427C17C
:103860000E94EA440E94875D8B019C01E4968CAC27
:103870009DACAEACBFACE497081919092A093B0905
:1038800037FD0EC09B01AC0128533F4F4F4F5F4F98
:10389000E4962CAF3DAF4EAF5FAFE4970E9409AD09
:1038A000D39438E13D150CF44BC0A4962CAD3DAD3E
:1038B0004EAD5FADA4976C966CAD7DAD8EAD9FADFA
:1038C0006C970E9463CE4B015C0168962CAD3DADB8
:1038D0004EAD5FAD6897B201C3010E9463CEA501F2
:1038E00094010E9460D27B018C01A4962CAD3DAD69
:1038F0004EAD5FADA497B201C3010E9463CE4B01F0
:103900005C0168962CAD3DAD4EAD5FAD68976C9691
:103910006CAD7DAD8EAD9FAD6C970E9463CE9B016B
:10392000AC01C501B4010E945FD22B013C01C7016B
:10393000D8016C968CAF9DAFAEAFBFAF6C975AC03D
:10394000B10180E090E00E9402CE68962CAD3DADC2
:103950004EAD5FAD68970E9463CE4B015C010E9443
:1039600055D36B017C01C501B4010E9400D54B0108
:103970005C01A701960160966CAD7DAD8EAD9FADEB
:1039800060970E9463CE2B013C01A50194016496CF
:103990006CAD7DAD8EAD9FAD64970E9463CE9B01F3
:1039A000AC01C301B2010E9460D22B013C01A50110
:1039B000940160966CAD7DAD8EAD9FAD60970E9419
:1039C00063CE4B015C01A701960164966CAD7DADA1
:1039D0008EAD9FAD64970E9463CE9B01AC01C50183
:1039E000B4010E945FD26C966CAF7DAF8EAF9FAF7B
:1039F0006C97D12C9201A301A8966CAD7DAD8EADD4
:103A00009FADA8970E9460D269837A838B839C8341
:103A10006C962CAD3DAD4EAD5FAD6C97AC966CAD7C
:103A20007DAD8EAD9FADAC970E9460D26D837E83DD
:103A30008F839887E8962CAD3DAD4EAD5FADE8978E
:103A400069857A858B859C850E9460D269877A8793
:103A50008B879C87EC962CAD3DAD4EAD5FADEC9762
:103A60006D857E858F8598890E9460D26D877E875F
:103A70008F87988BCE0101960E942AB0C090670470
:103A8000E096ECACFDAC0EAD1FADE0979E01235F60
:103A90003F4FAE01475F5F4FBE016B5F7F4FCE016F
:103AA00001960E9499B04FEF241A340AD1CEC090EB
:103AB0006704E096ECACFDAC0EAD1FADE09723E1E2
:103AC00035E14FE055E16BE075E187E095E10E945B
:103AD00099B00E948D390E94123D0C948A3380E582
:103AE0000E94EA39882329F00E94513A6B017C0137
:103AF00003C0C12CD12C760183E50E94EA398823CA
:103B000021F00E94293B6B017C010E9407480E9422
:103B1000123D8091F3149091F414A091F514B0919A
:103B2000F614C80ED91EEA1EFB1E80912C028111CC
:103B300005C060E083EF91E00E94879B0E94875D53
:103B4000DC01CB018C199D09AE09BF09B7FD02C08C
:103B50000C948A330E9409ADF1CF0E9407480E945D
:103B60001D3D81E08093160288E50E94EA39A82E67
:103B700089E50E94EA39182F8AE50E94EA39982ED1
:103B8000A11005C0111105C091E0982705C01111C1
:103B900002C090E001C0982F9093000280E1EEEC0B
:103BA000FCE0A7E0B5E101900D928A95E1F7911153
:103BB00004C0A11002C01123D9F120E030E040EA96
:103BC00050E46091FD0A7091FE0A8091FF0A909185
:103BD000000B0E9460D22091031530910415409192
:103BE0000515509106150E9460D260930F157093D1
:103BF000101580931115909312152091D60C3091C9
:103C0000D70C4091D80C5091D90C0E94C0D41816F2
:103C10007CF419821A821B821C829E012F5F3F4F07
:103C20004FE055E162ED7CE08EEC9CE00E940738AD
:103C300080910002811106C0AA2009F4A9C01123B5
:103C400009F4A6C01092D20C1092D30C1092D40C8E
:103C50001092D50C1092CE0C1092CF0C1092D00C6A
:103C60001092D10C0E94B53BE4E7F0E3049188E6A2
:103C700090E30E9497392B013C018CE690E30E946F
:103C800097396B017C019B01AC01C301B2010E9419
:103C9000C0D418162CF4A3019201C701B60104C0C8
:103CA000A7019601C301B2010E945AD39B01AC0146
:103CB0000E9463CE20E030E040E85FE30E9460D2E3
:103CC0000E940ED520E030E048E452E40E9463CE2A
:103CD0002C966CAF7DAF8EAF9FAF2C97E5E7F0E3EE
:103CE000B49020E030E040EC5FE3C701B6010E94F1
:103CF00063CE6B017C016B2DBB0C770B880B990B92
:103D00000E9404CE9B01AC01C701B6010E9463CEA4
:103D100069837A838B839C8320E030E040EC5FE30F
:103D2000C301B2010E9463CE6B017C01602F000FC2
:103D3000770B880B990B0E9404CE9B01AC01C70145
:103D4000B6010E9463CE28966CAF7DAF8EAF9FAF59
:103D500028979E01285B3F4F46ED5CE0BE016F5FF8
:103D60007F4FCE018C5B9F4F0E9407381092210B32
:103D70001092D20C1092D30C1092D40C1092D50C3D
:103D80001092CE0C1092CF0C1092D00C1092D10C3D
:103D900080910002811102C0AA2021F080E090E011
:103DA0000E94E0AA80910002811102C0112321F03B
:103DB00081E090E00E94E0AA80910002811103C09E
:103DC00091103AC02BC10E94B53B80E090E0ACE777
:103DD000B2E48093071590930815A0930915B0934A
:103DE0000A1580E090E0A5E2B3E480930B15909370
:103DF0000C15A0930D15B0930E158091D60C9091D3
:103E0000D70CA091D80CB091D90C80930F1590933A
:103E10001015A0931115B093121519821A821B82E6
:103E20001C829E012F5F3F4F46ED5CE06BE075E129
:103E300087E095E10E94073810919A0A81E01827DF
:103E400080919B0A882329F0112309F477C000E0B0
:103E500001C001E0E3E2F8E284917F012FEFE21A72
:103E6000F20A882321F00E943D3DF701F5CFE9E1F8
:103E7000F2E084917F013FEFE31AF30A882321F0F7
:103E80000E943D3DF701F5CF112369F0E7E1F2E033
:103E900084917F014FEFE41AF40A882321F00E94F5
:103EA0003D3DF701F5CF011103C0EDE0F2E00DC09B
:103EB000E5E1F2E084917F015FEFE51AF50A8823DE
:103EC000A1F30E943D3DF701F5CF84917F019FEF63
:103ED000E91AF90A882321F00E943D3DF701F5CF48
:103EE00019821A821B821C82FE0135968FE3DF0144
:103EF0001D928A95E9F767E072E0CE0101960E9473
:103F000081CD112331F065E072E0CE0101960E946F
:103F100081CD002331F063E072E0CE0101960E9472
:103F200081CD6CEF71E0CE0101960E9481CD60E001
:103F3000CE0101960E949C9B0C948A332091F50A35
:103F40003091F60A4091F70A5091F80A6091CE0C30
:103F50007091CF0C8091D00C9091D10C0E945FD2C7
:103F60002091FB143091FC144091FD145091FE14EB
:103F70000E945FD26B017C012091F90A3091FA0A0C
:103F80004091FB0A5091FC0A6091D20C7091D30CC5
:103F90008091D40C9091D50C0E945FD22091FF1497
:103FA0003091001540910115509102150E945FD289
:103FB0004B015C0120E030E044E152ECC701B60166
:103FC0000E94C0D487FF02C00C94C43320E030E0CC
:103FD00043E253E4C701B6010E94FDCD181614F464
:103FE0000C94C43320E030E042E852E4C501B4014F
:103FF0000E94C0D487FF02C00C94C43320E030E894
:1040000044E853E4C501B4010E94FDCD181614F430
:104010000C94C43382E090E00E94E0AA0E94B53B79
:1040200080918B0A809316021092210B809152048A
:1040300090915304A0915404B091550480930102CF
:1040400090930202A0930302B09304028091500463
:104050009091510490937602809375020E94123DD4
:104060000E9443A00C948A330E941D3D20E030E062
:1040700042E852E46091D20C7091D30C8091D40C40
:104080009091D50C0E945FD22B013C0120E030E0E2
:1040900044E152E46091CE0C7091CF0C8091D00C31
:1040A0009091D10C0E9460D26B017C018090010242
:1040B00090900202A0900302B090040260E070E0D1
:1040C00080EA90E40E94FB3885E595E5A5E0B3E43D
:1040D0008093010290930202A0930302B093040222
:1040E0002C961CAE1DAE1EAE1FAE2C9720E030E00D
:1040F00042E852E4C301B2010E9460D228966CAF3C
:104100007DAF8EAF9FAF289720E030E044E152E4CE
:10411000C701B6010E945FD269837A838B839C8337
:104120009E01285B3F4F46ED5CE0BE016C5B7F4F1C
:10413000CE0101960E94073881E00E94423988230F
:1041400039F0C12CD12C80ECE82E8FE7F82E57C027
:104150000E94123D20E030E040E753E460E070E070
:104160008EE393EC0E94B73B80E090E0A0E8B0E4DF
:1041700089839A83AB83BC83C090D60CD090D70C34
:10418000E090D80CF090D90C84E690E30E94973927
:104190009B01AC01C701B6010E9460D228966CAFAA
:1041A0007DAF8EAF9FAF28979E012F5F3F4FAE012F
:1041B0004C5B5F4F62ED7CE08EEC9CE00E94073828
:1041C00020E030E040EF52E460E070E080E291EC0B
:1041D0000E94B73BC090D60CD090D70CE090D80C82
:1041E000F090D90C80E00E9442398111AACF8092D0
:1041F000010290920202A0920302B0920402ECE447
:10420000F2E084918F010F5F1F4F882321F00E94FD
:104210003D3DF801F6CF20E030E044E152E460910A
:10422000CE0C7091CF0C8091D00C9091D10C0E944B
:1042300060D227E137EB41ED58E30E9460D242E0C3
:104240000E94BB42E7E4F2E084918F010F5F1F4FB1
:10425000882321F00E943D3DF801F6CF20E030E0B8
:1042600042E852E46091D20C7091D30C8091D40C4E
:104270009091D50C0E945FD227E137EB41ED58E3D6
:104280000E9460D242E00E94BB42E2E4F2E08491EC
:104290008F010F5F1F4F882321F00E943D3DF801E1
:1042A000F6CF27E137EB41ED58E3C701B6010E9495
:1042B00060D242E00E94BB428AE00E943D3D809174
:1042C000520490915304A0915404B09155048093EA
:1042D000010290930202A0930302B0930402809122
:1042E00050049091510490937602809375020E943D
:1042F000123D0E9443A00C948A3310926C040C94DB
:104300008A3381E080936C040C948B3385E40E94A3
:10431000EA39B82E811102C00E940748BCEF8B2EEB
:10432000B2E09B2E1EECC12E1CE0D12E0BEFE02E36
:1043300004E1F02E00E010E0A12CF40181914F0186
:104340000E94EA39882309F44CC0D6012D913D9191
:104350004D915C91C356DF4F2883CD59D040C25652
:10436000DF4F3883CE59D040C156DF4F4883CF59F5
:10437000D040C056DF4F5883C05AD0400E945C3AAC
:10438000F6016083718382839383C356DF4F288154
:10439000CD59D040C256DF4F3881CE59D040C1569A
:1043A000DF4F4881CF59D040C056DF4F5881C05AA7
:1043B000D04003301105A9F00E945FD29B01AC01EF
:1043C000D7016D917D918D919C910E9460D2F701F2
:1043D0006083718382839383C8010E949D39AA24DC
:1043E000A3940F5F1F4FF4E0CF0ED11C24E0E20E28
:1043F000F11C0430110509F0A0CFAA2021F00E9481
:10440000B53B0C948A33BB2011F40C948A33209171
:10441000EA0C3091EB0C4091EC0C5091ED0C60915A
:10442000DA0C7091DB0C8091DC0C9091DD0C0E9419
:1044300063CE0E94CDD46093891170938A118093CA
:104440008B1190938C118FB7F894409189115091F2
:104450008A1160918B1170918C114093CA0C50930A
:10446000CB0C6093CC0C7093CD0C8FBF1092791154
:1044700010927A1110927B1110927C110C948A3355
:104480000F36110509F4D5C308F0D1C00B3411055E
:1044900009F440C308F06CC00831110509F44FC29B
:1044A00008F03FC00231110511F40C94ED2AD8F444
:1044B0000230110508F4ADC10131110511F00C9461
:1044C0008A3360E08AE892E00E94879B5F988A982E
:1044D0009FB7F894809108018E7F809308019FBF59
:1044E00012980C948A330531110509F41EC248F460
:1044F0000431110511F00C948A330E94443D0C9450
:104500008A330631110509F414C20731110511F07F
:104510000C948A3340E061E0C7010E94456E0C9420
:104520008A330C31110509F45FC250F40A311105C8
:1045300009F410C208F01CC21092D8110C948A33EE
:104540000F31110509F462C248F40E31110511F062
:104550000C948A330E943EA20C948A3300321105D7
:1045600009F446C20A32110509F492C20C948A3346
:104570000535110511F40C941C2B30F5003511058F
:1045800011F40C94B92A60F40D34110509F4E0C259
:1045900008F4C4C20E34110509F4DEC20C948A3347
:1045A0000235110511F40C94E42A10F40C94C72A76
:1045B0000335110511F40C94E82A0435110511F4A2
:1045C0000C94ED2A0C948A330A36110509F499C724
:1045D000F0F40836110509F4D3C208F014C40C3500
:1045E000110511F00C948A334CEF842E42E0942E86
:1045F0000EED1CE057E9A52E54E1B52EA6EDB4E072
:104600002E96BFAFAEAF2E97312C0C942F2B0C36BD
:10461000110509F4ABC308F49AC70D36110509F466
:104620000FC40E36110509F4F1C20C948A33033D10
:10463000110511F40C94242E08F071C00C381105EA
:1046400009F4C8C390F50337110511F40C94B12B8C
:1046500058F40137110509F491C310F00C94BF2BE5
:1046600081E693E00E9499AC0737110511F40C9490
:10467000CA2B58F40537110511F00C948A3360E009
:10468000C7010E949C9B0C948A330837110511F4D2
:104690000C94C32B0937110511F00C948A33109236
:1046A000160210928B0A0C948A33093C110511F4FE
:1046B0000C94262D80F40E3B110509F499C5083C95
:1046C000110511F40C94DD2C0139110511F00C9435
:1046D0008A330C94302C0C3C110511F40C945E2D93
:1046E00080F40B3C110511F00C948A33B7E9EB2EE2
:1046F000B4E1FB2E0CEF12E084E0D82ED00E0C9427
:104700004E2D0D3C110511F40C94C82D0E3C1105D5
:1047100011F00C948A330E9402A10C948A3301395F
:1047200031E0130711F40C94CD3180F50C3251E0D7
:10473000150711F40C94502E88F40D3D110511F459
:104740000C94342E023E110511F40C944D2E0C3DA8
:10475000110511F00C948A330C94272E0E3291E03F
:10476000190711F40C94562E10F40C94532E0F329A
:10477000B1E01B0711F40C94CA2E0039114011F05E
:104780000C948A330E9407480C948A33063FF1E068
:104790001F0711F40C94ED3210F50A3931E01307BC
:1047A00009F4E8C250F40239114011F00C948A3334
:1047B00080E00E9442390C948A330C3A81E0180759
:1047C00011F40C94D131053F114011F00C948A334F
:1047D0000E94755580E00E94F4510C948A33033591
:1047E000A3E01A0711F40C94FF3238F4073F11408C
:1047F00011F40C94F0320C948A33003AF3E01F0762
:1048000009F4FAC0073E134011F40C9450330C9491
:104810008A3380E50E94EA39882359F00E94513A90
:104820004B015C0111E0672B682B692B31F410E020
:1048300004C010E0812C912C540183E50E94EA39D8
:10484000882399F00E94293B4B015C0111110FC094
:10485000672B682B692B59F4D7018C91882339F089
:1048600061E0C7010E949C9B07C01123A9F360E08F
:1048700089E792E00E94879B81E080939E0A1092D4
:104880009D0A0E9407480E94123D81149104A104D0
:10489000B10439F18091F3149091F414A091F514BE
:1048A000B091F614880E991EAA1EBB1E83E090E0FC
:1048B0009093F2148093F1140E94875DDC01CB0188
:1048C00088199909AA09BB09B7FD02C00C94E33302
:1048D0008091C91482FF02C00C94E3330E9409AD99
:1048E000EBCF83E090E09093F2148093F1148091E9
:1048F000C91482FD03C00E9409ADF9CF81E090E0A8
:104900009093F2148093F1148091D81160E0882381
:1049100031F084E592E00E94879B0C948A3383E611
:1049200092E00E94879B0C948A330E947C710C94C5
:104930008A331092D8111092D9110C948A33809135
:10494000D911882319F081E08093D8110E947F73D8
:104950000C948A338091D911882311F40C948A33F2
:1049600083E50E94EA3981110C94EF330C948A3369
:104970008091D911882351F1E3E9F2E084918F010C
:104980000F5F1F4F882321F00E943D3DF801F6CFB5
:10499000609154147091551480915614909157144D
:1049A0004AE00E94D03E8FE20E943D3D609150144B
:1049B0007091511480915214909153144AE00E94C6
:1049C000D03E8AE00E943D3D0C948A33E5EAF2E055
:1049D00084918F010F5F1F4F882311F40C948A3349
:1049E0000E943D3DF801F4CF0E9475A30C948A33D8
:1049F0000E94E3A10C948A3381E08093D71140E0B8
:104A000060E0C7010E94456E0C948A338DEA91E103
:104A10000E94DA4728966CAF7DAF8EAF9FAF289784
:104A2000BE016F5F7F4FCE018C5B9F4F0E94293C80
:104A300060E0CE0101960E949C9BE3E2F8E2849143
:104A40008F010F5F1F4F882321F00E943D3DF80129
:104A5000F6CFE6EBF2E084918F010F5F1F4F8111DB
:104A600004C08E010F5F1F4F04C00E943D3DF8013E
:104A7000F2CFF80181918F01882319F00E943D3D0A
:104A8000F8CF8AE00E943D3D0E94EF3C0C948A33AF
:104A900083E50E94EA39882311F40C948A330E943A
:104AA000393A7C018F3F910519F010F00C948A334C
:104AB00080E50E94EA39882339F00E94393A8C0156
:104AC00097FF04C00C948A330DE010E0ECEAF2E0AA
:104AD000819191910817190711F40C948A3322E0FF
:104AE000EC3FF207A9F761E0802F0E94496C6E2D20
:104AF000802F0E94196CB701802F0E94865C0930BC
:104B0000110511F00C948A33F092E214E092E11452
:104B10000C948A330E947F730C948A338091AD1178
:104B20009091AE11019711F00C948A3382E090E0DD
:104B30009093AE118093AD110E94875D6093B71181
:104B40007093B8118093B9119093BA110C948A3371
:104B50000E94ED7A0C948A3383E50E94EA39882317
:104B600011F40C9400340E94393A8E34910511F0FE
:104B70000C9400348DEA91E10E942E4F0C948A33FC
:104B800088E690E00E947A4281110C948A338091E9
:104B9000541583FF02C00C948A3383E50E94EA39DE
:104BA000882311F40C948A330E945C3A0E94CCD37F
:104BB00070932611609325110E949D7A0E945C3AA1
:104BC00020E030E04AEA52E40E94FDCD18163CF0A5
:104BD0000E94ED7A60E086E393E00E94879B0E944A
:104BE0005C3A209127113091281140912911509160
:104BF0002A110E94C0D4181614F00C948A3360E075
:104C00008BE293E00E94879B0C948A338EE40E948F
:104C1000EA39882311F40C948A330E94463A60934F
:104C200056047093570480935804909359040C943D
:104C30008A3383E50E94EA39882319F00E94FD39FE
:104C400001C080E080935415E3E2F8E284918F0183
:104C50000F5F1F4F882321F00E943D3DF801F6CFE2
:104C6000EAE5F3E084918F010F5F1F4F882321F065
:104C70000E943D3DF801F6CF809154158823A1F1A3
:104C8000ACE4CA2EA3E0DA2EE12CF12C20E08091D6
:104C9000541590E00E2C02C0959587950A94E2F782
:104CA00080FF17C0BB24B394B20E222319F08CE20C
:104CB0000E943D3DF60125913491F90184918901CD
:104CC0000F5F1F4F882321F00E943D3D9801F5CFD3
:104CD0002B2DFFEFEF1AFF0A32E0C30ED11C45E087
:104CE000E416F104A1F63DC0E6E5F3E084918F01FE
:104CF0000F5F1F4F8823A9F10E943D3DF801F6CFB9
:104D000080E20E943D3D8AE50E94EA39882311F441
:104D10000C9442330E945C3A6B017C0120E030E04D
:104D200040EA51EC0E94C0D487FF02C00C941933B2
:104D300020E030E040EA51E4C701B6010E94FDCD19
:104D4000181614F40C941933C0926F02D0927002AA
:104D5000E0927102F092720242E0C701B6010E9435
:104D6000BB428AE00E943D3D0C948A3310920B02B4
:104D70000C948A330E94F89D0C948A3383E50E9438
:104D8000EA39882369F00E94FD3980939B028D33B4
:104D900010F40C948A338CE380939B020C948A3336
:104DA000E3E2F8E284918F010F5F1F4F882321F027
:104DB0000E943D3DF801F6CF40919B0250E060E03B
:104DC00070E08AE693E00E94383F8AE00E943D3D11
:104DD0000C948A338091541583FF02C00C948A335B
:104DE00083E50E94EA39882311F40C948A330E94E7
:104DF0005C3A0E94CCD37093E4146093E3140E9455
:104E00007C790C948A3389E690E00E947A42811181
:104E100011C0E1E7F3E084918F010F5F1F4F8823FA
:104E200021F00E943D3DF801F6CF0E945BA18AE08F
:104E30000E943D3D1092F2141092F1140C94D5365C
:104E40008DE690E00E947A4281110C948A33809121
:104E5000541583FF02C00C948A3383E50E94EA391B
:104E600069968FAF6997811105C082E50E94EA3982
:104E70008823C1F10E945C3A0E94CCD37093261122
:104E8000609325110E949D7A0E945C3A20E030E0F8
:104E90004AEA52E40E94FDCD181614F40C9406352B
:104EA0000E94ED7A60E084E993E00E94879B609124
:104EB000251170912611072E000C880B990B0E946A
:104EC00004CE209127113091281140912911509141
:104ED0002A110E94C0D418162CF460E089E893E0EF
:104EE0000E94879B86E40E94EA398093E01488231D
:104EF00051F00E945C3A60938F027093900280930D
:104F000091029093920283E50E94EA39882351F03E
:104F10000E945C3A60939702709398028093990282
:104F200090939A0282E40E94EA39882351F00E9409
:104F30005C3A6093930270939402809395029093ED
:104F4000960281E080930B021092F2141092F114F9
:104F500064961CAE1DAE1EAE1FAE649768961CAE66
:104F60001DAE1EAE1FAE68972D961FAE2D976D9687
:104F70001FAE6D975CE3A1965FAFA1978CE1A596FC
:104F80008FAFA59796E4A9969FAFA997C12CD12C76
:104F9000E0E8EE2EFFEBFF2E812C912C5401609166
:104FA000251170912611072E000C880B990B0E9479
:104FB00004CE162F072F782E692E262F372F482F35
:104FC000592FB601C7010E94FDCD882311F1209110
:104FD0002711309128114091291150912A11612FE8
:104FE000702F872D962D0E94FDCD881F8827881F42
:104FF0002D968FAF2D976996AFAD6997AA2369F06B
:10500000882359F060E084E793E00E94879B0C942A
:105010008A331C2D0D2D7E2C6F2C0E94875D6B0119
:105020007C01DC01CB0168962CAD3DAD4EAD5FAD92
:105030006897821B930BA40BB50BB7FD47C0D70134
:10504000C60188519C4FAF4FBF4F68968CAF9DAF44
:10505000AEAFBFAF68970E945BA1E5E8F3E0849133
:105060002F019FEF491A590A882321F00E943D3DE4
:10507000F201F5CF81149104A104B104D1F0D5015E
:10508000C401805F984DAF4FBF4FBC01CD016C197B
:105090007D098E099F0928EE33E040E050E00E9430
:1050A00023D2CA01B9010E94553F8AE00E943D3DCA
:1050B0000DC0E2E8F3E084912F01AFEF4A1A5A0ADB
:1050C000882321F00E943D3DF201F5CF0E9409ADF9
:1050D0000E94123D209027113090281140902911F4
:1050E00050902A119101A201612F702F872D962DCA
:1050F0000E945FD29F7781149104A104B10449F406
:1051000020E030E040E85FE30E94FDCD87FF0BC068
:1051100008C020E030E040E450E40E94C0D41816FB
:1051200014F4460157012D96BFAD2D97BB2309F40A
:1051300043C064962CAD3DAD4EAD5FAD6497211577
:1051400031054105510541F0D701C601821B930B82
:10515000A40BB50BB7FD30C09101A2016D966FADE8
:105160006D97A1967FADA197A5968FADA597A996AE
:105170009FADA9970E945FD220E030E040EC5FE352
:105180000E94FDCD87FD3ECFD701C601805A9541D3
:10519000AF4FBF4F64968CAF9DAFAEAFBFAF6497BC
:1051A0006D962FAE6D97A1963FAEA197A5964FAE87
:1051B000A597A9965FAEA99780910B02882309F461
:1051C00021CF81149104A104B10429F4C12ED02E61
:1051D000E72CF62CE4CE90E1C91A97E2D90AE1084F
:1051E000F108C818D908EA08FB08F7FE0BCFEECF84
:1051F0008091541583FF02C00C948A3360E08BEBDE
:1052000093E00E94879B83E50E94EA3969968FAFFD
:105210006997811105C082E50E94EA398823B1F0BF
:105220000E945C3A0E94CCD37093E4146093E31420
:105230000E947C790E945C3A20E030E040EA50E431
:105240000E94C0D4181614F40E947F7381E08093EA
:105250000B021092F2141092F11480916704809363
:105260005A0464961CAE1DAE1EAE1FAE64976896BF
:105270001CAE1DAE1EAE1FAE68972D961FAE2D97AD
:105280006D961FAE6D97ACE3A196AFAFA197BCE151
:10529000A596BFAFA597E6E4A996EFAFA997C12C55
:1052A000D12C60E8E62E7FEBF72E812C912C540157
:1052B0006091E3147091E414072E000C880B990B95
:1052C0000E9404CE162F072F782E692E262F372FF7
:1052D000482F592FB601C7010E94FDCD882311F137
:1052E0002091960A3091970A4091980A5091990A14
:1052F000612F702F872D962D0E94FDCD881F882746
:10530000881F2D968FAF2D976996FFAD6997FF2364
:1053100069F0882359F060E08AEA93E00E94879B55
:105320000C948A331C2D0D2D7E2C6F2C0E94875DD2
:105330006B017C01DC01CB0168962CAD3DAD4EAD1F
:105340005FAD6897821B930BA40BB50BB7FD47C0ED
:10535000D701C60188519C4FAF4FBF4F68968CAFA5
:105360009DAFAEAFBFAF68970E945BA1E7EBF3E0E4
:1053700084912F019FEF491A590A882321F00E9436
:105380003D3DF201F5CF81149104A104B104D1F0A7
:10539000D501C401805F984DAF4FBF4FBC01CD0117
:1053A0006C197D098E099F0928EE33E040E050E03A
:1053B0000E9423D2CA01B9010E94553F8AE00E948F
:1053C0003D3D0DC0E4EBF3E084912F01AFEF4A1AAD
:1053D0005A0A882321F00E943D3DF201F5CF0E9438
:1053E00009AD0E94123D2090960A3090970A409095
:1053F000980A5090990A9101A201612F702F872D70
:10540000962D0E945FD29F7781149104A104B1046C
:1054100049F420E030E040E85FE30E94FDCD87FFE3
:105420000BC008C020E030E040E450E40E94C0D44B
:10543000181614F4460157012D96BFAD2D97BB23C6
:1054400009F443C064962CAD3DAD4EAD5FAD64979D
:10545000211531054105510541F0D701C601821BD7
:10546000930BA40BB50BB7FD30C09101A2016D9653
:105470006FAD6D97A1967FADA197A5968FADA597BE
:10548000A9969FADA9970E945FD220E030E040EC42
:105490005FE30E94FDCD87FD3ECFD701C601805A54
:1054A0009541AF4FBF4F64968CAF9DAFAEAFBFAFCE
:1054B00064976D962FAE6D97A1963FAEA197A59676
:1054C0004FAEA597A9965FAEA99780910B0288234E
:1054D00009F421CF81149104A104B10429F4C12E4F
:1054E000D02EE72CF62CE4CE90E1C91A97E2D90A27
:1054F000E108F108C818D908EA08FB08F7FE0BCF45
:10550000EECF83E50E94EA39882321F00E942C3AED
:105510008C0102C00FEF10E080E50E94EA39882379
:1055200019F00E942C3A02C080E090E098010F3FF1
:10553000110519F010F02FEF30E0892B11F00C94C9
:105540008A333093E2142093E1140C948A3380E57B
:105550000E94EA39811106C01092E2141092E114FF
:105560000C948A330E942C3A892B11F00C948A33C4
:10557000F3CF269A2E9881E08093770260E088EC42
:1055800093E00E94879B0E94AD9B0C948A330E94FB
:10559000CC790E9407480E9488AC1092E2141092C5
:1055A000E11468EE73E080E090E00E944D5D269A81
:1055B0002E9A1092770260E08EED93E00E94879B16
:1055C0000E94AD9B0C948A3310926B040C948A3326
:1055D00081E080936B040C948B3383E50E94EA395D
:1055E000882361F00E94293B60939C0270939D0286
:1055F00080939E0290939F020C948A3388E50E94C8
:10560000EA3981110C940A3589E50E94EA39811141
:105610000C940A358AE50E94EA3981110C940A3506
:1056200085E40E94EA3981110C940A350E940748EA
:105630000E9488AC0C948A3383E50E94EA3988235F
:1056400011F40C948A330E94293B6093F7147093F1
:10565000F8148093F9149093FA140C948A33F4019B
:1056600081914F010E94EA39882309F464C0F3E074
:105670003F1259C00E945C3A2B013C0120E030E00F
:1056800040EA51E40E94FDCD87FF47C0A30192018B
:10569000D8016D917D918D919C910E945AD36B019F
:1056A0007C019B01AC016091A7147091A8148091BA
:1056B000A9149091AA140E9463CE6093A7147093CA
:1056C000A8148093A9149093AA14A7019601F50138
:1056D00060817181828193810E9463CED5016D9337
:1056E0007D938D939C9313972E96EEADFFAD2E97E1
:1056F00060817181828193810E9402CEA70196010F
:105700000E9463CE0E94D3D32E96AEADBFAD2E972E
:105710006D937D938D939C931397F80140825182F2
:105720006282738208C00E945C3AD8016D937D93B7
:105730008D939C93139733940C5F1F4FB4E0AB0E83
:10574000B11C2E96EEADFFAD2E9734962E96FFAF80
:10575000EEAF2E97F4E03F1282CF0E94FB4F0C94E5
:105760008A33E2EFF3E084918F010F5F1F4F8823AC
:1057700011F40C948A330E943D3DF801F4CF0E944D
:1057800043A00C948A3381E08093160280938B0AA5
:105790000C948B33EDEDF4E084918F010F5F1F4F7C
:1057A000882321F00E943D3DF801F6CFE5EDF4E0BD
:1057B00084918F010F5F1F4F882321F00E943D3D90
:1057C000F801F6CF659B03C00EE813E002C003E9C1
:1057D00013E0D8018D918D01882319F00E943D3D81
:1057E000F8CF8AE00E943D3DEDECF4E084918F011A
:1057F0000F5F1F4F882321F00E943D3DF801F6CF37
:105800008091030181FF03C00EE813E002C003E9A9
:1058100013E0F80181918F01882319F00E943D3D2A
:10582000F8CF8AE00E943D3DE5ECF4E084918F01E1
:105830000F5F1F4F882321F00E943D3DF801F6CFF6
:105840004B9B03C00EE813E002C003E913E0D8014C
:105850008D918D01882309F484CA0E943D3DF7CFC4
:1058600083E50E94EA39882301F10E94393A8230A7
:10587000C8F0E7ECF6E284918F010F5F1F4F882399
:1058800021F00E943D3DF801F6CFE7EFF4E084916E
:105890008F010F5F1F4F882309F43CC70E943D3DD5
:1058A000F801F5CF813009F444C088E40E94EA3958
:1058B000882391F00E94393A8A3A91053CF08F3F53
:1058C000910531F02CF08FEF90E002C08AEA90E071
:1058D00090936E1480936D1486E40E94EA398823B5
:1058E00081F00E94393A8F3F910519F014F08FEF43
:1058F00090E097FF02C080E090E090937014809356
:105900006F1482E40E94EA39882309F403C70E94D5
:10591000393A8530910534F0863591052CF085E5CE
:1059200090E002C085E090E090936C1480936B143B
:10593000F1C688E40E94EA39882391F00E94393A3E
:105940008A3A91053CF08F3F910531F02CF08FEFB2
:1059500090E002C08AEA90E09093741480937314EC
:1059600086E40E94EA39882381F00E94393A8F3F09
:10597000910519F014F08FEF90E097FF02C080E0DE
:1059800090E0909376148093751482E40E94EA3933
:10599000882309F4BFC60E94393A8530910534F056
:1059A000863591052CF085E590E002C085E090E019
:1059B0009093721480937114ADC688EC90E00E94AD
:1059C0007A428111A7C684E40E94EA39882309F447
:1059D000A1C60E945C3A11E020E030E0A9010E94DB
:1059E000FDCD811101C010E010935615112359F11E
:1059F00000915A0410E00E945C3A000F111F000F42
:105A0000111FF801E855FD4F6083718382839383F2
:105A100020E030E0A9016091A8027091A902809174
:105A2000AA029091AB020E94FDCD81110CC080E0D2
:105A300090E0A0E4B0E48093A8029093A902A09320
:105A4000AA02B093AB020E9492AA64C69FE7E92E15
:105A500094E1F92E0CEF12E024E0D22ED00EF801E2
:105A600081918F010E94EA39882351F00E945C3AAB
:105A70000E94D3D3D7016D937D938D939C931397FD
:105A8000B4E0EB0EF11CD012EACF0E94B34F42C635
:105A9000B4E0EB0EF11CD01609F43CC6F80181917C
:105AA0008F010E94EA39882399F30E945C3AD7015A
:105AB0006D937D938D939C931397EACF83E50E941A
:105AC000EA398823D9F00E945C3AAB01BC014093CB
:105AD000B3145093B4146093B5147093B6144093F8
