:100000000C94A6180C94D7180C94D7180C94D718E5
:100010000C94D7180C94D7180C94D7180C94D718A4
:100020000C94D7180C94D7180C94D7180C94D71894
:100030000C94D7180C94D7180C94D7180C94D71884
:100040000C94D7180C94729F0C94D7180C94D71852
:100050000C94D7180C94D7180C942FAE0C945D7593
:100060000C94D7180C94CA3B0C94D7180C94D7183E
:100070000C94D7180C94D7180C94D7180C94D71844
:100080000C94D7180C94D7180C94D7180C94D71834
:100090000C94D7180C94D7180C94D7180C94D71824
:1000A0000C94D7180C94D7180C94D7180C94D71814
:1000B0000C94D7180C94D7180C94D7180C94D71804
:1000C0000C94D7180C94D7180C94D7180C94D718F4
:1000D0000C94D7180C94D7180C94D7180C94D718E4
:1000E0000C94D718C845CB45BA45BE45C445024611
:1000F000CF45D345D945DD45E145E745EB45EF45DE
:100100000246F545F945FD451D4922492749314932
:100110003B49B44945494D4955495F496949734986
:1001200082498C49B4499649A049AA498BAE9BAEF5
:10013000BAAECAAEE5AEEAAEEDAEF2AEF5AEFAAE2E
:10014000FDAE02AF0CAF10B567B39DB34CB59DB318
:100150009DB39DB39DB39DB39DB39DB39DB39DB31F
:100160009DB39DB39DB39DB39DB39DB39DB39DB30F
:100170009DB39DB39DB39DB39DB39DB39DB39DB3FF
:100180009DB346B59DB39DB39DB39DB39DB39DB344
:100190009DB39DB320B59DB39DB39DB39DB39DB35A
:1001A0009DB39DB39DB39DB39DB369B59AB3084A02
:1001B000D73B3BCE016E84BCBFFDC12F3D6C74317B
:1001C0009ABD56833DDA3D00C77F11BED9E4BB4CD2
:1001D0003E916BAAAABE000000803F05A84CCDB29C
:1001E000D44EB93836A9020C50B9918688083CA67D
:1001F000AAAA2ABE000000803F004E414E494E4947
:100200005459494E46CDCCCC3D0AD7233C17B7D1E3
:100210003877CC2B329595E6241FB14F0A00002089
:10022000410000C84200401C4620BCBE4CCA1B0E08
:100230005AAEC59D74434F4D4D554E4943415449A7
:100240004F4E0044525952554E004552524F525350
:1002500000494E464F004543484F00536C6565705A
:100260002E2E2E00206669727374005900580048C3
:100270006F6D6520002066697273740A005900581A
:1002800000486F6D6520005A2070726F6265206FA4
:1002900075742E206265640A005A2070726F626560
:1002A000206F75742E2062656400205A3A20002069
:1002B000593A200042656420583A20004D6164207C
:1002C0003344205072696E7465722072656164797E
:1002D0002E00526573756D696E67207072696E7459
:1002E000005761697420666F7220757365722E2ED7
:1002F0002E004E6F206D6F76652E00456E64206671
:10030000696C65206C6973740A00426567696E20C8
:1003100066696C65206C6973740A005344207072BE
:10032000696E74696E67206279746520004E6F741F
:10033000205344207072696E74696E670A005072AF
:10034000696E742074696D653A200048656174694E
:100350006E672E2E2E004D6164203344205072694A
:100360006E7465722072656164792E0056025102C6
:100370004A02430235026F66660044454255473AD9
:10038000004B494C4C45442E20004D313133205315
:10039000006F6B0042656420646F6E652E003F0A3B
:1003A0000020573A004265642048656174696E67B1
:1003B0002E004D6164203344205072696E74657262
:1003C0002072656164792E004D61642033442050B1
:1003D00072696E746572204F66662E004649524DF2
:1003E000574152455F4E414D453A4D61726C696EC1
:1003F00020312E312E302D524342756746697820C8
:10040000284769746875622920534F555243455FE8
:10041000434F44455F55524C3A68747470733A2F99
:100420002F6769746875622E636F6D2F4D61726CF2
:10043000696E4669726D776172652F4D61726C6984
:100440006E2050524F544F434F4C5F5645525349C4
:100450004F4E3A312E30204D414348494E455F546E
:100460005950453A4D6164203344205072696E748E
:1004700065722045585452554445525F434F554E7E
:10048000543A3120555549443A63656465326132C6
:10049000662D343161322D343734382D39623132A2
:1004A0002D6335356336326633363766660A004D5E
:1004B00031343520533C696E6465783E206F757425
:1004C000206F662072616E67652028302D31290A01
:1004D0000053657474696E672054726176656C2090
:1004E000416363656C65726174696F6E3A20005395
:1004F000657474696E67205265747261637420411B
:100500006363656C65726174696F6E3A2000536550
:100510007474696E67205072696E742041636365FC
:100520006C65726174696F6E3A200053657474690A
:100530006E67205072696E7420616E64205472611F
:1005400076656C20416363656C65726174696F6E7A
:100550003A2000205A00205900580020204D617890
:100560003A2000205A00205900580020204D696E82
:100570003A20004F6E20004F666600536F6674206D
:10058000656E6473746F70733A200020643A0020C3
:10059000693A0020703A0043290A0061626C656480
:1005A00020286D696E2074656D702000436F6C6447
:1005B0002065787472756465732061726520004FE0
:1005C000666673657473206170706C69656400455C
:1005D00072723A20546F6F206661722100546F6FFF
:1005E000206661722066726F6D2072656665726545
:1005F0006E636520706F696E740A003A20007A5F3E
:100600006D61783A20007A5F6D696E3A20005A2059
:100610004F6666736574004163746976652045783A
:100620007472756465723A2000220A00556E6B6E12
:100630006F776E20636F6D6D616E643A20220025C6
:1006400069730025696D2025697300256968202577
:10065000696D202569730025696420256968202556
:10066000696D202569730025697920256964202535
:1006700069682025696D20256973004B494C4C45FC
:10068000442E200053544F505045442E20005072A9
:10069000696E7465722073746F7070656420647520
:1006A0006520746F206572726F72732E20466978B0
:1006B00020746865206572726F7220616E642075A7
:1006C0007365204D39393920746F207265737461F8
:1006D00072742E202854656D706572617475726530
:1006E0002069732072657365742E205365742069C8
:1006F00074206166746572207265737461727469C6
:100700006E67290A004E6F204C696E65204E756D2C
:10071000626572207769746820636865636B7375BE
:100720006D2C204C617374204C696E653A20004E2C
:100730006F20436865636B73756D207769746820FB
:100740006C696E65206E756D6265722C204C6173EC
:1007500074204C696E653A2000636865636B73753D
:100760006D206D69736D617463682C204C617374C6
:10077000204C696E653A20004C696E65204E756D9F
:10078000626572206973206E6F74204C61737420EF
:100790004C696E65204E756D6265722B312C204C54
:1007A000617374204C696E653A20004D3131300020
:1007B0004D3331004D383420582059205A204500FF
:1007C00053442072656164206572726F720A00443E
:1007D0006F6E65207072696E74696E672066696CF1
:1007E000650A0020496E76616C69642065787472D0
:1007F0007564657220000000484300004843000013
:1008000034430000000000000000000000004669C2
:100810006C652064656C657465643A0044656C655C
:1008200074696F6E206661696C65642C2046696C22
:10083000653A20006F70656E206661696C65642C96
:100840002046696C653A20005072696E74206672A9
:100850006F6D205344004E6F2053442063617264D7
:100860000053746F70207072696E740052657375F6
:100870006D65207072696E740050617573652070CB
:1008800072696E7400436F6E74726F6C00507265A3
:10089000706172650054756E6500496E666F2073F5
:1008A000637265656E00466C6F7700466C6F77000B
:1008B00046616E2073706565640046616E207370DA
:1008C0006565640042656400426564004E6F7A7A33
:1008D0006C65004E6F7A7A6C6500537065656400D4
:1008E0005370656564004D61696E0050726568659E
:1008F000617420504C412042656400507265686507
:10090000617420504C4100507265706172650050F6
:1009100072656865617420414253204265640050ED
:100920007265686561742041425300507265706160
:100930007265004D343238005377697463682070F3
:100940006F776572206F6E004D3831005377697490
:10095000636820706F776572206F6666004D38306F
:1009600000436F6F6C646F776E00507265686561ED
:100970007420414253005072656865617420504C88
:1009800041004D38340044697361626C65207374B2
:10099000657070657273004D6F766520617869735C
:1009A0000053657420686F6D65206F6666736574AB
:1009B0007300473238205A00486F6D65205A00474F
:1009C0003238205900486F6D652059004732382071
:1009D0005800486F6D6520580047323800417574E3
:1009E0006F20686F6D65004D61696E000000210029
:1009F000240027002A002D003000330001010000F0
:100A0000040107010A0100002200250028002B0034
:100A10002E003100340002010000050108010B0125
:100A2000000020002300260029002C002F003200A7
:100A30000001000003010601090105050505070580
:100A400008080808020202020A0A0808040404044A
:100A50000101010101010101030303030303030376
:100A6000040707070C0C0C0C0C0C0C0C0202020205
:100A700006060606060606060B0B0B0B0B0B0B0BEE
:100A800001021020200808102040102040800201A0
:100A90000201080402010102040810204080804085
:100AA0002010080402018004020180402010080484
:100AB0000201080402010102040810204080010222
:100AC00004081020408000000A0B02090C0D0E08DB
:100AD0000703040100000000000000000000000007
:100AE0000000000000000000000000000000000006
:100AF00000001211100000000000000000000000C3
:100B0000000000000000000000000000577269743F
:100B1000696E6720746F2066696C653A20006F709B
:100B2000656E206661696C65642C2046696C653A67
:100B300020006F70656E206661696C65642C2046CC
:100B4000696C653A200046696C652073656C656365
:100B50007465640A002053697A653A200046696C1E
:100B600065206F70656E65643A20006F70656E2059
:100B70006661696C65642C2046696C653A200020CA
:100B800066696C653A20004E6F7720002220706FF6
:100B900073002220706172656E743A2200535542D0
:100BA000524F5554494E452043414C4C207461727C
:100BB0006765743A22004B494C4C45442E20007422
:100BC0007279696E6720746F2063616C6C20737535
:100BD000622D67636F64652066696C657320776951
:100BE000746820746F6F206D616E79206C65766516
:100BF0006C732E204D4158206C6576656C206973AE
:100C00003A006D0046696C616D656E7420757365A0
:100C1000643A200053746174733A20002C204C6FA6
:100C20006E67657374206A6F623A2000546F746156
:100C30006C2074696D653A200053746174733A20B6
:100C4000002C204661696C65643A20002C204669BE
:100C50006E69736865643A20005072696E74733A05
:100C6000200053746174733A20002042403A0020FF
:100C7000403A00202F0020423A00202F0020543A12
:100C80000048656174696E6720646F6E652E003F71
:100C90000A0020573A0048656174696E672E2E2E4F
:100CA000004D6164203344205072696E7465722077
:100CB00072656164792E00205A3A0020593A00206A
:100CC000436F756E7420583A200020453A00205A30
:100CD0003A0020593A00583A0023646566696E6507
:100CE000202044454641554C545F4B64200023640A
:100CF0006566696E65202044454641554C545F4BFE
:100D000069200023646566696E652020444546417C
:100D1000554C545F4B702000504944204175746F0E
:100D200074756E652066696E69736865642120500C
:100D3000757420746865206C617374204B702C206E
:100D40004B6920616E64204B6420636F6E73746125
:100D50006E74732066726F6D2062656C6F772069A8
:100D60006E746F20436F6E66696775726174696F28
:100D70006E2E680A00504944204175746F74756E78
:100D800065206661696C6564212074696D656F75A5
:100D9000740A00504944204175746F74756E652063
:100DA0006661696C6564212054656D70657261745B
:100DB00075726520746F6F20686967680A00204B40
:100DC000643A2000204B693A2000204B703A200002
:100DD0000A20436C617373696320504944200A0000
:100DE0002054753A2000204B753A2000206D617820
:100DF0003A2000206D696E3A200020643A200020DD
:100E0000626961733A200048617264636F6465646B
:100E10002044656661756C742053657474696E67EF
:100E200073204C6F616465640A0020204D383531B1
:100E3000205A005A2D50726F6265204F66667365A6
:100E40007420286D6D293A0A0020204D3230302060
:100E500044300A0020204D323030204400204469C4
:100E60007361626C65640A0046696C616D656E74DD
:100E70002073657474696E67733A002044002049DA
:100E80000020204D333031205000504944207365FC
:100E90007474696E67733A0A00204600204200208D
:100EA000204D313435205331204800204600204267
:100EB0000020204D3134352053302048004D6174DE
:100EC000657269616C20686561747570207061720B
:100ED000616D65746572733A0A00205A00205900EA
:100EE00020204D323036205800486F6D65206F66E7
:100EF0006673657420286D6D290A00204500205A0C
:100F00000020580020420020540020204D3230356F
:100F1000205300416476616E636564207661726976
:100F200061626C65733A20533D4D696E206665655C
:100F3000647261746520286D6D2F73292C20543DD7
:100F40004D696E2074726176656C206665656472A9
:100F500061746520286D6D2F73292C20423D6D69C9
:100F60006E696D756D207365676D656E742074694B
:100F70006D6520286D73292C20583D6D6178696D51
:100F8000756D205859206A65726B20286D6D2F731E
:100F9000292C20205A3D6D6178696D756D205A208D
:100FA0006A65726B20286D6D2F73292C2020453DBA
:100FB0006D6178696D756D2045206A65726B2028BA
:100FC0006D6D2F73290A0020540020520020204DFF
:100FD000323034205000416363656C65726174691E
:100FE0006F6E733A20503D7072696E74696E672C33
:100FF00020523D7265747261637420616E64205486
:101000003D74726176656C0A00204500205A00200C
:10101000590020204D3230312058004D6178696DE3
:10102000756D20416363656C65726174696F6E20D4
:10103000286D6D2F7332293A0A00204500205A008E
:1010400020590020204D3230332058004D617869FE
:101050006D756D2066656564726174657320286DB9
:101060006D2F73293A0A00204500205A00205900AC
:1010700020204D39322058005374657073207065FC
:101080007220756E69743A0A004361726420726559
:101090006D6F766564004361726420696E7365727A
:1010A0007465640000060900FE070192032120FF19
:1010B000FF08FF07FF000000060000010707060207
:1010C0000080808080800080030202060105A0A0CD
:1010D0000507070600005050F850F8505005070764
:1010E0000600002078A07028F02005070706000001
:1010F000C0C810204098180507070600006090A09F
:1011000040A89068020303060104C040800307075B
:101110000601002040808080402003070706010070
:101120008040202020408005050506000120A87091
:10113000A8200505050600012020F8202002030351
:101140000602FFC04080050101060003F80202020A
:10115000060200C0C00505050600010810204080F9
:1011600005070706000070888888888870030707CD
:1011700006010040C040404040E00507070600006F
:10118000708808708080F8050707060000F81020B6
:10119000100808F005070706000010305090F810FE
:1011A00010050707060000F880F00808887005079A
:1011B00007060000708080F0888870050707060029
:1011C00000F808102020202005070706000070887E
:1011D000887088887005070706000070888878087E
:1011E0000870020505060200C0C000C0C002060665
:1011F0000602FFC0C000C0408004070706000010C0
:10120000204080402010050303060002F800F80487
:1012100007070601008040201020408005070706D0
:1012200000007088081020002005070706000070E5
:10123000880868A8A870050707060000708888F865
:10124000888888050707060000F08888F08888F0FD
:1012500005070706000070888080808870050707F2
:10126000060000F08888888888F0050707060000D7
:10127000F88080F08080F8050707060000F880807D
:10128000F0808080050707060000708880B8888895
:1012900070050707060000888888F8888888010795
:1012A0000706020080808080808080050707060096
:1012B0000038101010109060050707060000889095
:1012C000A0C0A0908805070706000080808080806D
:1012D00080F805070706000088D8A8888888880550
:1012E00007070600008888C8A898888805070706A9
:1012F000000070888888888870050707060000F05D
:101300008888F0808080050707060000708888883C
:10131000A89068050707060000F08888F0A090886C
:10132000050707060000788080700808F0050707A9
:10133000060000F8202020202020050707060000D6
:10134000888888888888700507070600008888884C
:10135000888850200507070600008888888888A8A4
:101360005005070706000088885020508888050728
:1013700007060000888888502020200507070600FF
:1013800000F80810204080F8030707060100E080FD
:1013900080808080E005050506000180402010085F
:1013A000030707060100E02020202020E0050303BA
:1013B000060004205088050101060000F802020220
:1013C000060205804005050506000070087888784B
:1013D0000507070600008080B0C88888F00505056D
:1013E0000600007080808870050707060000080866
:1013F00068988888780505050600007088F8807070
:101400000507070600003048E0404040400506065A
:101410000600FF70888878087005070706000080BE
:1014200080B0C88888880107070602008000808095
:101430008080800308080601FF200020202020A0D3
:1014400040040707060000808090A0C0A09003071A
:1014500007060100C04040404040E0050505060089
:1014600000D0A8A8A8A8050505060000B0C888886F
:101470008805050506000070888888700506060640
:1014800000FFF08888F080800506060600FF788857
:1014900088780808050505060000B0C8808080052A
:1014A000050506000070807008F0040707060000BC
:1014B0004040E0404040300505050600008888882F
:1014C00098680505050600008888885020050505F0
:1014D0000600008888A8A850050505060000885069
:1014E0002050880506060600FF8888887808700561
:1014F0000505060000F8102040F803070706010064
:101500002040408040402001070706020080808084
:101510008080808003070706010080404020404013
:10152000800502020600026890000000060000002C
:101530000000060000000000060000000000060099
:10154000000000000600000000000600000000008F
:101550000600000000000600000000000600000079
:101560000000060000000000060000000000060069
:10157000000000000600000000000600000000005F
:101580000600000000000600000000000600000049
:101590000000060000000000060000000000060039
:1015A000000000000600000000000600000000002F
:1015B0000600000000000600000000000600000019
:1015C0000000060000000000060000000000060009
:1015D00000000000060000000000060000000000FF
:1015E00006000000000006000000000006000000E9
:1015F00000000600000107070602008000808080CE
:1016000080800507070600002070A8A0A8702005AC
:101610000707060000304040E04050A805050506D9
:101620000000887050708805070706000088502069
:10163000F820F820010707060200808080008080E3
:1016400080050808060000304820505020906003B4
:101650000101060107A0050707060000F888B8B8D1
:10166000B888F8050707060001700878887800F840
:101670000505050600012850A050280503030600B3
:1016800001F8080802020206020640800507070664
:101690000000F888A88898A8F8050101060006F857
:1016A000040404060003609090600507070600002C
:1016B0002020F8202000F804050506000360902093
:1016C00040F0030505060003E020E020E0020202EE
:1016D00006020640800508080600FF88888888986A
:1016E000E880800507070600007898987818181891
:1016F000020202060202C0C00202020602FF40808D
:1017000003050506000340C04040E005070706004A
:1017100001708888887000F8050505060001A05052
:101720002850A00507070600008890A858B80808A8
:101730000507070600008890B84898203805080873
:10174000060000C040C048D8380808050707060052
:101750000020002040808870050808060000402016
:10176000007088F8888805080806000010200070BE
:1017700088F888880508080600002050007088F85E
:1017800088880508080600006890007088F8888836
:101790000508080600005000708888F88888050849
:1017A000080600002050207088F888880507070682
:1017B00000003860A0B8E0A0B80508080600FF7077
:1017C000888080887020600508080600004020009E
:1017D000F880F080F8050808060000081000F8807E
:1017E000F080F8050808060000205000F880F0801E
:1017F000F80507070600005000F880F080F803089D
:1018000008060100804000E0404040E00308080670
:101810000100204000E0404040E0030808060100CD
:1018200040A000E0404040E0030707060100A000A0
:10183000E0404040E0050707060000704848E848DF
:10184000487005080806000068900088C8A89888B5
:101850000508080600004020708888888870050800
:10186000080600001020708888888870050808061F
:101870000000205000708888887005080806000065
:10188000689000708888887005080806000050007D
:1018900070888888887005050506000188502050EA
:1018A000880508080600FF1070A8A8A8A8704005C1
:1018B0000808060000402088888888887005080885
:1018C00006000010208888888888700508080600AF
:1018D000002050008888888870050808060000509D
:1018E000008888888888700508080600001020880D
:1018F00050202020200509090600FFC040704848FC
:10190000704040E00408080601FF609090A09090AD
:10191000E0800508080600004020007008788878FC
:10192000050808060000102000700878887805086F
:10193000080600002050007008788878050808061E
:101940000000689000700878887805070706000096
:10195000500070087888780508080600002050209C
:101960007008788878050606060000D02878A0A8B8
:10197000500506060600FF70808870206005080884
:101980000600004020007088F880700508080600F6
:10199000001020007088F8807005080806000020FC
:1019A00050007088F880700507070600005000702E
:1019B00088F8807003080806010080400040C0409D
:1019C00040E003080806010020400040C04040E01D
:1019D00003080806010040A00040C04040E00307A3
:1019E00007060100A00040C04040E00507070600D0
:1019F00000A040A0107888700508080600006890D4
:101A000000B0C888888805080806000040200070DB
:101A100088888870050808060000102000708888F3
:101A200088700508080600002050007088888870BB
:101A3000050808060000689000708888887005070F
:101A400007060000500070888888700505050600AC
:101A5000012000F800200507070600FF1070A8A865
:101A6000A870400508080600004020008888889873
:101A70006805080806000010200088888898680516
:101A80000808060000205000888888986805070725
:101A9000060000500088888898680509090600FF3C
:101AA000102000888888F808700407070601FFC026
:101AB0004060506040E00508080600FF500088883C
:101AC0008878087000002110422063308440A550BF
:101AD000C660E770088129914AA16BB18CC1ADD174
:101AE000CEE1EFF13112100273325222B55294421C
:101AF000F772D662399318837BB35AA3BDD39CC3C4
:101B0000FFF3DEE36224433420040114E664C77467
:101B1000A44485546AA54BB528850995EEE5CFF513
:101B2000ACC58DD55336722611163006D776F666BB
:101B30009556B4465BB77AA719973887DFF7FEE763
:101B40009DD7BCC7C448E5588668A7784008611887
:101B500002282338CCC9EDD98EE9AFF948896999B3
:101B60000AA92BB9F55AD44AB77A966A711A500A5B
:101B7000333A122AFDDBDCCBBFFB9EEB799B588B03
:101B80003BBB1AABA66C877CE44CC55C222C033CA7
:101B9000600C411CAEED8FFDECCDCDDD2AAD0BBD53
:101BA000688D499D977EB66ED55EF44E133E322EFB
:101BB000511E700E9FFFBEEFDDDFFCCF1BBF3AAFA3
:101BC000599F788F8891A981CAB1EBA10CD12DC101
:101BD0004EF16FE18010A100C230E3200450254097
:101BE00046706760B9839893FBA3DAB33DC31CD3F7
:101BF0007FE35EF3B1029012F322D23235421452E7
:101C000077625672EAB5CBA5A89589856EF54FE542
:101C10002CD50DC5E234C324A01481046674476436
:101C200024540544DBA7FAB79987B8975FE77EF796
:101C30001DC73CD7D326F2369106B0165766767686
:101C4000154634564CD96DC90EF92FE9C899E98962
:101C50008AB9ABA94458654806782768C018E108D6
:101C60008238A3287DCB5CDB3FEB1EFBF98BD89B36
:101C7000BBAB9ABB754A545A376A167AF10AD01A26
:101C8000B32A923A2EFD0FED6CDD4DCDAABD8BAD82
:101C9000E89DC98D267C076C645C454CA23C832C76
:101CA000E01CC10C1FEF3EFF5DCF7CDF9BAFBABFD6
:101CB000D98FF89F176E367E554E745E932EB23EC6
:101CC000D10EF01E7C3C3E5E2B3D3F2F5B5D3B2CDE
:101CD0002A225C0042656400426564004E6F7A7A95
:101CE0006C65004E6F7A7A6C650046616E20737089
:101CF0006565640046616E207370656564005465B7
:101D00006D7065726174757265004265640042654C
:101D100064004E6F7A7A6C65004E6F7A7A6C65005B
:101D200046616E2073706565640046616E20737055
:101D30006565640054656D706572617475726500E7
:101D40004573746570732F6D6D00457374657073A2
:101D50002F6D6D005A73746570732F6D6D005A731B
:101D6000746570732F6D6D005973746570732F6D8A
:101D70006D005973746570732F6D6D0058737465C1
:101D800070732F6D6D005873746570732F6D6D00D7
:101D9000412D74726176656C00412D7472617665B7
:101DA0006C00412D7265747261637400412D72651F
:101DB000747261637400416D6178204500416D610A
:101DC00078204500416D6178205A00416D6178208E
:101DD0005A00416D6178205900416D6178205900A9
:101DE000416D6178205800416D617820580056544B
:101DF000726176206D696E005654726176206D694D
:101E00006E00566D696E00566D696E00566D617894
:101E1000204500566D6178204500566D6178205A46
:101E200000566D6178205A00566D61782059005631
:101E30006D6178205900566D6178205800566D61AB
:101E40007820580056652D6A65726B0056652D6ABC
:101E500065726B00567A2D6A65726B00567A2D6A30
:101E600065726B005678792D6A65726B00567879C9
:101E70002D6A65726B00416363656C004163636545
:101E80006C005A204F6666736574005A204F666670
:101E900073657400436F6E74726F6C002020506C19
:101EA000616E6E65724275666665724279746573BD
:101EB0003A20002046726565204D656D6F72793A53
:101EC000200046656220323420323031390A004326
:101ED0006F6D70696C65643A2000284D616433440D
:101EE0005072696E7465722C204D61726C696E203F
:101EF00032303136290A00207C20417574686F72B7
:101F00003A2000323031362D30372D323620313202
:101F10003A303000204C61737420557064617465F0
:101F2000643A200020312E312E302D524342756705
:101F30004669780A004D61726C696E0020536F66C5
:101F400074776172652052657365740A0020576169
:101F5000746368646F672052657365740A00204279
:101F6000726F776E206F75742052657365740A0006
:101F70002045787465726E616C2052657365740AD1
:101F800000506F77657255700A0073746172740A3D
:101F9000006572726F722077726974696E6720745F
:101FA0006F2066696C650A00456E6473746F7073A8
:101FB00020256320256320256320256300205A3ACD
:101FC0000020593A0020583A00656E6473746F70AF
:101FD00073206869743A2000446F6E6520736176DF
:101FE000696E672066696C652E0A004D3239000003
:101FF000060900FE000000000001090008FE0000C4
:1020000005080806000040F0C88888987810050880
:1020100008060000C0F88888888888F80505050645
:1020200000012030F830200508080600002070F874
:1020300020202020E00509090600FF2070A8A8B88C
:10204000888870200509090600FFE080C0B0A82834
:102050003028280509090600FFF8A888888888889C
:10206000A8F8050A0A0600FE205050505088A8A87B
:10207000887003030306000340A0401FFFFFFFFF1B
:10208000FFFF600000000001FF400000000000FFB3
:102090008000000000007F83CF00000C303F87FFEE
:1020A00080000C301F867980000C000F8C30C783B5
:1020B0008C30E78C30CFC7CC31F38C30DCECEC3398
:1020C000B98C30D86C6C33198C30D06C0C33198CC3
:1020D00030D86C0C33198C30DC6C0E3B198C30CF43
:1020E0007C079F198C30C77C038F194000000000CB
:1020F0000002600000000000061FFFFFFFFFFFF866
:10210000253032693A25303269002569642025304E
:1021100032693A25303269005A00590020003F00E8
:10212000580009200000000000000000000000002E
:10213000007FFFE000000000000000000000000041
:102140007000E000000000000000000000000061DE
:10215000F86000000000000000000000000041F8EE
:102160002000000000000000000000000040F020FF
:10217000000000000000000000000000406020009F
:1021800000000000000000000000005801A07F8057
:10219000000000000000004104005C63A0FFC000DC
:1021A0000000000000002082005EF7A0FFC00000D9
:1021B00000000000002082005EF7A0FFC0000000C9
:1021C000000000004104005C63A07F80000000006C
:1021D0000000008208005801A07F8000000000007D
:1021E0000001041000406020FFC00000000000005B
:1021F0000104100040F020FFC000000000000000BB
:1022000082080041F820FFC00000000000000041EB
:10221000040061F8603F00000000000000000000C2
:10222000007000E01E0000000000000001FFFF80C1
:102230007FFFE00C0000000000000001FFFF8000B5
:1022400000000000000000000000000000007FFF10
:10225000E00000000000000000000000007000E04E
:10226000000000000000000000000000630C60009F
:102270000000000000000000000000470E200000E9
:10228000000000000000000000004F0F20000000D0
:102290000000000000000000005F0FA00000000030
:1022A00000000000000000005E07A07F800000002A
:1022B00000000000410400406020FFC0000000005A
:1022C00000000020820040F020FFC000000000005D
:1022D000000020820040F020FFC00000000000004D
:1022E000004104004060207F8000000000000000EA
:1022F0008208005E07A07F8000000000000001044B
:1023000010005F0FA0FFC0000000000000010410DB
:10231000004F0F20FFC000000000000000820800F6
:10232000470E20FFC00000000000000041040063D1
:102330000C603F0000000000000000000000700082
:10234000E01E0000000000000001FFFF807FFFE0B2
:102350000C0000000000000001FFFF8000000052A0
:102360006573656E643A20006F6B0020746F6F2098
:102370006C6F6E6720657874727573696F6E20700C
:10238000726576656E7465640A0020636F6C642004
:10239000657874727573696F6E2070726576656E9C
:1023A0007465640A00627573793A207061757365AB
:1023B0006420666F7220696E7075740A00627573AE
:1023C000793A2070617573656420666F7220757349
:1023D00065720A00627573793A2070726F63657373
:1023E00073696E670A004B494C4C45442E20004BE4
:1023F000494C4C45442E2000506C65617365207239
:1024000065736574005052494E5445522048414C02
:10241000544544005072696E7465722068616C7432
:1024200065642E206B696C6C28292063616C6C6577
:1024300064210A00220A00656E7175657565696E12
:1024400067202200000000000000000000000000E3
:102450005761726E696E673A20486F6D696E6720CA
:1024600042756D702044697669736F72203C20312B
:102470000A000000A0400000A04000000040000052
:1024800048430000484300003443FFFFFF7A5F6D7C
:10249000696E3A2000795F6D696E3A2000785F6D51
:1024A000696E3A20005265706F7274696E672065BC
:1024B0006E6473746F70207374617475730A002096
:1024C000746F6F206C6F6E672065787472757369B6
:1024D0006F6E2070726576656E7465640A002063A5
:1024E0006F6C6420657874727573696F6E2070729A
:1024F0006576656E7465640A0046696C2E204469D1
:10250000612E0046696C2E204469612E004F66667C
:10251000004F6E20004520696E206D6D3300436FC3
:102520006E74726F6C0043616E6E6F7420656E74B2
:102530006572207375626469723A2000022E2E0063
:102540004D61696E004D6F76652058004D6F766560
:102550002059004D6F7665205A0045787472756475
:102560006572004578747275646572004D6F7665AA
:10257000205A004D6F76652059004D6F76652058C2
:10258000004D6F76652061786973004D6F76652028
:10259000302E316D6D004D6F766520316D6D004DC3
:1025A0006F76652031306D6D0050726570617265B7
:1025B00000526573746F7265206661696C73616641
:1025C000650046696C616D656E74004D6F74696F6E
:1025D0006E0054656D7065726174757265004D6151
:1025E000696E0050726568656174204142532063D2
:1025F0006F6E66005072656865617420504C4120B2
:10260000636F6E66005049442D44005049442D4488
:10261000005049442D49005049442D490050494437
:102620002D50005049442D5000200820466163740D
:102630000020082046616374002008204D61780066
:102640002008204D6178002008204D696E00200888
:10265000204D696E004F6666004F6E200041757414
:102660006F74656D700046616E20737065656400FF
:1026700046616E2073706565640042656400426562
:1026800064004E6F7A7A6C65004E6F7A7A6C6500E2
:10269000436F6E74726F6C0024F4D43050C38E207C
:1026A000C2A24017828B7011127A910D816CD90AE7
:1026B000A861E108C7586607615143061E4B5D05D6
:1026C000C145A7041A411104093D9803713931032A
:1026D0004036DB0265339102D4305402802E1D0255
:1026E000632CEE01752AC501B028A00110278101D5
:1026F0008F2564012B244B01E0223401AC211F0102
:102700008D200D01801FFC00841EED00971DDF0051
:10271000B81CD200E61BC600201BBC00641AB20025
:10272000B219A8000A19A0006A189900D1179100DF
:1027300040178B00B516840031167E00B315790062
:102740003A157300C7146F0058146A00EE13660040
:102750008813630025135E00C7125B006C125700DC
:1027600015125400C111510070114F0021114B007E
:10277000D61049008D104700461044000210420058
:10278000C00F4000800F3E00420F3C00060F3B0090
:10279000CB0E3800930E37005C0E3500270E340048
:1027A000F30D3200C10D3100900D3000600D2E0090
:1027B000320D2D00050D2C00D90C2B00AE0C29007C
:1027C000850C29005C0C2700350C27000E0C260018
:1027D000E80B2400C40B2400A00B23007D0B230076
:1027E0005A0B2100390B2100180B2000F80A1F009A
:1027F000D90A1E00BB0A1E009D0A1D00800A1D008A
:10280000630A1C00470A1B002C0A1B00110A1A004D
:10281000F7091A00DD091900C4091900AB091900EC
:10282000920917007B091800630917004C0916006C
:1028300036091600200916000A091500F5081500CA
:10284000E0081400CC081400B8081400A408140010
:10285000900813007D0812006B081300580812003E
:102860004608120034081100230811001208110054
:1028700001081100F0071000E0071000D007100059
:10288000C0071000B0070F00A107100091070E004D
:1028900083070F0074070F0065070E0057070E002F
:1028A00049070E003B070D002E070E0020070D0004
:1028B00013070D0006070D00F9060C00ED060D00CC
:1028C000E0060C00D4060C00C8060C00BC060C0088
:1028D000B0060C00A4060B0099060C008D060B0038
:1028E00082060B0077060B006C060B0061060A00DF
:1028F00057060B004C060A0042060A0038060A007A
:102900002E060A0024060A001A060A00100609000C
:1029100007060A00FD050900F4050900EB0509009A
:10292000E2050900D9050900D0050900C70509001D
:10293000BE050900B5050800AD050800A50509009C
:102940009C050800940508008C0508008405080013
:102950007C050800740508006C0507006505080083
:102960005D050700560508004E05070047050700EE
:102970004005080038050700310507002A05070053
:10298000230507001C050600160507000F050700B4
:102990000805060002050700FB040600F504070011
:1029A000EE040600E8040600E2040700DB0406006B
:1029B000D5040600CF040600C9040600C3040600BF
:1029C000BD040600B7040600B1040500AC0406000F
:1029D000A6040600A00405009B040600950405005B
:1029E000900406008A0405008504050080040600A2
:1029F0007A04050075040500700405006B040500E9
:102A000066040500610405005C0405005704050028
:102A1000520405004D040500480405004304050068
:102A20003E0404003A0405003504050030040400A7
:102A30002C04050027040400230405001E040400E0
:102A40001A04040016040500110404000D04040017
:102A5000090405000404040000040400FC0304004D
:102A6000F8030400F4030400F0030400EC03040082
:102A7000E8030400E4030400E0030400DC030400B2
:102A8000D8030400D4030400D0030400CC030400E2
:102A9000C8030300C503030024F404D9201BC40C9D
:102AA0005C0E9804C4095F0265077101F405F90022
:102AB000FB04B30048048700C103690058035500B4
:102AC00003034500BE023A008402310053022A008B
:102AD0002902250004022000E4011C00C80119009D
:102AE000AF01170098011400840113007101100058
:102AF0006101100051010E0043010D0036010B0071
:102B00002B010B0020010B00150109000C0109002D
:102B100003010800FB000800F3000800EB000700B9
:102B2000E4000600DE000600D8000600D200060021
:102B3000CC000500C7000500C2000500BD00040070
:102B4000B9000400B5000400B1000400AD000400A9
:102B5000A9000400A5000300A20003009F000400D8
:102B60009B000300980003009500020093000300FF
:102B7000900003008D0002008B000300880002001B
:102B80008600020084000300810002007F00020032
:102B90007D0002007B000200790002007700010046
:102BA0007600020074000200720001007100020051
:102BB0006F0002006D0001006C0002006A0001005D
:102BC0006900020067000100660001006500010065
:102BD0006400020062000100610001006000010069
:102BE0005F0002005D0001005C0001005B0001006D
:102BF0005A0001005900010058000100570001006F
:102C0000560001005500010054000100530000006F
:102C1000530001005200010051000100500001006A
:102C20004F0001004E0000004E0001004D00010069
:102C30004C0001004B0000004B0001004A00010065
:102C40004900010048000000480001004700010061
:102C5000460000004600010045000000450001005C
:102C60004400010043000000430001004200000056
:102C7000420001004100000041000100400001004D
:102C80003F0000003F0001003E0000003E00010048
:102C90003D0000003D0001003C0000003C00000041
:102CA0003C0001003B0000003B0001003A00000036
:102CB0003A0001003900000039000100380000002E
:102CC0003800000038000100370000003700010024
:102CD000360000003600000036000100350000001C
:102CE0003500000035000100340000003400000011
:102CF0003400010033000000330000003300010005
:102D000032000000320000003200010031000000FB
:102D100031000000310001003000000030000000F0
:102D2000300001002F0000002F0000002F000000E5
:102D30002F0001002E0000002E0000002E000100D8
:102D40002D0000002D0000002D0000002D000100CE
:102D50002C0000002C0000002C0000002C000100C2
:102D60002B0000002B0000002B0000002B000100B6
:102D70002A0000002A0000002A0000002A000100AA
:102D8000290000002900000029000000290000009F
:102D90002900010028000000280000002800000091
:102DA0002800000028000100270000002700000084
:102DB0002700000027000000270001002600000077
:102DC000260000002600000026000000260001006A
:102DD000250000002500000025000000250000005F
:102DE0002500000025000100240000002400000050
:102DF0002400000024000000240001002300000043
:102E00002300000023000000230000002300000036
:102E10002300000023000100220000002200000027
:102E20002200000022000000220000002200010019
:102E3000210000002100000021000000210000000E
:102E400021000000210000002100010020000000FE
:102E500020000000200000002000000020000000F2
:102E60002000000020000000200001001F000000E2
:102E70001F0000001F0000001F0000001F000000D6
:102E80001F0000001F0001001E0000001E000000C7
:102E90001E0000001E0000004D383420582059202C
:102EA0005A20450040012C0173012201AB01180199
:102EB000F3010E0148020401AC02FA002A03F000FB
:102EC000C303E6008004DC006D05D2006C06C80078
:102ED000C707BE007009B4006D0BAA00CB0DA0009F
:102EE000CF138C00F21B7800E9246400142E5000EC
:102EF0009C353C00B83A2800A03D14000B3F000070
:102F00006563686F3A004D3234004D3233202573CB
:102F100000544845524D414C2052554E415741595D
:102F200000546865726D616C2052756E61776179CD
:102F3000006265640A002C2073797374656D2073D8
:102F4000746F7070656421204865617465725F49B3
:102F5000443A200048656174696E67206661696C57
:102F600065640048656174696E67206661696C65B7
:102F7000640048656174696E67206661696C6564A8
:102F80000048656174696E67206661696C656400FC
:102F900070012C0190012701B0012201C0011D0127
:102FA000F00118011002130130020E016002090144
:102FB00090020401C002FF000003FA004003F50084
:102FC0008003F000D003EB002004E6007004E10071
:102FD000E004DC004005D700C005D2004006CD006B
:102FE000D006C8008007C3003008BE00F008B90052
:102FF000C009B400B00AAF00B00BAA00D00CA50005
:10300000000EA000500F9B00C010960050129100BF
:1030100000148C00C0158700B0178200B0197D0025
:10302000D01B7800001E730040206E0090226900C3
:10303000F024640040275F0090295A00E02B5500DF
:10304000102E500020304B0010324600E03341007B
:1030500090353C001037370070383200A0392D0011
:10306000B03A2800A03B2300603C1E00103D190030
:10307000903D1400103E0F00703E0A00C03E050057
:10308000003F00004572723A204D415854454D5062
:1030900020424544004572723A204D415854454DF6
:1030A00050004D415854454D502074726967676512
:1030B000726564004572723A204D494E54454D5038
:1030C00020424544004572723A204D494E54454DC8
:1030D00050004D494E54454D5020747269676765E4
:1030E0007265640043616E6E6F74206F70656E2050
:1030F00073756264697220005344206361726420B6
:103100006F6B0A006F70656E526F6F742066616935
:103110006C65640A00766F6C756D652E696E6974F6
:10312000206661696C65640A004572726F723A00CC
:10313000534420696E6974206661696C0A00617588
:10314000746F25692E670000A4C3C3C211241FBE7B
:10315000CFEFD1E2DEBFCDBF00E00CBF14E0A0E0B6
:10316000B2E0E2E7F1EA01E00BBF02C007900D9286
:10317000A434B107D9F725E1A4E4B4E001C01D925D
:10318000AC34B207E1F718E1C5EAD8E100E006C0C7
:1031900021970109802FFE010E941BD0C43AD1075C
:1031A00080E00807A9F70E94A5BD0C94A8D00C9454
:1031B00000002F923F924F925F926F927F928F9278
:1031C0009F92AF92BF92CF92DF92EF92FF920F93B6
:1031D0001F93CF93DF93CDB7DEB7CC57D1090FB68E
:1031E000F894DEBF0FBECDBF0091470920E6029FD5
:1031F000800111240953184F10935F0400935E045B
:103200008091040A80FF1AC0E0E0FFE284917F0110
:103210003FEFE31AF30A811102C0780104C00E9453
:103220005337F701F3CFD7018D917D01882319F032
:103230000E945337F8CF8AE00E945337F80180810B
:103240000F5F1F4F8032D1F3F0935F04E0935E0471
:103250008E34D1F4818190ED980F9A3010F08D3238
:1032600099F432969F012F5F3F4F808180538A30BF
:1032700010F4F901F7CFDF0131968C918032D9F348
:10328000B0935F04A0935E04E0905E04F0905F044E
:103290006AE270E0C7010E9470D0009749F0FC011B
:1032A00031968291803211F08A3211F41082F9CF76
:1032B00097012F5F3F4FF90180812F5F3F4F803291
:1032C000D1F38053B1E0E996BFAFE9978A3018F0A7
:1032D000E9961FAEE9978A3010F00C943A3000E07E
:1032E00010E02AE0209FC001219F900D11248C0145
:1032F000005311098191080F111D87FD1A958081D6
:1033000080538A3078F36F013196D6018C918032E8
:10331000D1F3F7018081D0925D04C0925C0421E07A
:1033200030E03093A3092093A2098D3411F40C945A
:10333000F621843511F40C941130873411F00C947B
:1033400033300430110509F4D7C330F48091A8025A
:103350000230110520F519C00A35110509F4ACC772
:1033600050F40C31110509F40DC40E31110509F4A6
:1033700072C60C9436300B35110509F4A1C70C3513
:10338000110509F4A2C70C943630882311F40C946B
:1033900036300E94A0340E94DF810C94363088239E
:1033A00011F40C9436300E94A03489E40E941D343C
:1033B000882329F00E9477346B017C0103C0C12C63
:1033C000D12C76018AE40E941D34882349F00E94A2
:1033D000773464966CAF7DAF8EAF9FAF649706C0B5
:1033E00064961CAE1DAE1EAE1FAE6497A70196017B
:1033F000C701B6010E941EC94B015C0164962CAD49
:103400003DAD4EAD5FAD6497CA01B9010E941EC9C2
:103410009B01AC01C501B4010E9414CD0E947FCF75
:10342000ED966CAF7DAF8EAF9FAFED978090FB04B4
:103430009090FC04A090FD04B090FE046C968CAEBD
:103440009DAEAEAEBFAE6C97A5019401C701B601AB
:103450000E9414CDA8966CAF7DAF8EAF9FAFA8979A
:103460008090FF0490900005A0900105B0900205A7
:10347000A0968CAE9DAEAEAEBFAEA097A501940156
:1034800064966CAD7DAD8EAD9FAD64970E9414CDFA
:10349000AC966CAF7DAF8EAF9FAFAC9780900305BD
:1034A00090900405A0900505B0900605E0968CAEBE
:1034B0009DAEAEAEBFAEE097A50194016091C0098C
:1034C0007091C1098091C2099091C3090E9413CDE6
:1034D000A4966CAF7DAF8EAF9FAFA497A701960166
:1034E000505860962CAF3DAF4EAF5FAF609764967B
:1034F0008CAD9DADAEADBFAD6497B05868968CAF46
:103500009DAFAEAFBFAF68978090B8099090B909F2
:10351000A090BA09B090BB09E4968CAE9DAEAEAE59
:10352000BFAEE497A8962CAD3DAD4EAD5FADA8976C
:10353000C501B4010E9413CD6B017C018090BC09D0
:103540009090BD09A090BE09B090BF09E8968CAEDE
:103550009DAEAEAEBFAEE897AC962CAD3DAD4EADD8
:103560005FADAC97C501B4010E9413CD4B015C0166
:10357000A701960160966CAD7DAD8EAD9FAD609755
:103580000E941EC92B013C01A501940168966CADF7
:103590007DAD8EAD9FAD68970E941EC99B01AC01A9
:1035A000C301B2010E9414CD2B013C01A50194017D
:1035B00060966CAD7DAD8EAD9FAD60970E941EC9CB
:1035C0004B015C01A701960168966CAD7DAD8EAD97
:1035D0009FAD68970E941EC99B01AC01C501B40153
:1035E0000E9413CDA30192010E9487CD6B017C0143
:1035F00020E030E0A9010E94B9C887FF0AC02BED86
:103600003FE049EC50E4C701B6010E9414CD6B01C4
:103610007C010230110551F42BED3FE049EC50E400
:10362000C701B6010E9413CD6B017C0120E030E0A0
:10363000A901C701B6010E94B9C881112AC0E49648
:103640002CAD3DAD4EAD5FADE4976C966CAD7DADF0
:103650008EAD9FAD6C970E94B9C881111AC0E896D3
:103660002CAD3DAD4EAD5FADE897A0966CAD7DAD98
:103670008EAD9FADA0970E94B9C881110AC02BEDF5
:103680003FE049EC50E4C701B6010E9414CD6B0144
:103690007C01A7019601ED966CAD7DAD8EAD9FAD21
:1036A000ED970E941EC99B01AC010E941EC94B01EF
:1036B0005C01A4962CAD3DAD4EAD5FADA497CA01A3
:1036C000B9010E941EC99B01AC01C501B4010E9451
:1036D00014CD0E947FCF4B015C012FE632E143E81D
:1036E0005AE30E94B9C887FD03C2C501B4010E9414
:1036F00089CE0E945DCE6E967FAF6EAF6E97672BC0
:1037000031F421E030E06E963FAF2EAF6E974090DF
:103710000705509008056090090570900A056E969F
:103720008EAC9FAC6E97B40180E090E00E94BDC863
:103730004B015C019B01AC01C701B6010E94F0CDB9
:103740006C966CAF7DAF8EAF9FAF6C97A501940167
:10375000A4966CAD7DAD8EAD9FADA4970E94F0CDCB
:10376000E8966CAF7DAF8EAF9FAFE897A301920153
:103770006091C4097091C5098091C6099091C709EB
:103780000E9413CDA50194010E94F0CDED966CAF7F
:103790007DAF8EAF9FAFED976C962CAD3DAD4EAD2E
:1037A0005FAD6C97CA01B9010E941EC920E030E0EC
:1037B00040E05FE30E941EC99B01AC0160E070E045
:1037C00080E89FE30E9413CDA4966CAF7DAF8EAFCF
:1037D0009FAFA497E0968CAC9DACAEACBFACE0972D
:1037E00089869A86AB86BC864D865E866F86788A89
:1037F0006091040270910502072E000C880B990B52
:103800000E94BFC82091370230913802409139029E
:1038100050913A020E941EC92AE037ED43E25CE370
:103820000E941EC9E0966CAF7DAF8EAF9FAFE09750
:103830000E9451759B01AC0128533F4F4F4F5F4F82
:10384000E4962CAF3DAF4EAF5FAFE4972D964FACF3
:103850002D972E965FAC2E972F966FAC2F97609674
:103860007FAC6097D12C22242394312C6E968EACA1
:103870009FAC6E978214930409F426C10E94D3AFC3
:103880000E9451758B019C01E4968CAC9DACAEAC52
:10389000BFACE497081919092A093B0937FD0EC086
:1038A0009B01AC0128533F4F4F4F5F4FE4962CAF25
:1038B0003DAF4EAF5FAFE4970E94757E81E08D0D06
:1038C000893108F04CC0D82E68962CAD3DAD4EAD78
:1038D0005FAD6897A4966CAD7DAD8EAD9FADA4979E
:1038E0000E941EC94B015C019201A3016C966CAD54
:1038F0007DAD8EAD9FAD6C970E941EC9A501940150
:103900000E9414CD7B018C019201A301A4966CADA1
:103910007DAD8EAD9FADA4970E941EC94B015C0189
:1039200068962CAD3DAD4EAD5FAD68976C966CADB5
:103930007DAD8EAD9FAD6C970E941EC99B01AC0101
:10394000C501B4010E9413CD2B013C01C701D80170
:1039500068968CAF9DAFAEAFBFAF689758C0B1014E
:1039600080E090E00E94BDC86C962CAD3DAD4EADA0
:103970005FAD6C970E941EC94B015C010E94EDCDAA
:103980006B017C01C501B4010E9475CF4B015C0144
:10399000A701960160966CAD7DAD8EAD9FAD609731
:1039A0000E941EC92B013C01A501940164966CADD7
:1039B0007DAD8EAD9FAD64970E941EC9A30192019B
:1039C0000E9414CD2B013C01A501940160966CADC1
:1039D0007DAD8EAD9FAD60970E941EC94B015C010D
:1039E000A701960164966CAD7DAD8EAD9FAD6497D9
:1039F0000E941EC99B01AC01C501B4010E9413CDF8
:103A000068966CAF7DAF8EAF9FAF6897D12C920157
:103A1000A301A8966CAD7DAD8EAD9FADA8970E9419
:103A200014CD69837A838B839C8368962CAD3DADDE
:103A30004EAD5FAD6897AC966CAD7DAD8EAD9FAD74
:103A4000AC970E9414CD6D837E838F839887E89610
:103A50002CAD3DAD4EAD5FADE89769857A858B8520
:103A60009C850E9414CD69877A878B879C87ED9609
:103A70002CAD3DAD4EAD5FADED976D857E858F85EF
:103A800098890E9414CD6D877E878F87988BCE0191
:103A900001960E948F81C090A109E096ECACFDAC2C
:103AA0000EAD1FADE0979E01235F3F4FAE01475F14
:103AB0005F4FBE016B5F7F4FCE0101960E94EF8486
:103AC0003FEF231A330AD2CEC090A109E096ECACA6
:103AD000FDAC0EAD1FADE09724EC39E040EC59E0B1
:103AE0006CEB79E088EB99E00E94EF840E948233CE
:103AF0000E9410370C94363080E50E941D348823D4
:103B000029F00E946C346B017C0103C0C12CD12CC4
:103B1000760183E50E941D34882361F00E9477348A
:103B200020E030E04AE754E40E941EC90E945DCEC6
:103B30006B017C010E94F3B20E9410378091A409AE
:103B40009091A509A091A609B091A709C80ED91E08
:103B5000EA1EFB1E80916502811105C060E08BE5C5
:103B600092E00E9488630E945175DC01CB018C19A0
:103B70009D09AE09BF09B7FD02C00C9436300E9402
:103B8000757EF1CF0E94F3B20E94343781E08093BA
:103B9000350288E50E941D34A82E89E50E941D3457
:103BA000182F8AE50E941D34982EA11005C011110E
:103BB00005C081E0892503C0111101C080E0809318
:103BC000000290E1EBEFF4E0A8EBB9E001900D9278
:103BD0009A95E1F7811104C0A11002C01123D9F117
:103BE00020E030E040EA50E46091A2077091A30722
:103BF0008091A4079091A5070E9414CD2091B4094B
:103C00003091B5094091B6095091B7090E9414CD81
:103C10006093C0097093C1098093C2099093C3094E
:103C2000209103053091040540910505509106054A
:103C30000E943ACF18167CF419821A821B821C82C9
:103C40009E012F5F3F4F40EC59E06FEF74E08BEF28
:103C500094E00E94023280910002811106C0AA20E5
:103C600009F4A9C0112309F4A6C01092FF04109210
:103C7000000510920105109202051092FB041092AB
:103C8000FC041092FD041092FE040E94BA35EAE88A
:103C9000F4E204918EE794E20E948C332B013C0104
:103CA00082E894E20E948C336B017C019B01AC01A1
:103CB000C301B2010E943ACF18162CF4A30192015D
:103CC000C701B60104C0A7019601C301B2010E9459
:103CD000F0CD9B01AC010E941EC920E030E040E81D
:103CE0005FE30E9414CD0E947FCF20E030E048E4E3
:103CF00052E40E941EC92C966CAF7DAF8EAF9FAF71
:103D00002C97EBE8F4E2B49020E030E040EC5FE385
:103D1000C701B6010E941EC96B017C016B2DBB0C53
:103D2000770B880B990B0E94BFC89B01AC01C701A0
:103D3000B6010E941EC969837A838B839C8320E02D
:103D400030E040EC5FE3C301B2010E941EC96B0189
:103D50007C01602F000F770B880B990B0E94BFC866
:103D60009B01AC01C701B6010E941EC928966CAF29
:103D70007DAF8EAF9FAF28979E01285B3F4F43E0FA
:103D800055E0BE016F5F7F4FCE018C5B9F4F0E945D
:103D900002321092C6071092FF0410920005109292
:103DA0000105109202051092FB041092FC0410927F
:103DB000FD041092FE0480910002811102C0AA202D
:103DC00021F080E090E00E94447C8091000281110B
:103DD00002C0112321F081E090E00E94447C809198
:103DE0000002811103C091103AC027C10E94BA3568
:103DF00080E090E0ACE7B2E48093B8099093B90911
:103E0000A093BA09B093BB0980E090E0A5E2B3E4C7
:103E10008093BC099093BD09A093BE09B093BF09DC
:103E20008091030590910405A0910505B0910605C8
:103E30008093C0099093C109A093C209B093C309AC
:103E400019821A821B821C829E012F5F3F4F43E022
:103E500055E06CEB79E088EB99E00E94023210911A
:103E6000520981E0182780915309882329F01123F2
:103E700009F477C000E001C001E0E0E0FFE28491D6
:103E80007F014FEFE41AF40A811103C0E1E8F2E088
:103E900004C00E945337F701F2CF84917F015FEF96
:103EA000E51AF50A882321F00E945337F701F5CF70
:103EB000112369F0EFE7F2E084917F019FEFE91AA7
:103EC000F90A882321F00E945337F701F5CF002328
:103ED00019F0EDE7F2E003C0E5E7F2E00BC08491F2
:103EE0007F01AFEFEA1AFA0A8823B1F30E94533731
:103EF000F701F5CF84917F01BFEFEB1AFB0A88230E
:103F000021F00E945337F701F5CF1A821982FE0182
:103F1000339681E4DF011D928A95E9F76FE672E03E
:103F2000CE0101960E943FC8112331F06DE672E088
:103F3000CE0101960E943FC8002331F06BE672E08B
:103F4000CE0101960E943FC864E672E0CE01019660
:103F50000E943FC860E0CE0101960E949D630C94D0
:103F6000363020919A0730919B0740919C075091E1
:103F70009D076091FB047091FC048091FD04909179
:103F8000FE040E9413CD2091AC093091AD094091FF
:103F9000AE095091AF090E9413CD6B017C0120E066
:103FA00030E044E152EC0E943ACF87FF02C00C940B
:103FB000703020E030E043E253E4C701B6010E94D4
:103FC000B9C8181614F40C94703020919E073091E3
:103FD0009F074091A0075091A1076091FF04709145
:103FE000000580910105909102050E9413CD20915A
:103FF000B0093091B1094091B2095091B3090E94C2
:1040000013CD6B017C0120E030E042E852E40E94D5
:104010003ACF87FF02C00C94703020E030E844E8CB
:1040200053E4C701B6010E94B9C8181614F40C94E1
:10403000703082E090E00E94447C0E94BA3580910A
:104040001B07809335021092C6070E941B370E94FF
:10405000CF4C0C9436300E94343720E030E042E8F8
:1040600052E46091FF0470910005809101059091E8
:1040700002050E9413CD2B013C0120E030E044E119
:1040800052E46091FB047091FC048091FD049091D6
:10409000FE040E9414CD6B017C0180903702909049
:1040A0003802A0903902B0903A0260E070E080EAF5
:1040B00090E40E94F33285E595E5A5E0B3E48093B2
:1040C000370290933802A0933902B0933A022C96AB
:1040D0001CAE1DAE1EAE1FAE2C9720E030E042E8B5
:1040E00052E4C301B2010E9414CD28966CAF7DAF9B
:1040F0008EAF9FAF289720E030E044E152E4C70143
:10410000B6010E9413CD69837A838B839C839E01C1
:10411000285B3F4F43E055E0BE016C5B7F4FCE0113
:1041200001960E94023281E00E943933882339F0DF
:10413000C12CD12CF0ECEF2EFFE7FF2E57C00E94D0
:10414000103720E030E040E753E460E070E08EE3B9
:1041500093EC0E94BC3580E090E0A0E8B0E4898355
:104160009A83AB83BC83C0900305D0900405E09094
:104170000505F09006058AE794E20E948C339B01C6
:10418000AC01C701B6010E9414CD28966CAF7DAF7B
:104190008EAF9FAF28979E012F5F3F4FAE014C5BC4
:1041A0005F4F6FEF74E08BEF94E00E94023220E0EB
:1041B00030E040EF52E460E070E080E291EC0E9479
:1041C000BC35C0900305D0900405E0900505F09043
:1041D000060580E00E9439338111AACF8092370210
:1041E00090923802A0923902B0923A02E4EBF2E0E7
:1041F00084918F010F5F1F4F882321F00E94533756
:10420000F801F6CF20E030E044E152E46091FB0495
:104210007091FC048091FD049091FE040E9414CDE5
:1042200027E137EB41ED58E30E9414CD42E00E94B4
:104230003E3BEFEAF2E084918F010F5F1F4F88232E
:1042400021F00E945337F801F6CF20E030E042E839
:1042500052E46091FF0470910005809101059091F6
:1042600002050E9413CD27E137EB41ED58E30E9490
:1042700014CD42E00E943E3BEAEAF2E084918F01D5
:104280000F5F1F4F882321F00E945337F801F6CFAC
:1042900027E137EB41ED58E3C701B6010E9414CD89
:1042A00042E00E943E3B8AE00E9453370E941B3747
:1042B0000E94CF4C0C94363010925B040C94363034
:1042C00081E080935B040C94363085E40E941D34B9
:1042D000982E811102C00E94F3B26CEAA62E62E011
:1042E000B62E7BEFC72E74E0D72EECEAEE2EE9E077
:1042F000FE2E00E010E0812CF50181915F010E940B
:104300001D34882329F1D6014D905D906D907C90ED
:104310000E947734F6016083718382839383033034
:10432000B9F0A30192010E9413CD9B01AC01D7010A
:104330006D917D918D919C910E9414CDF7016083C8
:10434000718382839383C8010E949233882483946B
:104350000F5F1F4FF4E0CF0ED11C24E0E20EF11CE2
:104360000430110549F6882021F00E94BA350C94DA
:104370003630992011F40C94363020911705309185
:1043800018054091190550911A0560910705709123
:1043900008058091090590910A050E941EC90E9496
:1043A00045CF609311107093121080931310909367
:1043B00014108FB7F8944091111050911210609121
:1043C0001310709114104093F7045093F804609305
:1043D000F9047093FA048FBF10920110109202102A
:1043E00010920310109204100C9436300F36110501
:1043F00009F454C408F0CAC00B34110509F4D3C33E
:1044000008F069C00831110509F494C2E8F50231D9
:10441000110509F40DC7D8F40230110508F4ADC137
:104420000131110511F00C94363060E082EF92E01A
:104430000E9488635F988A989FB7F89480910801DA
:104440008E7F809308019FBF12980C9436300531FF
:10445000110509F465C240F40431110511F00C9402
:104460003630EAE0F3E01CC20631110509F45CC203
:104470000731110511F00C94363040E061E0C601BF
:104480000E94494A0C9436300C31110509F4A8C237
:1044900050F40A31110509F458C208F064C21092B0
:1044A00060100C9436300F31110509F4F3C248F452
:1044B0000E31110511F00C9436300E94F83B0C942B
:1044C00036300032110509F492C20A32110509F49E
:1044D00028C30C9436300535110509F4DAC620F5E9
:1044E0000035110509F474C678F40D34110509F48A
:1044F00078C308F45CC30E34110511F00C94363007
:104500000E94AB530C9436300235110509F489C66C
:1045100008F46BC60335110509F486C60435110588
:1045200009F486C60C9436300A36110509F41CC607
:10453000E8F40836110509F458C308F06BC40C35CB
:10454000110511F00C9436303CEA832E32E0932EA4
:104550000BE015E045E6A42E47E0B42EAFE1BAE04B
:104560002E96BFAFAEAF2E97312CACC60C361105D0
:1045700009F402C408F41CC60D36110509F467C419
:104580000E36110509F477C30C943630033D11053E
:1045900009F4ECC008F06EC00C38110509F421C410
:1045A00070F50337110509F4E5C050F40137110522
:1045B00009F4EAC308F012C781E893E00E94187E6C
:1045C0000737110509F413C758F40537110511F021
:1045D0000C94363060E0C6010E949D630C94363026
:1045E0000837110509F4FDC60937110511F00C94BF
:1045F00036301092350210921B070C943630093C6D
:10460000110509F4F7C770F40E3B110509F423C432
:10461000083C110509F49CC70139110511F00C94EF
:104620003630E8C60C3C110511F40C94312B80F4A3
:104630000B3C110511F00C943630ECEAEE2EE2E062
:10464000FE2E05E617E0F5E7CF2EF7E0DF2EFAC7DE
:104650000D3C110511F40C949B2B0E3C110511F02F
:104660000C9436307CEAE72E72E0F72E00E010E082
:104670000C94F72B013931E0130711F40C946B2ED5
:1046800080F50C3251E0150711F40C94182D88F4C4
:104690000D3D110511F40C94B42C023E110511F4DA
:1046A0000C94CB2C0C3D110511F00C9436300C946D
:1046B000A92C0E3291E0190711F40C94F82D10F486
:1046C0000C943E2D0F32B1E01B0711F40C94682EB0
:1046D0000039114011F00C9436300E94F3B20C9462
:1046E0003630063FF1E01F0711F40C94812F10F5CE
:1046F0000A3931E0130709F443C350F40239114079
:1047000011F00C94363080E00E9439330C9436302E
:104710000C3A81E0180711F40C946E2E053F1140FD
:1047200011F00C9436300E94535880E00E94D2540D
:104730000C9436300335A3E01A07A1F038F4073F94
:10474000114011F40C94842F0C943630003AF3E0AD
:104750001F0709F495C1073E134011F40C94033070
:104760000C943630E0E0FFE20C94932FE0E0FFE29F
:104770000C940E2CECEDF3E026C680E50E941D346F
:10478000882359F00E946C344B015C0111E0672BC7
:10479000682B692B31F410E004C010E0812C912CBF
:1047A000540183E50E941D348823D9F00E94773498
:1047B00020E030E04AE754E40E941EC90E945DCE2A
:1047C0004B015C0111110FC0672B682B692B59F449
:1047D000D6018C91882339F061E0C6010E949D6367
:1047E00007C01123A9F360E081EE92E00E94886384
:1047F00081E080935A09109259090E94F3B20E94F5
:10480000103781149104A104B10431F18091A409FD
:104810009091A509A091A609B091A709880E991EAB
:10482000AA1EBB1E83E090E09093A3098093A20987
:104830000E945175DC01CB0188199909AA09BB09AD
:10484000B7FD02C00C948E308091270782FF02C012
:104850000C948E300C949A3083E090E09093A309EE
:104860008093A2098091270782FD03C00E94757E74
:10487000F9CF81E090E09093A3098093A209809101
:10488000601060E0882331F082ED92E00E9488633E
:104890000C9436308CEB92E00E9488630C94363096
:1048A00084918F010F5F1F4F882321F00E9453379F
:1048B000F801F6CF1092E6121092E51281E990E12C
:1048C0000E9449688BE1E1E9F0E1DE011596019073
:1048D0000D928A95E1F780918F10909190109C83B2
:1048E0008B838EE693E09A83898340E050E0BE019B
:1048F0006F5F7F4F81E494E00E94B1B9CE010196D1
:104900000E94FF7DEBEFF2E084918F010F5F1F4F5C
:10491000882311F40C9436300E945337F801F4CFF9
:104920000E94C8B70C94363010926010109261103B
:104930000C94363080916110882319F081E08093C7
:1049400060100E9434470C943630809161108823A7
:1049500011F40C94363083E50E941D3481110C94BF
:104960009E300C94363080916110811103C0EDE2CD
:10497000F3E02AC0EBE1F3E084918F010F5F1F4F5A
:10498000882321F00E945337F801F6CF6091DC12A2
:104990007091DD128091DE129091DF124AE00E9448
:1049A00073378FE20E9453376091D8127091D912F9
:1049B0008091DA129091DB124AE00E9473378AE00C
:1049C0000E9453370C94363084918F010F5F1F4F34
:1049D000882311F40C9436300E945337F801F4CF39
:1049E00040E060E0C6010E94494A0C943630809154
:1049F000601081110E94F3B2E0905C04F0905D04BD
:104A000061E270E0C7010E9470D0009721F07C0144
:104A1000BFEFEB1AFB0A80E50E941D34882341F0AA
:104A200011E080914404909145048E159F0508F093
:104A300010E080916110882311F40C943630412FDE
:104A400061E0C7010E94494A83E50E941D34882322
:104A500049F080914404909145048E159F0510F40F
:104A60000C94AF3080916110882319F081E080931D
:104A7000601011110C9436300E9434470C9436307B
:104A800081E080935F1040E060E0C6010E94494AE7
:104A90000C94363085E390E10E94A3B228966CAF67
:104AA0007DAF8EAF9FAF2897BE016F5F7F4FCE0166
:104AB0008C5B9F4F0E942E3660E0CE0101960E94D3
:104AC0009D63E0E0FFE284918F010F5F1F4F811132
:104AD00003C0EEE3F3E007C00E945337F801F3CFC1
:104AE0000E945337F80184918F010F5F1F4F81118E
:104AF000F7CF8E010F5F1F4FF80181918F0188233F
:104B000019F00E945337F8CF8AE00E945337809102
:104B10000E0A882311F40C9436300E94E07D0C9428
:104B2000363083E50E941D34882311F40C9436300E
:104B30000E945F347C018F3F910519F010F00C94B6
:104B4000363080E50E941D34882339F00E945F349E
:104B50008C0197FF04C00C9436300DE010E0E0EBC0
:104B6000F2E0819191918017910711F40C94363005
:104B700023E0E030F207A9F761E0802F0E94BA48F5
:104B80006E2D802F0E948C48B701802F0E94F6481E
:104B90000930110511F00C943630F092100AE092B1
:104BA0000F0A0C9436300E9434470C9436308091B2
:104BB000351090913610019711F00C94363082E048
:104BC00090E090933610809335100E945175609359
:104BD0003F107093401080934110909342100C94BA
:104BE00036300E944CA80C94363088E690E00E9443
:104BF0002A3881110C9436308091040A83FF02C058
:104C00000C94363083E50E941D34882311F40C94F3
:104C100036300E9477340E9458CE7093AE0F609366
:104C2000AD0F0E94FCA70E94773420E030E04AEAF2
:104C300052E40E94B9C818163CF00E944CA860E0EB
:104C400086E593E00E9488630E9477342091AF0F3D
:104C50003091B00F4091B10F5091B20F0E943ACFF6
:104C6000181614F00C94363060E08BE493E00E9448
:104C700088630C9436308EE40E941D34882311F42E
:104C80000C9436300E947EBB6093460470934704B8
:104C900080934804909349040C94363083E50E9435
:104CA0001D34882319F00E94303401C080E08093C5
:104CB000040AE0E0FFE284918F010F5F1F4F811132
:104CC00003C0EAE7F3E004C00E945337F801F3CFD2
:104CD00084918F010F5F1F4F882321F00E9453376B
:104CE000F801F6CF8091040A811103C0E6E7F3E0F2
:104CF00034C05CE6C52E53E0D52EE12CF12C20E02B
:104D00008091040A90E00E2C02C0959587950A9434
:104D1000E2F780FF17C0BB24B394B20E222319F030
:104D20008CE20E945337F60185919491FC018491A5
:104D30008F010F5F1F4F882321F00E945337F80126
:104D4000F6CF2B2D3FEFE31AF30A42E0C40ED11C3D
:104D500055E0E516F104A1F60AC084918F010F5FBA
:104D60001F4F882321F00E945337F801F6CF8AE0C5
:104D70000E9453370C943630109201020C94363056
:104D80000E946E4C0C94363083E50E941D348111D4
:104D900003C0E0E0FFE20DC00E94303480933B028C
:104DA0008D3310F40C9436308CE380933B020C94DA
:104DB000363084918F010F5F1F4F882321F00E94AE
:104DC0005337F801F6CF40913B0250E060E070E0CD
:104DD0008AE893E00E94DE378AE00E9453370C9401
:104DE00036308091040A83FF02C00C94363083E58C
:104DF0000E941D34882311F40C9436300E947734BD
:104E00000E9458CE7093120A6093110A0E94A6ACB9
:104E10000C94363089E690E00E942A38811111C046
:104E2000E1E9F3E084918F010F5F1F4F882321F0A8
:104E30000E945337F801F6CF0E948E4D8AE00E94FF
:104E400053371092A3091092A2090C94E9300E94E2
:104E5000C3510C9436308091040A83FF02C00C9435
:104E6000363060E085EA93E00E94886383E50E9423
:104E70001D3465968FAF6597811105C082E50E944C
:104E80001D348823B1F00E9477340E9458CE70936D
:104E9000120A6093110A0E94A6AC0E94773420E0A7
:104EA00030E040EA50E40E943ACF181614F40E9411
:104EB000344781E0809301021092A3091092A20965
:104EC0008091A10980934A0464961CAE1DAE1EAE6B
:104ED0001FAE64976C961CAE1DAE1EAE1FAE6C97D7
:104EE0002D961FAE2D976D961FAE6D978CE3A196F4
:104EF0008FAFA1979CE1A5969FAFA597A6E4A99631
:104F0000AFAFA997E12CF12C00E81FEB812C912C7D
:104F100054016091110A7091120A072E000C880B3F
:104F2000990B0E94BFC8762E672E582E492E9701E6
:104F3000A8010E94B9C8882329F120915509309110
:104F4000560940915709509158096596BFAD65972C
:104F5000672D762D852D942DB11109C00E94B9C8F9
:104F6000881F8827881F2D968FAF2D9713C00E940A
:104F7000B9C887FF0CC060E084E993E00E948863B1
:104F80000C9436307E2C6F2C502E412E03C02D9663
:104F90001FAE2D970E9451756B017C01DC01CB0186
:104FA0006C962CAD3DAD4EAD5FAD6C97821B930BF7
:104FB000A40BB50BB7FD46C0D701C60188519C4F65
:104FC000AF4FBF4F6C968CAF9DAFAEAFBFAF6C977E
:104FD0000E948E4DE1EAF3E084918F010F5F1F4F35
:104FE000882321F00E945337F801F6CF81149104F1
:104FF000A104B10419F4EEE9F3E01AC0D501C4012B
:10500000805F984DAF4FBF4FBC01CD016C197D093A
:105010008E099F0928EE33E040E050E00E94D8CC92
:10502000CA01B9010E94F9378AE00E9453370AC0C9
:1050300084918F010F5F1F4F882321F00E94533707
:10504000F801F6CF0E94757E0E9410372090550916
:105050003090560900915709109158099101A80103
:10506000672D762D852D942D0E9413CD9F77811469
:105070009104A104B10449F420E030E040E85FE38A
:105080000E94B9C887FF0BC008C020E030E040E4B0
:1050900050E40E943ACF181614F4460157012D9699
:1050A0009FAD2D97992309F443C064962CAD3DAD77
:1050B0004EAD5FAD6497211531054105510541F0B5
:1050C000D701C601821B930BA40BB50BB7FD30C0F3
:1050D0009101A8016D966FAD6D97A1967FADA197D7
:1050E000A5968FADA597A9969FADA9970E9413CDC0
:1050F00020E030E040EC5FE30E94B9C887FD3BCF81
:10510000D701C601805A9541AF4FBF4F64968CAF0F
:105110009DAFAEAFBFAF64976D962FAE6D97A19662
:105120003FAEA197A5960FAFA597A9961FAFA997D8
:1051300080910102882309F41ECF81149104A104F7
:10514000B10429F4E72CF62C052D142DE2CE90E1C4
:10515000C91A97E2D90AE108F108C818D908EA087B
:10516000FB08F7FE08CFEECF83E50E941D348823AD
:1051700021F00E9471BB8C0102C00FEF10E080E5AE
:105180000E941D34882319F00E9471BB02C080E088
:1051900090E098010F3F110519F010F02FEF30E06B
:1051A000892B09F063C73093100A20930F0A5EC75A
:1051B00080E50E941D34811105C01092100A1092E2
:1051C0000F0A54C70E9471BB892B09F04FC7F5CF56
:1051D000269A2E9881E08093060260E082EB93E0AD
:1051E0000E9488630E94AE6341C70E94F6AC0E9491
:1051F000F3B20E94077E1092100A10920F0A68EE16
:1052000073E080E090E00E94BD49269A2E9A1092A9
:10521000060260E088EC93E00E9488630E94AE631F
:1052200025C710925A0422C781E080935A041EC7F2
:1052300083E50E941D34882399F00E94773420E092
:1052400030E04AE754E40E941EC90E945DCE60939C
:105250003C0270933D0280933E0290933F0206C74A
:1052600088E50E941D3481118CC789E50E941D3498
:10527000811187C78AE50E941D34811182C785E4A8
:105280000E941D3481117DC70E94F3B20E94077EE7
:10529000EDC683E50E941D34882309F4E7C60E9409
:1052A000773420E030E04AE754E40E941EC90E94AF
:1052B0005DCE6093A8097093A9098093AA09909381
:1052C000AB09D4C6F40181914F010E941D3488239B
:1052D00009F464C0F3E03F1259C00E9477342B01F7
:1052E0003C0120E030E040EA51E40E94B9C887FF69
:1052F00047C0A3019201D8016D917D918D919C9140
:105300000E94F0CD6B017C019B01AC01609175079F
:105310007091760780917707909178070E941EC957
:10532000609375077093760780937707909378075B
:10533000A7019601F50160817181828193810E94AC
:105340001EC9D5016D937D938D939C9313972E96D3
:10535000EEADFFAD2E9760817181828193810E94B5
:10536000BDC8A70196010E941EC90E945DCE2E965F
:10537000AEADBFAD2E976D937D938D939C93139798
:10538000F801408251826282738208C00E947734A1
:10539000D8016D937D938D939C93139733940C5FF9
:1053A0001F4FB4E0AB0EB11C2E96EEADFFAD2E97A5
:1053B00034962E96FFAFEEAF2E97F4E03F1282CFD9
:1053C0000E9422A753C684918F010F5F1F4F88232D
:1053D00009F44CC60E945337F801F5CF0E94CF4C18
:1053E00045C681E08093350280931B073FC60E942B
:1053F00071903CC683E50E941D34882309F10E9408
:105400005F348230D0F0E9E2F1E384918F010F5FE5
:105410001F4F811103C0EFEAF4E004C00E9453372C
:10542000F801F3CF84918F010F5F1F4F882309F498
:105430001DC60E945337F801F5CF813009F444C0EE
:1054400088E40E941D34882391F00E945F348A3AD8
:1054500091053CF08F3F910531F02CF08FEF90E0FB
:1054600002C08AEA90E090933C0780933B0786E471
:105470000E941D34882381F00E945F348F3F910584
:1054800019F014F08FEF90E097FF02C080E090E0F9
:1054900090933E0780933D0782E40E941D34882349
:1054A00009F4E4C50E945F348530910534F08635F7
:1054B00091052CF085E590E002C085E090E09093A6
:1054C0003A0780933907D2C588E40E941D348823A7
:1054D00091F00E945F348A3A91053CF08F3F91052C
:1054E00031F02CF08FEF90E002C08AEA90E09093C8
:1054F00042078093410786E40E941D34882381F08F
:105500000E945F348F3F910519F014F08FEF90E007
:1055100097FF02C080E090E0909344078093430798
:1055200082E40E941D34882309F4A0C50E945F34E0
:105530008530910534F0863591052CF085E590E0B5
:1055400002C085E090E09093400780933F078EC5AE
:1055500088EC90E00E942A38811188C584E40E947A
:105560001D34882309F482C50E9477346B017C01C5
:1055700011E020E030E0A9010E94B9C8811101C00A
:1055800010E01093060A20E030E0A901C701B6013F
:105590000E94B9C8882359F100914A0410E00E9482
:1055A0007734000F111F000F111FF801EC5BFD4F46
:1055B000608371838283938320E030E0A90160914E
:1055C00044027091450280914602909147020E94E8
:1055D000B9C881110CC080E090E0A0E4B0E48093F1
:1055E000440290934502A0934602B09347020E9462
:1055F000F67B3CC5ACEAEA2EA2E0FA2E0DE417E0F9
:10560000BDE5CB2EB7E0DB2ED7018D917D010E9449
:105610001D34882349F00E9477340E945DCEF80142
:1056200060837183828393830C5F1F4FC016D10602
:1056300059F70E94E9A61AC50C5F1F4FC016D10684
:1056400009F414C5D7018D917D010E941D34882372
:1056500099F30E947734F801608371838283938386
:10566000EBCF83E50E941D348823D9F00E94773464
:10567000AB01BC014093810750938207609383077D
:1056800070938407409345075093460760934707FC
:10569000709348078BE295E00E94AF3B8AE00E943E
:1056A000533780E50E941D34882399F00E94773497
:1056B000AB01BC014093810750938207609383073D
:1056C000709384078EE095E00E94AF3B8AE00E94D1
:1056D000533782E50E941D34882399F00E94773465
:1056E000AB01BC014093490750934A0760934B07B5
:1056F00070934C078FEE94E00E94AF3B8AE00E94CB
:10570000533784E50E941D34882309F4AFC40E94F6
:105710007734AB01BC014093450750934607609333
:1057200047077093480781ED94E00E94AF3B8AE001
:105730000E9453379BC483E50E941D34882351F097
:105740000E947734609361077093620780936307C8
:105750009093640784E50E941D34882351F00E94D1
:10576000773460935D0770935E0780935F07909333
:10577000600782E40E941D34882351F00E946C343B
:105780006093000A7093010A8093020A9093030ABF
:1057900088E50E941D34882351F00E94773460937D
:1057A0007D0770937E0780937F07909380078AE53B
:1057B0000E941D34882351F00E947734609379074A
:1057C00070937A0780937B0790937C0785E40E940F
:1057D0001D34882309F44AC40E9477346093750706
:1057E0007093760780937707909378073FC4D7012B
:1057F0008D917D010E941D34882331F00E94773401
:10580000AB01BC01C801DDD70F5F1F4F033011058D
:1058100071F70E94BA350E94CF4C28C484918F0141
:105820000F5F1F4F882321F00E945337F801F6CFF6
:1058300083E50E941D34882341F00E94303491E0BA
:10584000811101C090E090931302EBE7F5E08491A1
:105850008F010F5F1F4F882321F00E945337F801FB
:10586000F6CF80911302882319F0E3E7F5E002C038
:10587000E7E7F5E084918F010F5F1F4F811103C0AF
:10588000EBE6F5E004C00E945337F801F3CF8491B2
:105890008F010F5F1F4F882321F00E945337F801BB
:1058A000F6CF40914B0450914C0460914D0470919F
:1058B0004E0489E695E00E94AF3B40914F04509121
:1058C0005004609151047091520486E695E00E9464
:1058D000AF3B409153045091540460915504709132
:1058E000560483E695E00E94AF3BEBE5F5E084913A
:1058F0008F010F5F1F4F882321F00E945337F8015B
:10590000F6CF409107025091080260910902709110
:105910000A0289E595E00E94AF3B40910B0250914D
:105920000C0260910D0270910E0286E595E00E94D6
:10593000AF3B40910F0250911002609111027091A3
:10594000120283E595E00E94AF3B8AE00E94533744
:105950008DC383E572D7882309F488C3B0D79093A9
:1059600005028093040282C38DED90E00E942A38E4
:1059700081117CC383E561D7882309F477C3009143
:105980004A0410E09CD7000F111FF801EE5FFD4F95
:10599000918380836BC380E550D7882309F466C365
:1059A0008ED78C0183E549D7882319F088D77C01ED
:1059B00003C0EE24EA94FE2CC7010196039708F079
:1059C00055C3E0EBF2E080E093E0219131910217C2
:1059D000130709F44BC38E179F07B9F717FD46C38A
:1059E0000E94F3B2D02E60E0802F0E94BA48BFEF31
:1059F000EB16FB0631F0EA94EF2871F000E010E0BE
:105A00000DC0802F0E94644831E020E0892B09F00E
:105A100030E0032F122F02C001E010E08D2D0E9414
:105A200064488017910709F421C30E94757EF6CF60
:105A300083E503D7882319F00E9471BB02C084E07C
:105A400091E026969FAF8EAF269780E5F6D6882305
:105A500049F00E9471BB8938F3E19F0728F088E87C
:105A600093E102C088EE93E09A838983BE016C5B68
:105A70007F4FCE0101960E946FAAF8C285E4DDD661
:105A800081110EC080E5D9D6882389F030D7609384
:105A900048027093490280934A0290934B0207C0D8
:105AA0000ED71816190674F7E9E2F1E38DC089E400
:105AB000C4D6882379F01BD72CE933E549E45EE3AB
:105AC0000E941EC9609331027093320280933302A8
:105AD0009093340284E4B1D6882379F008D72CE976
