:100000000C94CE190C94FF190C94FF190C94FF1941
:100010000C94FF190C94FF190C94FF190C94FF1900
:100020000C94FF190C94FF190C94FF190C94FF19F0
:100030000C94FF190C94FF190C94FF190C94FF19E0
:100040000C94FF190C94B0A60C94FF190C94FF1992
:100050000C94FF190C94FF190C94C1A40C941E610C
:100060000C94FF190C9432560C94FF190C94FF1940
:100070000C94FF190C94FF190C94FF190C94FF19A0
:100080000C94FF190C94FF190C94FF190C94FF1990
:100090000C94FF190C94FF190C94FF190C94FF1980
:1000A0000C94FF190C94FF190C94FF190C94FF1970
:1000B0000C94FF190C94FF190C94FF190C94FF1960
:1000C0000C94FF190C94FF190C94FF190C94FF1950
:1000D0000C94FF190C94FF190C94FF190C94FF1940
:1000E0000C94FF193A603F6044604E605860D160E4
:1000F00062606A6072607C60866090609F60A960E8
:10010000D160B360BD60C760A07AA37A927A967A14
:100110009C7ADA7AA77AAB7AB17AB57AB97ABF7A69
:10012000C37AC77ADA7ACD7AD17AD57A1DA52DA588
:100130004CA55CA577A57CA57FA584A587A58CA5E6
:100140008FA594A59EA5084AD73B3BCE016E84BCE3
:10015000BFFDC12F3D6C74319ABD56833DDA3D0021
:10016000C77F11BED9E4BB4C3E916BAAAABE00006A
:1001700000803F05A84CCDB2D44EB93836A9020C48
:1001800050B9918688083CA6AAAA2ABE0000008021
:100190003F004E414E494E495459494E46CDCCCC74
:1001A0003D0AD7233C17B7D13877CC2B329595E64B
:1001B000241FB14F0A000020410000C84200401C2B
:1001C0004620BCBE4CCA1B0E5AAEC59D74434F4D53
:1001D0004D554E49434154494F4E00445259525592
:1001E0004E004552524F525300494E464F00454330
:1001F000484F0020746F6F206C6F6E6720657874B5
:10020000727573696F6E2070726576656E74656461
:100210000A0020636F6C6420657874727573696F6F
:100220006E2070726576656E7465640A00536C6545
:1002300065702E2E2E005A2070726F6265206F75C9
:10024000742E206265640A005A2070726F62652005
:100250006F75742E2062656400205A3A2000205980
:100260003A200042656420583A2000526573756D4B
:10027000696E67207072696E74004D61642033444A
:10028000205072696E7465722072656164792E0007
:100290005761697420666F7220757365722E2E2EF9
:1002A000004E6F206D6F76652E00456E6420666986
:1002B0006C65206C6973740A00426567696E20661C
:1002C000696C65206C6973740A005344207072690C
:1002D0006E74696E67206279746520004E6F7420B9
:1002E0005344207072696E74696E670A0046696CC7
:1002F000652064656C657465643A0044656C65747A
:10030000696F6E206661696C65642C2046696C6556
:100310003A20006F70656E206661696C65642C2000
:1003200046696C653A20005072696E742074696D7C
:10033000653A20006D0046696C616D656E742075CC
:100340007365643A200053746174733A20002C2062
:100350004C6F6E67657374206A6F623A2000546F49
:1003600074616C2074696D653A2000537461747314
:100370003A20002C204661696C65643A20002C20EC
:1003800046696E69736865643A20005072696E74DC
:10039000733A200053746174733A200048656174A5
:1003A000696E672E2E2E004D6164203344205072FA
:1003B000696E7465722072656164792E00EE01E9E0
:1003C00001E201DB01CD016F6666004445425547FD
:1003D0003A004B494C4C45442E20004D31313320DE
:1003E00053006F6B0048656174696E6720646F6EBF
:1003F000652E003F0A0020573A0048656174696E17
:10040000672E2E2E004D6164203344205072696E99
:100410007465722072656164792E0042656420649F
:100420006F6E652E003F0A0020573A004265642037
:1004300048656174696E672E004D61642033442005
:100440005072696E7465722072656164792E004D18
:100450006164203344205072696E746572204F6667
:10046000662E007A5F6D696E3A2000795F6D696E65
:100470003A2000785F6D696E3A20005265706F72A5
:1004800074696E6720656E6473746F702073746135
:100490007475730A004D31343520533C696E6465C0
:1004A000783E206F7574206F662072616E676520DC
:1004B00028302D31290A0053657474696E67205401
:1004C000726176656C20416363656C657261746905
:1004D0006F6E3A200053657474696E6720526574BC
:1004E0007261637420416363656C65726174696FE6
:1004F0006E3A200053657474696E67205072696E9D
:100500007420416363656C65726174696F6E3A2033
:100510000053657474696E67205072696E7420614F
:100520006E642054726176656C20416363656C650E
:10053000726174696F6E3A2000205A002059005889
:100540000020204D61783A2000205A0020590058A0
:100550000020204D696E3A20004F6E20004F6666E5
:1005600000536F667420656E6473746F70733A2005
:10057000004F666673657473206170706C696564A2
:10058000004572723A20546F6F20666172210054E8
:100590006F6F206661722066726F6D20726566658E
:1005A00072656E636520706F696E740A00416374D2
:1005B0006976652045787472756465723A20002208
:1005C0000A00556E6B6E6F776E20636F6D6D616E96
:1005D000643A202200202B000A436F727265637414
:1005E0006564204265642048656967687420767395
:1005F0002E2042656420546F706F6C6F67793A0AE1
:1006000000202B000A4265642048656967687420F1
:10061000546F706F6772617068793A0A2020202BDE
:100620002D2D2D204241434B202D2D2B0A20202003
:100630007C20202020202020202020207C0A204CEC
:10064000207C20202020282B29202020207C2052A4
:100650000A2045207C20202020202020202020202F
:100660007C20490A2046207C20282D29204E202845
:100670002B29207C20470A2054207C202020202069
:100680002020202020207C20480A2020207C2020A0
:100690002020282D29202020207C20540A202020C2
:1006A0007C20202020202020202020207C0A2020A8
:1006B000204F2D2D2046524F4E54202D2D2B0A20F9
:1006C00028302C30290A004D65616E206F6620733A
:1006D000616D706C656420706F696E74733A200090
:1006E00020643A200020623A200045716E20636F3A
:1006F000656666696369656E74733A20613A2000C5
:1007000028422961636B00284629726F6E740028A5
:1007100052296967687400284C29656674003F4E49
:10072000756D626572206F662070726F62656420FD
:100730002850296F696E747320697320696D706C1D
:1007400061757369626C65202832206D696E696D10
:10075000756D292E0A0052756E6E696E6720696E7E
:10076000204452592D52554E206D6F64650A004742
:100770003239204175746F20426564204C6576657E
:100780006C696E670A003F2856296572626F73654F
:10079000204C6576656C20697320696D706C61759D
:1007A0007369626C652028302D34292E0A00256972
:1007B000730025696D202569730025696820256906
:1007C0006D202569730025696420256968202569E5
:1007D0006D202569730025697920256964202569C4
:1007E000682025696D20256973004E6F204C696E65
:1007F00065204E756D626572207769746820636844
:1008000065636B73756D2C204C617374204C696E3D
:10081000653A20004B494C4C45442E200053544F20
:10082000505045442E20005072696E7465722073DA
:10083000746F707065642064756520746F206572D4
:10084000726F72732E204669782074686520657215
:10085000726F7220616E6420757365204D3939396D
:1008600020746F20726573746172742E2028546531
:100870006D7065726174757265206973207265733D
:1008800065742E20536574206974206166746572E6
:100890002072657374617274696E67290A004E6F05
:1008A00020436865636B73756D2077697468206C8D
:1008B000696E65206E756D6265722C204C61737473
:1008C000204C696E653A2000636865636B73756DD3
:1008D000206D69736D617463682C204C61737420A2
:1008E0004C696E653A20004C696E65204E756D62EC
:1008F0006572206973206E6F74204C617374204C94
:10090000696E65204E756D6265722B312C204C61CD
:100910007374204C696E653A20004D313130004DC2
:100920003331004D383420582059205A2045005387
:10093000442072656164206572726F720A00446FB0
:100940006E65207072696E74696E672066696C6589
:100950000A0020496E76616C69642065787472754E
:1009600064657220000000484300004843000048CE
:1009700043000000000000000000000000205A3A80
:10098000200020593A200042656420583A20002077
:10099000706F736974696F6E206F7574206F662055
:1009A00072616E67652E0A003F50726F62652000AB
:1009B000206669727374005A0059005800486F6DC0
:1009C0006520002066697273740A005A0059005845
:1009D00000486F6D65200053442063617264206F8E
:1009E0006B0A006F70656E526F6F74206661696C80
:1009F00065640A00766F6C756D652E696E6974208A
:100A00006661696C65640A00534420696E697420EC
:100A10006661696C0A006175746F25692E67004D07
:100A20003234004D32332025730057726974696E79
:100A30006720746F2066696C653A20006F70656E80
:100A4000206661696C65642C2046696C653A2000FB
:100A50006F70656E206661696C65642C2046696CF8
:100A6000653A200046696C652073656C6563746542
:100A7000640A002053697A653A200046696C652053
:100A80006F70656E65643A20006F70656E206661F8
:100A9000696C65642C2046696C653A2000206669A3
:100AA0006C653A20004E6F7720002220706F730033
:100AB0002220706172656E743A2200535542524F83
:100AC0005554494E452043414C4C20746172676532
:100AD000743A22004B494C4C45442E2000747279E4
:100AE000696E6720746F2063616C6C207375622D72
:100AF00067636F64652066696C65732077697468E5
:100B000020746F6F206D616E79206C6576656C73F3
:100B10002E204D4158206C6576656C2069733A0033
:100B20004572726F723A0048617264636F64656403
:100B30002044656661756C742053657474696E67D2
:100B400073204C6F616465640A0020204D38353194
:100B5000205A005A2D50726F6265204F6666736589
:100B60007420286D6D293A0A0020204D3230302043
:100B700044300A0020204D323030204400204469A7
:100B80007361626C65640A0046696C616D656E74C0
:100B90002073657474696E67733A002044002049BD
:100BA0000020204D333031205000504944207365DF
:100BB0007474696E67733A0A002046002042002070
:100BC000204D31343520533120480020460020424A
:100BD0000020204D3134352053302048004D6174C1
:100BE000657269616C2068656174757020706172EE
:100BF000616D65746572733A0A00205A00205900CD
:100C000020204D323036205800486F6D65206F66C9
:100C10006673657420286D6D290A00204500205AEE
:100C20000020580020420020540020204D32303552
:100C3000205300416476616E636564207661726959
:100C400061626C65733A20533D4D696E206665653F
:100C5000647261746520286D6D2F73292C20543DBA
:100C60004D696E2074726176656C2066656564728C
:100C700061746520286D6D2F73292C20423D6D69AC
:100C80006E696D756D207365676D656E742074692E
:100C90006D6520286D73292C20583D6D6178696D34
:100CA000756D205859206A65726B20286D6D2F7301
:100CB000292C20205A3D6D6178696D756D205A2070
:100CC0006A65726B20286D6D2F73292C2020453D9D
:100CD0006D6178696D756D2045206A65726B20289D
:100CE0006D6D2F73290A0020540020520020204DE2
:100CF000323034205000416363656C657261746901
:100D00006F6E733A20503D7072696E74696E672C15
:100D100020523D7265747261637420616E64205468
:100D20003D74726176656C0A00204500205A0020EF
:100D3000590020204D3230312058004D6178696DC6
:100D4000756D20416363656C65726174696F6E20B7
:100D5000286D6D2F7332293A0A00204500205A0071
:100D600020590020204D3230332058004D617869E1
:100D70006D756D2066656564726174657320286D9C
:100D80006D2F73293A0A00204500205A002059008F
:100D900020204D39322058005374657073207065DF
:100DA0007220756E69743A0A00253032693A25302E
:100DB00032690025696420253032693A253032696C
:100DC000005A00590020003F005800092000000090
:100DD000000000000000000000007FFFE0000000B5
:100DE0000000000000000000007000E000000000B3
:100DF000000000000000000061F86000000000003A
:100E00000000000000000041F82000000000000089
:100E100000000000000040F0200000000000000082
:100E20000000000000406020000000000000000002
:100E3000000000005801A07F8000000000000000BA
:100E40004104005C63A0FFC000000000000000201F
:100E500082005EF7A0FFC0000000000000002082BA
:100E6000005EF7A0FFC00000000000000041040089
:100E70005C63A07F80000000000000008208005832
:100E800001A07F800000000000000104100040600D
:100E900020FFC00000000000000104100040F0200E
:100EA000FFC00000000000000082080041F820FFA1
:100EB000C00000000000000041040061F8603F0035
:100EC000000000000000000000007000E01E0000B4
:100ED000000000000001FFFF807FFFE00C00000029
:100EE0000000000001FFFF80000000000000000083
:100EF000000000000000007FFFE000000000000094
:100F00000000000000007000E00000000000000091
:100F10000000000000630C60000000000000000002
:100F200000000000470E200000000000000000004C
:100F30000000004F0F200000000000000000000033
:100F400000005F0FA0000000000000000000000093
:100F5000005E07A07F800000000000000041040048
:100F6000406020FFC0000000000000002082004020
:100F7000F020FFC00000000000000020820040F0D0
:100F800020FFC0000000000000004104004060207D
:100F90007F80000000000000008208005E07A07F44
:100FA00080000000000000010410005F0FA0FFC0DF
:100FB000000000000000010410004F0F20FFC000DF
:100FC000000000000000820800470E20FFC0000063
:100FD0000000000000410400630C603F00000000BE
:100FE000000000000000007000E01E000000000093
:100FF000000001FFFF807FFFE00C00000000000008
:101000000001FFFF800000005072696E742066725C
:101010006F6D205344004E6F20534420636172640F
:101020000053746F70207072696E7400526573752E
:101030006D65207072696E74005061757365207003
:1010400072696E7400436F6E74726F6C00507265DB
:10105000706172650054756E6500496E666F20732D
:10106000637265656E0000060900FE000000000066
:1010700001090008FE000005080806000040F0C84D
:101080008888987810050808060000C0F8888888C5
:101090008888F80505050600012030F8302005088D
:1010A000080600002070F820202020E0050909062D
:1010B00000FF2070A8A8B8888870200509090600DC
:1010C000FFE080C0B0A8283028280509090600FFE5
:1010D000F8A88888888888A8F8050A0A0600FE20EB
:1010E0005050505088A8A88870030303060003409E
:1010F000A04000002100240027002A002D0030001D
:10110000330001010000040107010A010000220070
:10111000250028002B002E003100340002010000C1
:10112000050108010B010000200023002600290012
:101130002C002F003200000100000301060109010C
:1011400005050505070508080808020202020A0A43
:101150000808040404040101010101010101030361
:10116000030303030303040707070C0C0C0C0C0C0C
:101170000C0C0202020206060606060606060B0B09
:101180000B0B0B0B0B0B010210202008081020404A
:10119000102040800201020108040201010204083B
:1011A00010204080804020100804020180040201C9
:1011B0008040201008040201080402010102040812
:1011C00010204080010204081020408000000A0B1B
:1011D00002090C0D0E0807030401000000000000C6
:1011E00000000000000000000000000000000000FF
:1011F00000000000000000001211100000000000BC
:1012000000000000000000000000000000000000DE
:1012100000004B494C4C45442E2000202D20496EA7
:1012200076616C6964206578747275646572206E8D
:10123000756D62657220210A002020506C616E6E0F
:10124000657242756666657242797465733A20000C
:101250002046726565204D656D6F72793A200041B8
:10126000707220203720323031380A00436F6D70A1
:10127000696C65643A2000284D616433445072699A
:101280006E7465722C204D61726C696E2032303143
:1012900036290A00207C20417574686F723A20005C
:1012A000323031362D30372D32362031323A30302F
:1012B00000204C61737420557064617465643A2039
:1012C0000020312E312E302D524342756746697809
:1012D0000A004D61726C696E0020536F667477610D
:1012E00072652052657365740A00205761746368E3
:1012F000646F672052657365740A002042726F77CD
:101300006E206F75742052657365740A00204578ED
:101310007465726E616C2052657365740A00506F5B
:1013200077657255700A0073746172740A00657291
:10133000726F722077726974696E6720746F2066AD
:10134000696C650A00456E6473746F707320256361
:1013500020256320256320256300205A3A00205968
:101360003A0020583A00656E6473746F7073206899
:1013700069743A2000446F6E6520736176696E6708
:101380002066696C652E0A004D32390000000000AD
:1013900000000000000000005761726E696E673A3D
:1013A00020486F6D696E672042756D7020446976C4
:1013B00069736F72203C20310A000000A0400000D9
:1013C000A0400000004000004843000048430000E7
:1013D0004843FFFFFF00002110422063308440A5F6
:1013E00050C660E770088129914AA16BB18CC1ADEC
:1013F000D1CEE1EFF13112100273325222B5529484
:1014000042F772D662399318837BB35AA3BDD39C3B
:10141000C3FFF3DEE36224433420040114E664C70F
:1014200074A44485546AA54BB528850995EEE5CF8B
:10143000F5ACC58DD55336722611163006D776F623
:10144000669556B4465BB77AA719973887DFF7FEDB
:10145000E79DD7BCC7C448E5588668A778400861AF
:101460001802282338CCC9EDD98EE9AFF94889692B
:10147000990AA92BB9F55AD44AB77A966A711A50C3
:101480000A333A122AFDDBDCCBBFFB9EEB799B587B
:101490008B3BBB1AABA66C877CE44CC55C222C034F
:1014A0003C600C411CAEED8FFDECCDCDDD2AAD0BCB
:1014B000BD688D499D977EB66ED55EF44E133E3263
:1014C0002E511E700E9FFFBEEFDDDFFCCF1BBF3A1B
:1014D000AF599F788F8891A981CAB1EBA10CD12D0A
:1014E000C14EF16FE18010A100C230E3200450250D
:1014F0004046706760B9839893FBA3DAB33DC31C81
:10150000D37FE35EF3B1029012F322D2323542145C
:101510005277625672EAB5CBA5A89589856EF54FCC
:10152000E52CD50DC5E234C324A0148104667447AC
:101530006424540544DBA7FAB79987B8975FE77E20
:10154000F71DC73CD7D326F2369106B016576676FC
:1015500076154634564CD96DC90EF92FE9C899E96C
:10156000898AB9ABA94458654806782768C018E14C
:10157000088238A3287DCB5CDB3FEB1EFBF98BD8C0
:101580009BBBAB9ABB754A545A376A167AF10AD09C
:101590001AB32A923A2EFD0FED6CDD4DCDAABD8B0C
:1015A000ADE89DC98D267C076C645C454CA23C83EC
:1015B0002CE01CC10C1FEF3EFF5DCF7CDF9BAFBA60
:1015C000BFD98FF89F176E367E554E745E932EB23C
:1015D0003ED10EF01E7C3C3E5E2B3D3F2F5B5D3BC3
:1015E0002C2A225C001000AA03F0013A019002228A
:1015F0000130031001D00302017004F7001005ED63
:1016000000B005E5005006DD00F006D7009007D1D8
:10161000003008CC00D008C7007009C300100ABE13
:1016200000B00ABB00500BB700F00BB300900CB039
:1016300000D00DAA00100FA5005010A00090119B23
:1016400000D0129600B014900090168B0070188590
:1016500000501A8000301C7B00B01E750030216FD6
:1016600000B02369003026640010285F00902A5AD9
:1016700000702C5500F02E4F0070314800B03245FC
:1016800000F03341007036390010373700503833DE
:101690000090392D00D03A2700B03C1C00503D1777
:1016A00000F03D1100903E0900D03FE5FF43616E20
:1016B0006E6F74206F70656E20737562646972203E
:1016C000006563686F3A00544845524D414C2052C2
:1016D000554E4157415900546865726D616C2052F6
:1016E000756E6177617900436172642072656D6F18
:1016F000766564004361726420696E736572746517
:10170000640000060900FE070192032120FFFF0884
:10171000FF07FF0000000600000107070602008027
:10172000808080800080030202060105A0A00507DA
:10173000070600005050F850F85050050707060003
:10174000002078A07028F020050707060000C0C818
:1017500010204098180507070600006090A040A8D8
:101760009068020303060104C040800307070601D6
:101770000020408080804020030707060100804051
:10178000202020408005050506000120A870A82023
:101790000505050600012020F820200203030602AB
:1017A000FFC04080050101060003F80202020602A4
:1017B00000C0C0050505060001081020408005078F
:1017C000070600007088888888887003070706016C
:1017D0000040C040404040E0050707060000708818
:1017E00008708080F8050707060000F81020100830
:1017F00008F005070706000010305090F81010059B
:101800000707060000F880F008088870050707063B
:101810000000708080F0888870050707060000F8D7
:101820000810202020200507070600007088887017
:101830008888700507070600007088887808087097
:10184000020505060200C0C000C0C002060606026E
:10185000FFC0C000C0408004070706000010204001
:1018600080402010050303060002F800F804070773
:101870000601008040201020408005070706000078
:1018800070880810200020050707060000708808EF
:1018900068A8A870050707060000708888F888887F
:1018A00088050707060000F08888F08888F005079B
:1018B0000706000070888080808870050707060092
:1018C00000F08888888888F0050707060000F880FF
:1018D00080F08080F8050707060000F88080F0801F
:1018E0008080050707060000708880B8888870052A
:1018F0000707060000888888F88888880107070697
:101900000200808080808080800507070600003804
:101910001010101090600507070600008890A0C006
:10192000A09088050707060000808080808080F8EE
:1019300005070706000088D8A88888888805070753
:101940000600008888C8A898888805070706000050
:1019500070888888888870050707060000F08888E6
:10196000F080808005070706000070888888A890AE
:1019700068050707060000F08888F0A09088050732
:1019800007060000788080700808F0050707060049
:1019900000F8202020202020050707060000888866
:1019A00088888888700507070600008888888888E6
:1019B00050200507070600008888888888A85005F9
:1019C000070706000088885020508888050707060A
:1019D000000088888850202020050707060000F8AE
:1019E0000810204080F8030707060100E08080808F
:1019F0008080E005050506000180402010080307EF
:101A000007060100E02020202020E0050303060057
:101A100004205088050101060000F80202020602B7
:101A200005804005050506000070087888780507E0
:101A3000070600008080B0C88888F005050506000C
:101A40000070808088700507070600000808689805
:101A50008888780505050600007088F880700507FD
:101A6000070600003048E0404040400506060600FA
:101A7000FF7088887808700507070600008080B02E
:101A8000C88888880107070602008000808080805F
:101A9000800308080601FF200020202020A0400429
:101AA0000707060000808090A0C0A09003070706EB
:101AB0000100C04040404040E0050505060000D060
:101AC000A8A8A8A8050505060000B0C8888888054C
:101AD000050506000070888888700506060600FF68
:101AE000F08888F080800506060600FF78888878F0
:101AF0000808050505060000B0C8808080050505BA
:101B000006000070807008F00407070600004040DF
:101B1000E040404030050505060000888888986848
:101B20000505050600008888885020050505060083
:101B3000008888A8A8500505050600008850205098
:101B4000880506060600FF88888878087005050560
:101B5000060000F8102040F80307070601002040A7
:101B6000408040402001070706020080808080807E
:101B70008080030707060100804040204040800528
:101B8000020206000268900000000600000000004B
:101B90000600000000000600000000000600000033
:101BA0000000060000000000060000000000060023
:101BB0000000000006000000000006000000000019
:101BC0000600000000000600000000000600000003
:101BD00000000600000000000600000000000600F3
:101BE00000000000060000000000060000000000E9
:101BF00006000000000006000000000006000000D3
:101C000000000600000000000600000000000600C2
:101C100000000000060000000000060000000000B8
:101C200006000000000006000000000006000000A2
:101C30000000060000000000060000000000060092
:101C40000000000006000000000006000000000088
:101C50000600000107070602008000808080808067
:101C60000507070600002070A8A0A8702005070738
:101C7000060000304040E04050A805050506000081
:101C80008870507088050707060000885020F820EB
:101C9000F820010707060200808080008080800510
:101CA00008080600003048205050209060030101D1
:101CB000060107A0050707060000F888B8B8B8882D
:101CC000F8050707060001700878887800F8050510
:101CD000050600012850A05028050303060001F85E
:101CE00008080202020602064080050707060000F7
:101CF000F888A88898A8F8050101060006F80404E9
:101D0000040600036090906005070706000020208D
:101D1000F8202000F804050506000360902040F03C
:101D2000030505060003E020E020E00202020602AF
:101D30000640800508080600FF8888888898E880A3
:101D4000800507070600007898987818181802028E
:101D500002060202C0C00202020602FF4080030522
:101D60000506000340C04040E0050707060001707B
:101D70008888887000F8050505060001A0502850E5
:101D8000A00507070600008890A858B808080507AE
:101D9000070600008890B848982038050808060013
:101DA00000C040C048D838080805070706000020D2
:101DB0000020408088700508080600004020007060
:101DC00088F888880508080600001020007088F848
:101DD00088880508080600002050007088F8888868
:101DE0000508080600006890007088F888880508D3
:101DF000080600005000708888F8888805080806E2
:101E000000002050207088F8888805070706000029
:101E10003860A0B8E0A0B80508080600FF70888008
:101E20008088702060050808060000402000F880C7
:101E3000F080F8050808060000081000F880F0801F
:101E4000F8050808060000205000F880F080F8052A
:101E500007070600005000F880F080F80308080625
:101E60000100804000E0404040E003080806010017
:101E7000204000E0404040E003080806010040A088
:101E800000E0404040E0030707060100A000E040FA
:101E90004040E0050707060000704848E8484870E1
:101EA00005080806000068900088C8A898880508FA
:101EB0000806000040207088888888700508080699
:101EC00000001020708888888870050808060000C7
:101ED0002050007088888870050808060000689007
:101EE0000070888888700508080600005000708817
:101EF00088888870050505060001885020508805EF
:101F000008080600FF1070A8A8A8A87040050808D7
:101F10000600004020888888888870050808060028
:101F2000001020888888888870050808060000202E
:101F300050008888888870050808060000500088CE
:101F400088888888700508080600001020885020BE
:101F50002020200509090600FFC040704848704055
:101F600040E00408080601FF609090A09090E08097
:101F700005080806000040200070087888780508E9
:101F80000806000010200070087888780508080608
:101F900000002050007008788878050808060000C6
:101FA00068900070087888780507070600005000E0
:101FB000700878887805080806000020502070080E
:101FC000788878050606060000D02878A0A8500575
:101FD00006060600FF70808870206005080806006D
:101FE000004020007088F880700508080600001086
:101FF00020007088F8807005080806000020500056
:102000007088F8807005070706000050007088F897
:10201000807003080806010080400040C04040E096
:1020200003080806010020400040C04040E00308CB
:102030000806010040A00040C04040E0030707063A
:102040000100A00040C04040E0050707060000A0D6
:1020500040A010788870050808060000689000B05D
:10206000C888888805080806000040200070888815
:1020700088700508080600001020007088888870A5
:102080000508080600002050007088888870050840
:1020900008060000689000708888887005070706A9
:1020A0000000500070888888700505050600012032
:1020B00000F800200507070600FF1070A8A8A87008
:1020C00040050808060000402000888888986805B8
:1020D000080806000010200088888898680508080D
:1020E00006000020500088888898680507070600C9
:1020F00000500088888898680509090600FF1020AC
:1021000000888888F808700407070601FFC040604F
:10211000506040E00508080600FF50008888887875
:102120000870466C6F7700466C6F770046616E20D2
:1021300073706565640046616E2073706565640048
:1021400042656400426564004E6F7A7A6C65004EA9
:102150006F7A7A6C650053706565640053706565CD
:1021600064004D61696E005072656865617420504D
:102170004C4120426564005072656865617420506E
:102180004C410050726570617265005072656865FF
:102190006174204142532042656400507265686555
:1021A0006174204142530050726570617265004D48
:1021B0003432380053776974636820706F776572C2
:1021C000206F6E004D38310053776974636820705A
:1021D0006F776572206F6666004D383000436F6F11
:1021E0006C646F776E00507265686561742041425F
:1021F00053005072656865617420504C41004D3841
:10220000340044697361626C652073746570706535
:102210007273004D6F7665206178697300473238BC
:102220000A47323900473239004C6576656C2062C6
:1022300065640053657420686F6D65206F66667312
:1022400065747300473238205A00486F6D65205A14
:1022500000473238205900486F6D652059004732D9
:1022600038205800486F6D652058004732380041CB
:1022700075746F20686F6D65004D61696E00426511
:102280006400426564004E6F7A7A6C65004E6F7A26
:102290007A6C650046616E20737065656400466106
:1022A0006E2073706565640054656D70657261744D
:1022B0007572650042656400426564004E6F7A7A0B
:1022C0006C65004E6F7A7A6C650046616E207370A3
:1022D0006565640046616E207370656564005465D1
:1022E0006D706572617475726500457374657073A5
:1022F0002F6D6D004573746570732F6D6D005A738B
:10230000746570732F6D6D005A73746570732F6DE3
:102310006D005973746570732F6D6D00597374651A
:1023200070732F6D6D005873746570732F6D6D0031
:102330005873746570732F6D6D00412D74726176E2
:10234000656C00412D74726176656C00412D72657B
:10235000747261637400412D7265747261637400FC
:10236000416D6178204500416D6178204500416DE7
:102370006178205A00416D6178205A00416D617882
:10238000205900416D6178205900416D61782058D5
:1023900000416D61782058005654726176206D6955
:1023A0006E005654726176206D696E00566D696ECE
:1023B00000566D696E00566D6178204500566D615E
:1023C00078204500566D6178205A00566D6178205E
:1023D0005A00566D6178205900566D617820590079
:1023E000566D6178205800566D617820580056650A
:1023F0002D6A65726B0056652D6A65726B00567AA0
:102400002D6A65726B00567A2D6A65726B0056787C
:10241000792D6A65726B005678792D6A65726B004A
:10242000416363656C00416363656C005A204F66CD
:1024300066736574005A204F666673657400436F57
:102440006E74726F6C004572723A204D415854455B
:102450004D5020424544004572723A204D41585437
:10246000454D50004D415854454D50207472696798
:102470006765726564004572723A204D494E544555
:102480004D5020424544004572723A204D494E5409
:10249000454D50004D494E54454D5020747269676A
:1024A0006765726564001FFFFFFFFFFFFF600000AC
:1024B000000001FF400000000000FF80000000005D
:1024C000007F83CF00000C303F87FF80000C301F5F
:1024D000867980000C000F8C30C7838C30E78C30FD
:1024E000CFC7CC31F38C30DCECEC33B98C30D86C0A
:1024F0006C33198C30D06C0C33198C30D86C0C3395
:10250000198C30DC6C0E3B198C30CF7C079F198CFA
:1025100030C77C038F1940000000000002600000FB
:10252000000000061FFFFFFFFFFFF824F4D4305027
:10253000C38E20C2A24017828B7011127A910D8136
:102540006CD90AA861E108C7586607615143061EA5
:102550004B5D05C145A7041A411104093D9803715B
:102560003931034036DB0265339102D430540280A6
:102570002E1D02632CEE01752AC501B028A00110A2
:102580002781018F2564012B244B01E0223401AC0B
:10259000211F018D200D01801FFC00841EED00977E
:1025A0001DDF00B81CD200E61BC600201BBC006467
:1025B0001AB200B219A8000A19A0006A189900D12D
:1025C00017910040178B00B516840031167E00B3BA
:1025D0001579003A157300C7146F0058146A00EE9D
:1025E0001366008813630025135E00C7125B006C3E
:1025F00012570015125400C111510070114F0021E3
:10260000114B00D61049008D1047004610440002BF
:10261000104200C00F4000800F3E00420F3C0006F9
:102620000F3B00CB0E3800930E37005C0E350027B1
:102630000E3400F30D3200C10D3100900D300060FA
:102640000D2E00320D2D00050D2C00D90C2B00AEE7
:102650000C2900850C29005C0C2700350C27000E86
:102660000C2600E80B2400C40B2400A00B23007DE3
:102670000B23005A0B2100390B2100180B2000F806
:102680000A1F00D90A1E00BB0A1E009D0A1D0080F9
:102690000A1D00630A1C00470A1B002C0A1B0011BC
:1026A0000A1A00F7091A00DD091900C4091900AB5C
:1026B000091900920917007B091800630917004CDB
:1026C00009160036091600200916000A091500F53A
:1026D000081500E0081400CC081400B8081400A481
:1026E000081400900813007D0812006B08130058AE
:1026F00008120046081200340811002308110012C5
:1027000008110001081100F0071000E0071000D0C8
:10271000071000C0071000B0070F00A107100091BC
:10272000070E0083070F0074070F0065070E0057A0
:10273000070E0049070E003B070D002E070E002074
:10274000070D0013070D0006070D00F9060C00ED3C
:10275000060D00E0060C00D4060C00C8060C00BCF8
:10276000060C00B0060C00A4060B0099060C008DA8
:10277000060B0082060B0077060B006C060B00614F
:10278000060A0057060B004C060A0042060A0038EB
:10279000060A002E060A0024060A001A060A00107D
:1027A00006090007060A00FD050900F4050900EB0B
:1027B000050900E2050900D9050900D0050900C78F
:1027C000050900BE050900B5050800AD050800A50E
:1027D0000509009C050800940508008C0508008484
:1027E0000508007C050800740508006C05070065F5
:1027F0000508005D050700560508004E050700475F
:102800000507004005080038050700310507002AC4
:10281000050700230507001C050600160507000F25
:102820000507000805060002050700FB040600F581
:10283000040700EE040600E8040600E2040700DBDB
:10284000040600D5040600CF040600C9040600C330
:10285000040600BD040600B7040600B1040500AC80
:10286000040600A6040600A00405009B04060095CB
:10287000040500900406008A040500850405008014
:102880000406007A04050075040500700405006B59
:1028900004050066040500610405005C040500579A
:1028A000040500520405004D0405004804050043DA
:1028B0000405003E0404003A040500350405003018
:1028C0000404002C04050027040400230405001E52
:1028D0000404001A04040016040500110404000D89
:1028E000040400090405000404040000040400FCBE
:1028F000030400F8030400F4030400F0030400ECF4
:10290000030400E8030400E4030400E0030400DC23
:10291000030400D8030400D4030400D0030400CC53
:10292000030400C8030300C503030024F404D920F2
:102930001BC40C5C0E9804C4095F0265077101F4A6
:1029400005F900FB04B30048048700C1036900587F
:1029500003550003034500BE023A008402310053D0
:10296000022A002902250004022000E4011C00C8FC
:10297000011900AF011700980114008401130071C0
:102980000110006101100051010E0043010D0036DD
:10299000010B002B010B0020010B00150109000C9D
:1029A00001090003010800FB000800F3000800EB28
:1029B000000700E4000600DE000600D8000600D292
:1029C000000600CC000500C7000500C2000500BDE0
:1029D000000400B9000400B5000400B1000400AD1B
:1029E000000400A9000400A5000300A20003009F4A
:1029F0000004009B00030098000300950002009370
:102A0000000300900003008D0002008B000300888B
:102A10000002008600020084000300810002007FA3
:102A20000002007D0002007B0002007900020077B6
:102A300000010076000200740002007200010071C3
:102A40000002006F0002006D0001006C0002006ACD
:102A500000010069000200670001006600010065D6
:102A600000010064000200620001006100010060DA
:102A70000001005F0002005D0001005C0001005BDE
:102A80000001005A000100590001005800010057E0
:102A900000010056000100550001005400010053E0
:102AA00000000053000100520001005100010050DD
:102AB0000001004F0001004E0000004E0001004DDB
:102AC0000001004C0001004B0000004B0001004AD7
:102AD00000010049000100480000004800010047D3
:102AE00000010046000000460001004500000045CE
:102AF00000010044000100430000004300010042C7
:102B000000000042000100410000004100010040BF
:102B10000001003F0000003F0001003E0000003EB9
:102B20000001003D0000003D0001003C0000003CB1
:102B30000000003C0001003B0000003B0001003AA7
:102B40000000003A0001003900000039000100389F
:102B50000000003800000038000100370000003796
:102B6000000100360000003600000036000100358C
:102B70000000003500000035000100340000003482
:102B80000000003400010033000000330000003377
:102B9000000100320000003200000032000100316C
:102BA0000000003100000031000100300000003062
:102BB000000000300001002F0000002F0000002F57
:102BC0000000002F0001002E0000002E0000002E4B
:102BD0000001002D0000002D0000002D0000002D40
:102BE0000001002C0000002C0000002C0000002C34
:102BF0000001002B0000002B0000002B0000002B28
:102C00000001002A0000002A0000002A0000002A1B
:102C1000000100290000002900000029000000290F
:102C20000000002900010028000000280000002802
:102C300000000028000000280001002700000027F5
:102C400000000027000000270000002700010026E8
:102C500000000026000000260000002600000026DC
:102C600000010025000000250000002500000025CF
:102C700000000025000000250001002400000024C1
:102C800000000024000000240000002400010023B4
:102C900000000023000000230000002300000023A8
:102CA0000000002300000023000100220000002299
:102CB000000000220000002200000022000000228C
:102CC000000100210000002100000021000000217F
:102CD0000000002100000021000000210001002070
:102CE0000000002000000020000000200000002064
:102CF0000000002000000020000000200001001F54
:102D00000000001F0000001F0000001F0000001F47
:102D10000000001F0000001F0001001E0000001E38
:102D20000000001E0000001E0000004D3834205836
:102D30002059205A2045002042403A0020403A00C5
:102D4000202F0020423A00202F0020543A00205A21
:102D50003A0020593A0020436F756E7420583A208B
:102D60000020453A00205A3A0020593A00583A00CB
:102D70004649524D574152455F4E414D453A4D618E
:102D8000726C696E20312E312E302D5243427567A0
:102D900046697820284769746875622920534F5521
:102DA0005243455F434F44455F55524C3A687474F3
:102DB00070733A2F2F6769746875622E636F6D2F79
:102DC0004D61726C696E4669726D776172652F4DE7
:102DD00061726C696E2050524F544F434F4C5F5696
:102DE000455253494F4E3A312E30204D41434849C8
:102DF0004E455F545950453A4D616420334420504C
:102E000072696E7465722045585452554445525F3C
:102E1000434F554E543A3120555549443A63656401
:102E200065326132662D343161322D343734382DBC
:102E3000396231322D633535633632663336376663
:102E4000660A0020643A0020693A0020703A004384
:102E5000290A0061626C656420286D696E207465C2
:102E60006D702000436F6C642065787472756465C2
:102E70007320617265200023646566696E65202099
:102E800044454641554C545F4B64200023646566BD
:102E9000696E65202044454641554C545F4B69207E
:102EA0000023646566696E65202044454641554CA3
:102EB000545F4B702000504944204175746F747505
:102EC0006E652066696E697368656421205075744B
:102ED00020746865206C617374204B702C204B69E2
:102EE00020616E64204B6420636F6E7374616E7436
:102EF000732066726F6D2062656C6F7720696E74E7
:102F00006F20436F6E66696775726174696F6E2EAC
:102F1000680A00504944204175746F74756E6520CD
:102F20006661696C6564212074696D656F75740AEA
:102F300000504944204175746F74756E6520666158
:102F4000696C6564212054656D7065726174757279
:102F50006520746F6F20686967680A00204B643AC7
:102F60002000204B693A2000204B703A20000A20B4
:102F7000436C617373696320504944200A002054F4
:102F8000753A2000204B753A2000206D61783A2078
:102F900000206D696E3A200020643A2000206269AA
:102FA00061733A20003A20007A5F6D61783A200020
:102FB0007A5F6D696E3A20005A204F6666736574B9
:102FC000004D6F76652058004D6F76652059004D95
:102FD0006F7665205A004578747275646572004595
:102FE00078747275646572004D6F7665205A004D75
:102FF0006F76652059004D6F76652058004D6F76CD
:10300000652061786973004D6F766520302E316DD3
:103010006D004D6F766520316D6D004D6F766520CA
:1030200031306D6D0050726570617265005265736C
:10303000746F7265206661696C73616665004669CC
:103040006C616D656E74004D6F74696F6E005465D0
:103050006D7065726174757265004D61696E0050C6
:103060007265686561742041425320636F6E66002B
:103070005072656865617420504C4120636F6E66C4
:10308000005049442D44005049442D4400504944C7
:103090002D49005049442D49005049442D500050BD
:1030A00049442D5000200820466163740020082008
:1030B00046616374002008204D6178002008204D8F
:1030C0006178002008204D696E002008204D696E4F
:1030D000004F6666004F6E20004175746F74656D19
:1030E000700046616E2073706565640046616E20F5
:1030F00073706565640042656400426564004E6FEC
:103100007A7A6C65004E6F7A7A6C6500436F6E74E4
:10311000726F6C0020746F6F206C6F6E6720657823
:1031200074727573696F6E2070726576656E746502
:10313000640A0020636F6C6420657874727573692B
:103140006F6E2070726576656E7465640A005265F4
:1031500073656E643A20006F6B00627573793A2074
:1031600070617573656420666F7220696E70757426
:103170000A00627573793A20706175736564206620
:103180006F7220757365720A00627573793A2070E8
:10319000726F63657373696E670A004B494C4C45E7
:1031A000442E20004B494C4C45442E2000506C6569
:1031B000617365207265736574005052494E5445C1
:1031C000522048414C544544005072696E746572F7
:1031D0002068616C7465642E206B696C6C282920F2
:1031E00063616C6C6564210A00220A00656E71756A
:1031F000657565696E6720220046696C2E204469FA
:10320000612E0046696C2E204469612E004F66666F
:10321000004F6E20004520696E206D6D3300436FB6
:103220006E74726F6C0043616E6E6F7420656E74A5
:103230006572207375626469723A2000022E2E0056
:103240004D61696E006265640A002C2073797374A5
:10325000656D2073746F70706564212048656174BA
:1032600065725F49443A200048656174696E672061
:103270006661696C65640048656174696E672066A3
:1032800061696C65640048656174696E6720666198
:10329000696C65640048656174696E672066616980
:1032A0006C65640070012C0190012701B0012201BE
:1032B000C0011D01F00118011002130130020E01BE
:1032C0006002090190020401C002FF000003FA003D
:1032D0004003F5008003F000D003EB002004E6007B
:1032E0007004E100E004DC004005D700C005D20016
:1032F0004006CD00D006C8008007C3003008BE00DD
:10330000F008B900C009B400B00AAF00B00BAA00C1
:10331000D00CA500000EA000500F9B00C01096001E
:103320005012910000148C00C0158700B017820065
:10333000B0197D00D01B7800001E730040206E0085
:1033400090226900F024640040275F0090295A0011
:10335000E02B5500102E500020304B00103246005C
:10336000E033410090353C001037370070383200B0
:10337000A0392D00B03A2800A03B2300603C1E007D
:10338000103D1900903D1400103E0F00703E0A00E1
:10339000C03E0500003F00006EDFECE311241FBEBD
:1033A000CFEFD1E2DEBFCDBF00E00CBF14E0A0E064
:1033B000B2E0E0E5F2EE01E00BBF02C007900D9233
:1033C000A437B107D9F725E1A4E7B4E001C01D9205
:1033D000AD3AB207E1F719E1CDECD9E100E006C062
:1033E00021970109802FFE010E9491F0CC3CD1076A
:1033F00080E00807A9F70E9496DA0C9417F10C9464
:1034000000002F923F924F925F926F927F928F9225
:103410009F92AF92BF92CF92DF92EF92FF920F9363
:103420001F93CF93DF93CDB7DEB7CA57D1090FB63D
:10343000F894DEBF0FBECDBF0091580920E6029F71
:10344000800111240852184F1093900400938F04A8
:103450008091131580FF18C0E1ECF6E184917F01A3
:103460003FEFE31AF30A882321F00E94EF4FF701A0
:10347000F5CFD8018D918D01882319F00E94EF4F6F
:10348000F8CF8AE00E94EF4F20918F043091900492
:10349000F90180812F5F3F4F8032D1F3F093900488
:1034A000E0938F048E3469F010918F0400919004A2
:1034B0006AE270E0812F902F0E94DFF00097D1F434
:1034C00020C0818190ED980F9A3010F08D3261F715
:1034D0003296DF0131962C9120532A30D0F3CD0162
:1034E000FC01019620812032D9F3F0939004E093FF
:1034F0008F04DACFFC0131968291803231F08A322A
:1035000021F0A12FB02F9D9102C01082F5CFFD01B7
:10351000808111968032D9F380538A3020F0E1EC1B
:10352000F6E10C94D03300E010E04AE0409F9001B7
:10353000419F300D11248901005311098191080F19
:10354000111D87FD1A95808180538A3078F37F01A1
:103550003196D7018C918032D1F3F0928E04E092B3
:103560008D0421E030E030931A15209319159D3415
:1035700011F40C94BB23943511F40C949D339734BF
:1035800011F00C94C2330C31110509F47CC580F4A0
:103590000430110538F48091AC020230110508F4B2
:1035A0004DC03DC10430110509F42FC50C94C7333B
:1035B0000A35110511F40C940723B0F50D311105EE
:1035C00009F4BDC70E31110511F00C94C7330E94E8
:1035D000D04F20E030E040E651E460911C0570914E
:1035E0001D0580911E0590911F050E9489ED4B01DC
:1035F0005C0120E030E044E352E4609118057091F2
:10360000190580911A0590911B050E948AEDEE2400
:10361000E394F12C01E0A50194010E948F546B0109
:103620007C01E3E6F2E08FC70B35110509F4F3C71F
:103630000C35110509F4F4C70C94C733882311F431
:103640000C94C7330E94224D86E699E00E94B6CDC5
:103650000E94AC4F8091131583FD90C08090720939
:1036600090907309A0907409B09075092091240579
:10367000309125054091260550912705C501B401DB
:103680000E9489ED6B017C0120E030E0A9010E94DD
:1036900042E9882309F472C080910E15811134C06B
:1036A00020919B0230919C0240919D0250919E027C
:1036B00060917E0970917F098091800990918109C4
:1036C0000E9442E987FF20C0809224059092250540
:1036D000A0922605B0922705E1ECF6E184918F01D6
:1036E0000F5F1F4F882321F00E94EF4FF801F6CFA4
:1036F000E2E1F2E084918F010F5F1F4F882321F0F8
:103700000E94EF4FF801F6CFC701B6010E94CEEE3E
:1037100097FF07C090958095709561957F4F8F4F6B
:103720009F4F613971408105910544F18091720983
:1037300090917309A0917409B09175098093240543
:1037400090932505A0932605B0932705E1ECF6E1BB
:1037500084918F010F5F1F4F882321F00E94EF4F4C
:10376000F801F6CFE3EFF1E084918F010F5F1F4F77
:10377000882321F00E94EF4FF801F6CF20916609CF
:103780003091670940916809509169096091180565
:103790007091190580911A0590911B050E9442E9CC
:1037A00081111DC020916A0930916B0940916C090B
:1037B00050916D0960911C0570911D0580911E0549
:1037C00090911F050E9442E9811109C06091000299
:1037D0007091010280910202909103021AC06091DF
:1037E0005C0270915D02072E000C880B990B0E9401
:1037F00048E920910002309101024091020250916B
:1038000003020E94A7E92AE037ED43E25CE30E944D
:10381000A7E90E941F4C0E94154C0C94C7338823C3
:1038200011F40C94C7330E94224D89E40E949F4CEE
:10383000882329F00E94F94C6B017C0103C0C12C44
:10384000D12C76018AE40E949F4C882349F00E9483
:10385000F94C27966CAF7DAF8EAF9FAF279706C010
:1038600027961CAE1DAE1EAE1FAE2797A701960170
:10387000C701B6010E94A7E94B015C0127962CAD58
:103880003DAD4EAD5FAD2797CA01B9010E94A7E9D2
:103890009B01AC01C501B4010E948AED0E94F5EFC5
:1038A000E3966CAF7DAF8EAF9FAFE3972091180585
:1038B0003091190540911A0550911B052B962CAF9C
:1038C0003DAF4EAF5FAF2B97A70196012B966CAD26
:1038D0007DAD8EAD9FAD2B970E948AED6B966CAF40
:1038E0007DAF8EAF9FAF6B9780911C0590911D05AA
:1038F000A0911E05B0911F0567968CAF9DAFAEAF2E
:10390000BFAF679727962CAD3DAD4EAD5FAD279706
:10391000BC01CD010E948AED6F966CAF7DAF8EAF7A
:103920009FAF6F972091200530912105409122058E
:1039300050912305A3962CAF3DAF4EAF5FAFA39739
:1039400060916E0970916F09809170099091710971
:103950000E9489ED63966CAF7DAF8EAF9FAF63978A
:103960008091720990917309A0917409B0917509C1
:10397000E7968CAF9DAFAEAFBFAFE7972091240520
:10398000309125054091260550912705A7962CAF2B
:103990003DAF4EAF5FAFA797D701C601B058239692
:1039A0008CAF9DAFAEAFBFAF239727962CAD3DAD8B
:1039B0004EAD5FAD279750582F962CAF3DAF4EAF11
:1039C0005FAF2F97C0906609D0906709E0906809B3
:1039D000F0906909AB96CCAEDDAEEEAEFFAEAB9724
:1039E0006B962CAD3DAD4EAD5FAD6B97C701B6018B
:1039F0000E9489ED6B017C0120916A0930916B096D
:103A000040916C0950916D09AF962CAF3DAF4EAF10
:103A10005FAFAF976F962CAD3DAD4EAD5FAD6F977D
:103A2000AF966CAD7DAD8EAD9FADAF970E9489ED29
:103A30004B015C01A701960123966CAD7DAD8EAD67
:103A40009FAD23970E94A7E92B013C01A50194019A
:103A50002F966CAD7DAD8EAD9FAD2F970E94A7E9DF
:103A60009B01AC01C301B2010E948AED2B013C0114
:103A7000A501940123966CAD7DAD8EAD9FAD2397CE
:103A80000E94A7E94B015C01A70196012F966CAD3E
:103A90007DAD8EAD9FAD2F970E94A7E99B01AC0134
:103AA000C501B4010E9489EDA30192010E94FDEDC0
:103AB0006B017C0120E030E0A9010E9442E987FF10
:103AC0000AC02BED3FE049EC50E4C701B6010E946B
:103AD0008AED6B017C010230110551F42BED3FE0C2
:103AE00049EC50E4C701B6010E9489ED6B017C01ED
:103AF00020E030E0A901C701B6010E9442E981112E
:103B00002AC0AB962CAD3DAD4EAD5FADAB972B96BD
:103B10006CAD7DAD8EAD9FAD2B970E9442E98111BA
:103B20001AC0AF962CAD3DAD4EAD5FADAF97679669
:103B30006CAD7DAD8EAD9FAD67970E9442E981115E
:103B40000AC02BED3FE049EC50E4C701B6010E94EA
:103B50008AED6B017C01E3962CAD3DAD4EAD5FADC2
:103B6000E397C701B6010E94A7E99B01AC010E943F
:103B7000A7E94B015C0163962CAD3DAD4EAD5FAD49
:103B80006397CA01B9010E94A7E99B01AC01C50175
:103B9000B4010E948AED0E94F5EF4B015C012FE613
:103BA00032E143E85AE30E9442E987FD2AC2C50197
:103BB000B4010E94FFEE0E94D3EE1B01672B19F4A3
:103BC00022242394312CB10180E090E00E9446E948
:103BD0004B015C019B01AC01C701B6010E9466EE7E
:103BE0002B966CAF7DAF8EAF9FAF2B97A501940145
:103BF00063966CAD7DAD8EAD9FAD63970E9466EE12
:103C0000AF966CAF7DAF8EAF9FAFAF97A7962CAD41
:103C10003DAD4EAD5FADA797E7966CAD7DAD8EAD7A
:103C20009FADE7970E9489EDA50194010E9466EE81
:103C3000E3966CAF7DAF8EAF9FAFE3972B962CAD25
:103C40003DAD4EAD5FAD2B97CA01B9010E94A7E90A
:103C500020E030E040E05FE30E94A7E99B01AC0177
:103C600060E070E080E89FE30E9489EDAB966CAF66
:103C70007DAF8EAF9FAFAB97A396CCACDDACEEAC77
:103C8000FFACA397C986DA86EB86FC86A796CCACF8
:103C9000DDACEEACFFACA797CD86DE86EF86F88A6A
:103CA00060915C0270915D02072E000C880B990BED
:103CB0000E9448E9209100023091010240910202E5
:103CC000509103020E94A7E92AE037ED43E25CE34A
:103CD0000E94A7E9A3966CAF7DAF8EAF9FAFA3976D
:103CE0000E9412619B01AC0128533F4F4F4F5F4F21
:103CF000A7962CAF3DAF4EAF5FAFA7974FAC2196C5
:103D00005FAC219722966FAC229723967FAC2397C6
:103D100060961FAE609741E050E065965FAF4EAF92
:103D200065976596CEACDFAC6597C214D30409F4F1
:103D30003EC10E94A2D30E9412618B019C01A796F2
:103D4000CCACDDACEEACFFACA7970C191D092E096D
:103D50003F0937FD0EC09B01AC0128533F4F4F4F29
:103D60005F4FA7962CAF3DAF4EAF5FAFA7970E94B6
:103D700097CA60963FAD60973F5F60963FAF609790
:103D800039310CF04BC0AB962CAD3DAD4EAD5FADB7
:103D9000AB972F966CAD7DAD8EAD9FAD2F970E94EA
:103DA000A7E96B017C012B962CAD3DAD4EAD5FAD0F
:103DB0002B97B201C3010E94A7E9A70196010E94B7
:103DC0008AED7B018C01AB962CAD3DAD4EAD5FAD68
:103DD000AB97B201C3010E94A7E94B015C012B968E
:103DE0002CAD3DAD4EAD5FAD2B972F966CAD7DAD3F
:103DF0008EAD9FAD2F970E94A7E99B01AC01C50135
:103E0000B4010E9489ED2B013C01A701B8012F9656
:103E10004CAF5DAF6EAF7FAF2F9760C065964EAD74
:103E20005FAD6597BA0180E090E00E9446E92B966D
:103E30002CAD3DAD4EAD5FAD2B970E94A7E94B0178
:103E40005C010E9463EE6B017C01C501B4010E941C
:103E5000EBEF4B015C01A701960123966CAD7DADA4
:103E60008EAD9FAD23970E94A7E92B013C01A501D0
:103E7000940127966CAD7DAD8EAD9FAD27970E94C6
:103E8000A7E99B01AC01C301B2010E948AED2B019D
:103E90003C01A501940123966CAD7DAD8EAD9FAD27
:103EA00023970E94A7E94B015C01A7019601279681
:103EB0006CAD7DAD8EAD9FAD27970E94A7E99B01AC
:103EC000AC01C501B4010E9489ED2F966CAF7DAFA6
:103ED0008EAF9FAF2F9760961FAE60979201A301A0
:103EE0006B966CAD7DAD8EAD9FAD6B970E948AEDEC
:103EF00069837A838B839C832F962CAD3DAD4EAD29
:103F00005FAD2F976F966CAD7DAD8EAD9FAD6F970A
:103F10000E948AED6D837E838F839887AF962CAD48
:103F20003DAD4EAD5FADAF9769857A858B859C853C
:103F30000E948AED69877A878B879C87E3962CADF0
:103F40003DAD4EAD5FADE3976D857E858F859889DC
:103F50000E948AED6D877E878F87988BCE010196B0
:103F60000E94B6CDE984FA840B851C852D813E81A3
:103F70004F81588569817A818B819C81E09187048A
:103F8000EF93A3968CAC9DACAEACBFACA397DE0117
:103F90001D966D010E94B4BC6596EEADFFAD6597B0
:103FA00031966596FFAFEEAF65970F90BACEE09071
:103FB0006E09F0906F0900917009109171092091BC
:103FC0006A0930916B0940916C0950916D096091BB
:103FD0006609709167098091680990916909E0917B
:103FE0008704EF93A3968CAC9DACAEACBFACA3970B
:103FF000A2E7CA2EA9E0DA2E0E94B4BC0E94154C9A
:104000000F900E94AC4F0C94C73380E50E949F4CE8
:10401000882329F00E94EE4C6B017C0103C0C12C67
:10402000D12C760183E50E949F4C882321F00E94C9
:10403000C14D6B017C010E94FCD60E94AC4F809167
:104040001B1590911C15A0911D15B0911E15C80E41
:10405000D91EEA1EFB1E80911502811105C060E089
:104060008DE292E00E9462900E941261DC01CB011D
:104070008C199D09AE09BF09B7FD02C00C94C73366
:104080000E9497CAF1CF0E94FCD680E090E0A0E8A1
:10409000BFE38093C0099093C109A093C209B09374
:1040A000C3091092C4091092C5091092C609109252
:1040B000C7091092C8091092C9091092CA09109232
:1040C000CB091092CC091092CD091092CE09109212
:1040D000CF098093D0099093D109A093D209B093CE
:1040E000D3091092D4091092D5091092D6091092D2
:1040F000D7091092D8091092D9091092DA091092B2
:10410000DB091092DC091092DD091092DE09109291
:10411000DF098093E0099093E109A093E209B0934D
:10412000E3090E94D04F11E01093140288E50E9429
:104130009F4CA82E89E50E949F4C082F8AE50E947B
:104140009F4C982EA11005C0011105C0982F9127F2
:1041500005C0011102C090E001C0982F90930402A5
:1041600080E1E8E1F5E0A6E6B9E001900D928A95DC
:10417000E1F7911104C0A11002C00023D9F120E0A1
:1041800030E040EA50E46091B3077091B407809149
:10419000B5079091B6070E948AED2091620930918F
:1041A000630940916409509165090E948AED60930A
:1041B0006E0970936F098093700990937109209133
:1041C00020053091210540912205509123050E9440
:1041D000B0EF18167CF419821A821B821C829E0191
:1041E0002F5F3F4F4EE659E06CE175E088E195E0C6
:1041F0000E94944A80910402811106C0AA2009F409
:10420000A4C0002309F4A1C010921C0510921D0542
:1042100010921E0510921F05109218051092190594
:1042200010921A0510921B050E94494EE2EDF3E12F
:10423000149186EC93E10E944E4C2B013C018AECD8
:1042400093E10E944E4C6B017C019B01AC01C301C8
:10425000B2010E94B0EF18162CF4A3019201C7011D
:10426000B60104C0A7019601C301B2010E9466EE27
:104270009B01AC010E94A7E920E030E040E85FE349
:104280000E948AED0E94F5EF20E030E048E452E41D
:104290000E94A7E96BAF7CAF8DAF9EAFE3EDF3E17A
:1042A000B49020E030E040EC5FE3C701B6010E942B
:1042B000A7E96B017C016B2DBB0C770B880B990B6D
:1042C0000E9448E99B01AC01C701B6010E94A7E921
:1042D00069837A838B839C8320E030E040EC5FE34A
:1042E000C301B2010E94A7E96B017C01612F110F8C
:1042F000770B880B990B0E9448E99B01AC01C70121
:10430000B6010E94A7E968A379A38AA39BA39E0193
:10431000255C3F4F40E255E0BE016F5F7F4FCE010D
:1043200080960E94944A1092D70710921C05109212
:104330001D0510921E0510921F051092180510926F
:10434000190510921A0510921B0580910402811123
:1043500002C0AA2021F080E090E00E9419838091A1
:104360000402811102C0002321F081E090E00E944C
:10437000198380910402811103C091103AC0D1C009
:104380000E94494E80E090E0ACE5B2E4809366097B
:1043900090936709A0936809B093690980E090E061
:1043A000A4EEB2E480936A0990936B09A0936C0920
:1043B000B0936D098091200590912105A09122056F
:1043C000B091230580936E0990936F09A0937009B3
:1043D000B093710919821A821B821C829E012F5F81
:1043E0003F4F40E255E06AE679E086E699E00E94B8
:1043F000944A80E00E948F5D81110C94C733209114
:10440000AB073091AC074091AD075091AE0760917A
:1044100018057091190580911A0590911B050E944D
:1044200089ED20915A0930915B0940915C095091C6
:104430005D090E9489ED6B017C0180901C059090C4
:104440001D05A0901E05B0901F054090AF0750902D
:10445000B0076090B1077090B20720915E0930916B
:104460005F09409160095091610923962CAF3DAFDF
:104470004EAF5FAF239720E030E044E352EC0E9460
:10448000B0EF87FD31C020E030E04BE153E4C701DD
:10449000B6010E9442E918163CF1A3019201C50140
:1044A000B4010E9489ED23962CAD3DAD4EAD5FADBC
:1044B00023970E9489ED6B017C0120E030E040E60B
:1044C00051E40E94B0EF87FD0FC020E030E046E5E8
:1044D00053E4C701B6010E9442E918162CF082E0AD
:1044E00090E00E9419831DC060E088E492E00E9481
:1044F0006290E1ECF6E184918F010F5F1F4F8823FA
:1045000021F00E94EF4FF801F6CFE6E3F2E084914C
:104510008F010F5F1F4F882321F00E94EF4FF8019A
:10452000F6CF0E94494E80914E078093140210925C
:10453000D7070E94B74F0E94BCB00C94C7330E94AB
:104540007D350C94C73384918F010F5F1F4F8823F3
:1045500021F00E94EF4FF801F6CF20E030E044E375
:1045600052E4609118057091190580911A05909197
:104570001B050E948AED27E137EB41ED58E30E94CD
:104580008AED42E00E941E54EEE5F2E084918F0134
:104590000F5F1F4F882321F00E94EF4FF801F6CFE5
:1045A00020E030E040E651E460911C0570911D056B
:1045B00080911E0590911F050E9489ED27E137EB40
:1045C00041ED58E30E948AED42E00E941E54E9E565
:1045D000F2E084918F010F5F1F4F882321F00E942A
:1045E000EF4FF801F6CF27E137EB41ED58E3C70174
:1045F000B6010E948AED42E00E941E548AE00E94A9
:10460000EF4F0E94B74F0E94BCB00C94C73310927A
:104610008C040C94C73381E080938C040C94C833D1
:1046200085E40E949F4CB82E811102C00E94FCD6E6
:1046300060EB862E62E0962E78E1C72E75E0D72ECD
:10464000EAE5EE2EE9E0FE2E00E010E0A12CD40118
:104650008D914D010E949F4C8823F1F1F60120813C
:10466000318142815381E8962FAFE897E9963FAFB9
:10467000E997EA964FAFEA97EB965FAFEB970E9408
:10468000F94CD6016D937D938D939C931397E89687
:104690002FADE897E9963FADE997EA964FADEA97D7
:1046A000EB965FADEB9703301105B1F00E9489EDF9
:1046B0009B01AC01F70160817181828193810E942D
:1046C0008AEDD7016D937D938D939C931397C801C9
:1046D0000E94544CAA24A3940F5F1F4FB4E0CB0E4A
:1046E000D11CE4E0EE0EF11C0430110509F0AFCF4F
:1046F000AA2021F00E94494E0C94C733BB2011F42C
:104700000C94C7332091340530913505409136051E
:1047100050913705609124057091250580912605FB
:10472000909127050E94A7E90E94BBEF6093040ABD
:104730007093050A8093060A9093070A8FB7F8943E
:104740004091040A5091050A6091060A7091070A87
:104750004093140550931505609316057093170543
:104760008FBF1092F4091092F5091092F609109279
:10477000F7090C94C7330F36110509F478C508F012
:10478000CFC00B34110509F4E7C408F068C0083144
:10479000110509F49CC208F03EC00231110511F464
:1047A0000C94C42DD8F40230110508F4B7C10131BE
:1047B000110511F00C94C73360E081EA92E00E9489
:1047C00062905F988A989FB7F894809108018E7FD5
:1047D000809308019FBF12980C94C73305311105CF
:1047E00009F46BC240F40431110511F00C94C73385
:1047F000E9EBF2E01FC20631110509F462C207318C
:10480000110511F00C94C73340E061E0C7010E942C
:1048100020580C94C7330C31110509F4ADC250F483
:104820000A31110509F45EC208F06AC21092530AF7
:104830000C94C7330F31110509F40DC430F40E3157
:10484000110509F4A0C20C94C7330032110509F414
:10485000B2C30A32110509F43DC40C94C7330535BF
:10486000110511F40C94ED2D30F50035110511F4FE
:104870000C94942D60F40D34110509F48BC408F4E4
:104880006FC40E34110509F489C40C94C733023582
:10489000110511F40C94BD2D10F40C94A12D0335C9
:1048A000110511F40C94C02D0435110511F40C946C
:1048B000C42D0C94C7330A36110511F40C94602DE5
:1048C000F0F40836110509F479C408F089C50C35EF
:1048D000110511F00C94C733B0EB8B2EB2E09B2E78
:1048E00008E215E083E3A82E8DE0B82EA4E7BFE030
:1048F0002196BFAFAEAF2197312C0C94FE2D0C3614
:10490000110509F420C510F40C94842D0D36110501
:1049100009F483C50E36110509F496C40C94C73307
:10492000033D110511F40C941E3108F07DC00C38C4
:10493000110509F43CC590F50337110511F40C94E9
:104940007F2E58F40137110509F405C510F00C94B9
:10495000822E82ED93E00E9429CA0737110511F4D7
:104960000C948B2E58F40537110511F00C94C733B5
:1049700060E0C7010E9477900C94C7330837110597
:1049800011F40C94852E0937110511F00C94C733DE
:104990001092140210924E070C94C733093C110573
:1049A00011F40C94E72F80F40E3B110509F407C7AE
:1049B000083C110511F40C949E2F0139110511F0DA
:1049C0000C94C7330C94F12E0C3C110511F40C948B
:1049D0001F3080F40B3C110511F00C94C73363E3D6
:1049E000E62E6DE0F62E00EB12E074E0D72ED00E2E
:1049F0000C940F300D3C110511F40C9489300E3CD1
:104A0000110511F00C94C73330EBA32E32E0B32E16
:104A100048E1C42E45E0D42E5BEAE52E57E0F52EA2
:104A200000E010E00C94E5300139F1E01F0711F4CB
:104A30000C945F3280F50C3231E0130711F40C94C2
:104A4000303288F40D3D110511F40C94C731023E4B
:104A5000110511F40C94E0310C3D110511F00C948A
:104A6000C7330C94BA310E3251E0150711F40C948F
:104A7000593210F40C9456320F3291E0190711F4A8
:104A80000C945C320039114011F00C94C7330E9431
:104A9000FCD60C94C733063FB1E01B0711F40C940D
:104AA000783310F50A39F1E01F0709F450C450F4C7
:104AB0000239114011F00C94C73380E00E94CC4BB6
:104AC0000C94C7330C3A41E0140711F40C94633290
:104AD000053F114011F00C94C7330E94B76D80E080
:104AE0000E94366A0C94C733033583E0180711F42B
:104AF0000C948A3338F4073F114011F40C947B3343
:104B00000C94C733003AB3E01B0709F49AC2073E7E
:104B1000134011F40C948D330C94C73380E50E943C
:104B20009F4C882359F00E94EE4C4B015C0111E030
:104B3000672B682B692B31F410E004C010E0812C46
:104B4000912C540183E50E949F4C882399F00E9488
:104B5000C14D4B015C0111110FC0672B682B692BF4
:104B600059F4D7018C91882339F061E0C7010E9484
:104B7000779007C01123A9F360E080E992E00E94DA
:104B8000629081E080935407109253070E94FCD6F4
:104B90000E94AC4F81149104A104B10439F18091B9
:104BA0001B1590911C15A0911D15B0911E15880E16
:104BB000991EAA1EBB1E83E090E090931A15809365
:104BC00019150E941261DC01CB0188199909AA0903
:104BD000BB09B7FD02C00C9401348091F10C82FF37
:104BE00002C00C9401340E9497CAEBCF83E090E09E
:104BF00090931A15809319158091F10C82FD03C0D2
:104C00000E9497CAF9CF81E090E090931A158093A3
:104C100019158091530A60E0882331F08BE692E009
:104C20000E9462900C94C7338AE792E00E946290DF
:104C30000C94C73384918F010F5F1F4F882321F09D
:104C40000E94EF4FF801F6CF1092D90C1092D80CB9
:104C500040E050E0BA0184E89AE00E94487B8BE192
:104C6000E4E8FAE0DE01159601900D928A95E1F7ED
:104C70008091820A9091830A9C838B8386E593E0DE
:104C80009A83898340E050E0BE016F5F7F4F81E2ED
:104C900094E00E94E788CE0101960E9410CAEAEAD9
:104CA000F2E084918F010F5F1F4F882311F40C9461
:104CB000C7330E94EF4FF801F4CF0E94535B0C946E
:104CC000C7331092530A1092540A0C94C733809140
:104CD000540A882319F081E08093530A0E944F5EA2
:104CE0000C94C7338091540A882311F40C94C73371
:104CF00083E50E949F4C81110C940D340C94C733B2
:104D00008091540A882351F1EAECF2E084918F01FA
:104D10000F5F1F4F882321F00E94EF4FF801F6CF5D
:104D20006091CF0C7091D00C8091D10C9091D20CED
:104D30004AE00E9452508FE20E94EF4F6091CB0CEC
:104D40007091CC0C8091CD0C9091CE0C4AE00E94D9
:104D500052508AE00E94EF4F0C94C733ECEDF2E022
:104D600084918F010F5F1F4F882311F40C94C73378
:104D70000E94EF4FF801F4CF40E060E0C7010E94CD
:104D800020580C94C7338091540A882311F40C9452
:104D9000C7338EE19CE00E9499718EE19CE00E94F5
:104DA000817C1092520A1092510AE0908D04F0908A
:104DB0008E048091540A882311F40C94C7330E9406
:104DC00015581D8218861C821B8286E593E09A8303
:104DD000898380E89AE09093A00A80939F0AF70164
:104DE00080818F3209F068C06FE270E0C7010E94D5
:104DF000DFF08C010F5F1F4F9E012F5F3F4F490176
:104E00000115110509F45EC06FE270E0C8010E944F
:104E1000DFF06C01009709F456C00817190708F075
:104E200052C05C01A01AB10AA501B801CE0180965A
:104E30000E9408F1E0E2F0E0EC0FFD1FEA0DFB1D1F
:104E400010828E01005E1F4FD8018D918D01882345
:104E500019F00E94EF4FF8CF8AE00E94EF4F609167
:104E60009F0A7091A00A6115710511F06C5F7F4F68
:104E700021E0AE01405E5F4FCE0105960E94288280
:104E8000811112C0BE01605E7F4F83E193E00E94FA
:104E90002C508EE20E94EF4F8AE00E94EF4FC40137
:104EA0000E9410CA0C94C7339092A00A80929F0A65
:104EB00086010F5F1F4FA4CF81EA9AE09093A00A6A
:104EC00080939F0A870160919F0A7091A00A6115E3
:104ED000710511F06C5F7F4F18A21BA222E0A801A0
:104EE000CE0180960E942882811102C0F12C1EC042
:104EF000CE0180960E9455888823C1F36CA57DA5BC
:104F00008EA59FA541E00E94876F882379F3E8A9C9
:104F1000B0E2EB9FF0011124E85CFA4F309731F3D7
:104F200085EE80831BA20E94476FF82ECE018096EB
:104F30000E94834FFF2009F1EDEEF2E084917F01A2
:104F40002FEFE21AF20A882321F00E94EF4FF701B7
:104F5000F5CFD8018D918D01882319F00E94EF4F74
:104F6000F8CF8AE00E94EF4F1092CF0C1092D00C35
:104F70001092D10C1092D20C18C0EBEFF2E0849199
:104F80007F01BFEFEB1AFB0A882321F00E94EF4F4D
:104F9000F701F5CFF80181918F01882319F00E9464
:104FA000EF4FF8CF8EE20E94EF4FCE0101960E94A4
:104FB00010CA0C94C7338091530A81110E94FCD609
:104FC00000918D0410918E0461E270E0C8010E948E
:104FD000DFF0009719F08C010F5F1F4F80E50E94F2
:104FE0009F4C882349F0FF24F3948091740490919E
:104FF00075048017910708F0F12C8091540A8823DA
:1050000011F40C94C7334F2D61E0C8010E94205861
:1050100083E50E949F4C882349F08091740490910D
:1050200075048017910710F40C941E348091540A73
:10503000882319F081E08093530AF1100C94C73350
:105040004DCE81E08093520A40E060E0C7010E94AB
:1050500020580C94C73388E29AE00E948ED668A349
:1050600079A38AA39BA3BE016F5F7F4FCE01809679
:105070000E94C34E60E0CE0101960E947790E1EC61
:10508000F6E184918F010F5F1F4F882321F00E946A
:10509000EF4FF801F6CFE7E2F3E084918F010F5F65
:1050A0001F4F811104C08E010F5F1F4F04C00E946B
:1050B000EF4FF801F2CFD8018D918D01882319F0BF
:1050C0000E94EF4FF8CF8AE00E94EF4F0E94894F75
:1050D0000C94C73383E50E949F4C882311F40C94F1
:1050E000C7330E94E14C7C018F3F910519F010F00D
:1050F0000C94C73380E50E949F4C882339F00E94AE
:10510000E14C8C0197FF04C00C94C7330DE010E014
:10511000E4EBF2E0819191910817190711F40C94D6
:10512000C73323E0E430F207A9F761E0802F0E9443
:105130000C7B6E2D802F0E94DD7AB701802F0E949C
:1051400011600930110511F00C94C733F092FF146F
:10515000E092FE140C94C7330E944F5E0C94C73348
:105160008091280A9091290A019711F00C94C73375
:1051700082E090E09093290A8093280A0E941261AD
:105180006093320A7093330A8093340A9093350AFD
:105190000C94C7330E947D850C94C73383E50E942D
:1051A0009F4C882311F40C9430340E94E14C8E34CF
:1051B000910511F00C9430340C942E3588E690E073
:1051C0000E94E65381110C94C7338091131583FF1D
:1051D00002C00C94C73383E50E949F4C882311F4CE
:1051E0000C94C7330E94F94C0E94CEEE70937D0957
:1051F00060937C090E942D850E94F94C20E030E0EC
:105200004AEA52E40E9442E918163CF00E947D8569
:1052100060E087EA93E00E9462900E94F94C20913E
:105220007E0930917F0940918009509181090E9447
:10523000B0EF181614F00C94C73360E08CE993E0DB
:105240000E9462900C94C7338EE40E949F4C882386
:1052500011F40C94C7330E943FD860937604709386
:10526000770480937804909379040C94C73383E592
:105270000E949F4C882319F00E94B24C01C080E02C
:1052800080931315E1ECF6E184918F010F5F1F4FBE
:10529000882321F00E94EF4FF801F6CFEBECF3E00A
:1052A00084918F010F5F1F4F882321F00E94EF4FE1
:1052B000F801F6CF809113158823A1F15DEBC52E7F
:1052C00053E0D52EE12CF12C20E08091131590E0D5
:1052D0000E2C02C0959587950A94E2F780FF17C0BF
:1052E000BB24B394B20E222319F08CE20E94EF4F3C
:1052F000F60125913491F901849189010F5F1F4FC7
:10530000882321F00E94EF4F9801F5CF2B2DFFEF5E
:10531000EF1AFF0A32E0C30ED11C45E0E416F10497
:10532000A1F60CC0E7ECF3E084918F010F5F1F4FF3
:10533000882321F00E94EF4FF801F6CF8AE00E9407
:10534000EF4F0C94C733109209020C94C7330E949C
:1053500018AF0C94C73383E50E949F4C882369F0F3
:105360000E94B24C8093A3028D3310F40C94C73387
:105370008CE38093A3020C94C733E1ECF6E18491B3
:105380008F010F5F1F4F882321F00E94EF4FF8011C
:10539000F6CF4091A30250E060E070E08BED93E027
:1053A0000E94B8508AE00E94EF4F0C94C73380915E
:1053B000131583FF02C00C94C73383E50E949F4CF2
:1053C000882311F40C94C7330E94F94C0E94CEEE4E
:1053D00070930115609300150E94FFD10C94C733A0
:1053E00089E690E00E94E653811111C0E2EEF3E0FD
:1053F00084918F010F5F1F4F882321F00E94EF4F90
:10540000F801F6CF0E947BB18AE00E94EF4F109224
:105410001A15109219150C9463358DE690E00E94D0
:10542000E65381110C94C7338091131583FF02C09A
:105430000C94C73383E50E949F4C2C968FAF2C971A
:10544000811105C082E50E949F4C8823C1F10E9412
:10545000F94C0E94CEEE70937D0960937C090E9406
:105460002D850E94F94C20E030E04AEA52E40E9487
:1054700042E9181614F40C9433350E947D8560E0DF
:1054800085E094E00E94629060917C0970917D09B2
:10549000072E000C880B990B0E9448E920917E0989
:1054A00030917F0940918009509181090E94B0EFAD
:1054B00018162CF460E08AEF93E00E94629086E474
:1054C0000E949F4C8093FD14882351F00E94F94C58
:1054D00060938F0270939002809391029093920256
:1054E00083E50E949F4C882351F00E94F94C609301
:1054F0009702709398028093990290939A0282E4A3
:105500000E949F4C882351F00E94F94C60939302B3
:1055100070939402809395029093960281E0809319
:10552000090210921A151092191527961CAE1DAE7D
:105530001EAE1FAE27972B961CAE1DAE1EAE1FAE25
:105540002B971FAE60961FAE60975CE364965FAFCB
:1055500064978CE168968FAF689796E46C969FAFDE
:105560006C97C12CD12C30E8E32E4FEBF42E812C1C
:10557000912C540160917C0970917D09072E000CDB
:10558000880B990B0E9448E9162F072F782E692E59
:10559000262F372F482F592FB601C7010E9442E905
:1055A000882301F120917E0930917F094091800983
:1055B00050918109612F702F872D962D0E9442E90D
:1055C000881F8827881F8FAF2C96CFAC2C97CC20B4
:1055D00069F0882359F060E085EE93E00E946290C4
:1055E0000C94C7331C2D0D2D7E2C6F2C0E94126144
:1055F0006B017C01DC01CB012B962CAD3DAD4EAD9A
:105600005FAD2B97821B930BA40BB50BB7FD47C067
:10561000D701C60188519C4FAF4FBF4F2B968CAF1F
:105620009DAFAEAFBFAF2B970E947BB1E6EFF3E02B
:1056300084912F019FEF491A590A882321F00E9473
:10564000EF4FF201F5CF81149104A104B104D1F020
:10565000D501C401805F984DAF4FBF4FBC01CD0154
:105660006C197D098E099F0928EE33E040E050E077
:105670000E944EEDCA01B9010E94D3508AE00E94F7
:10568000EF4F0DC0E3EFF3E084912F01AFEF4A1A23
:105690005A0A882321F00E94EF4FF201F5CF0E94B1
:1056A00097CA0E94AC4F20907E0930907F094090AD
:1056B0008009509081099101A201612F702F872DDF
:1056C000962D0E9489ED9F7781149104A104B10465
:1056D00049F420E030E040E85FE30E9442E987FFC0
:1056E0000BC008C020E030E040E450E40E94B0EF7E
:1056F000181614F446015701BFADBB2309F443C08B
:1057000027962CAD3DAD4EAD5FAD279721153105E8
:105710004105510541F0D701C601821B930BA40B33
:10572000B50BB7FD30C09101A20160966FAD6097D7
:1057300064967FAD649768968FAD68976C969FADC1
:105740006C970E9489ED20E030E040EC5FE30E941E
:1057500042E987FD40CFD701C601805A9541AF4F3E
:10576000BF4F27968CAF9DAFAEAFBFAF2797609668
:105770002FAE609764963FAE649768964FAE689779
:105780006C965FAE6C9780910902882309F423CF51
:1057900081149104A104B10429F4C12ED02EE72C68
:1057A000F62CE8CE90E1C91A97E2D90AE108F1088F
:1057B000C818D908EA08FB08F7FE0DCFEECF809194
:1057C000131583FF01C0E3C760E08CE294E00E9400
:1057D000629083E50E949F4C2C968FAF2C9781118D
:1057E00005C082E50E949F4C8823B1F00E94F94CCD
:1057F0000E94CEEE70930115609300150E94FFD1B8
:105800000E94F94C20E030E040EA50E40E94B0EF02
:10581000181614F40E944F5E81E0809309021092E2
:105820001A15109219158091870480937A0427968F
:105830001CAE1DAE1EAE1FAE27972B961CAE1DAE26
:105840001EAE1FAE2B971FAE60961FAE6097ACE3E7
:105850006496AFAF6497BCE16896BFAF6897E6E423
:105860006C96EFAF6C97C12CD12C90E8E92E2FEB02
:10587000F22E812C912C540160910015709101152C
:10588000072E000C880B990B0E9448E9162F072F52
:10589000782E692E262F372F482F592FB601C70192
:1058A0000E9442E98823F9F020914F073091500778
:1058B0004091510750915207612F702F872D962DDF
:1058C0000E9442E9881F8827881F8FAF2C96CFAC93
:1058D0002C97CC2061F0882351F060E08BE194E0BC
:1058E0000E94629054C71C2D0D2D7E2C6F2C0E949F
:1058F00012616B017C01DC01CB012B962CAD3DAD1F
:105900004EAD5FAD2B97821B930BA40BB50BB7FD70
:1059100047C0D701C60188519C4FAF4FBF4F2B9650
:105920008CAF9DAFAEAFBFAF2B970E947BB1E8E2CB
:10593000F4E084912F019FEF491A590A882321F03E
:105940000E94EF4FF201F5CF81149104A104B1043C
:10595000D1F0D501C401805F984DAF4FBF4FBC015E
:10596000CD016C197D098E099F0928EE33E040E0D6
:1059700050E00E944EEDCA01B9010E94D3508AE066
:105980000E94EF4F0DC0E5E2F4E084912F01AFEFEC
:105990004A1A5A0A882321F00E94EF4FF201F5CFEC
:1059A0000E9497CA0E94AC4F20904F07309050073A
:1059B00040905107509052079101A201612F702F22
:1059C000872D962D0E9489ED9F7781149104A10463
:1059D000B10449F420E030E040E85FE30E9442E98E
:1059E00087FF0BC008C020E030E040E450E40E9494
:1059F000B0EF181614F446015701BFADBB2309F4EC
:105A000043C027962CAD3DAD4EAD5FAD2797211518
:105A100031054105510541F0D701C601821B930BA9
:105A2000A40BB50BB7FD30C09101A20160966FAD1C
:105A3000609764967FAD649768968FAD68976C9613
:105A40009FAD6C970E9489ED20E030E040EC5FE371
:105A50000E9442E987FD41CFD701C601805A954196
:105A6000AF4FBF4F27968CAF9DAFAEAFBFAF27975D
:105A700060962FAE609764963FAE649768964FAE7F
:105A800068976C965FAE6C9780910902882309F441
:105A900024CF81149104A104B10429F4C12ED02E85
:105AA000E72CF62CE9CE90E1C91A97E2D90AE10871
:105AB000F108C818D908EA08FB08F7FE0ECFEECFA8
:105AC00083E50E949F4C882321F00E9432D88C01EC
:105AD00002C00FEF10E080E50E949F4C882319F070
