:100000000C94380E0C94690E0C94690E0C94690EC5
:100010000C94690E0C94690E0C94690E0C94690E84
:100020000C94690E0C94690E0C94690E0C94690E74
:100030000C94690E0C94690E0C94690E0C94690E64
:100040000C94690E0C94AC680C94690E0C94690EB7
:100050000C94690E0C94690E0C9497760C943E6483
:100060000C94690E0C94D5500C94690E0C94690E86
:100070000C94690E0C94690E0C94690E0C94690E24
:100080000C94690E0C94690E0C94690E0C94690E14
:100090000C94690E0C94690E0C94690E0C94690E04
:1000A0000C94690E0C94690E0C94690E0C94690EF4
:1000B0000C94690E0C94690E0C94690E0C94690EE4
:1000C0000C94690E0C94690E0C94690E0C94690ED4
:1000D0000C94690E0C94690E0C94690E0C94690EC4
:1000E0000C94690EBB62BE62AD62B162B762F5622A
:1000F000C262C662CC62D062D462DA62DE62E2625E
:10010000F562E862EC62F0625A635F6364636E6397
:100110007863F16382638A6392639C63A663B063CE
:10012000BF63C963F163D363DD63E763084AD73B09
:100130003BCE016E84BCBFFDC12F3D6C74319ABDB6
:1001400056833DDA3D00C77F11BED9E4BB4C3E91DA
:100150006BAAAABE000000803F05A84CCDB2D44EC9
:10016000B93836A9020C50B9918688083CA6AAAACB
:100170002ABE000000803F004E414E494E4954596E
:10018000494E46CDCCCC3D0AD7233C17B7D1387762
:10019000CC2B329595E6241FB14F0A000020410078
:1001A00000C84200401C4620BCBE4CCA1B0E5AAEC2
:1001B000C59D74434F4D4D554E49434154494F4E93
:1001C0000044525952554E004552524F5253004925
:1001D0004E464F004543484F0047322F4733206279
:1001E000616420706172616D65746572730A0020CC
:1001F0005A3A200020593A200042656420583A209B
:10020000002569730025696D2025697300256968DB
:100210002025696D2025697300256964202569689A
:100220002025696D20256973002569792025696479
:10023000202569682025696D202569730050726941
:100240006E742074696D653A200050726F74656336
:100250007465642050696E0A00D401CF01C801C1E1
:1002600001B3016F66660044454255473A004B4969
:100270004C4C45442E20004D3131332053006F6BE0
:100280000020573A0020573A0050533A310A0050A4
:10029000533A300A00454D455247454E43595F5049
:1002A000415253455200434153455F4C49474854DE
:1002B0005F4252494748544E45535300544F4747B5
:1002C0004C455F4C494748545300534F465457419F
:1002D00052455F504F574552004255494C445F507C
:1002E000455243454E54004C4556454C494E475F98
:1002F00044415441005A5F50524F424500415554C9
:100300004F4C4556454C005052494E545F4A4F425F
:100310000050524F4752455353004155544F524598
:10032000504F52545F54454D5000564F4C554D451B
:100330005452494300454550524F4D005345524990
:10034000414C5F584F4E5F584F4646004649524D0C
:10035000574152455F4E414D453A4D61726C696E51
:1003600020312E312E382028476974687562292083
:10037000534F555243455F434F44455F55524C3AA6
:1003800068747470733A2F2F6769746875622E638E
:100390006F6D2F4D61726C696E4669726D77617217
:1003A000652F4D61726C696E2050524F544F434F10
:1003B0004C5F56455253494F4E3A312E30204D41F5
:1003C0004348494E455F545950453A4D6164203386
:1003D00044205072696E74657220455854525544D9
:1003E00045525F434F554E543A3120555549443A92
:1003F00063656465326132662D343161322D343784
:1004000034382D396231322D6335356336326633F7
:10041000363766660A002F2F20007A5F6D696E3AC4
:100420002000795F6D696E3A2000785F6D696E3AE1
:1004300020005265706F7274696E6720656E647318
:10044000746F70207374617475730A0053657474EB
:10045000696E672054726176656C20416363656CD8
:1004600065726174696F6E3A200053657474696EC9
:1004700067205265747261637420416363656C65C3
:10048000726174696F6E3A200053657474696E67A7
:10049000205072696E7420416363656C657261748B
:1004A000696F6E3A200053657474696E67205072EC
:1004B000696E7420616E642054726176656C2041AF
:1004C0006363656C65726174696F6E3A2000205ACF
:1004D00000205900580020204D61783A2000205A11
:1004E00000205900580020204D696E3A20004F6EC0
:1004F00020004F666600536F667420656E647374E7
:100500006F70733A2000000136372603FF3C3D38F8
:100510000EFF2E303E12FFFF0C0809FFFFFF1A1CD2
:1005200018FFFF08440AFF43FFFFFFFFFFFF20649F
:100530003A0020693A0020703A0020643A002069AD
:100540003A0020703A0043290A0061626C65642019
:10055000286D696E2074656D702000436F6C642097
:1005600065787472756465732061726520004B64F0
:10057000200023646566696E652020444546415528
:100580004C545F004B69200023646566696E6520EA
:100590002044454641554C545F004B702000236475
:1005A0006566696E65202044454641554C545F00A0
:1005B000504944204175746F74756E652066696E8C
:1005C0006973686564212050757420746865206CB7
:1005D000617374204B702C204B6920616E64204B3A
:1005E0006420636F6E7374616E74732066726F6DD6
:1005F0002062656C6F7720696E746F20436F6E6642
:10060000696775726174696F6E2E680A005049449B
:10061000204175746F74756E65206661696C6564E0
:10062000212074696D656F75740A00544845524DF8
:10063000414C2052554E4157415900546865726DE6
:10064000616C2052756E61776179004865617469EB
:100650006E67206661696C65640048656174696EE7
:1006600067206661696C6564005049442041757477
:100670006F74756E65206661696C656421205465D0
:100680006D706572617475726520746F6F20686932
:1006900067680A00204B643A2000204B693A20002A
:1006A000204B703A20000A20436C61737369632009
:1006B000504944200A002054753A2000204B753AD6
:1006C0002000206D61783A2000206D696E3A20008C
:1006D00020643A200020626961733A200042656418
:1006E000204C6576656C696E6720004661696C65B3
:1006F0006420746F20656E61626C652042656420C1
:100700004C6576656C696E670A00426564204C65CD
:1007100076656C20436F7272656374696F6E204DED
:1007200061747269783A00546F6F20666172206656
:10073000726F6D207265666572656E636520706F9D
:10074000696E740A00454550524F4D2064697361CB
:10075000626C65640A003A2000207A5F6D696E3A27
:1007600020202D3230207A5F6D61783A202032309F
:100770000A0050726F6265205A204F666673657476
:10078000004E6F2063617365206C696768740A00AE
:100790004163746976652045787472756465723A50
:1007A0002000556E6B6E6F776E20636F6D6D616E9E
:1007B000643A2022002066697273740A005A005954
:1007C000005800486F6D6520006563686F3A00450A
:1007D00072726F723A000000200023002600290088
:1007E0002C002F0032000001000003010601090166
:1007F00000002200250028002B002E0031003400CC
:1008000002010000050108010B01050505050705AA
:1008100008080808020202020A0A0808040404047C
:1008200001010101010101010303030303030303A8
:10083000040707070C0C0C0C0C0C0C0C0202020237
:1008400006060606060606060B0B0B0B0B0B0B0B20
:1008500001021020200808102040102040800201D2
:1008600002010804020101020408102040808040B7
:1008700020100804020180040201804020100804B6
:100880000201080402010102040810204080010254
:100890000408102040800A0A426564204C65766591
:1008A0006C20436F7272656374696F6E204D617462
:1008B0007269783A00202B000A436F727265637484
:1008C00065642042656420486569676874207673B2
:1008D0002E2042656420546F706F6C6F67793A0AFE
:1008E00000202B000A42656420486569676874200F
:1008F000546F706F6772617068793A0A2020202BFC
:100900002D2D2D204241434B202D2D2B0A20202020
:100910007C20202020202020202020207C0A204C09
:10092000207C20202020282B29202020207C2052C1
:100930000A2045207C20202020202020202020204C
:100940007C20490A2046207C20282D29204E202862
:100950002B29207C20470A2054207C202020202086
:100960002020202020207C20480A2020207C2020BD
:100970002020282D29202020207C20540A202020DF
:100980007C20202020202020202020207C0A2020C5
:10099000204F2D2D2046524F4E54202D2D2B0A2016
:1009A00028302C30290A004D65616E206F66207357
:1009B000616D706C656420706F696E74733A2000AD
:1009C00020643A200020623A200045716E20636F57
:1009D000656666696369656E74733A20613A2000E2
:1009E000202844525952554E29004732392041752A
:1009F000746F20426564204C6576656C696E670093
:100A000028422961636B00284629726F6E740028A2
:100A100052296967687400284C29656674003F4E46
:100A2000756D626572206F662070726F62652070EE
:100A30006F696E747320697320696D706C61757372
:100A400069626C65202832206D696E696D756D294B
:100A50002E0A003F2856296572626F7365206C6507
:100A600076656C20697320696D706C61757369625D
:100A70006C652028302D34292E0A00205A3A002097
:100A8000593A0020436F756E7420583A0020453A59
:100A900000205A3A0020593A00583A003A0043617F
:100AA000703A00000000000000000000000000009C
:100AB000004842000048420000804000000000570B
:100AC00061726E696E673A20486F6D696E67204289
:100AD000756D702044697669736F72203C20310A0D
:100AE000000202040000A0400000A04000000040FE
:100AF000000048430000484300004843FFFFFF4810
:100B0000617264636F6465642044656661756C74CA
:100B10002053657474696E6773204C6F61646564FB
:100B20000A00E8030000E703000005000000E803F6
:100B3000000000007A4300007A43000000400000FB
:100B4000B0410000A0420000A0420000C0430000ED
:100B5000BE422045302000205A200020592000208D
:100B600058200053746570706572206472697665F0
:100B7000722063757272656E743A0A0020204D38D7
:100B80003531205A005A2D50726F6265204F6666CB
:100B900073657420286D6D293A0A002044002049AD
:100BA0000020204D333034205000204400204900E4
:100BB00020204D333031205000504944207365745B
:100BC00074696E67733A0A0020204D343230205326
:100BD000004175746F20426564204C6576656C69D0
:100BE0006E673A0A00205A0020590020204D32300A
:100BF00036205800486F6D65206F66667365743ADD
:100C00000A00204500205A002059002058002042A8
:100C10000020540020204D323035205300416476AE
:100C2000616E6365643A20533C6D696E5F6665650D
:100C300064726174653E20543C6D696E5F747261CC
:100C400076656C5F66656564726174653E20423CE2
:100C50006D696E5F7365676D656E745F74696D65F0
:100C60005F75733E20583C6D61785F78795F6A6587
:100C7000726B3E205A3C6D61785F7A5F6A65726B79
:100C80003E20453C6D61785F655F6A65726B3E0A28
:100C90000020540020520020204D323034205000DB
:100CA000416363656C65726174696F6E2028756E4F
:100CB0006974732F7332293A20503C7072696E74D4
:100CC0005F616363656C3E20523C72657472616360
:100CD000745F616363656C3E20543C747261766539
:100CE0006C5F616363656C3E0A00204500205A001A
:100CF00020590020204D3230312058004D61786954
:100D00006D756D20416363656C65726174696F6EAA
:100D10002028756E6974732F7332293A0A002045B2
:100D200000205A0020590020204D32303320580036
:100D30004D6178696D756D20666565647261746575
:100D4000732028756E6974732F73293A0A00204541
:100D500000205A0020590020204D393220580053DD
:100D6000746570732070657220756E69743A0A003C
:100D700020204D3230302044300A0020204D3230C7
:100D8000302044002044697361626C65640A004647
:100D9000696C616D656E742073657474696E6773D8
:100DA0003A002020473231202020203B20556E6918
:100DB000747320696E206D6D0A00656E71756575BE
:100DC00065696E672022004C696E65204E756D6204
:100DD0006572206973206E6F74204C617374204CAF
:100DE000696E65204E756D6265722B312C204C61E9
:100DF0007374204C696E653A20004B494C4C454455
:100E00002E20005072696E7465722073746F70705A
:100E100065642064756520746F206572726F7273EB
:100E20002E2046697820746865206572726F722082
:100E3000616E6420757365204D39393920746F20D7
:100E4000726573746172742E202854656D706572BA
:100E500061747572652069732072657365742E20E4
:100E600053657420697420616674657220726573BD
:100E700074617274696E67290A004E6F2043686559
:100E8000636B73756D2077697468206C696E65207B
:100E90006E756D6265722C204C617374204C696EA6
:100EA000653A2000636865636B73756D206D6973C7
:100EB0006D617463682C204C617374204C696E659D
:100EC0003A20004D3131300020496E76616C696402
:100ED000206578747275646572200000000000005F
:100EE00000000000000000000048430000484300EC
:100EF00000484320746F6F206C6F6E6720657874B4
:100F0000727573696F6E2070726576656E74656454
:100F10000A0020636F6C6420657874727573696F62
:100F20006E2070726576656E7465640A0020706F5D
:100F3000736974696F6E206F7574206F66207261BB
:100F40006E67652E0A003F50726F626520000000D8
:100F50000A0B02090C0D0E08070304010000000033
:100F60000000000000000000000000000000000081
:100F7000000000000000000000001211100000003E
:100F80000000000000000000000000000000000061
:100F9000000000004B494C4C45442E2000202D20E1
:100FA000496E76616C6964206578747275646572E7
:100FB000206E756D62657220210A002020506C61E0
:100FC0006E6E657242756666657242797465733AD3
:100FD00020002046726565204D656D6F72793A205C
:100FE00000436F6D70696C65643A204A756C2033FC
:100FF0003120323031380A00207C20417574686F0E
:10100000723A20286E6F6E652C2064656661756C7F
:101010007420636F6E666967290A00323031372D9C
:1010200031322D32352031323A303000204C61736C
:101030007420557064617465643A2000312E312E3D
:10104000380A004D61726C696E0020536F667477C8
:101050006172652052657365740A0020576174637C
:1010600068646F672052657365740A002042726F6E
:10107000776E206F75742052657365740A00204581
:10108000787465726E616C2052657365740A0050E5
:101090006F77657255700A0073746172740A00206C
:1010A0005A3A0020593A0020583A00656E64737429
:1010B0006F7073206869743A200020746F6F206C21
:1010C0006F6E6720657874727573696F6E207072C9
:1010D0006576656E7465640A0020636F6C642065D4
:1010E0007874727573696F6E2070726576656E7450
:1010F00065640A001000AA03F0013A01900222017F
:1011000030031001D00302017004F7001005ED0058
:10111000B005E5005006DD00F006D7009007D100CD
:101120003008CC00D008C7007009C300100ABE0008
:10113000B00ABB00500BB700F00BB300900CB0002E
:10114000D00DAA00100FA5005010A00090119B0018
:10115000D0129600B014900090168B007018850085
:10116000501A8000301C7B00B01E750030216F00CB
:10117000B02369003026640010285F00902A5A00CE
:10118000702C5500F02E4F0070314800B0324500F1
:10119000F0334100703639001037370050383300D3
:1011A00090392D00D03A2700B03C1C00503D17006C
:1011B000F03D1100903E0900D03FE5FF202F0020B8
:1011C00042403A0020403A0000002100240027005D
:1011D0002A002D0030003300010100000401070146
:1011E0000A0124F4D43050C38E20C2A24017828B4F
:1011F0007011127A910D816CD90AA861E108C75863
:101200006607615143061E4B5D05C145A7041A419F
:101210001104093D9803713931034036DB0265330F
:101220009102D4305402802E1D02632CEE01752AE7
:10123000C501B028A001102781018F2564012B244E
:101240004B01E0223401AC211F018D200D01801FD4
:10125000FC00841EED00971DDF00B81CD200E61BC9
:10126000C600201BBC00641AB200B219A8000A19FB
:10127000A0006A189900D117910040178B00B5168D
:10128000840031167E00B31579003A157300C71437
:101290006F0058146A00EE1366008813630025136C
:1012A0005E00C7125B006C12570015125400C1118A
:1012B000510070114F0021114B00D61049008D10C4
:1012C00047004610440002104200C00F4000800F4B
:1012D0003E00420F3C00060F3B00CB0E3800930E41
:1012E00037005C0E3500270E3400F30D3200C10DBF
:1012F0003100900D3000600D2E00320D2D00050DD7
:101300002C00D90C2B00AE0C2900850C29005C0C9C
:101310002700350C27000E0C2600E80B2400C40B18
:101320002400A00B23007D0B23005A0B2100390B56
:101330002100180B2000F80A1F00D90A1E00BB0A62
:101340001E009D0A1D00800A1D00630A1C00470A3A
:101350001B002C0A1B00110A1A00F7091A00DD09EC
:101360001900C4091900AB091900920917007B097B
:101370001800630917004C091600360916002009E9
:1013800016000A091500F5081500E0081400CC083D
:101390001400B8081400A4081400900813007D0875
:1013A00012006B0813005808120046081200340897
:1013B0001100230811001208110001081100F007A4
:1013C0001000E0071000D0071000C0071000B007A1
:1013D0000F00A107100091070E0083070F0074078C
:1013E0000F0065070E0057070E0049070E003B0768
:1013F0000D002E070E0020070D0013070D00060735
:101400000D00F9060C00ED060D00E0060C00D406F8
:101410000C00C8060C00BC060C00B0060C00A406AC
:101420000B0099060C008D060B0082060B00770658
:101430000B006C060B0061060A0057060B004C06F9
:101440000A0042060A0038060A002E060A00240690
:101450000A001A060A001006090007060A00FD0520
:101460000900F4050900EB050900E2050900D905AA
:101470000900D0050900C7050900BE050900B5052A
:101480000800AD050800A50509009C0508009405A5
:1014900008008C050800840508007C050800740518
:1014A00008006C050700650508005D050700560586
:1014B00008004E05070047050700400508003805ED
:1014C0000700310507002A050700230507001C0552
:1014D0000600160507000F050700080506000205AF
:1014E0000700FB040600F5040700EE040600E8040C
:1014F0000600E2040700DB040600D5040600CF0462
:101500000600C9040600C3040600BD040600B704B3
:101510000600B1040500AC040600A6040600A00401
:1015200005009B04060095040500900406008A044B
:10153000050085040500800406007A040500750492
:101540000500700405006B040500660405006104D5
:1015500005005C04050057040500520405004D0415
:10156000050048040500430405003E0404003A0455
:10157000050035040500300404002C040500270490
:101580000400230405001E0404001A0404001604C9
:101590000500110404000D040400090405000404FE
:1015A000040000040400FC030400F8030400F40336
:1015B0000400F0030400EC030400E8030400E40367
:1015C0000400E0030400DC030400D8030400D40397
:1015D0000400D0030400CC030400C8030300C503C7
:1015E000030024F404D9201BC40C5C0E9804C40925
:1015F0005F0265077101F405F900FB04B3004804BC
:101600008700C10369005803550003034500BE026B
:101610003A008402310053022A0029022500040204
:101620002000E4011C00C8011900AF011700980157
:1016300014008401130071011000610110005101B8
:101640000E0043010D0036010B002B010B002001A1
:101650000B00150109000C01090003010800FB0043
:101660000800F3000800EB000700E4000600DE00BD
:101670000600D8000600D2000600CC000500C70016
:101680000500C2000500BD000400B9000400B5005B
:101690000400B1000400AD000400A9000400A5008E
:1016A0000300A20003009F0004009B0003009800B9
:1016B00003009500020093000300900003008D00DA
:1016C00002008B00030088000200860002008400F4
:1016D0000300810002007F0002007D0002007B0009
:1016E0000200790002007700010076000200740019
:1016F000020072000100710002006F0002006D0024
:1017000001006C0002006A0001006900020067002D
:101710000100660001006500010064000200620033
:10172000010061000100600001005F0002005D0037
:1017300001005C0001005B0001005A00010059003B
:10174000010058000100570001005600010055003B
:10175000010054000100530000005300010052003A
:10176000010051000100500001004F0001004E0037
:1017700000004E0001004D0001004C0001004B0034
:1017800000004B0001004A00010049000100480030
:10179000000048000100470001004600000046002C
:1017A0000100450000004500010044000100430025
:1017B000000043000100420000004200010041001F
:1017C000000041000100400001003F0000003F0018
:1017D00001003E0000003E0001003D0000003D0011
:1017E00001003C0000003C0000003C0001003B0008
:1017F00000003B0001003A0000003A0001003900FF
:1018000000003900010038000000380000003800F6
:1018100001003700000037000100360000003600EC
:1018200000003600010035000000350000003500E2
:1018300001003400000034000000340001003300D7
:1018400000003300000033000100320000003200CD
:1018500000003200010031000000310000003100C2
:1018600001003000000030000000300001002F00B7
:1018700000002F0000002F0000002F0001002E00AC
:1018800000002E0000002E0001002D0000002D00A1
:1018900000002D0000002D0001002C0000002C0095
:1018A00000002C0000002C0001002B0000002B0089
:1018B00000002B0000002B0001002A0000002A007D
:1018C00000002A0000002A00010029000000290071
:1018D0000000290000002900000029000100280064
:1018E0000000280000002800000028000000280058
:1018F000010027000000270000002700000027004B
:10190000000027000100260000002600000026003D
:101910000000260000002600010025000000250030
:101920000000250000002500000025000000250023
:101930000100240000002400000024000000240016
:101940000000240001002300000023000000230009
:1019500000002300000023000000230000002300FB
:1019600001002200000022000000220000002200EE
:1019700000002200000022000100210000002100E0
:1019800000002100000021000000210000002100D3
:1019900000002100010020000000200000002000C5
:1019A00000002000000020000000200000002000B7
:1019B0000000200001001F0000001F0000001F00A9
:1019C00000001F0000001F0000001F0000001F009B
:1019D00001001E0000001E0000001E0000001E008E
:1019E00000005072696E7465722068616C74656481
:1019F0002E206B696C6C28292063616C6C656421F6
:101A00000A002061786973206472697665722063C8
:101A1000757272656E743A20007472756500666145
:101A20006C73650020617869732074656D706572F0
:101A30006174757265207072657761726E20747260
:101A4000696767657265643A200020707265776126
:101A5000726E20666C616720636C65617265640AF2
:101A60000025753A2530327500253032753A25301B
:101A700032750025756420253032753A253032756F
:101A8000002063757272656E7420646563726561AF
:101A900073656420746F200020647269766572201B
:101AA0006F76657274656D706572617475726520AC
:101AB0007761726E696E67212028003A20004472B7
:101AC00069766572206572726F72006265640A00E1
:101AD0002C2073797374656D2073746F70706564F6
:101AE00021204865617465725F49443A2000486569
:101AF0006174696E67206661696C65640048656140
:101B000074696E67206661696C656400486561741C
:101B1000696E67206661696C656400486561746917
:101B20006E67206661696C656400544845524D419A
:101B30004C2052554E4157415900546865726D61B1
:101B40006C2052756E61776179004572723A204D52
:101B5000494E54454D5020424544004572723A204A
:101B60004D494E54454D50004D494E54454D502021
:101B7000747269676765726564004572723A204DD8
:101B8000415854454D5020424544004572723A2018
:101B90004D415854454D50004D415854454D5020ED
:101BA00074726967676572656400473238205A202D
:101BB000466F7262696464656E0A0050726F626992
:101BC0006E67206661696C65640A00205A3A2000DD
:101BD00020593A200042656420583A20005265732B
:101BE000656E643A20006F6B00627573793A2070FD
:101BF000617573656420666F7220696E7075740A12
:101C000000627573793A2070617573656420666F40
:101C10007220757365720A00627573793A2070726A
:101C20006F63657373696E670A004B494C4C45449A
:101C30002E20004B494C4C20636175736564206213
:101C40007920746F6F206D75636820696E616374AD
:101C50006976652074696D65202D206375727265E3
:101C60006E7420636F6D6D616E643A2000003B847A
:101C700011241FBECFEFD1E2DEBFCDBF00E00CBF0D
:101C800013E0A0E0B2E0ECECFBE201E00BBF02C02D
:101C900007900D92AE35B107D9F72FE0AEE5B3E06E
:101CA00001C01D92AD34B207E1F71EE0C8E3DEE0EB
:101CB00000E006C021970109802FFE010E94A9952E
:101CC000C733D10780E00807A9F70E94C8840C94A5
:101CD000E4950C9400002F923F924F925F926F9286
:101CE0007F928F929F92AF92BF92CF92DF92EF92AC
:101CF000FF920F931F93CF93DF93CDB7DEB7C858F2
:101D0000D1090FB6F894DEBF0FBECDBF81E090E0E1
:101D10009093270F8093260F80919F068D3409F4AE
:101D2000EEC6843511F40C949626873411F00C9489
:101D3000D72680919D0690919E068C31910509F4DD
:101D4000BDC59CF4843091055CF482309105A4F506
:101D500097FF02C00C94F1260E94E94C0C94F126E6
:101D6000049709F46EC50C94F1268A35910509F49F
:101D70001DC64CF48D31910509F4A4C54E9709F4A4
:101D8000A5C50C94F1268B35910509F413C68C3545
:101D9000910511F00C94F1260E946B7A42E4242EF6
:101DA00042E0342E5EEDC52E55E0D52EE12CF12C0F
:101DB00000E010E01EA23FC620913002222311F461
:101DC0000C94F12611E0029709F010E00E94C44B38
:101DD00082E50E94B84B882309F430C10E94564B1B
:101DE0006B017C014090870E5090880E6090890EA8
:101DF00070908A0E20918B0E30918C0E40918D0E3A
:101E000050918E0E2EA33FA348A759A78091670E2D
:101E10009091680EA091690EB0916A0E8AA79BA757
:101E2000ACA7BDA720916B0E30916C0E40916D0E4A
:101E300050916E0E2EAB3FAB48AF59AF20E030E073
:101E4000A901C701B6010E949D8E882309F4DFC451
:101E5000A30192016AA57BA58CA59DA50E949D8EDC
:101E600081110DC02EA13FA148A559A56EA97FA93A
:101E700088AD99AD0E949D8E882309F4C8C420E0E6
:101E800030E0A901C701B6010E949D8E881F8827F6
:101E9000881F18130BC080E090E0A0E8BFE32296F3
:101EA0008CAF9DAFAEAFBFAF22970AC020E030E04D
:101EB00040E85FEB22962CAF3DAF4EAF5FAF22976D
:101EC000A30192016AA57BA58CA59DA50E949D9268
:101ED0006AAB7BAB8CAB9DAB2EA13FA148A559A5AE
:101EE0006EA97FA988AD99AD0E949D926AAF7BAF24
:101EF0008CAF9DAF2AA93BA94CA95DA9CA01B90124
:101F00000E94028F4B015C012AAD3BAD4CAD5DAD33
:101F1000CA01B9010E94028F9B01AC01C501B40145
:101F20000E949E920E9409956EA77FA788AB99ABED
:101F300020E030E040E05FE30E94028F4B015C0153
:101F4000A7019601C701B6010E94028F6B017C01B7
:101F5000A5019401C501B4010E94028F9B01AC014F
:101F6000C701B6010E949D920E9409959B01AC0198
:101F700022966CAD7DAD8EAD9FAD22970E94028FF3
:101F80004B015C012AA53BA54CA55DA5C301B2018F
:101F90000E949E9220E030E040E05FE30E94028FCA
:101FA0006B017C016AAD7BAD8CAD9DAD90582EA5CB
:101FB0003FA548A959A90E947A939B01AC01C5018C
:101FC000B4010E94028F9B01AC01C701B6010E94BF
:101FD0009E92A30192010E949D926B017C012EA909
:101FE0003FA948AD59AD6EA17FA188A599A50E94D2
:101FF0009E9220E030E040E05FE30E94028F2B01E0
:102000003C012EA53FA548A959A96AA97BA98CA97D
:102010009DA90E947A939B01AC01C501B4010E9465
:10202000028F9B01AC01C301B2010E949E922EA1BE
:102030003FA148A559A50E949D9214C089E40E9421
:10204000B84B882329F00E94564B6B017C0103C0DA
:10205000C12CD12C76018AE40E94B84B8823D9F098
:102060000E94564B6EAB7FAB88AF99AF20E030E05B
:10207000A901C701B6010E949D8E81111AC020E0FE
:1020800030E0A9016EA97FA988AD99AD0E949D8E0F
:1020900081110FC0BCC320E030E0A901C701B60127
:1020A0000E949D8E882309F4B2C31EAA1FAA18AEEF
:1020B00019AED701C601B0588EA39FA3A8A7B9A790
:1020C0002EA93FA948AD59AD50582AA73BA74CA708
:1020D0005DA79C01AD01BC01CD010E94028F4B01A7
:1020E0005C012AA53BA54CA55DA5CA01B9010E94CA
:1020F000028F9B01AC01C501B4010E949E920E9417
:10210000099562966CAF7DAF8EAF9FAF629780915D
:10211000870E9091880EA091890EB0918A0E8EA79D
:102120009FA7A8ABB9ABA7019601BC01CD010E9446
:102130009E9222966CAF7DAF8EAF9FAF229720917B
:102140008B0E30918C0E40918D0E50918E0E2AAFD9
:102150003BAF4CAF5DAF2EA93FA948AD59AD6AADBD
:102160007BAD8CAD9DAD0E949E9226966CAF7DAFEF
:102170008EAF9FAF26978091670E9091680EA091C9
:10218000690EB0916A0E2A968CAF9DAFAEAFBFAF0D
:102190002A9722962CAD3DAD4EAD5FAD2297BC0186
:1021A000CD010E949D926B017C0120916B0E3091BC
:1021B0006C0E40916D0E50916E0E2E962CAF3DAF71
:1021C0004EAF5FAF2E9726962CAD3DAD4EAD5FADB9
:1021D00026972E966CAD7DAD8EAD9FAD2E970E944D
:1021E0009D924B015C0180918F0E9091900EA09179
:1021F000910EB091920E6A968CAF9DAFAEAFBFAF0D
:102200006A979C01AD0160916F0E7091700E809184
:10221000710E9091720E0E949D926AAB7BAB8CAB5B
:102220009DAB2091730E3091740E4091750E5091BC
:10223000760E66962CAF3DAF4EAF5FAF669780913E
:10224000930E9091940EA091950EB091960E6E966D
:102250008CAF9DAFAEAFBFAF6E97A70196016EA1D9
:102260007FA188A599A50E94028F2B013C01A501A1
:1022700094016AA57BA58CA59DA50E94028F9B0158
:10228000AC01C301B2010E949E922B013C01A50149
:1022900094016EA17FA188A599A50E94028F4B0190
:1022A0005C01A70196016AA57BA58CA59DA50E944E
:1022B000028F9B01AC01C501B4010E949D92A30154
:1022C00092010E9411936B017C0120E030E0A90192
:1022D0000E949D8E87FF0AC02BED3FE049EC50E441
:1022E000C701B6010E949E926B017C01112351F03F
:1022F0002BED3FE049EC50E4C701B6010E949D92EE
:102300006B017C0120E030E0A901C701B6010E9409
:102310009D8E811124C02A962CAD3DAD4EAD5FAD92
:102320002A976EA57FA588A999A90E949D8E8111E3
:1023300016C02E962CAD3DAD4EAD5FAD2E976AAD5D
:102340007BAD8CAD9DAD0E949D8E811108C07BED53
:10235000C72E7FE0D72E79ECE72E70E4F72E629639
:102360002CAD3DAD4EAD5FAD6297C701B6010E9489
:10237000028F9B01AC010E94028F4B015C012AA9D4
:102380003BA94CA95DA9CA01B9010E94028F9B011A
:10239000AC01C501B4010E949E920E9409954B01B7
:1023A0005C012FE632E143E85AE30E949D8E87FDEF
:1023B0002AC2C501B4010E9413940E94E7931B0135
:1023C000672B19F422242394312CB10180E090E092
:1023D0000E94A18E4B015C019B01AC01C701B601BB
:1023E0000E947A936EA77FA788AB99ABA501940151
:1023F0006AA97BA98CA99DA90E947A9362966CAF69
:102400007DAF8EAF9FAF62976E962CAD3DAD4EAD5A
:102410005FAD6E9766966CAD7DAD8EAD9FAD6697E8
:102420000E949D92A50194010E947A9366966CAFDA
:102430007DAF8EAF9FAF66972EA53FA548A959A93E
:10244000CA01B9010E94028F20E030E040E05FE362
:102450000E94028F9B01AC0160E070E080E89FE386
:102460000E949D922A966CAF7DAF8EAF9FAF2A9748
:102470006A962CAD3DAD4EAD5FAD6A9729873A8720
:102480004B875C876E968CAD9DADAEADBFAD6E9744
:102490008D879E87AF87B88B60910202709103028F
:1024A000072E000C880B990B0E94A38E20913902F5
:1024B00030913A0240913B0250913C020E94028FBF
:1024C0002AE037ED43E25CE30E94028F6AA37BA31C
:1024D0008CA39DA30E9432649B01AC0128533F4F03
:1024E0004F4F5F4F2E962CAF3DAF4EAF5FAF2E9745
:1024F0004EA05FA068A479A441E050E05BAF4AAF72
:1025000059E15AABAAADBBADA215B30509F43AC166
:102510000E94F1780E943264DC01CB012E962CAD32
:102520003DAD4EAD5FAD2E97821B930BA40BB50B4B
:10253000B7FD10C00E9432649B01AC0128533F4F8D
:102540004F4F5F4F2E962CAF3DAF4EAF5FAF2E97E4
:102550000E941C7E3AA931503AAB332309F441C0A2
:102560002A962CAD3DAD4EAD5FAD2A976AA57BA5F1
:102570008CA59DA50E94028F6B017C012EA53FA515
:1025800048A959A9B201C3010E94028FA70196016F
:102590000E949E927B018C012A962CAD3DAD4EADE2
:1025A0005FAD2A97B201C3010E94028F4B015C010B
:1025B0002EA53FA548A959A96AA57BA58CA59DA5CF
:1025C0000E94028F9B01AC01C501B4010E949D9243
:1025D0002B013C01C701D8018AA79BA7ACA7BDA7C7
:1025E00051C04AAD5BADBA0180E090E00E94A18E7F
:1025F0002EA53FA548A959A90E94028F4B015C0155
:102600000E9477936B017C01C501B4010E94FF9485
:102610004B015C01A70196016EA17FA188A599A538
:102620000E94028F2B013C01A50194016EA97FA994
:1026300088AD99AD0E94028F9B01AC01C301B2012C
:102640000E949E922B013C01A50194016EA17FA1E5
:1026500088A599A50E94028F4B015C01A7019601F4
:102660006EA97FA988AD99AD0E94028F9B01AC0134
:10267000C501B4010E949D926AA77BA78CA79DA764
:1026800059E15AAB9201A30122966CAD7DAD8EAD9E
:102690009FAD22970E949E9269837A838B839C834D
:1026A0002AA53BA54CA55DA526966CAD7DAD8EAD4E
:1026B0009FAD26970E949E926D837E838F8398871D
:1026C00062962CAD3DAD4EAD5FAD629769857A8562
:1026D0008B859C850E949E9269877A878B879C87D1
:1026E00066962CAD3DAD4EAD5FAD66976D857E8532
:1026F0008F8598890E949E926D877E878F87988BA1
:1027000080910102882321F0CE0101960E94E445C8
:10271000E0905E0389819A81AB81BC818E8B9F8B17
:10272000A88FB98F8D819E81AF81B8858A8F9B8F4D
:10273000AC8FBD8F89859A85AB85BC858E8F9F8F29
:10274000A8A3B9A3AE01425E5F4FBE01665E7F4F94
:10275000CE0146960E941A618E010E5D1F4F9E01AA
:10276000235F3F4FAE01425E5F4FBE01665E7F4F0B
:10277000CE0146960E94D35E8AAD9BAD01969BAF7B
:102780008AAFC0CEE0905E038091670E9091680E94
:10279000A091690EB0916A0E8E8B9F8BA88FB98F16
:1027A00080916B0E90916C0EA0916D0EB0916E0E9B
:1027B0008A8F9B8FAC8FBD8F80916F0E9091700E22
:1027C000A091710EB091720E8E8F9F8FA8A3B9A3A6
:1027D000AE01425E5F4FBE01665E7F4FCE01469600
:1027E0000E941A618E010E5D1F4F23E73EE0AE018D
:1027F000425E5F4FBE01665E7F4FCE0146960E94ED
:10280000D35E0E945F4C0E94694C0C94F126EFEC61
:10281000F7E084918F010F5F1F4F882321F00E9402
:10282000AC4CF801F6CFE9EDF1E084918F010F5F38
:102830001F4F882311F40C94F1260E94AC4CF80130
:10284000F4CF80E50E94B84B882329F00E94164BF4
:102850006B017C0103C0C12CD12C760183E50E9461
:10286000B84B882361F00E94564B20E030E04AE7E5
:1028700054E40E94028F0E94E7936B017C010E9446
:102880006B7A0E94694C80912D0F90912E0FA09130
:102890002F0FB091300FC80ED91EEA1EFB1E0E94EA
:1028A0003264DC01CB018C199D09AE09BF09B7FD6B
:1028B00002C00C94F1260E941C7EF1CF0E94F47C91
:1028C0000C94F1260E94B6310C94F126C090870E2C
:1028D000D090880EE090890EF0908A0E88E50E94D4
:1028E000B84B811109C020E030E044E352E4C70155
:1028F000B6010E949E9202C00E94564B6E8B7F8B47
:10290000888F998FC0908B0ED0908C0EE0908D0E9A
:10291000F0908E0E89E50E94B84B811109C020E02D
:1029200030E040E651E4C701B6010E949D9202C02A
:102930000E94564B6B017C0169837A838B839C8355
:102940008E889F88A88CB98C2AEF3EEF43E352E42F
:10295000C501B4010E94C49487FF02C00C94F12603
:1029600022E430E048E453E4C501B4010E949D8EA6
:10297000181614F40C94F1262FE632E143E85AEBD2
:10298000C701B6010E94C49487FF02C00C94F126CF
:1029900022E430E04AE353E4C701B6010E949D8E71
:1029A000181614F40C94F1260C94F8261092630374
:1029B0000C94F12681E0809363030C94F1260E942D
:1029C000564B4B015C010330110559F0F701E958F2
:1029D000F14F20813181428153810E949D924B01B0
:1029E0005C01F701E957F14F208131814281538128
:1029F000C501B4010E949D922B013C012DEB37E3F0
:102A000046E855EB0E94C49487FD1DC02DEB37E3CB
:102A100046E855E3C301B2010E949D8E18169CF052
:102A20000F5F1F4FF4E0CF0ED11C24E0E20EF11C2B
:102A30000430110541F1F10181911F010E94B84B51
:102A4000882371F3BCCF0330110559F48092930EA3
:102A50009092940EA092950EB092960EF1E0FEA385
:102A6000DFCFA3019201D6016D917D918D919C9153
:102A70000E949E92F6016083718382839383C801D2
:102A80000E94A849CDCF3EA13323A9F1C090930E57
:102A9000D090940EE090950EF090960E2091DF0D60
:102AA0003091E00D4091E10D5091E20DC701B6016A
:102AB0000E94028F0E94CF946093C8057093C9054D
:102AC0008093CA059093CB05C701B6010E94E2939B
:102AD0002FB7F8946093CF0D7093D00D8093D10DE4
:102AE0009093D20D2FBF1092B8051092B905109295
:102AF000BA051092BB050E94D9300C94F126809142
:102B00009D0690919E068B39910509F492C30CF0B5
:102B100098C08936910509F46FC30CF05AC080350E
:102B2000910509F415C47CF58A32910509F401C2B6
:102B3000CCF48231910509F458C48F31910509F420
:102B400055C1419711F00C94F1265F988A989FB770
:102B5000F894809108018E7F809308019FBF12989E
:102B60000C94F1268C34910509F423C28D3491051F
:102B700009F439C28B34910511F00C94F1260E94AE
:102B8000C67A0C94F1268435910509F42EC49CF480
:102B90008235910509F420C40CF022C40E944375CB
:102BA0000E946B7A0E94CC80109285081092840853
:102BB00000E010E0F6C38C35910509F468C488364E
:102BC000910509F414C28535910511F00C94F12694
:102BD00043C48137910509F4C5C2B4F48D3691051B
:102BE00009F44EC354F48B36910509F49FC30CF4D9
:102BF00078C3109204020C94F1268F36910509F4E3
:102C000038C20CF423C2A6C28737910509F461C506
:102C100064F48337910509F4C9C40CF4C1C4863740
:102C2000910509F417C50C94F1268937910509F42B
:102C3000BDC50CF4B4C58C38910509F4BFC20C9421
:102C4000F126833641E0940711F40C946A260CF0C7
:102C500054C0833D910509F42BC74CF58B3C91057D
:102C600009F414C674F4883C910509F4A5C5893C9F
:102C7000910509F4E9C58E3B910511F00C94F126FC
:102C80001BC38D3C910509F48BC60CF41DC68E3C0C
:102C9000910511F00C94F12642E4C42E42E0D42EAA
:102CA0005DE6E52E56E0F52E00E010E0EFC68D3231
:102CB000A1E09A0711F40C94C11E7CF48D3D91059E
:102CC00009F4E6C7823E910511F40C94921E8C3DE6
:102CD000910511F00C94F126CCC78F32E1E09E07EC
:102CE00011F40C94302014F40C94DC1F80339140C8
:102CF00011F40C945F1F0C94F126853F31E093078B
:102D000011F40C94592574F58A3951E0950709F4AA
:102D100025C2ACF48139B1E09B0711F40C94102466
:102D20008239E1E09E0711F40C941424803991401B
:102D300011F00C94F1260E946B7A0C94F1268C3AD7
:102D400021E0920711F40C949824843F31E093071A
:102D500011F40C944025843A914011F00C94F12622
:102D60000C9418248A3853E0950711F40C94C62566
:102D700094F4873FB1E09B0711F40C94622514F49E
:102D80000C945F258335934011F00C94F126E9EC07
:102D9000F7E00C946E25803923E0920711F40C942F
:102DA0001D26873E33E0930711F40C9483268F3859
:102DB000934011F00C94F12666E472E082E095E015
:102DC0000E94E96F6CE472E080E894E00E94E96F91
:102DD00062E572E08EEF93E00E94E96F68E572E0D1
:102DE0008CE793E00E94E96F0C94F1260E94852FF6
:102DF0003CE3C32ED12CE12CF12CA70196010E94BB
:102E00006292762E672ECA01B901A70196010E942F
:102E100062926B017C01CA01B90128E130E040E017
:102E200050E00E9462924B015C01C9016DE671E0C5
:102E30000E9466958E010F5F1F4F6115710599F015
:102E40006F927F92DF92CF929F928F929F938F93F8
:102E50007F936F9389E292E09F938F931F930F93D9
:102E60000E946E8E26C0009789F06F927F92DF924B
:102E7000CF929F928F929F938F9389E192E09F933D
:102E80008F931F930F930E946E8E13C08114910431
:102E9000A104B104B1F06F927F92DF92CF929F9222
:102EA0008F928DE092E09F938F931F930F930E94D8
:102EB0006E8E0FB6F894DEBF0FBECDBFE9ECF7E023
:102EC00023C0C114D104E104F10469F06F927F9230
:102ED000DF92CF9285E092E09F938F931F930F93A1
:102EE0000E946E8EE6CF6F927F9281E092E09F9378
:102EF0008F931F930F930E946E8E0F900F900F90E1
:102F00000F900F900F90DACF84917F013FEFE31A7B
:102F1000F30A882321F00E94AC4CF701F5CFB801E9
:102F20008DE392E00E947E5D8AE00E94AC4C0C949E
:102F3000F12683E50E94B84B882311F40C94F12606
:102F40000E94364BE82E80E50E94B84B882341F062
:102F50000E94264B8B0177FF02C00C94F12602C021
:102F60000DE010E0902FE6E0F5E088E28E0F24916E
:102F7000921729F031968E13FACF0C944F27EFEC6D
:102F8000F7E084918F010F5F1F4F882321F00E948B
:102F9000AC4CF801F6CFEAE4F2E084918F010F5FC8
:102FA0001F4F882311F40C94F1260E94AC4CF801B9
:102FB000F4CF8091D0059091D105019711F00C9438
:102FC000F12682E090E09093D1058093D0050E9495
:102FD00032646093DA057093DB058093DC0590938F
:102FE000DD050C94F1260E946C2F0C94F12688E6E6
:102FF00090E00E940E5081110C94F1268091A2065F
:1030000083FF02C00C94F12683E50E94B84B88230D
:10301000C9F00E94564B0E94E2937093B9086093E6
:10302000B80880E00E94F8740E94564B20E030E01F
:103030004AEA52E40E949D8E181614F00E946C2FEA
:103040000E94564B0E94A4890C94F1268EE40E94A3
:10305000B84B882311F40C94F1260E94264B609300
:10306000690370936A0380936B0390936C030C94D1
:10307000F12683E50E94894B882359F083E50E945D
:10308000B84B882319F00E94364B01C080E0809332
:10309000A206E9ECF7E084918F010F5F1F4F8823B0
:1030A00021F00E94AC4CF801F6CFE7E6F2E0849103
:1030B0008F010F5F1F4F882321F00E94AC4CF80155
:1030C000F6CF8091A2068823A1F129E5C22E22E045
:1030D000D22EE12CF12C20E08091A20690E00E2C63
:1030E00002C0959587950A94E2F780FF17C0BB242C
:1030F000B394B20E222319F08CE20E94AC4CF6017C
:1031000025913491F901849189010F5F1F4F882324
:1031100021F00E94AC4C9801F5CF2B2DFFEFEF1A58
:10312000FF0A32E0C30ED11C45E0E416F104A1F61B
:103130000CC0E3E6F2E084918F010F5F1F4F8823FC
:1031400021F00E94AC4CF801F6CF8AE00E94AC4C12
:103150000C94F1268EE692E00E9451700E94663037
:103160000C94F12683E50E94B84B882369F00E94F5
:10317000364B8D3320F480933D020C94F1268CE382
:1031800080933D020C94F126E9ECF7E084918F01E5
:103190000F5F1F4F882321F00E94AC4CF801F6CF3F
:1031A00040913D0250E060E070E087E792E00E94CD
:1031B000966F8AE00E94AC4C0C94F1268091A20696
:1031C00083FF02C00C94F12683E50E94B84B88234C
:1031D00011F40C94F1260E94564B0E94E29365363E
:1031E000710514F064E670E07093B7086093B60858
:1031F0000E94AD740C94F12689E690E00E940E5076
:10320000811111C0EEE7F2E084918F010F5F1F4F33
:10321000882321F00E94AC4CF801F6CF0E94E667AB
:103220008AE00E94AC4C1092270F1092260F0C944B
:10323000ED2B83E50E94B84B882311F40C94F12602
:103240000E94364B182F8D3308F01CE310932C0F7F
:103250000E9432646B017C01212F30E0A8EEB3E0C4
:103260000E948E92C60ED71EE81EF91EC092280F2D
:10327000D092290FE0922A0FF0922B0F0C94F12696
:103280008DE690E00E940E5081110C94F126809101
:10329000A20683FF02C00C94F12683E50E94B84B7E
:1032A0008EAB81110C94652782E50E94B84B811189
:1032B0000C9465270C94F1268091A20683FF02C02E
:1032C0000C94F12683E50E94B84B8EAB81110C94CF
:1032D0009E2882E50E94B84B81110C949E280C9484
:1032E000F12680E50E94B84B811108C083E50E9459
:1032F000B84B811109C03FEF20E00AC00E94364B55
:1033000081110C94F126F2CF0E94264B362F272FE5
:10331000832F922F8F3F910519F010F08FEF90E0DF
:1033200090938508809384080C94F12680E50E9490
:10333000B84B811106C010928508109284080C9435
:10334000F1260E94264B672B11F00C94F126F3CF47
:1033500083E50E94894B8823A9F0809100028111A6
:1033600003C0EFE8F2E002C0E9E8F2E084918F01E7
:103370000F5F1F4F882311F40C94F1260E94AC4C70
:10338000F801F4CF269A2E9864E670E080E090E091
:103390000E94FA630E94147A81E0809300020C94E8
:1033A000F12662E370E080E090E00E94FA630E9400
:1033B000F1780F5F1F4F0331110599F762E370E059
:1033C00080E090E00E94FA630E94F178269A2E9A9B
:1033D000109200020C94F126109262030C94F126D4
:1033E00081E0809362030C94F12683E50E94B84B40
:1033F0008823A1F00E94564B20E030E04AE754E4D5
:103400000E94028F0E94E79360933E0270933F02F6
:1034100080934002909341020C94F12688E50E942B
:10342000894B81110C94DB2989E50E94894B81111C
:103430000C94DB298AE50E94894B81110C94DB29CD
:1034400085E40E94894B81110C94DB290E946B7AE0
:103450000E94CC800C94F12683E50E94894B88233E
:1034600011F40C94F1260E94564B20E030E04AE71C
:1034700054E40E94028F0E94E7936093310F70938F
:10348000320F8093330F9093340F0C94F126A2E403
:10349000CA2EA2E0DA2EB3EDEB2EBDE0FB2E10E03B
:1034A000D6018D916D010E94894B882309F46DC06E
:1034B000133009F063C00E94564B4B015C0120E0C1
:1034C00030E040EA51E40E949D8E87FF4EC0A50186
:1034D00094016091DF0D7091E00D8091E10D90916C
:1034E000E20D0E947A932B013C019B01AC0160919B
:1034F00058087091590880915A0890915B080E9471
:10350000028F609358087093590880935A089093DB
:103510005B08A30192016091740870917508809115
:103520007608909177080E94028F609374087093D8
:10353000750880937608909377086091920870914F
:10354000930880919408909195080E94A18EA30100
:1035500092010E94028F0E94E793609392087093F9
:10356000930880939408909395088092DF0D909231
:10357000E00DA092E10DB092E20D07C00E94564B03
:10358000F70160837183828393831F5FF4E0EF0E02
:10359000F11C143009F084CF0E949F610C94F12635
:1035A0000E946B7A0E94D9300C94F126ECE4F3E08F
:1035B00084918F010F5F1F4F882321F00E94AC4C34
:1035C000F801F6CF60E08CE393E00E94953060E074
:1035D00085E393E00E94953061E08AE293E00E94E7
:1035E000953061E08AE193E00E94953060E081E1EE
:1035F00093E00E94953061E087E093E00E9495306F
:1036000061E08DEF92E00E94953061E085EF92E0FD
:103610000E94953061E087EE92E00E94953060E074
:1036200089ED92E00E94953061E08AEC92E00E9480
:10363000953060E08CEB92E00E94953060E086EA85
:1036400092E00E94953060E085E992E00E9495301A
:103650000C94F12685E40E94B84B882319F00E944F
:10366000474B03C085E40E94894B882361F0E9EC55
:10367000F7E084918F010F5F1F4F882321F00E9494
:10368000AC4CF801F6CF81E40E94B84B882319F0C6
:103690000E94474B03C081E40E94894B882361F05C
:1036A000E6E1F4E084918F010F5F1F4F882321F042
:1036B0000E94AC4CF801F6CF00919B0610919C063D
:1036C000D8018D918D01882309F43FCD0E94AC4C27
:1036D000F7CFE2E3F4E084918F010F5F1F4F88235F
:1036E00021F00E94AC4CF801F6CFEAE2F4E08491BC
:1036F0008F010F5F1F4F882321F00E94AC4CF8010F
:10370000F6CF659B03C007E612E002C00CE612E0AC
:10371000F80181918F01882319F00E94AC4CF8CFF9
:103720008AE00E94AC4CE2E2F4E084918F010F5FEA
:103730001F4F882321F00E94AC4CF801F6CF8091F6
:10374000030181FF03C007E612E002C00CE612E0AD
:10375000D8018D918D01882319F00E94AC4CF8CFCF
:103760008AE00E94AC4CEAE1F4E084918F010F5FA3
:103770001F4F882321F00E94AC4CF801F6CF4B9BE1
:1037800003C007E612E002C00CE612E0F8018191E6
:103790008F01882309F4D9CC0E94AC4CF7CF81E08B
:1037A0008093CF058093CE050C94F1261092CF051F
:1037B0001092CE050C94F12688EC90E00E940E50F9
:1037C00081110C94F12684E40E94894B8823C1F175
:1037D0000E94564B11E020E030E0A9010E949D8E2E
:1037E000811101C010E010934108112349F10E949A
:1037F000564BE091B10824E0E29FF0011124EA5B0E
:10380000F74F608371838283938320E030E0A901C6
:103810006091460870914708809148089091490846
:103820000E949D8E81110CC080E090E0A0EEBFE36D
:103830008093460890934708A0934808B09349089E
:103840000E940F620C94F126E6E9EE2EE8E0FE2ECF
:1038500002E412E0F4E0DF2ED00ED8018D918D014C
:103860000E94894B882349F00E94564B0E94E7939F
:10387000F7016083718382839383F4E0EF0EF11C80
:10388000D012EBCF0E94A65D0C94F12668E6E62EDE
:1038900068E0F62E02E412E074E0D72ED00ED801D4
:1038A0008D918D010E94894B882339F00E94564BDF
:1038B000F7016083718382839383F4E0EF0EF11C40
:1038C000D012EDCF0C94F12683E50E94894B88231A
:1038D000D9F00E94564BAB01BC0140936008509355
:1038E0006108609362087093630840935C0850938A
:1038F0005D0860935E0870935F0886EA94E00E941A
:10390000485D8AE00E94AC4C80E50E94894B882388
:1039100099F00E94564BAB01BC0140936008509354
:103920006108609362087093630889E894E00E94DC
:10393000485D8AE00E94AC4C82E50E94894B882356
:1039400099F00E94564BAB01BC0140936408509320
:10395000650860936608709367088AE694E00E94A1
:10396000485D8AE00E94AC4C84E50E94894B882324
:1039700011F40C94F1260E94564BAB01BC0140930C
:103980005C0850935D0860935E0870935F088CE458
:1039900094E00E94485D8AE00E94AC4C0C94F126B1
:1039A00083E50E94894B882351F00E94564B609317
:1039B000800870938108809382089093830884E53F
:1039C0000E94894B882351F00E94564B60937C08DB
:1039D00070937D0880937E0890937F0882E40E9414
:1039E000894B882351F00E94164B6093780870939E
:1039F000790880937A0890937B0888E50E94894B28
:103A0000882351F00E94564B60934C0870934D08E8
:103A100080934E0890934F0889E50E94894B882334
:103A200051F00E94564B6093500870935108809358
:103A30005208909353088AE50E94894B882351F0DD
:103A40000E94564B60935408709355088093560813
:103A50009093570885E40E94894B882311F40C94B5
:103A6000F1260E94564B6093580870935908809332
:103A70005A0890935B080C94F1260F5F1F4FF4E0F7
:103A8000EF0EF11C0330110509F435C8D6018D91F4
:103A90006D010E94894B882381F30E94564BF701E8
:103AA0006083718382839383C8010E94A849E5CF14
:103AB000E9ECF7E084918F010F5F1F4F882321F01D
:103AC0000E94AC4CF801F6CF83E50E94894B882315
:103AD00021F00E94474B80930102E6EFF4E08491CD
:103AE0008F010F5F1F4F882321F00E94AC4CF8011B
:103AF000F6CF80910102811103C0E2EFF4E002C031
:103B0000EEEEF4E084918F010F5F1F4F882321F0C8
:103B10000E94AC4CF801F6CFE6EEF4E084918F0100
:103B20000F5F1F4F882321F00E94AC4CF801F6CFA5
:103B30002091770E3091780E4091790E50917A0E47
:103B40006091EA057091EB058091EC059091ED058F
:103B50000E949E92AB01BC0184EE94E00E94485DFD
:103B600020917B0E30917C0E40917D0E50917E0E07
:103B70006091EE057091EF058091F0059091F1054F
:103B80000E949E92AB01BC0181EE94E00E94485DD0
:103B900020917F0E3091800E4091810E5091820EC7
:103BA0006091F2057091F3058091F4059091F5050F
:103BB0000E949E92AB01BC018EED94E00E94485D94
:103BC000E6EDF4E084918F010F5F1F4F882321F011
:103BD0000E94AC4CF801F6CF2091770E3091780E10
:103BE0004091790E50917A0E609105027091060213
:103BF00080910702909108020E949E92AB01BC0145
:103C000084ED94E00E94485D20917B0E30917C0E03
:103C100040917D0E50917E0E6091090270910A02D2
:103C200080910B0290910C020E949E92AB01BC010C
:103C300081ED94E00E94485D20917F0E3091800ECE
:103C40004091810E5091820E60910D0270910E0292
:103C500080910F02909110020E949E92AB01BC01D4
:103C60008EEC94E00E94485D8AE00E94AC4C0C947B
:103C7000F12683E50E94B84B882311F40C94F126B9
:103C80000E94264B70930302609302020C94F1266B
:103C90008DED90E00E940E5081110C94F12683E589
:103CA0000E94B84B882311F40C94F1260091B108BE
:103CB00010E00E94264B000F111FF801E95EFD4F36
:103CC000718360838091B10890E08C01000F111F17
:103CD000000F111F9801255E3D4F7901880F991F34
:103CE000FC01E95EFD4F60817181072E000C880B9D
:103CF000990B0E94A38E2AE037ED43E25CE30E9419
:103D0000028FF801EE5BF74F2081318142815381B0
:103D10000E94028FD7016D937D938D939C9313978F
:103D20000C94F12680E50E94894B882311F40C94B1
:103D3000F1260E94264B6B017C0183E50E94B84B63
:103D4000882321F00E94264B8B0102C00FEF1FEF4A
:103D5000C8010196039710F00C94F126D7FE02C01B
:103D60000C94F1269C2DE6E0F5E088E28E0F24917C
:103D7000921711F40C94F12631968E13F8CF0C940F
:103D8000BF2B85E40E94B84B811110C080E50E94D2
:103D9000894B882391F00E94564B6093E70D7093F6
:103DA000E80D8093E90D9093EA0D07C00E94364B11
:103DB000882361F3EFECF7E071C089E40E94894B3E
:103DC000882381F00E94564B2CEA35EC47E25EE3F3
:103DD0000E94028F6093E30D7093E40D8093E50DD4
:103DE0009093E60D84E40E94894B882381F00E9421
:103DF000564B2CEA35EC47E25EE30E947A936093DF
:103E0000EB0D7093EC0D8093ED0D9093EE0DE9ECBE
:103E1000F7E084918F010F5F1F4F882321F00E94EC
:103E2000AC4CF801F6CF4091E70D5091E80D609150
:103E3000E90D7091EA0D86E395E00E94485D2CEA59
:103E400035EC47E25EE36091E30D7091E40D809103
:103E5000E50D9091E60D0E947A93AB01BC0182E3DF
:103E600095E00E94B36F2CEA35EC47E25EE3609187
:103E7000EB0D7091EC0D8091ED0D9091EE0D0E9487
:103E8000028FAB01BC018EE295E00E94B36F8AE025
:103E90000E94AC4CA6C70E94AC4CF80184918F01E3
:103EA0000F5F1F4F8111F7CF06E812E0F8018191F3
:103EB0008F01882309F449C90E94AC4CF7CF80E5F3
:103EC0000E94894B882351F00E94564B6093F70D56
:103ED0007093F80D8093F90D9093FA0D89E40E9488
:103EE000894B882381F00E94564B2CEA35EC47E23F
:103EF0005EE30E94028F6093F30D7093F40D809344
:103F0000F50D9093F60D84E40E94894B882381F08F
:103F10000E94564B2CEA35EC47E25EE30E947A930E
:103F20006093EF0D7093F00D8093F10D9093F20D6F
:103F3000E9ECF7E084918F010F5F1F4F882321F098
:103F40000E94AC4CF801F6CF4091F70D5091F80D5E
:103F50006091F90D7091FA0D82E495E00E94485D40
:103F60002CEA35EC47E25EE36091F30D7091F40DBD
:103F70008091F50D9091F60D0E947A93AB01BC01F2
:103F80008EE395E00E94B36F2CEA35EC47E25EE3E6
:103F90006091EF0D7091F00D8091F10D9091F20D07
:103FA0000E94028FAB01BC018AE395E00E94B36FCF
:103FB0008AE00E94AC4C15C783E50E94894B182FFC
:103FC000882371F00E94564B0E94E29370931A026C
:103FD0006093190221E0672B09F020E020934B0841
:103FE00080E50E94894B882359F020911902309175
:103FF0001A02232B11F00E94474B80934B08F1C605
:104000001111EFC6E9ECF7E084918F010F5F1F4FAC
:10401000882321F00E94AC4CF801F6CF80914B0828
:10402000811103C066E772E002C069E672E08BE5C9
:1040300095E00E947E5D6091190270911A028AE4F7
:1040400095E00E94655DE6E4F5E084918F010F5FE5
:104050001F4F882309F4C5C60E94AC4CF801F5CF68
:1040600085E40E94B84B882321F00E94264B7B01F7
:1040700002C0E12CF12C83E40E94B84B882331F07C
:104080000E94264BA5966FAFA59704C045E0A59664
:104090004FAFA59785E50E94B84B882319F00E9481
:1040A000474B03C085E50E94894BE5968FAFE597A6
:1040B000F7FC07C0812C912C86E1A82E83E4B82E52
:1040C00006C0812C912C0CE8A02E02E4B02E83E5D2
:1040D0000E94B84B882321F00E94564B4B015C0193
:1040E000E114F10411F41092B108EEA20E943264BE
:1040F0002B013C015EA157FD0CC080E090E0A0ECDC
:10410000B0E4E4968CAF9DAFAEAFBFAFE49704E1EF
:104110000BC020E030E040EE50E4E4962CAF3DAF21
:104120004EAF5FAFE4970CE361E06E0D623028F4B0
:1041300017E9E12E12E0F12E0BC00AEA12E0D801D5
:104140008D918D01882309F400C80E94AC4CF7CFF3
:10415000F70181917F01882319F00E94AC4CF8CFC0
:104160008AE00E94AC4C0E944375FEA1F7FF04C098
:104170008FE78093B00808C02EA1E22F220FFF0B1B
:10418000E155F74F8FE78083C501B4010E94E293A8
:10419000072E000C880B990B0E94A38E6EA77AAB9A
:1041A0008AAF9EAF202F30E0A8EEB3E00E948E923F
:1041B000E9966CAF7DAF8EAF9FAFE997DC01CB0185
:1041C000840D951DA61DB71DCF57DF4F888399839A
:1041D000AA83BB83C158D04081E080930402AC968F
:1041E0004CAE5DAE6EAE7FAEAC97ED964CAE5DAEB6
:1041F0006EAE7FAEED97A8961FAEA897C358DF4F5F
:10420000188219821A821B82CD57D04067961FAE42
:10421000679790E46B969FAF6B97ACE12F96AFAF2B
:104220002F97B6E46396BFAF63976F961FAE6F97F5
:10423000A0961FAEA097A1961FAEA197A2961FAE03
:10424000A2972E961CAE1DAE1EAE1FAE2E972A96BE
:104250001CAE1DAE1EAE1FAE2A97C12CD12C76010E
:10426000AFE78A2E912CA12CB12C2FE730E040E053
:1042700050E02EAB3FAB48AF59AFE0961CAE1DAE41
:104280001EAE1FAEE09731E0A7963FAFA7972496EA
:104290001FAE1EAE249710E0212C312C00E04EA161
:1042A000842F440F990BDC01A155B74FCB57DF4F3B
:1042B000B983A883C558D040880F991F880F991FCC
:1042C000FC01E654F74FA496FFAFEEAFA497A59676
:1042D0002FADA597022E000C330BA6963FAF2EAF45
:1042E000A69780910402882309F4FDC00E943264DD
:1042F0006AA77BA78CA79DA78091FC0D882309F452
:10430000D6C00E9409763EA137FF09C01091B208BD
:104310002090B3083090B4080091B5080DC0A49661
:10432000AEADBFADA4971C9111962C90119712962B
:104330003C90129713960C91212F322D432D502F24
:104340006F966FAD6F97A0967FADA097A1968FAD3A
:10435000A197A2969FADA2970E949D8E87FF0CC049
:104360006F961FAF6F97A0962FAEA097A1963FAE06
:10437000A197A2960FAFA297212F322D432D502F38
:1043800067966FAD67976B967FAD6B972F968FADE6
:104390002F9763969FAD63970E94C494181664F498
:1043A00067961FAF67976B962FAE6B972F963FAEB2
:1043B0002F9763960FAF6397A796BFADA7972EA5CC
:1043C0003AA94AAD5EAD612F722D832D902FBB238C
:1043D00009F452C00E94C49418160CF068C04AA593
:1043E0005BA56CA57DA54419550966097709DB0114
:1043F000CA0188589341A109B109B7FD58C08EA9D7
:104400009FA9A8ADB9AD88199909AA09BB09EEA160
:10441000B595A79597958795E7FF03C08093B0085A
:1044200007C0CB57DF4FE881F981C558D040808362
:10443000E0964CAF5DAF6EAF7FAFE097FEA56F9695
:10444000FFAF6F972AA9A0962FAFA0973AADA1967C
:104450003FAFA1974EADA2964FAFA2978AA59BA55D
:10446000ACA5BDA5AC968CAF9DAFAEAFBFAFAC97C2
:10447000A7961FAEA7971BC00E949D8E87FF17C0EF
:104480008AA59BA5ACA5BDA5AC962CAD3DAD4EAD0A
:104490005FADAC97821B930BA40BB50BAC01BD01B8
:1044A000485853416109710977FD01C0ADC720E04B
:1044B00030E040EA51E46EA57AA98AAD9EAD0E9433
:1044C0009E929B01AC01612F722D832D902F0E9433
:1044D000C49418167CF4E9E6F6E084918F010F5F2E
:1044E0001F4F811103C00E9443757BC40E94AC4CD6
:1044F000F801F3CF8AA59BA5ACA5BDA5ED962CAD83
:104500003DAD4EAD5FADED97821B930BA40BB50B8C
:10451000B7FDA1C00E94E6678AE00E94AC4C8AA564
:104520009BA5ACA5BDA58053984FAF4FBF4FED964F
:104530008CAF9DAFAEAFBFAFED97A8969FADA897DC
:1045400091116EC0C358DF4F288139814A815B8148
:10455000CD57D040612F722D832D902F0E94C4948F
:1045600018160CF046C0E4962CAD3DAD4EAD5FADD7
:10457000E4976EA57AA98AAD9EAD0E949D929B019B
:10458000AC01A1E0A896AFAFA897612F722D832D43
:10459000902F0E94C49418161CF0A8961FAEA897DE
:1045A00020E030E040E050E4612F722D832D902F09
:1045B0000E949E92C358DF4F688379838A839B83CE
:1045C000CD57D0402AA53BA54CA55DA5E9968CAD5D
:1045D0009DADAEADBFADE997280F391F4A1F5B1FD8
:1045E000CF57DF4F288339834A835B83C158D0403C
:1045F00032C08AA59BA5ACA5BDA5CF57DF4F2881AA
:1046000039814A815B81C158D040821B930BA40B36
:10461000B50BB7FD20C04BE456E06AE576E018C064
:1046200020E030E040EA51E46EA57AA98AAD9EAD63
:104630000E949D929B01AC01612F722D832D902FC2
:104640000E949D8E87FF07C04BE256E06BE376E049
:104650008EA10E942C768AA59BA5ACA5BDA5880F2E
:10466000991FAA1FBB1FAC962CAD3DAD4EAD5FADE3
:10467000AC97821B930BA40BB50B84199509A60963
:10468000B70981389F44A241B10568F0EDE0F6E03A
:1046900084918F010F5F1F4F882309F424CF0E945C
:1046A000AC4CF801F5CF24964EAD5FAD2497A6969D
:1046B0008EAD9FADA697841795070CF012CEE0EB58
:1046C000F5E084918F010F5F1F4F882321F00E9436
:1046D000AC4CF801F6CF9EA197FD03C00CEF12E0A1
:1046E00002C00AE712E0B8018EE995E00E947E5D03
:1046F000B701A6018AE995E00E94485D8AE00E9420
:10470000AC4CB80188E895E00E947E5D2A964CADDD
:104710005DAD6EAD7FAD2A9784E895E00E94485D5F
:104720008AE00E94AC4CB80182E795E00E947E5D71
:104730002E964CAD5DAD6EAD7FAD2E978EE695E0BD
:104740000E94485D8AE00E94AC4CE596AFADE597CB
:10475000AA2309F446C3BEA1B7FF31C0C092F70D2A
:10476000D092F80DE092F90DF092FA0D2CEA35ECAA
:1047700047E25EE32A966CAD7DAD8EAD9FAD2A9784
:104780000E94028F6093F30D7093F40D8093F50DEA
:104790009093F60D2CEA35EC47E25EE32E966CAD75
:1047A0007DAD8EAD9FAD2E970E947A936093EF0DF5
:1047B0007093F00D8093F10D9093F20D12C3C0929F
:1047C000E70DD092E80DE092E90DF092EA0D2CEAA7
:1047D00035EC47E25EE32A966CAD7DAD8EAD9FADC4
:1047E0002A970E94028F6093E30D7093E40D8093EB
:1047F000E50D9093E60D2CEA35EC47E25EE32E964C
:104800006CAD7DAD8EAD9FAD2E970E947A93609377
:10481000EB0D7093EC0D8093ED0D9093EE0DE1C2D6
:1048200081E00E941C49DDC280E00E941C49D9C27F
:104830008091870E9091880EA091890EB0918A0E7A
:1048400089839A83AB83BC8380918B0E90918C0E6D
:10485000A0918D0EB0918E0E8D839E83AF83B8870D
:1048600080918F0E9091900EA091910EB091920E2A
:1048700089879A87AB87BC8786E50E94894B882306
:1048800021F08AE097E00E94DC7D83E50E94894B5D
:10489000882331F00E94474B182F0E94D34A01C051
:1048A00010E0F0904A08111103C0E9ECF7E01AC0DB
:1048B000F110FBCFEFECF7E084918F010F5F1F4FFA
:1048C000882321F00E94AC4CF801F6CFEBEEF6E025
:1048D00084918F010F5F1F4F882339F30E94AC4CE6
:1048E000F801F6CF84918F010F5F1F4F882321F0CD
:1048F0000E94AC4CF801F6CFF11003C062E872E000
:1049000002C06EE772E08DED96E00E947E5D8AE067
:104910000E94AC4C4CE050E067E87EE0CE0101968E
:104920000E94B195892B09F45CC20E94D93059C20A
:104930000E94FA2F811155C223EAA22E2AE0B22E3C
:10494000E7E8FEE0FFA3EEA39E012F5F3F4F490182
:104950000CEF1AE0190133E0300F3AA7F501659129
:10496000759185919491AEA1BFA1CD90DD90ED9010
:10497000FD90BFA3AEA3A70196010E949D922B01BB
:104980003C0120E030E040EA51EC0E94C49487FDF5
:1049900010C020E030E040EA51E4C301B2010E94BF
:1049A0009D8E181634F0F10140825182628273822A
:1049B0000DC0F80184911816B4F7F7FAF094F7F8DF
:1049C000F094F101C082D182E282F382D101CD90D4
:1049D000DD90ED90FD901D0120E030E040EA51ECCB
:1049E000C701B6010E94C49487FF03C0EFECF7E053
:1049F0000BC020E030E040EA51E4C701B6010E945C
:104A00009D8E1816C4F4F2CF84918F010F5F1F4F53
:104A1000882321F00E94AC4CF801F6CFE7E2F7E0E2
:104A200084918F010F5F1F4F882309F4DAC10E9420
:104A3000AC4CF801F5CFB4E0AB0EB11C0F5F1F4FCB
:104A4000EAA5E0138BCF9DE6E92E96E0F92E00E073
:104A500010E0F40181919191A191B1914F01F70181
:104A600081939193A193B1937F01C8010E94A849BA
:104A70000F5F1F4F0330110561F70E94D930B1C19C
:104A8000EFECF7E084918F010F5F1F4F882321F037
:104A90000E94AC4CF801F6CFE5E4F7E084918F0179
:104AA0000F5F1F4F882309F49CC10E94AC4CF80192
:104AB000F5CF0E94474480E00E943D4092C10E9491
:104AC00047448FC183E50E94894B882321F00E94CF
:104AD000474B91E089270E943D4083C184918F011B
:104AE0000F5F1F4F882321F00E94AC4CF801F6CFD6
:104AF000E2E7F7E084918F010F5F1F4F882321F0D9
:104B00000E94AC4CF801F6CF8AE50E94894B8823BD
:104B100069F10E94564B6B017C0120E030E040EAD5
:104B200051EC0E94C49487FF03C0E9E5F7E013C08D
:104B300020E030E040EA51E4C701B6010E949D8EBA
:104B400018169CF3C092830ED092840EE092850ECC
:104B5000F092860E0BC084918F010F5F1F4F882348
:104B600009F43FC10E94AC4CF801F5CF4091830E8F
:104B70005091840E6091850E7091860E86E597E0C7
:104B80000E94485D8AE00E94AC4C2BC182E4E82E72
:104B900082E0F82E8E010F5F1F4F6E01F9E0CF0EFD
:104BA000D11CD7018D917D010E94B84B882319F04B
:104BB0000E94264B02C060E070E0F801619371939F
:104BC0008F01EC15FD0569F749815A8166E472E0B1
:104BD00082E095E04115510519F00E94417002C034
:104BE0000E9419704B815C816CE472E080E894E073
:104BF0004115510519F00E94417002C00E941970C0
:104C00004D815E8162E572E08EEF93E041155105C2
:104C100019F00E94417002C00E9419704F8158859E
:104C200068E572E08CE793E04115510519F00E94A8
:104C30004170D7C00E941970D4C088E50E94894B8A
:104C4000182F89E50E94894BE82E8AE50E94894B3E
:104C5000F82E85E40E94894B082F111108C0E1103D
:104C600019C0F11024C08111B4C511E007C0EE20B5
:104C700011F0F11002C010E001C0182F66E472E0DC
:104C800082E095E00E94D06FE11005C0112309F485
:104C90009EC501C010E06CE472E080E894E00E94E0
:104CA000D06FF11005C0112309F493C501C010E0C5
:104CB00062E572E08EEF93E00E94D06F002339F03E
:104CC00068E572E08CE793E00E94D06F8AC0111112
:104CD000F7CF87C0EFECF7E084918F010F5F1F4F94
:104CE000882321F00E94AC4CF801F6CFE1E8F7E010
:104CF00084918F010F5F1F4F882309F472C00E94B7
:104D0000AC4CF801F5CF81E08093300283E50E943E
:104D1000B84B882319F00E94474B03C083E50E94DB
:104D2000894B81115EC00E9418815BC0F0909D0686
:104D3000FF2029F1E9ECF7E084918F010F5F1F4F0D
:104D4000882321F00E94AC4CF801F6CF84E50E9444
:104D5000AC4C6F2D70E080E090E04AE00E94A84FDC
:104D600080E20E94AC4C06E812E0D8018D918D01E2
:104D7000882311F40C94A5180E94AC4CF6CF109225
:104D80005E03E9ECF7E084918F010F5F1F4F8823EA
:104D900021F00E94AC4CF801F6CF60E070E080E9B1
:104DA00097E00E94655D8AE00E94AC4C1AC0E9EC75
:104DB000F7E084918F010F5F1F4F882321F00E943D
:104DC000AC4CF801F6CF6091A0067091A10682EA82
:104DD00097E00E947E5D82E20E94AC4C8AE00E94D5
:104DE000AC4C1092270F1092260F0E94F980F5C448
:104DF00080E00E94D34A0E948D4C85E40E94B84B0B
:104E0000882319F00E94474B03C085E40E94894B18
:104E100021E0482FBE016F5F7F4FCE0146960E9472
:104E2000067B6B017C019B01AC010E944A958111BC
:104E300031C02CEA35EC47E257E36E897F89888DD3
:104E4000998D0E949E92AB01BC0189EF91E00E9476
:104E5000B36F2CEA35EC47E257E369817A818B81A5
:104E60009C810E949E92AB01BC0184EF91E00E9464
:104E7000B36F2CEA35EC47E257E3C701B6010E9455
:104E80009E92AB01BC018FEE91E00E94B36F8AE06D
:104E90000E94AC4C0E94744C0E94D930A2CF61E0B9
:104EA000802F0E94F6626E2D802F0E942751F12CD8
:104EB000B701802F0E9432630930110509F091CFAC
:104EC000F0928508E09284088CCF0E94564B0E9495
:104ED000E2937093B9086093B80880E00E94F87478
:104EE0000E94564B20E030E04AEA52E40E949D8E38
:104EF000181614F0F1D702C00E94C67A0E94A48945
:104F000081E0809304021AA61BA61CA61DA61EA65D
:104F10001FA618AA19AA1EA21AAA5CE35AAF8CE10E
:104F20008EAF96E423969FAF2397C12CD12C80E8B7
:104F3000E82E9FEBF92E812C912C54016091B8083A
:104F40007091B908072E000C880B990B0E94A38E54
:104F5000162F072F782E692E262F372F482F592FDF
:104F6000B601C7010E949D8E8823D1F02091BA0816
:104F70003091BB084091BC085091BD08612F702F43
:104F8000872D962D0E949D8E881F8827881F8EA3AF
:104F9000AEA9AA2349F0882339F08091040221CFD9
:104FA0001C2D0D2D7E2C6F2C0E9432646B017C0118
:104FB000DC01CB012EA53FA548A959A9821B930B63
:104FC000A40BB50BB7FD3BC0D701C60188519C4F60
:104FD000AF4FBF4F8EA79FA7A8ABB9AB0E94E667A4
:104FE000E1E8F2E084912F019FEF491A590A8823E2
:104FF00021F00E94AC4CF201F5CF81149104A10480
:10500000B104B9F0D501C401805F984DAF4FBF4FD7
:10501000BC01CD016C197D098E099F0928EE33E092
:1050200040E050E00E946292CA01B9010E944A50D9
:1050300003C08FE30E94AC4C8AE00E94AC4C0E94FB
:105040001C7E0E94694C2090BA083090BB084090AA
:10505000BC085090BD089101A201612F702F872DCF
:10506000962D0E949D929F7781149104A104B10412
:1050700049F420E030E040E85FE30E949D8E87FF26
:105080000BC008C020E030E040E450E40E94C4942B
:10509000181614F446015701AEA1AA2399F12AA5C6
:1050A0003BA54CA55DA5211531054105510541F0F4
:1050B000D701C601821B930BA40BB50BB7FD22C011
:1050C0009101A2016AA97AAD8EAD23969FAD239777
:1050D0000E949D9220E030E040EC5FE30E949D8EB4
:1050E00087FD5BCFD701C601805A9541AF4FBF4FB7
:1050F0008AA79BA7ACA7BDA72AAA3AAE4EAE239615
:105100005FAE239780910402882309F446CF81146F
:105110009104A104B10429F4C12ED02EE72CF62C61
:105120000DCF90E1C91A97E2D90AE108F108C81831
:10513000D908EA08FB08F7FE30CFEECF0E94564BA5
:105140000E94E2936536710514F064E670E0709396
:10515000B7086093B6080E94AD740E94564B20E0D9
:1051600030E040EA50E40E94C494181614F40E94FF
:10517000C67A81E08093040280915E038093B10837
:105180001AA61BA61CA61DA61EA61FA618AA19AA0B
:105190001EA21AAAACE3AAAFBCE1BEAFE6E4239616
:1051A000EFAF2397C12CD12C10E8E12E0FEBF02E9E
:1051B000812C912C54016091B6087091B708072E8C
:1051C000000C880B990B0E94A38E162F072F782EA8
:1051D000692E262F372F482F592FB601C7010E945D
:1051E0009D8E8823D1F02091B2083091B308409170
:1051F000B4085091B508612F702F872D962D0E940D
:105200009D8E881F8827881F8EA3FEA9FF2349F043
:10521000882339F080910402E4CD1C2D0D2D7E2CC5
:105220006F2C0E9432646B017C01DC01CB012EA546
:105230003FA548A959A9821B930BA40BB50BB7FD39
:105240003BC0D701C60188519C4FAF4FBF4F8EA7BF
:105250009FA7A8ABB9AB0E94E667E5E8F2E08491AE
:105260002F019FEF491A590A882321F00E94AC4C64
:10527000F201F5CF81149104A104B104B9F0D50174
:10528000C401805F984DAF4FBF4FBC01CD016C1979
:105290007D098E099F0928EE33E040E050E00E942E
:1052A0006292CA01B9010E944A5003C08FE30E9472
:1052B000AC4C8AE00E94AC4C0E941C7E0E94694C5F
:1052C0002090B2083090B3084090B4085090B508D0
:1052D0009101A201612F702F872D962D0E949D9222
:1052E0009F7781149104A104B10449F420E030E0D7
:1052F00040E85FE30E949D8E87FF0BC008C020E05E
:1053000030E040E850E40E94C494181614F44601BA
:105310005701AEA1AA2399F12AA53BA54CA55DA5ED
:10532000211531054105510541F0D701C601821B08
:10533000930BA40BB50BB7FD22C09101A2016AA982
:105340007AAD8EAD23969FAD23970E949D9220E06B
:1053500030E040EC5FE30E949D8E87FD5BCFD7017C
:10536000C601805A9541AF4FBF4F8AA79BA7ACA7F4
:10537000BDA72AAA3AAE4EAE23965FAE2397809180
:105380000402882309F446CF81149104A104B104D6
:1053900029F4C12ED02EE72CF62C0DCF90E1C91A9E
:1053A00097E2D90AE108F108C818D908EA08FB0809
:1053B000F7FE30CFEECF0E946B7A88E50E94894BD2
:1053C000882319F05F9A1092640E89E50E94894B38
:1053D000882319F08A9A1092650E8AE50E94894BFB
:1053E000882351F09FB7F8948091080181608093E1
:1053F00008019FBF1092660E85E40E94894B8823A6
:1054000009F4EFCC129AEDCC24964EAD5FAD249703
:10541000452B09F477C1E0964CAC5DAC6EAC7FAC2B
:10542000E097480E591E6A1E7B1EE0962CAD3DADDE
:105430004EAD5FADE097281B390B4A0B5B0BCA01E1
:10544000B901A50194010E945392A30192010E9407
:105450008D958EA89FA8A8ACB9AC820E931EA41EF1
:10546000B51E34E183169104A104B1040CF14CEE95
:1054700084169104A104B1043CF450E8851691040B
:10548000A104B10434F422C06BEE862E912CA12C21
:10549000B12C8EAA9FAAA8AEB9AE8EEF90E0A0E084
:1054A000B0E088199909AA09BB094C015D0112C035
:1054B00024E130E040E050E02EAB3FAB48AF59AFC5
:1054C00054E1852E912CA12CB12C04C08EAA9FAA48
:1054D000A8AEB9AEE5EDF6E084919F012F5F3F4F96
:1054E0008823C1F0C957DF4F2883C758D040C85719
:1054F000DF4F3883C858D0400E94AC4CC957DF4FAB
:105500002881C758D040C857DF4F3881C858D0408D
:10551000F901E2CF6EA97FA988AD99AD0E944A50EA
:10552000E0EDF6E084919F012F5F3F4F8823C1F0AB
:10553000C957DF4F2883C758D040C857DF4F38833B
:10554000C858D0400E94AC4CC957DF4F2881C7587B
:10555000D040C857DF4F3881C858D040F901E2CF5A
:10556000C501B4010E944A5067964FAD67976B968C
:105570005FAD6B972F966FAD2F9763967FAD639757
:1055800089EC96E00E94485D6F964FAD6F97A096AC
:105590005FADA097A1966FADA197A2967FADA297A0
:1055A00082EC96E00E94485D24964EAD5FAD249754
:1055B000433051050CF4A6C0C501B4010E94A38E6E
:1055C00020E030E040E850E40E94028F6B017C0153
:1055D00067962FAD67976B963FAD6B972F964FAD44
:1055E0002F9763965FAD63976F966FAD6F97A09699
:1055F0007FADA097A1968FADA197A2969FADA297E0
:105600000E949D922BED3FE049E450E40E94028FFE
:1056100020E030E040E05FE30E94028F9B01AC019C
:10562000C701B6010E947A936B017C01C301B201EC
:105630000E94A38E2FE632E143E85AE30E94028FD4
:105640002B013C01B701A6018CEB96E00E94485D5E
:10565000B301A20186EB96E00E94485D2AE939E990
:1056600049E15FE3C701B6010E94028F6B017C0133
:105670009B01AC010E949E92A30192010E947A9329
:105680002A966CAF7DAF8EAF9FAF2A97A301920190
:10569000C701B6010E94028F20E030E040E05EE3E7
:1056A0000E94028F2E966CAF7DAF8EAF9FAF2E976C
:1056B000E6EAF6E084913F015FEF651A750A8823F8
:1056C00021F00E94AC4CF301F5CFB701A60180EAAE
:1056D00096E00E94485D2A964CAD5DAD6EAD7FAD03
:1056E0002A978AE996E00E94485D2E964CAD5DAD02
:1056F0006EAD7FAD2E9784E996E00E94485D8AE00A
:105700000E94AC4C8EA99FA9A8ADB9AD880D991D7A
:10571000AA1DBB1DEEA1B595A79597958795E7FFA7
:1057200003C08093B00807C0CB57DF4FE881F981F1
:10573000C558D040808324962EAD3FAD24972F5F6F
:105740003F4F24963FAF2EAF24973EA567963FAFBD
:1057500067974AA96B964FAF6B975AAD2F965FAF7D
:105760002F978EAD63968FAF63974AA45BA46CA40A
:105770007DA491E0A7969FAFA7970C9457220E9413
:105780006B7ABC2C60E08C2D0E94F6620F3FFFEF1D
:105790001F0759F48C2D0E94FE5031E020E0892B28
:1057A00009F030E0032F122F05C00130110561F020
:1057B00000E010E08B2D0E94FE508017910709F445
:1057C00010CB0E941C7EF6CF01E010E0F3CFF11069
:1057D0006FCA002309F405CB73CAC857DF4F0FB651
:1057E000F894DEBF0FBECDBFDF91CF911F910F9117
:1057F000FF90EF90DF90CF90BF90AF909F908F90F1
:105800007F906F905F904F903F902F900895BC01D4
:1058100080E090E04AE00E94A84F8DE00E94AC4CEE
:105820008AE00C94AC4C0CB405FC0DC01EBC00000E
:105830000DB407FEFDCF9EB51EBC00000DB407FEE3
:10584000FDCF8EB508951EBC00000DB407FEFDCF40
:105850008EB51EBC00000DB407FEFDCF9EB50895A9
:1058600027E030E0A0E0682F70E0B22FE0917603EF
:10587000F091770390917303AB01022E02C055950E
:1058800047950A94E2F7808140FF02C0982B02C03E
:10589000909598239083E0917A03F0917B03908117
:1058A00080917503892B8083E0917803F0917903CF
:1058B000408180917403482381E090E011F480E0FE
:1058C00090E001C0880FBA95EAF78A2BA82FE091E3
:1058D0007A03F0917B0350814091750340954523F5
:1058E00040832150310908F60895CF9380E0B8DF56
:1058F000C82F80E0B5DF2C2F30E0322F2227A901FE
:10590000482BCA01CF9108958F929F92AF92BF9278
:10591000DF92EF92FF920F931F93CF93DF93EC01EF
:105920007B018EEA97E4A1EEBDE388839983AA8385
:10593000BB8380E090E00E94A18E25ED34E045E33A
:1059400052E40E94028F20E030E04AE754E40E94D3
:105950007A934B015C0128EB3EE145E05EE30E9457
:10596000028F26E636E646EA5EE30E947A9320E05E
:1059700030E040E85FE30E949D920E94E793D62EBC
:105980008E01055A1F4F8FE08D1578F1F801808147
:105990009181A281B381A26080839183A283B3832A
:1059A000A8016CEECE010E9488642AE037ED43EA3C
:1059B0005CE3688179818A819B810E949E929B0130
:1059C000AC01C501B4010E94028F2CEE31E548E321
:1059D0005EE30E947A9320E030E040E85FE30E94BB
:1059E0009D920E94E793D62E16C0A8016CE6CE01C8
:1059F0000E948864F80180819181A281B381A1FF16
:105A00000AC0AD7F80839183A283B383A8016CEE2B
:105A1000CE010E9488648D2D90E0A0E0B0E0BA2F06
:105A2000A92F982F882788279F71AA27BB274B8DDE
:105A30005C8D6D8D7E8D507E842B952BA62BB72B88
:105A40008B8F9C8FAD8FBE8F8E01055E1F4FA8017F
:105A500060E9CE010E9488646D2D70E080E090E0E6
:105A60000E94A38E2DEC3CEC4CE45EE30E94028F7E
:105A70000E94E7936F718B8D9C8DAD8DBE8D807E66
:105A8000862B8B8F9C8FAD8FBE8FA80160E9CE01D6
:105A90000E948864C158DF4FF982E882DF91CF917C
:105AA0001F910F91FF90EF90DF90BF90AF909F906C
:105AB0008F900895AF92BF92CF92DF92EF92FF92B4
:105AC0000F931F93CF93DF93EC0168EC70E080E0BD
:105AD00090E00E94FA638F8598898F3F2FEF92079D
